{
  "address": "0x2404b89b03410BBFa4b8927aDF75902Ba6E66473",
  "abi": [
    {
      "inputs": [
        {
          "internalType": "address",
          "name": "_USDC_ADDRESS",
          "type": "address"
        },
        {
          "internalType": "address",
          "name": "_WETH",
          "type": "address"
        },
        {
          "internalType": "address",
          "name": "_UNISWAP_FACTORY",
          "type": "address"
        },
        {
          "internalType": "address",
          "name": "_TWAP_ORACLE_PRICE_FEED_FACTORY",
          "type": "address"
        }
      ],
      "stateMutability": "nonpayable",
      "type": "constructor"
    },
    {
      "anonymous": false,
      "inputs": [
        {
          "indexed": false,
          "internalType": "address",
          "name": "_sender",
          "type": "address"
        },
        {
          "indexed": false,
          "internalType": "address",
          "name": "_currency",
          "type": "address"
        }
      ],
      "name": "AddAvailableCurrency",
      "type": "event"
    },
    {
      "anonymous": false,
      "inputs": [
        {
          "indexed": false,
          "internalType": "address",
          "name": "_sender",
          "type": "address"
        },
        {
          "indexed": false,
          "internalType": "address",
          "name": "_gateway",
          "type": "address"
        }
      ],
      "name": "AddGateway",
      "type": "event"
    },
    {
      "anonymous": false,
      "inputs": [
        {
          "indexed": true,
          "internalType": "address",
          "name": "previousOwner",
          "type": "address"
        },
        {
          "indexed": true,
          "internalType": "address",
          "name": "newOwner",
          "type": "address"
        }
      ],
      "name": "OwnershipTransferred",
      "type": "event"
    },
    {
      "anonymous": false,
      "inputs": [
        {
          "indexed": false,
          "internalType": "address",
          "name": "_sender",
          "type": "address"
        },
        {
          "indexed": false,
          "internalType": "address",
          "name": "_currency",
          "type": "address"
        }
      ],
      "name": "RemoveAvailableCurrency",
      "type": "event"
    },
    {
      "anonymous": false,
      "inputs": [
        {
          "indexed": false,
          "internalType": "address",
          "name": "_sender",
          "type": "address"
        },
        {
          "indexed": false,
          "internalType": "address",
          "name": "_gateway",
          "type": "address"
        }
      ],
      "name": "RemoveGateway",
      "type": "event"
    },
    {
      "anonymous": false,
      "inputs": [
        {
          "indexed": false,
          "internalType": "address",
          "name": "_sender",
          "type": "address"
        },
        {
          "indexed": false,
          "internalType": "uint256",
          "name": "_slippage",
          "type": "uint256"
        }
      ],
      "name": "UpdateSlippage",
      "type": "event"
    },
    {
      "anonymous": false,
      "inputs": [
        {
          "indexed": false,
          "internalType": "address",
          "name": "_user",
          "type": "address"
        },
        {
          "indexed": false,
          "internalType": "uint256",
          "name": "_slippageRate",
          "type": "uint256"
        }
      ],
      "name": "UpdateSlippageRate",
      "type": "event"
    },
    {
      "anonymous": false,
      "inputs": [
        {
          "indexed": false,
          "internalType": "address",
          "name": "_user",
          "type": "address"
        },
        {
          "indexed": false,
          "internalType": "address",
          "name": "_to",
          "type": "address"
        },
        {
          "indexed": false,
          "internalType": "address",
          "name": "_token",
          "type": "address"
        },
        {
          "indexed": false,
          "internalType": "uint256",
          "name": "_amount",
          "type": "uint256"
        }
      ],
      "name": "WithdrawAsset",
      "type": "event"
    },
    {
      "inputs": [],
      "name": "SLIPPPAGE_RAGE",
      "outputs": [
        {
          "internalType": "uint256",
          "name": "",
          "type": "uint256"
        }
      ],
      "stateMutability": "view",
      "type": "function"
    },
    {
      "inputs": [],
      "name": "TWAP_ORACLE_PRICE_FEED_FACTORY",
      "outputs": [
        {
          "internalType": "address",
          "name": "",
          "type": "address"
        }
      ],
      "stateMutability": "view",
      "type": "function"
    },
    {
      "inputs": [],
      "name": "UNISWAP_FACTORY",
      "outputs": [
        {
          "internalType": "address",
          "name": "",
          "type": "address"
        }
      ],
      "stateMutability": "view",
      "type": "function"
    },
    {
      "inputs": [],
      "name": "USDC_ADDRESS",
      "outputs": [
        {
          "internalType": "address",
          "name": "",
          "type": "address"
        }
      ],
      "stateMutability": "view",
      "type": "function"
    },
    {
      "inputs": [],
      "name": "WETH",
      "outputs": [
        {
          "internalType": "address",
          "name": "",
          "type": "address"
        }
      ],
      "stateMutability": "view",
      "type": "function"
    },
    {
      "inputs": [
        {
          "internalType": "address",
          "name": "_currency",
          "type": "address"
        }
      ],
      "name": "addCurrency",
      "outputs": [],
      "stateMutability": "nonpayable",
      "type": "function"
    },
    {
      "inputs": [
        {
          "internalType": "address",
          "name": "_gateway",
          "type": "address"
        }
      ],
      "name": "addWhiteList",
      "outputs": [],
      "stateMutability": "nonpayable",
      "type": "function"
    },
    {
      "inputs": [
        {
          "internalType": "address",
          "name": "",
          "type": "address"
        }
      ],
      "name": "availableCurrencies",
      "outputs": [
        {
          "internalType": "bool",
          "name": "",
          "type": "bool"
        }
      ],
      "stateMutability": "view",
      "type": "function"
    },
    {
      "inputs": [
        {
          "internalType": "uint256",
          "name": "_desiredAmount",
          "type": "uint256"
        }
      ],
      "name": "getETHAmountForUSDC",
      "outputs": [
        {
          "internalType": "uint256",
          "name": "",
          "type": "uint256"
        }
      ],
      "stateMutability": "view",
      "type": "function"
    },
    {
      "inputs": [
        {
          "internalType": "address",
          "name": "_token0",
          "type": "address"
        },
        {
          "internalType": "address",
          "name": "_token1",
          "type": "address"
        },
        {
          "internalType": "uint256",
          "name": "_desiredAmount",
          "type": "uint256"
        }
      ],
      "name": "getNeededTokenAmount",
      "outputs": [
        {
          "internalType": "uint256",
          "name": "",
          "type": "uint256"
        }
      ],
      "stateMutability": "view",
      "type": "function"
    },
    {
      "inputs": [
        {
          "internalType": "address",
          "name": "_token",
          "type": "address"
        },
        {
          "internalType": "uint256",
          "name": "_desiredAmount",
          "type": "uint256"
        }
      ],
      "name": "getTokenAmountForETH",
      "outputs": [
        {
          "internalType": "uint256",
          "name": "",
          "type": "uint256"
        }
      ],
      "stateMutability": "view",
      "type": "function"
    },
    {
      "inputs": [
        {
          "internalType": "address",
          "name": "_token",
          "type": "address"
        },
        {
          "internalType": "uint256",
          "name": "_desiredAmount",
          "type": "uint256"
        }
      ],
      "name": "getTokenAmountForUSDC",
      "outputs": [
        {
          "internalType": "uint256",
          "name": "",
          "type": "uint256"
        }
      ],
      "stateMutability": "view",
      "type": "function"
    },
    {
      "inputs": [],
      "name": "owner",
      "outputs": [
        {
          "internalType": "address",
          "name": "",
          "type": "address"
        }
      ],
      "stateMutability": "view",
      "type": "function"
    },
    {
      "inputs": [
        {
          "internalType": "address",
          "name": "_currency",
          "type": "address"
        }
      ],
      "name": "removeCurrency",
      "outputs": [],
      "stateMutability": "nonpayable",
      "type": "function"
    },
    {
      "inputs": [
        {
          "internalType": "address",
          "name": "_gateway",
          "type": "address"
        }
      ],
      "name": "removeWhiteList",
      "outputs": [],
      "stateMutability": "nonpayable",
      "type": "function"
    },
    {
      "inputs": [],
      "name": "renounceOwnership",
      "outputs": [],
      "stateMutability": "nonpayable",
      "type": "function"
    },
    {
      "inputs": [
        {
          "internalType": "uint256",
          "name": "_slippageRate",
          "type": "uint256"
        }
      ],
      "name": "setSlippageRate",
      "outputs": [],
      "stateMutability": "nonpayable",
      "type": "function"
    },
    {
      "inputs": [
        {
          "internalType": "address",
          "name": "_token",
          "type": "address"
        },
        {
          "internalType": "uint256",
          "name": "_amount",
          "type": "uint256"
        },
        {
          "internalType": "uint256",
          "name": "_desiredAmount",
          "type": "uint256"
        }
      ],
      "name": "swapTokenWithETH",
      "outputs": [],
      "stateMutability": "nonpayable",
      "type": "function"
    },
    {
      "inputs": [
        {
          "internalType": "address",
          "name": "_token0",
          "type": "address"
        },
        {
          "internalType": "address",
          "name": "_token1",
          "type": "address"
        },
        {
          "internalType": "uint256",
          "name": "_amount",
          "type": "uint256"
        },
        {
          "internalType": "uint256",
          "name": "_desiredAmount",
          "type": "uint256"
        }
      ],
      "name": "swapTokenWithToken",
      "outputs": [],
      "stateMutability": "nonpayable",
      "type": "function"
    },
    {
      "inputs": [
        {
          "internalType": "address",
          "name": "newOwner",
          "type": "address"
        }
      ],
      "name": "transferOwnership",
      "outputs": [],
      "stateMutability": "nonpayable",
      "type": "function"
    },
    {
      "inputs": [
        {
          "internalType": "address",
          "name": "",
          "type": "address"
        }
      ],
      "name": "whiteList",
      "outputs": [
        {
          "internalType": "bool",
          "name": "",
          "type": "bool"
        }
      ],
      "stateMutability": "view",
      "type": "function"
    },
    {
      "inputs": [
        {
          "internalType": "address",
          "name": "_to",
          "type": "address"
        },
        {
          "internalType": "address",
          "name": "_token",
          "type": "address"
        },
        {
          "internalType": "uint256",
          "name": "_amount",
          "type": "uint256"
        }
      ],
      "name": "withdrawAsset",
      "outputs": [],
      "stateMutability": "nonpayable",
      "type": "function"
    },
    {
      "stateMutability": "payable",
      "type": "receive"
    }
  ],
  "transactionHash": "0x305e8f4215edee947ba7263555ee98ee96043c12e97641b9823c258e466179e4",
  "args": [
    "0xD4D5c5D939A173b9c18a6B72eEaffD98ecF8b3F6",
    "0xc778417e063141139fce010982780140aa0cd5ab",
    "0x5C69bEe701ef814a2B6a3EDD4B1652CB9cc5aA6f",
    "0x6fa8a7E5c13E4094fD4Fa288ba59544791E4c9d3"
  ],
  "solcInputHash": "a0d2d55f2bbc857784c2a47512b06797",
  "bytecode": "0x6101006040523480156200001257600080fd5b5060405162001c3d38038062001c3d8339810160408190526200003591620000e5565b600062000041620000c4565b600080546001600160a01b0319166001600160a01b0383169081178255604051929350917f8be0079c531659141344cd1fd0a4f28419497f9722a3daafe3b4186f6b6457e0908290a350600180556001600160601b0319606094851b811660805292841b831660a05290831b821660c05290911b1660e052606460045562000141565b3390565b80516001600160a01b0381168114620000e057600080fd5b919050565b60008060008060808587031215620000fb578384fd5b6200010685620000c8565b93506200011660208601620000c8565b92506200012660408601620000c8565b91506200013660608601620000c8565b905092959194509250565b60805160601c60a05160601c60c05160601c60e05160601c611a77620001c6600039600081816109b901528181610ea80152611169015260008181610b4f015261108b015260008181610558015281816106a801528181610a1101528181610a3b015261102b0152600081816106c9015281816109e30152610a620152611a776000f3fe6080604052600436106101595760003560e01c80638ab234b6116100bb578063ba560ed91161007f578063c74c0fac11610059578063c74c0fac146103b5578063e7cd4a04146103ca578063f2fde38b146103ea57610160565b8063ba560ed914610360578063bb09d9b714610380578063c5d3a1071461039557610160565b80638ab234b6146102d45780638da5cb5b146102f457806390600a3114610316578063a9a12d431461032b578063ad5c46481461034b57610160565b806334899be61161011d578063715018a6116100f7578063715018a61461027f578063759362311461029457806380dcc456146102b457610160565b806334899be61461021f578063372c12b11461023f578063531a22111461025f57610160565b8063092ae4dc146101655780630de43334146101875780631af42c0f146101a75780631d514c7e146101dd5780632042e5c2146101ff57610160565b3661016057005b600080fd5b34801561017157600080fd5b506101856101803660046113a5565b61040a565b005b34801561019357600080fd5b506101856101a2366004611455565b6104c3565b3480156101b357600080fd5b506101c76101c236600461136d565b610588565b6040516101d491906115a7565b60405180910390f35b3480156101e957600080fd5b506101f261059d565b6040516101d491906119b4565b34801561020b57600080fd5b5061018561021a36600461136d565b6105a3565b34801561022b57600080fd5b506101f261023a3660046113a5565b610677565b34801561024b57600080fd5b506101c761025a36600461136d565b61068c565b34801561026b57600080fd5b506101f261027a3660046114a9565b6106a1565b34801561028b57600080fd5b506101856106f4565b3480156102a057600080fd5b506101856102af3660046114a9565b61078a565b3480156102c057600080fd5b506101856102cf3660046113e5565b610835565b3480156102e057600080fd5b506101856102ef36600461136d565b6108db565b34801561030057600080fd5b506103096109a8565b6040516101d49190611512565b34801561032257600080fd5b506103096109b7565b34801561033757600080fd5b506101f261034636600461142a565b6109db565b34801561035757600080fd5b50610309610a0f565b34801561036c57600080fd5b506101f261037b36600461142a565b610a33565b34801561038c57600080fd5b50610309610a60565b3480156103a157600080fd5b506101856103b036600461136d565b610a84565b3480156103c157600080fd5b50610309610b4d565b3480156103d657600080fd5b506101856103e536600461136d565b610b71565b3480156103f657600080fd5b5061018561040536600461136d565b610c3e565b610412610d0b565b6001600160a01b03166104236109a8565b6001600160a01b0316146104525760405162461bcd60e51b8152600401610449906117c5565b60405180910390fd5b6001600160a01b03821661046f5761046a8382610d0f565b61047a565b61047a828483610da1565b7f37e6496681d2c16ab49733a2a6cf0916ebaa3e90250d01f84cec59f546d8cf246104a36109a8565b8484846040516104b69493929190611540565b60405180910390a1505050565b3360008181526002602052604090205460ff166104f25760405162461bcd60e51b81526004016104499061196a565b600260015414156105155760405162461bcd60e51b815260040161044990611933565b60026001556001600160a01b03841660009081526003602052604090205460ff166105525760405162461bcd60e51b8152600401610449906118ec565b61057e847f00000000000000000000000000000000000000000000000000000000000000008585610e8e565b5050600180555050565b60036020526000908152604090205460ff1681565b60045481565b6105ab610d0b565b6001600160a01b03166105bc6109a8565b6001600160a01b0316146105e25760405162461bcd60e51b8152600401610449906117c5565b6001600160a01b03811660009081526002602052604090205460ff1661061a5760405162461bcd60e51b815260040161044990611831565b6001600160a01b03811660009081526002602052604090819020805460ff19169055517f7e6f9151585e8b3778ba2f0d9d91dc061e2fd37fcb944b8ee141c84985a13dbe9061066c9033908490611526565b60405180910390a150565b6000610684848484611086565b949350505050565b60026020526000908152604090205460ff1681565b60006106ee7f00000000000000000000000000000000000000000000000000000000000000007f000000000000000000000000000000000000000000000000000000000000000084611086565b92915050565b6106fc610d0b565b6001600160a01b031661070d6109a8565b6001600160a01b0316146107335760405162461bcd60e51b8152600401610449906117c5565b600080546040516001600160a01b03909116907f8be0079c531659141344cd1fd0a4f28419497f9722a3daafe3b4186f6b6457e0908390a36000805473ffffffffffffffffffffffffffffffffffffffff19169055565b610792610d0b565b6001600160a01b03166107a36109a8565b6001600160a01b0316146107c95760405162461bcd60e51b8152600401610449906117c5565b6000811180156107d95750606481105b6107f55760405162461bcd60e51b8152600401610449906116b2565b6108008160646119dd565b6004556040517ffcca991c5968ee2af646885daaeb76b668081650d5e2c0fe21ce84ad2aedbac39061066c903390849061158e565b3360008181526002602052604090205460ff166108645760405162461bcd60e51b81526004016104499061196a565b600260015414156108875760405162461bcd60e51b815260040161044990611933565b60026001556001600160a01b03851660009081526003602052604090205460ff166108c45760405162461bcd60e51b8152600401610449906118ec565b6108d085858585610e8e565b505060018055505050565b6108e3610d0b565b6001600160a01b03166108f46109a8565b6001600160a01b03161461091a5760405162461bcd60e51b8152600401610449906117c5565b6001600160a01b03811660009081526003602052604090205460ff16156109535760405162461bcd60e51b8152600401610449906116e9565b6001600160a01b03811660009081526003602052604090819020805460ff19166001179055517fa132450832b0928b2d3be444848d1f495f5805231e4b7f79754f16d6283b8d989061066c9033908490611526565b6000546001600160a01b031690565b7f000000000000000000000000000000000000000000000000000000000000000081565b6000610a08837f000000000000000000000000000000000000000000000000000000000000000084611086565b9392505050565b7f000000000000000000000000000000000000000000000000000000000000000081565b6000610a08837f000000000000000000000000000000000000000000000000000000000000000084611086565b7f000000000000000000000000000000000000000000000000000000000000000081565b610a8c610d0b565b6001600160a01b0316610a9d6109a8565b6001600160a01b031614610ac35760405162461bcd60e51b8152600401610449906117c5565b6001600160a01b03811660009081526003602052604090205460ff16610afb5760405162461bcd60e51b8152600401610449906117fa565b6001600160a01b03811660009081526003602052604090819020805460ff19169055517fedf2bbb4f22f648b36e323e9c29c8cf011823f4ab40e5c29e09bd50e0073e81b9061066c9033908490611526565b7f000000000000000000000000000000000000000000000000000000000000000081565b610b79610d0b565b6001600160a01b0316610b8a6109a8565b6001600160a01b031614610bb05760405162461bcd60e51b8152600401610449906117c5565b6001600160a01b03811660009081526002602052604090205460ff1615610be95760405162461bcd60e51b815260040161044990611757565b6001600160a01b03811660009081526002602052604090819020805460ff19166001179055517f952f8c896a9d6bb519a6046a342215dda6844c05ea9bbfb0e118b17c349ff67e9061066c9033908490611526565b610c46610d0b565b6001600160a01b0316610c576109a8565b6001600160a01b031614610c7d5760405162461bcd60e51b8152600401610449906117c5565b6001600160a01b038116610ca35760405162461bcd60e51b8152600401610449906115b2565b600080546040516001600160a01b03808516939216917f8be0079c531659141344cd1fd0a4f28419497f9722a3daafe3b4186f6b6457e091a36000805473ffffffffffffffffffffffffffffffffffffffff19166001600160a01b0392909216919091179055565b3390565b604080516000808252602082019092526001600160a01b038416908390604051610d3991906114d9565b60006040518083038185875af1925050503d8060008114610d76576040519150601f19603f3d011682016040523d82523d6000602084013e610d7b565b606091505b5050905080610d9c5760405162461bcd60e51b815260040161044990611655565b505050565b600080846001600160a01b031663a9059cbb8585604051602401610dc692919061158e565b6040516020818303038152906040529060e01b6020820180516001600160e01b038381831617835250505050604051610dff91906114d9565b6000604051808303816000865af19150503d8060008114610e3c576040519150601f19603f3d011682016040523d82523d6000602084013e610e41565b606091505b5091509150818015610e6b575080511580610e6b575080806020019051810190610e6b9190611489565b610e875760405162461bcd60e51b81526004016104499061189f565b5050505050565b604051632de7797560e11b81526000906001600160a01b037f00000000000000000000000000000000000000000000000000000000000000001690635bcef2ea90610edf9088908890600401611526565b60206040518083038186803b158015610ef757600080fd5b505afa158015610f0b573d6000803e3d6000fd5b505050506040513d601f19601f82011682018060405250810190610f2f9190611389565b90506000816001600160a01b0316633ddac95387866040518363ffffffff1660e01b8152600401610f6192919061158e565b60206040518083038186803b158015610f7957600080fd5b505afa158015610f8d573d6000803e3d6000fd5b505050506040513d601f19601f82011682018060405250810190610fb191906114c1565b905047811115610fd35760405162461bcd60e51b81526004016104499061178e565b6000612710600454612710610fe891906119fc565b610ff290866119dd565b610ffc91906119bd565b905080821161101d5760405162461bcd60e51b815260040161044990611868565b6110298733308861127d565b7f00000000000000000000000000000000000000000000000000000000000000006001600160a01b0316866001600160a01b031614156110725761106d3385610d0f565b61107d565b61107d863386610da1565b50505050505050565b6000807f00000000000000000000000000000000000000000000000000000000000000006001600160a01b031663e6a4390586866040518363ffffffff1660e01b81526004016110d7929190611526565b60206040518083038186803b1580156110ef57600080fd5b505afa158015611103573d6000803e3d6000fd5b505050506040513d601f19601f820116820180604052508101906111279190611389565b90506001600160a01b03811661114f5760405162461bcd60e51b815260040161044990611720565b604051632de7797560e11b81526000906001600160a01b037f00000000000000000000000000000000000000000000000000000000000000001690635bcef2ea906111a09089908990600401611526565b60206040518083038186803b1580156111b857600080fd5b505afa1580156111cc573d6000803e3d6000fd5b505050506040513d601f19601f820116820180604052508101906111f09190611389565b90506000816001600160a01b0316633ddac95387876040518363ffffffff1660e01b815260040161122292919061158e565b60206040518083038186803b15801561123a57600080fd5b505afa15801561124e573d6000803e3d6000fd5b505050506040513d601f19601f8201168201806040525081019061127291906114c1565b979650505050505050565b600080856001600160a01b03166323b872dd8686866040516024016112a49392919061156a565b6040516020818303038152906040529060e01b6020820180516001600160e01b0383818316178352505050506040516112dd91906114d9565b6000604051808303816000865af19150503d806000811461131a576040519150601f19603f3d011682016040523d82523d6000602084013e61131f565b606091505b50915091508180156113495750805115806113495750808060200190518101906113499190611489565b6113655760405162461bcd60e51b8152600401610449906115f8565b505050505050565b60006020828403121561137e578081fd5b8135610a0881611a29565b60006020828403121561139a578081fd5b8151610a0881611a29565b6000806000606084860312156113b9578182fd5b83356113c481611a29565b925060208401356113d481611a29565b929592945050506040919091013590565b600080600080608085870312156113fa578081fd5b843561140581611a29565b9350602085013561141581611a29565b93969395505050506040820135916060013590565b6000806040838503121561143c578182fd5b823561144781611a29565b946020939093013593505050565b600080600060608486031215611469578283fd5b833561147481611a29565b95602085013595506040909401359392505050565b60006020828403121561149a578081fd5b81518015158114610a08578182fd5b6000602082840312156114ba578081fd5b5035919050565b6000602082840312156114d2578081fd5b5051919050565b60008251815b818110156114f957602081860181015185830152016114df565b818111156115075782828501525b509190910192915050565b6001600160a01b0391909116815260200190565b6001600160a01b0392831681529116602082015260400190565b6001600160a01b039485168152928416602084015292166040820152606081019190915260800190565b6001600160a01b039384168152919092166020820152604081019190915260600190565b6001600160a01b03929092168252602082015260400190565b901515815260200190565b60208082526026908201527f4f776e61626c653a206e6577206f776e657220697320746865207a65726f206160408201526564647265737360d01b606082015260800190565b60208082526031908201527f5472616e7366657248656c7065723a3a7472616e7366657246726f6d3a20747260408201527f616e7366657246726f6d206661696c6564000000000000000000000000000000606082015260800190565b60208082526034908201527f5472616e7366657248656c7065723a3a736166655472616e736665724554483a60408201527f20455448207472616e73666572206661696c6564000000000000000000000000606082015260800190565b6020808252600e908201527f4f766572666c6f772072616e6765000000000000000000000000000000000000604082015260600190565b60208082526011908201527f416c726561647920617661696c61626c65000000000000000000000000000000604082015260600190565b6020808252600f908201527f54686572652773206e6f20706169720000000000000000000000000000000000604082015260600190565b60208082526014908201527f416c7265616479207768697465206c6973746564000000000000000000000000604082015260600190565b60208082526018908201527f496e73756666696369656e74204554482062616c616e63650000000000000000604082015260600190565b6020808252818101527f4f776e61626c653a2063616c6c6572206973206e6f7420746865206f776e6572604082015260600190565b60208082526011908201527f4e6f7420617661696c61626c6520796574000000000000000000000000000000604082015260600190565b60208082526010908201527f4e6f74207768697465206c697374656400000000000000000000000000000000604082015260600190565b60208082526013908201527f4f766572666c6f77206d696e20616d6f756e7400000000000000000000000000604082015260600190565b6020808252602d908201527f5472616e7366657248656c7065723a3a736166655472616e736665723a20747260408201526c185b9cd9995c8819985a5b1959609a1b606082015260800190565b60208082526027908201527f546f6b656e2073686f756c6420626520616464656420696e20617661696c61626040820152661b19481b1a5cdd60ca1b606082015260800190565b6020808252601f908201527f5265656e7472616e637947756172643a207265656e7472616e742063616c6c00604082015260600190565b6020808252602a908201527f4f6e6c79207768697465206c697374656420616464726573736573206172652060408201526961636365707461626c6560b01b606082015260800190565b90815260200190565b6000826119d857634e487b7160e01b81526012600452602481fd5b500490565b60008160001904831182151516156119f7576119f7611a13565b500290565b600082821015611a0e57611a0e611a13565b500390565b634e487b7160e01b600052601160045260246000fd5b6001600160a01b0381168114611a3e57600080fd5b5056fea264697066735822122036e44f2d899a2a1728d27adbda17aff1a968e48e3cba2bb955b8c2ae09e6222e64736f6c63430008000033",
  "devdoc": {
    "details": "This smart contract is for getting CVR_ETH, CVR_USDT price",
    "kind": "dev",
    "methods": {
      "getNeededTokenAmount(address,address,uint256)": {
        "details": "Get needed _token0 amount for _desiredAmount of _token1"
      },
      "owner()": {
        "details": "Returns the address of the current owner."
      },
      "renounceOwnership()": {
        "details": "Leaves the contract without owner. It will not be possible to call `onlyOwner` functions anymore. Can only be called by the current owner. NOTE: Renouncing ownership will leave the contract without an owner, thereby removing any functionality that is only available to the owner."
      },
      "swapTokenWithETH(address,uint256,uint256)": {
        "params": {
          "_amount": ": this one is the value with decimals"
        }
      },
      "transferOwnership(address)": {
        "details": "Transfers ownership of the contract to a new account (`newOwner`). Can only be called by the current owner."
      }
    },
    "version": 1
  },
  "userdoc": {
    "kind": "user",
    "methods": {},
    "version": 1
  },
  "storageLayout": {
    "storage": [
      {
        "astId": 534,
        "contract": "contracts/ExchangeAgent.sol:ExchangeAgent",
        "label": "_owner",
        "offset": 0,
        "slot": "0",
        "type": "t_address"
      },
      {
        "astId": 647,
        "contract": "contracts/ExchangeAgent.sol:ExchangeAgent",
        "label": "_status",
        "offset": 0,
        "slot": "1",
        "type": "t_uint256"
      },
      {
        "astId": 1613,
        "contract": "contracts/ExchangeAgent.sol:ExchangeAgent",
        "label": "whiteList",
        "offset": 0,
        "slot": "2",
        "type": "t_mapping(t_address,t_bool)"
      },
      {
        "astId": 1617,
        "contract": "contracts/ExchangeAgent.sol:ExchangeAgent",
        "label": "availableCurrencies",
        "offset": 0,
        "slot": "3",
        "type": "t_mapping(t_address,t_bool)"
      },
      {
        "astId": 1627,
        "contract": "contracts/ExchangeAgent.sol:ExchangeAgent",
        "label": "SLIPPPAGE_RAGE",
        "offset": 0,
        "slot": "4",
        "type": "t_uint256"
      }
    ],
    "types": {
      "t_address": {
        "encoding": "inplace",
        "label": "address",
        "numberOfBytes": "20"
      },
      "t_bool": {
        "encoding": "inplace",
        "label": "bool",
        "numberOfBytes": "1"
      },
      "t_mapping(t_address,t_bool)": {
        "encoding": "mapping",
        "key": "t_address",
        "label": "mapping(address => bool)",
        "numberOfBytes": "32",
        "value": "t_bool"
      },
      "t_uint256": {
        "encoding": "inplace",
        "label": "uint256",
        "numberOfBytes": "32"
      }
    }
  }
}