{
  "address": "0x5640B69a5e1375a95e610052c5eedfea17675996",
  "abi": [
    {
      "inputs": [
        {
          "internalType": "address",
          "name": "_USDC_ADDRESS",
          "type": "address"
        },
        {
          "internalType": "address",
          "name": "_WETH",
          "type": "address"
        },
        {
          "internalType": "address",
          "name": "_UNISWAP_FACTORY",
          "type": "address"
        },
        {
          "internalType": "address",
          "name": "_TWAP_ORACLE_PRICE_FEED_FACTORY",
          "type": "address"
        }
      ],
      "stateMutability": "nonpayable",
      "type": "constructor"
    },
    {
      "anonymous": false,
      "inputs": [
        {
          "indexed": false,
          "internalType": "address",
          "name": "_sender",
          "type": "address"
        },
        {
          "indexed": false,
          "internalType": "address",
          "name": "_currency",
          "type": "address"
        }
      ],
      "name": "AddAvailableCurrency",
      "type": "event"
    },
    {
      "anonymous": false,
      "inputs": [
        {
          "indexed": false,
          "internalType": "address",
          "name": "_sender",
          "type": "address"
        },
        {
          "indexed": false,
          "internalType": "address",
          "name": "_gateway",
          "type": "address"
        }
      ],
      "name": "AddGateway",
      "type": "event"
    },
    {
      "anonymous": false,
      "inputs": [
        {
          "indexed": true,
          "internalType": "address",
          "name": "previousOwner",
          "type": "address"
        },
        {
          "indexed": true,
          "internalType": "address",
          "name": "newOwner",
          "type": "address"
        }
      ],
      "name": "OwnershipTransferred",
      "type": "event"
    },
    {
      "anonymous": false,
      "inputs": [
        {
          "indexed": false,
          "internalType": "address",
          "name": "_sender",
          "type": "address"
        },
        {
          "indexed": false,
          "internalType": "address",
          "name": "_currency",
          "type": "address"
        }
      ],
      "name": "RemoveAvailableCurrency",
      "type": "event"
    },
    {
      "anonymous": false,
      "inputs": [
        {
          "indexed": false,
          "internalType": "address",
          "name": "_sender",
          "type": "address"
        },
        {
          "indexed": false,
          "internalType": "address",
          "name": "_gateway",
          "type": "address"
        }
      ],
      "name": "RemoveGateway",
      "type": "event"
    },
    {
      "anonymous": false,
      "inputs": [
        {
          "indexed": false,
          "internalType": "address",
          "name": "_sender",
          "type": "address"
        },
        {
          "indexed": false,
          "internalType": "uint256",
          "name": "_slippage",
          "type": "uint256"
        }
      ],
      "name": "UpdateSlippage",
      "type": "event"
    },
    {
      "anonymous": false,
      "inputs": [
        {
          "indexed": false,
          "internalType": "address",
          "name": "_user",
          "type": "address"
        },
        {
          "indexed": false,
          "internalType": "uint256",
          "name": "_slippageRate",
          "type": "uint256"
        }
      ],
      "name": "UpdateSlippageRate",
      "type": "event"
    },
    {
      "anonymous": false,
      "inputs": [
        {
          "indexed": false,
          "internalType": "address",
          "name": "_user",
          "type": "address"
        },
        {
          "indexed": false,
          "internalType": "address",
          "name": "_to",
          "type": "address"
        },
        {
          "indexed": false,
          "internalType": "address",
          "name": "_token",
          "type": "address"
        },
        {
          "indexed": false,
          "internalType": "uint256",
          "name": "_amount",
          "type": "uint256"
        }
      ],
      "name": "WithdrawAsset",
      "type": "event"
    },
    {
      "inputs": [],
      "name": "SLIPPPAGE_RAGE",
      "outputs": [
        {
          "internalType": "uint256",
          "name": "",
          "type": "uint256"
        }
      ],
      "stateMutability": "view",
      "type": "function"
    },
    {
      "inputs": [],
      "name": "TWAP_ORACLE_PRICE_FEED_FACTORY",
      "outputs": [
        {
          "internalType": "address",
          "name": "",
          "type": "address"
        }
      ],
      "stateMutability": "view",
      "type": "function"
    },
    {
      "inputs": [],
      "name": "UNISWAP_FACTORY",
      "outputs": [
        {
          "internalType": "address",
          "name": "",
          "type": "address"
        }
      ],
      "stateMutability": "view",
      "type": "function"
    },
    {
      "inputs": [],
      "name": "USDC_ADDRESS",
      "outputs": [
        {
          "internalType": "address",
          "name": "",
          "type": "address"
        }
      ],
      "stateMutability": "view",
      "type": "function"
    },
    {
      "inputs": [],
      "name": "WETH",
      "outputs": [
        {
          "internalType": "address",
          "name": "",
          "type": "address"
        }
      ],
      "stateMutability": "view",
      "type": "function"
    },
    {
      "inputs": [
        {
          "internalType": "address",
          "name": "_currency",
          "type": "address"
        }
      ],
      "name": "addCurrency",
      "outputs": [],
      "stateMutability": "nonpayable",
      "type": "function"
    },
    {
      "inputs": [
        {
          "internalType": "address",
          "name": "_gateway",
          "type": "address"
        }
      ],
      "name": "addWhiteList",
      "outputs": [],
      "stateMutability": "nonpayable",
      "type": "function"
    },
    {
      "inputs": [
        {
          "internalType": "address",
          "name": "",
          "type": "address"
        }
      ],
      "name": "availableCurrencies",
      "outputs": [
        {
          "internalType": "bool",
          "name": "",
          "type": "bool"
        }
      ],
      "stateMutability": "view",
      "type": "function"
    },
    {
      "inputs": [],
      "name": "discountPercentage",
      "outputs": [
        {
          "internalType": "uint256",
          "name": "",
          "type": "uint256"
        }
      ],
      "stateMutability": "view",
      "type": "function"
    },
    {
      "inputs": [
        {
          "internalType": "uint256",
          "name": "_desiredAmount",
          "type": "uint256"
        }
      ],
      "name": "getETHAmountForUSDC",
      "outputs": [
        {
          "internalType": "uint256",
          "name": "",
          "type": "uint256"
        }
      ],
      "stateMutability": "view",
      "type": "function"
    },
    {
      "inputs": [
        {
          "internalType": "address",
          "name": "_token0",
          "type": "address"
        },
        {
          "internalType": "address",
          "name": "_token1",
          "type": "address"
        },
        {
          "internalType": "uint256",
          "name": "_desiredAmount",
          "type": "uint256"
        }
      ],
      "name": "getNeededTokenAmount",
      "outputs": [
        {
          "internalType": "uint256",
          "name": "",
          "type": "uint256"
        }
      ],
      "stateMutability": "view",
      "type": "function"
    },
    {
      "inputs": [
        {
          "internalType": "address",
          "name": "_token",
          "type": "address"
        },
        {
          "internalType": "uint256",
          "name": "_desiredAmount",
          "type": "uint256"
        }
      ],
      "name": "getTokenAmountForETH",
      "outputs": [
        {
          "internalType": "uint256",
          "name": "",
          "type": "uint256"
        }
      ],
      "stateMutability": "view",
      "type": "function"
    },
    {
      "inputs": [
        {
          "internalType": "address",
          "name": "_token",
          "type": "address"
        },
        {
          "internalType": "uint256",
          "name": "_desiredAmount",
          "type": "uint256"
        }
      ],
      "name": "getTokenAmountForUSDC",
      "outputs": [
        {
          "internalType": "uint256",
          "name": "",
          "type": "uint256"
        }
      ],
      "stateMutability": "view",
      "type": "function"
    },
    {
      "inputs": [],
      "name": "owner",
      "outputs": [
        {
          "internalType": "address",
          "name": "",
          "type": "address"
        }
      ],
      "stateMutability": "view",
      "type": "function"
    },
    {
      "inputs": [
        {
          "internalType": "address",
          "name": "_currency",
          "type": "address"
        }
      ],
      "name": "removeCurrency",
      "outputs": [],
      "stateMutability": "nonpayable",
      "type": "function"
    },
    {
      "inputs": [
        {
          "internalType": "address",
          "name": "_gateway",
          "type": "address"
        }
      ],
      "name": "removeWhiteList",
      "outputs": [],
      "stateMutability": "nonpayable",
      "type": "function"
    },
    {
      "inputs": [],
      "name": "renounceOwnership",
      "outputs": [],
      "stateMutability": "nonpayable",
      "type": "function"
    },
    {
      "inputs": [
        {
          "internalType": "uint256",
          "name": "_discountPercentage",
          "type": "uint256"
        }
      ],
      "name": "setDiscountPercentage",
      "outputs": [],
      "stateMutability": "nonpayable",
      "type": "function"
    },
    {
      "inputs": [
        {
          "internalType": "uint256",
          "name": "_slippageRate",
          "type": "uint256"
        }
      ],
      "name": "setSlippageRate",
      "outputs": [],
      "stateMutability": "nonpayable",
      "type": "function"
    },
    {
      "inputs": [
        {
          "internalType": "address",
          "name": "_token",
          "type": "address"
        },
        {
          "internalType": "uint256",
          "name": "_amount",
          "type": "uint256"
        },
        {
          "internalType": "uint256",
          "name": "_desiredAmount",
          "type": "uint256"
        }
      ],
      "name": "swapTokenWithETH",
      "outputs": [],
      "stateMutability": "nonpayable",
      "type": "function"
    },
    {
      "inputs": [
        {
          "internalType": "address",
          "name": "_token0",
          "type": "address"
        },
        {
          "internalType": "address",
          "name": "_token1",
          "type": "address"
        },
        {
          "internalType": "uint256",
          "name": "_amount",
          "type": "uint256"
        },
        {
          "internalType": "uint256",
          "name": "_desiredAmount",
          "type": "uint256"
        }
      ],
      "name": "swapTokenWithToken",
      "outputs": [],
      "stateMutability": "nonpayable",
      "type": "function"
    },
    {
      "inputs": [
        {
          "internalType": "address",
          "name": "newOwner",
          "type": "address"
        }
      ],
      "name": "transferOwnership",
      "outputs": [],
      "stateMutability": "nonpayable",
      "type": "function"
    },
    {
      "inputs": [
        {
          "internalType": "address",
          "name": "",
          "type": "address"
        }
      ],
      "name": "whiteList",
      "outputs": [
        {
          "internalType": "bool",
          "name": "",
          "type": "bool"
        }
      ],
      "stateMutability": "view",
      "type": "function"
    },
    {
      "inputs": [
        {
          "internalType": "address",
          "name": "_to",
          "type": "address"
        },
        {
          "internalType": "address",
          "name": "_token",
          "type": "address"
        },
        {
          "internalType": "uint256",
          "name": "_amount",
          "type": "uint256"
        }
      ],
      "name": "withdrawAsset",
      "outputs": [],
      "stateMutability": "nonpayable",
      "type": "function"
    },
    {
      "stateMutability": "payable",
      "type": "receive"
    }
  ],
  "transactionHash": "0x21dd6ed18a1fa04f3047260ae5926f17c1bdab75398f7b526bf90e2860a3d345",
  "args": [
    "0xD4D5c5D939A173b9c18a6B72eEaffD98ecF8b3F6",
    "0xc778417e063141139fce010982780140aa0cd5ab",
    "0x5C69bEe701ef814a2B6a3EDD4B1652CB9cc5aA6f",
    "0x6fa8a7E5c13E4094fD4Fa288ba59544791E4c9d3"
  ],
  "solcInputHash": "896d387407b386e692494019f0580bd9",
  "bytecode": "0x610100604052604b6005553480156200001757600080fd5b5060405162001d7e38038062001d7e8339810160408190526200003a91620000ea565b600062000046620000c9565b600080546001600160a01b0319166001600160a01b0383169081178255604051929350917f8be0079c531659141344cd1fd0a4f28419497f9722a3daafe3b4186f6b6457e0908290a350600180556001600160601b0319606094851b811660805292841b831660a05290831b821660c05290911b1660e052606460045562000146565b3390565b80516001600160a01b0381168114620000e557600080fd5b919050565b6000806000806080858703121562000100578384fd5b6200010b85620000cd565b93506200011b60208601620000cd565b92506200012b60408601620000cd565b91506200013b60608601620000cd565b905092959194509250565b60805160601c60a05160601c60c05160601c60e05160601c611bb3620001cb60003960008181610a2401528181610f5d015261121e015260008181610c0401526111400152600081816105c30152818161071301528181610a7c01528181610af001526110e001526000818161073401528181610a4e0152610b170152611bb36000f3fe60806040526004361061018f5760003560e01c80638da5cb5b116100d6578063ba560ed91161007f578063c74c0fac11610059578063c74c0fac14610420578063e7cd4a0414610435578063f2fde38b1461045557610196565b8063ba560ed9146103cb578063bb09d9b7146103eb578063c5d3a1071461040057610196565b8063ad5c4648116100b0578063ad5c464814610381578063b3428d1514610396578063b3fa9f24146103b657610196565b80638da5cb5b1461032a57806390600a311461034c578063a9a12d431461036157610196565b8063372c12b111610138578063759362311161011257806375936231146102ca57806380dcc456146102ea5780638ab234b61461030a57610196565b8063372c12b114610275578063531a221114610295578063715018a6146102b557610196565b80631d514c7e116101695780631d514c7e146102135780632042e5c21461023557806334899be61461025557610196565b8063092ae4dc1461019b5780630de43334146101bd5780631af42c0f146101dd57610196565b3661019657005b600080fd5b3480156101a757600080fd5b506101bb6101b636600461149d565b610475565b005b3480156101c957600080fd5b506101bb6101d836600461154d565b61052e565b3480156101e957600080fd5b506101fd6101f8366004611465565b6105f3565b60405161020a919061169f565b60405180910390f35b34801561021f57600080fd5b50610228610608565b60405161020a9190611af0565b34801561024157600080fd5b506101bb610250366004611465565b61060e565b34801561026157600080fd5b5061022861027036600461149d565b6106e2565b34801561028157600080fd5b506101fd610290366004611465565b6106f7565b3480156102a157600080fd5b506102286102b03660046115a1565b61070c565b3480156102c157600080fd5b506101bb61075f565b3480156102d657600080fd5b506101bb6102e53660046115a1565b6107f5565b3480156102f657600080fd5b506101bb6103053660046114dd565b6108a0565b34801561031657600080fd5b506101bb610325366004611465565b610946565b34801561033657600080fd5b5061033f610a13565b60405161020a919061160a565b34801561035857600080fd5b5061033f610a22565b34801561036d57600080fd5b5061022861037c366004611522565b610a46565b34801561038d57600080fd5b5061033f610a7a565b3480156103a257600080fd5b506101bb6103b13660046115a1565b610a9e565b3480156103c257600080fd5b50610228610ae2565b3480156103d757600080fd5b506102286103e6366004611522565b610ae8565b3480156103f757600080fd5b5061033f610b15565b34801561040c57600080fd5b506101bb61041b366004611465565b610b39565b34801561042c57600080fd5b5061033f610c02565b34801561044157600080fd5b506101bb610450366004611465565b610c26565b34801561046157600080fd5b506101bb610470366004611465565b610cf3565b61047d610dc0565b6001600160a01b031661048e610a13565b6001600160a01b0316146104bd5760405162461bcd60e51b81526004016104b490611901565b60405180910390fd5b6001600160a01b0382166104da576104d58382610dc4565b6104e5565b6104e5828483610e56565b7f37e6496681d2c16ab49733a2a6cf0916ebaa3e90250d01f84cec59f546d8cf2461050e610a13565b8484846040516105219493929190611638565b60405180910390a1505050565b3360008181526002602052604090205460ff1661055d5760405162461bcd60e51b81526004016104b490611aa6565b600260015414156105805760405162461bcd60e51b81526004016104b490611a6f565b60026001556001600160a01b03841660009081526003602052604090205460ff166105bd5760405162461bcd60e51b81526004016104b490611a28565b6105e9847f00000000000000000000000000000000000000000000000000000000000000008585610f43565b5050600180555050565b60036020526000908152604090205460ff1681565b60045481565b610616610dc0565b6001600160a01b0316610627610a13565b6001600160a01b03161461064d5760405162461bcd60e51b81526004016104b490611901565b6001600160a01b03811660009081526002602052604090205460ff166106855760405162461bcd60e51b81526004016104b49061196d565b6001600160a01b03811660009081526002602052604090819020805460ff19169055517f7e6f9151585e8b3778ba2f0d9d91dc061e2fd37fcb944b8ee141c84985a13dbe906106d7903390849061161e565b60405180910390a150565b60006106ef84848461113b565b949350505050565b60026020526000908152604090205460ff1681565b60006107597f00000000000000000000000000000000000000000000000000000000000000007f00000000000000000000000000000000000000000000000000000000000000008461113b565b92915050565b610767610dc0565b6001600160a01b0316610778610a13565b6001600160a01b03161461079e5760405162461bcd60e51b81526004016104b490611901565b600080546040516001600160a01b03909116907f8be0079c531659141344cd1fd0a4f28419497f9722a3daafe3b4186f6b6457e0908390a36000805473ffffffffffffffffffffffffffffffffffffffff19169055565b6107fd610dc0565b6001600160a01b031661080e610a13565b6001600160a01b0316146108345760405162461bcd60e51b81526004016104b490611901565b6000811180156108445750606481105b6108605760405162461bcd60e51b81526004016104b4906117aa565b61086b816064611b19565b6004556040517ffcca991c5968ee2af646885daaeb76b668081650d5e2c0fe21ce84ad2aedbac3906106d79033908490611686565b3360008181526002602052604090205460ff166108cf5760405162461bcd60e51b81526004016104b490611aa6565b600260015414156108f25760405162461bcd60e51b81526004016104b490611a6f565b60026001556001600160a01b03851660009081526003602052604090205460ff1661092f5760405162461bcd60e51b81526004016104b490611a28565b61093b85858585610f43565b505060018055505050565b61094e610dc0565b6001600160a01b031661095f610a13565b6001600160a01b0316146109855760405162461bcd60e51b81526004016104b490611901565b6001600160a01b03811660009081526003602052604090205460ff16156109be5760405162461bcd60e51b81526004016104b4906117e1565b6001600160a01b03811660009081526003602052604090819020805460ff19166001179055517fa132450832b0928b2d3be444848d1f495f5805231e4b7f79754f16d6283b8d98906106d7903390849061161e565b6000546001600160a01b031690565b7f000000000000000000000000000000000000000000000000000000000000000081565b6000610a73837f00000000000000000000000000000000000000000000000000000000000000008461113b565b9392505050565b7f000000000000000000000000000000000000000000000000000000000000000081565b610aa6610dc0565b6001600160a01b0316610ab7610a13565b6001600160a01b031614610add5760405162461bcd60e51b81526004016104b490611901565b600555565b60055481565b6000610a73837f00000000000000000000000000000000000000000000000000000000000000008461113b565b7f000000000000000000000000000000000000000000000000000000000000000081565b610b41610dc0565b6001600160a01b0316610b52610a13565b6001600160a01b031614610b785760405162461bcd60e51b81526004016104b490611901565b6001600160a01b03811660009081526003602052604090205460ff16610bb05760405162461bcd60e51b81526004016104b490611936565b6001600160a01b03811660009081526003602052604090819020805460ff19169055517fedf2bbb4f22f648b36e323e9c29c8cf011823f4ab40e5c29e09bd50e0073e81b906106d7903390849061161e565b7f000000000000000000000000000000000000000000000000000000000000000081565b610c2e610dc0565b6001600160a01b0316610c3f610a13565b6001600160a01b031614610c655760405162461bcd60e51b81526004016104b490611901565b6001600160a01b03811660009081526002602052604090205460ff1615610c9e5760405162461bcd60e51b81526004016104b490611893565b6001600160a01b03811660009081526002602052604090819020805460ff19166001179055517f952f8c896a9d6bb519a6046a342215dda6844c05ea9bbfb0e118b17c349ff67e906106d7903390849061161e565b610cfb610dc0565b6001600160a01b0316610d0c610a13565b6001600160a01b031614610d325760405162461bcd60e51b81526004016104b490611901565b6001600160a01b038116610d585760405162461bcd60e51b81526004016104b4906116aa565b600080546040516001600160a01b03808516939216917f8be0079c531659141344cd1fd0a4f28419497f9722a3daafe3b4186f6b6457e091a36000805473ffffffffffffffffffffffffffffffffffffffff19166001600160a01b0392909216919091179055565b3390565b604080516000808252602082019092526001600160a01b038416908390604051610dee91906115d1565b60006040518083038185875af1925050503d8060008114610e2b576040519150601f19603f3d011682016040523d82523d6000602084013e610e30565b606091505b5050905080610e515760405162461bcd60e51b81526004016104b49061174d565b505050565b600080846001600160a01b031663a9059cbb8585604051602401610e7b929190611686565b6040516020818303038152906040529060e01b6020820180516001600160e01b038381831617835250505050604051610eb491906115d1565b6000604051808303816000865af19150503d8060008114610ef1576040519150601f19603f3d011682016040523d82523d6000602084013e610ef6565b606091505b5091509150818015610f20575080511580610f20575080806020019051810190610f209190611581565b610f3c5760405162461bcd60e51b81526004016104b4906119db565b5050505050565b604051632de7797560e11b81526000906001600160a01b037f00000000000000000000000000000000000000000000000000000000000000001690635bcef2ea90610f94908890889060040161161e565b60206040518083038186803b158015610fac57600080fd5b505afa158015610fc0573d6000803e3d6000fd5b505050506040513d601f19601f82011682018060405250810190610fe49190611481565b90506000816001600160a01b0316633ddac95387866040518363ffffffff1660e01b8152600401611016929190611686565b60206040518083038186803b15801561102e57600080fd5b505afa158015611042573d6000803e3d6000fd5b505050506040513d601f19601f8201168201806040525081019061106691906115b9565b9050478111156110885760405162461bcd60e51b81526004016104b4906118ca565b600061271060045461271061109d9190611b38565b6110a79086611b19565b6110b19190611af9565b90508082116110d25760405162461bcd60e51b81526004016104b4906119a4565b6110de87333088611375565b7f00000000000000000000000000000000000000000000000000000000000000006001600160a01b0316866001600160a01b03161415611127576111223385610dc4565b611132565b611132863386610e56565b50505050505050565b6000807f00000000000000000000000000000000000000000000000000000000000000006001600160a01b031663e6a4390586866040518363ffffffff1660e01b815260040161118c92919061161e565b60206040518083038186803b1580156111a457600080fd5b505afa1580156111b8573d6000803e3d6000fd5b505050506040513d601f19601f820116820180604052508101906111dc9190611481565b90506001600160a01b0381166112045760405162461bcd60e51b81526004016104b49061185c565b604051632de7797560e11b81526000906001600160a01b037f00000000000000000000000000000000000000000000000000000000000000001690635bcef2ea90611255908990899060040161161e565b60206040518083038186803b15801561126d57600080fd5b505afa158015611281573d6000803e3d6000fd5b505050506040513d601f19601f820116820180604052508101906112a59190611481565b90506001600160a01b0381166112cd5760405162461bcd60e51b81526004016104b490611818565b604051633ddac95360e01b81526000906001600160a01b03831690633ddac953906112fe9089908990600401611686565b60206040518083038186803b15801561131657600080fd5b505afa15801561132a573d6000803e3d6000fd5b505050506040513d601f19601f8201168201806040525081019061134e91906115b9565b90506064600554826113609190611b19565b61136a9190611af9565b979650505050505050565b600080856001600160a01b03166323b872dd86868660405160240161139c93929190611662565b6040516020818303038152906040529060e01b6020820180516001600160e01b0383818316178352505050506040516113d591906115d1565b6000604051808303816000865af19150503d8060008114611412576040519150601f19603f3d011682016040523d82523d6000602084013e611417565b606091505b50915091508180156114415750805115806114415750808060200190518101906114419190611581565b61145d5760405162461bcd60e51b81526004016104b4906116f0565b505050505050565b600060208284031215611476578081fd5b8135610a7381611b65565b600060208284031215611492578081fd5b8151610a7381611b65565b6000806000606084860312156114b1578182fd5b83356114bc81611b65565b925060208401356114cc81611b65565b929592945050506040919091013590565b600080600080608085870312156114f2578081fd5b84356114fd81611b65565b9350602085013561150d81611b65565b93969395505050506040820135916060013590565b60008060408385031215611534578182fd5b823561153f81611b65565b946020939093013593505050565b600080600060608486031215611561578283fd5b833561156c81611b65565b95602085013595506040909401359392505050565b600060208284031215611592578081fd5b81518015158114610a73578182fd5b6000602082840312156115b2578081fd5b5035919050565b6000602082840312156115ca578081fd5b5051919050565b60008251815b818110156115f157602081860181015185830152016115d7565b818111156115ff5782828501525b509190910192915050565b6001600160a01b0391909116815260200190565b6001600160a01b0392831681529116602082015260400190565b6001600160a01b039485168152928416602084015292166040820152606081019190915260800190565b6001600160a01b039384168152919092166020820152604081019190915260600190565b6001600160a01b03929092168252602082015260400190565b901515815260200190565b60208082526026908201527f4f776e61626c653a206e6577206f776e657220697320746865207a65726f206160408201526564647265737360d01b606082015260800190565b60208082526031908201527f5472616e7366657248656c7065723a3a7472616e7366657246726f6d3a20747260408201527f616e7366657246726f6d206661696c6564000000000000000000000000000000606082015260800190565b60208082526034908201527f5472616e7366657248656c7065723a3a736166655472616e736665724554483a60408201527f20455448207472616e73666572206661696c6564000000000000000000000000606082015260800190565b6020808252600e908201527f4f766572666c6f772072616e6765000000000000000000000000000000000000604082015260600190565b60208082526011908201527f416c726561647920617661696c61626c65000000000000000000000000000000604082015260600190565b60208082526024908201527f54686572652773206e6f2074776170206f7261636c6520666f722074686973206040820152633830b4b960e11b606082015260800190565b6020808252600f908201527f54686572652773206e6f20706169720000000000000000000000000000000000604082015260600190565b60208082526014908201527f416c7265616479207768697465206c6973746564000000000000000000000000604082015260600190565b60208082526018908201527f496e73756666696369656e74204554482062616c616e63650000000000000000604082015260600190565b6020808252818101527f4f776e61626c653a2063616c6c6572206973206e6f7420746865206f776e6572604082015260600190565b60208082526011908201527f4e6f7420617661696c61626c6520796574000000000000000000000000000000604082015260600190565b60208082526010908201527f4e6f74207768697465206c697374656400000000000000000000000000000000604082015260600190565b60208082526013908201527f4f766572666c6f77206d696e20616d6f756e7400000000000000000000000000604082015260600190565b6020808252602d908201527f5472616e7366657248656c7065723a3a736166655472616e736665723a20747260408201526c185b9cd9995c8819985a5b1959609a1b606082015260800190565b60208082526027908201527f546f6b656e2073686f756c6420626520616464656420696e20617661696c61626040820152661b19481b1a5cdd60ca1b606082015260800190565b6020808252601f908201527f5265656e7472616e637947756172643a207265656e7472616e742063616c6c00604082015260600190565b6020808252602a908201527f4f6e6c79207768697465206c697374656420616464726573736573206172652060408201526961636365707461626c6560b01b606082015260800190565b90815260200190565b600082611b1457634e487b7160e01b81526012600452602481fd5b500490565b6000816000190483118215151615611b3357611b33611b4f565b500290565b600082821015611b4a57611b4a611b4f565b500390565b634e487b7160e01b600052601160045260246000fd5b6001600160a01b0381168114611b7a57600080fd5b5056fea2646970667358221220ca322000c380cbf639a101915611c7f5d73f04d2da9d3453ee4f8de38a7e9ffb64736f6c63430008000033",
  "devdoc": {
    "details": "This smart contract is for getting CVR_ETH, CVR_USDT price",
    "kind": "dev",
    "methods": {
      "getNeededTokenAmount(address,address,uint256)": {
        "details": "Get needed _token0 amount for _desiredAmount of _token1"
      },
      "owner()": {
        "details": "Returns the address of the current owner."
      },
      "renounceOwnership()": {
        "details": "Leaves the contract without owner. It will not be possible to call `onlyOwner` functions anymore. Can only be called by the current owner. NOTE: Renouncing ownership will leave the contract without an owner, thereby removing any functionality that is only available to the owner."
      },
      "swapTokenWithETH(address,uint256,uint256)": {
        "params": {
          "_amount": ": this one is the value with decimals"
        }
      },
      "transferOwnership(address)": {
        "details": "Transfers ownership of the contract to a new account (`newOwner`). Can only be called by the current owner."
      }
    },
    "version": 1
  },
  "userdoc": {
    "kind": "user",
    "methods": {
      "discountPercentage()": {
        "notice": "when users try to use CVR to buy products, we will discount some percentage(25% at first stage)"
      },
      "getTokenAmountForETH(address,uint256)": {
        "notice": "get needed _token amount for _desiredAmount of ETH"
      },
      "getTokenAmountForUSDC(address,uint256)": {
        "notice": "get needed _token amount for _desiredAmount of USDC"
      }
    },
    "version": 1
  },
  "storageLayout": {
    "storage": [
      {
        "astId": 534,
        "contract": "contracts/ExchangeAgent.sol:ExchangeAgent",
        "label": "_owner",
        "offset": 0,
        "slot": "0",
        "type": "t_address"
      },
      {
        "astId": 647,
        "contract": "contracts/ExchangeAgent.sol:ExchangeAgent",
        "label": "_status",
        "offset": 0,
        "slot": "1",
        "type": "t_uint256"
      },
      {
        "astId": 1613,
        "contract": "contracts/ExchangeAgent.sol:ExchangeAgent",
        "label": "whiteList",
        "offset": 0,
        "slot": "2",
        "type": "t_mapping(t_address,t_bool)"
      },
      {
        "astId": 1617,
        "contract": "contracts/ExchangeAgent.sol:ExchangeAgent",
        "label": "availableCurrencies",
        "offset": 0,
        "slot": "3",
        "type": "t_mapping(t_address,t_bool)"
      },
      {
        "astId": 1627,
        "contract": "contracts/ExchangeAgent.sol:ExchangeAgent",
        "label": "SLIPPPAGE_RAGE",
        "offset": 0,
        "slot": "4",
        "type": "t_uint256"
      },
      {
        "astId": 1631,
        "contract": "contracts/ExchangeAgent.sol:ExchangeAgent",
        "label": "discountPercentage",
        "offset": 0,
        "slot": "5",
        "type": "t_uint256"
      }
    ],
    "types": {
      "t_address": {
        "encoding": "inplace",
        "label": "address",
        "numberOfBytes": "20"
      },
      "t_bool": {
        "encoding": "inplace",
        "label": "bool",
        "numberOfBytes": "1"
      },
      "t_mapping(t_address,t_bool)": {
        "encoding": "mapping",
        "key": "t_address",
        "label": "mapping(address => bool)",
        "numberOfBytes": "32",
        "value": "t_bool"
      },
      "t_uint256": {
        "encoding": "inplace",
        "label": "uint256",
        "numberOfBytes": "32"
      }
    }
  }
}