{
  "address": "0x98b9F6a9E25e497b135a4751C6ad291912f3c2BE",
  "abi": [
    {
      "inputs": [
        {
          "internalType": "address",
          "name": "_CVR",
          "type": "address"
        },
        {
          "internalType": "address",
          "name": "_exchangeAgent",
          "type": "address"
        },
        {
          "internalType": "address",
          "name": "_coverContractAddress",
          "type": "address"
        }
      ],
      "stateMutability": "nonpayable",
      "type": "constructor"
    },
    {
      "anonymous": false,
      "inputs": [
        {
          "indexed": false,
          "internalType": "uint16[]",
          "name": "productIds",
          "type": "uint16[]"
        },
        {
          "indexed": false,
          "internalType": "address",
          "name": "_buyer",
          "type": "address"
        },
        {
          "indexed": false,
          "internalType": "address",
          "name": "_currency",
          "type": "address"
        },
        {
          "indexed": false,
          "internalType": "address",
          "name": "_token",
          "type": "address"
        },
        {
          "indexed": false,
          "internalType": "uint256",
          "name": "_amount",
          "type": "uint256"
        }
      ],
      "name": "BuyInsureAce",
      "type": "event"
    },
    {
      "anonymous": false,
      "inputs": [
        {
          "indexed": true,
          "internalType": "uint256",
          "name": "_productId",
          "type": "uint256"
        },
        {
          "indexed": false,
          "internalType": "address",
          "name": "_buyer",
          "type": "address"
        }
      ],
      "name": "BuyProduct",
      "type": "event"
    },
    {
      "anonymous": false,
      "inputs": [
        {
          "indexed": false,
          "internalType": "address",
          "name": "userAddress",
          "type": "address"
        },
        {
          "indexed": false,
          "internalType": "address payable",
          "name": "relayerAddress",
          "type": "address"
        },
        {
          "indexed": false,
          "internalType": "bytes",
          "name": "functionSignature",
          "type": "bytes"
        }
      ],
      "name": "MetaTransactionExecuted",
      "type": "event"
    },
    {
      "anonymous": false,
      "inputs": [
        {
          "indexed": true,
          "internalType": "address",
          "name": "previousOwner",
          "type": "address"
        },
        {
          "indexed": true,
          "internalType": "address",
          "name": "newOwner",
          "type": "address"
        }
      ],
      "name": "OwnershipTransferred",
      "type": "event"
    },
    {
      "anonymous": false,
      "inputs": [
        {
          "indexed": false,
          "internalType": "address",
          "name": "account",
          "type": "address"
        }
      ],
      "name": "Paused",
      "type": "event"
    },
    {
      "anonymous": false,
      "inputs": [
        {
          "indexed": false,
          "internalType": "address",
          "name": "_setter",
          "type": "address"
        },
        {
          "indexed": false,
          "internalType": "address",
          "name": "_exchangeAgent",
          "type": "address"
        }
      ],
      "name": "SetExchangeAgent",
      "type": "event"
    },
    {
      "anonymous": false,
      "inputs": [
        {
          "indexed": false,
          "internalType": "address",
          "name": "account",
          "type": "address"
        }
      ],
      "name": "Unpaused",
      "type": "event"
    },
    {
      "anonymous": false,
      "inputs": [
        {
          "indexed": false,
          "internalType": "address",
          "name": "_user",
          "type": "address"
        },
        {
          "indexed": false,
          "internalType": "address",
          "name": "_to",
          "type": "address"
        },
        {
          "indexed": false,
          "internalType": "address",
          "name": "_token",
          "type": "address"
        },
        {
          "indexed": false,
          "internalType": "uint256",
          "name": "_amount",
          "type": "uint256"
        }
      ],
      "name": "WithdrawAsset",
      "type": "event"
    },
    {
      "inputs": [],
      "name": "WETH",
      "outputs": [
        {
          "internalType": "address",
          "name": "",
          "type": "address"
        }
      ],
      "stateMutability": "view",
      "type": "function"
    },
    {
      "inputs": [
        {
          "internalType": "address",
          "name": "_currency",
          "type": "address"
        }
      ],
      "name": "addCurrency",
      "outputs": [],
      "stateMutability": "nonpayable",
      "type": "function"
    },
    {
      "inputs": [
        {
          "internalType": "address",
          "name": "",
          "type": "address"
        }
      ],
      "name": "availableCurrencies",
      "outputs": [
        {
          "internalType": "bool",
          "name": "",
          "type": "bool"
        }
      ],
      "stateMutability": "view",
      "type": "function"
    },
    {
      "inputs": [
        {
          "internalType": "uint16[]",
          "name": "products",
          "type": "uint16[]"
        },
        {
          "internalType": "uint16[]",
          "name": "durationInDays",
          "type": "uint16[]"
        },
        {
          "internalType": "uint256[]",
          "name": "amounts",
          "type": "uint256[]"
        },
        {
          "internalType": "address",
          "name": "currency",
          "type": "address"
        },
        {
          "internalType": "uint256",
          "name": "referralCode",
          "type": "uint256"
        },
        {
          "internalType": "uint256",
          "name": "premiumAmount",
          "type": "uint256"
        },
        {
          "internalType": "uint256[]",
          "name": "helperParameters",
          "type": "uint256[]"
        },
        {
          "internalType": "uint256[]",
          "name": "securityParameters",
          "type": "uint256[]"
        },
        {
          "internalType": "uint8[]",
          "name": "v",
          "type": "uint8[]"
        },
        {
          "internalType": "bytes32[]",
          "name": "r",
          "type": "bytes32[]"
        },
        {
          "internalType": "bytes32[]",
          "name": "s",
          "type": "bytes32[]"
        }
      ],
      "name": "buyCoverByETH",
      "outputs": [],
      "stateMutability": "payable",
      "type": "function"
    },
    {
      "inputs": [
        {
          "internalType": "uint16[]",
          "name": "products",
          "type": "uint16[]"
        },
        {
          "internalType": "uint16[]",
          "name": "durationInDays",
          "type": "uint16[]"
        },
        {
          "internalType": "uint256[]",
          "name": "amounts",
          "type": "uint256[]"
        },
        {
          "internalType": "address",
          "name": "currency",
          "type": "address"
        },
        {
          "internalType": "address",
          "name": "_token",
          "type": "address"
        },
        {
          "internalType": "uint256",
          "name": "referralCode",
          "type": "uint256"
        },
        {
          "internalType": "uint256",
          "name": "premiumAmount",
          "type": "uint256"
        },
        {
          "internalType": "uint256[]",
          "name": "helperParameters",
          "type": "uint256[]"
        },
        {
          "internalType": "uint256[]",
          "name": "securityParameters",
          "type": "uint256[]"
        },
        {
          "internalType": "uint8[]",
          "name": "v",
          "type": "uint8[]"
        },
        {
          "internalType": "bytes32[]",
          "name": "r",
          "type": "bytes32[]"
        },
        {
          "internalType": "bytes32[]",
          "name": "s",
          "type": "bytes32[]"
        }
      ],
      "name": "buyCoverByToken",
      "outputs": [],
      "stateMutability": "payable",
      "type": "function"
    },
    {
      "inputs": [],
      "name": "coverContractAddress",
      "outputs": [
        {
          "internalType": "address",
          "name": "",
          "type": "address"
        }
      ],
      "stateMutability": "view",
      "type": "function"
    },
    {
      "inputs": [],
      "name": "exchangeAgent",
      "outputs": [
        {
          "internalType": "address",
          "name": "",
          "type": "address"
        }
      ],
      "stateMutability": "view",
      "type": "function"
    },
    {
      "inputs": [
        {
          "internalType": "address",
          "name": "userAddress",
          "type": "address"
        },
        {
          "internalType": "bytes",
          "name": "functionSignature",
          "type": "bytes"
        },
        {
          "internalType": "bytes32",
          "name": "sigR",
          "type": "bytes32"
        },
        {
          "internalType": "bytes32",
          "name": "sigS",
          "type": "bytes32"
        },
        {
          "internalType": "uint8",
          "name": "sigV",
          "type": "uint8"
        }
      ],
      "name": "executeMetaTransaction",
      "outputs": [
        {
          "internalType": "bytes",
          "name": "",
          "type": "bytes"
        }
      ],
      "stateMutability": "payable",
      "type": "function"
    },
    {
      "inputs": [
        {
          "internalType": "address",
          "name": "user",
          "type": "address"
        }
      ],
      "name": "getNonce",
      "outputs": [
        {
          "internalType": "uint256",
          "name": "nonce",
          "type": "uint256"
        }
      ],
      "stateMutability": "view",
      "type": "function"
    },
    {
      "inputs": [],
      "name": "owner",
      "outputs": [
        {
          "internalType": "address",
          "name": "",
          "type": "address"
        }
      ],
      "stateMutability": "view",
      "type": "function"
    },
    {
      "inputs": [],
      "name": "pause",
      "outputs": [],
      "stateMutability": "nonpayable",
      "type": "function"
    },
    {
      "inputs": [],
      "name": "paused",
      "outputs": [
        {
          "internalType": "bool",
          "name": "",
          "type": "bool"
        }
      ],
      "stateMutability": "view",
      "type": "function"
    },
    {
      "inputs": [],
      "name": "productIds",
      "outputs": [
        {
          "internalType": "uint256",
          "name": "_value",
          "type": "uint256"
        }
      ],
      "stateMutability": "view",
      "type": "function"
    },
    {
      "inputs": [
        {
          "internalType": "address",
          "name": "_currency",
          "type": "address"
        }
      ],
      "name": "removeCurrency",
      "outputs": [],
      "stateMutability": "nonpayable",
      "type": "function"
    },
    {
      "inputs": [],
      "name": "renounceOwnership",
      "outputs": [],
      "stateMutability": "nonpayable",
      "type": "function"
    },
    {
      "inputs": [
        {
          "internalType": "address",
          "name": "_exchangeAgent",
          "type": "address"
        }
      ],
      "name": "setExchangeAgent",
      "outputs": [],
      "stateMutability": "nonpayable",
      "type": "function"
    },
    {
      "inputs": [
        {
          "internalType": "address",
          "name": "_coverContractAddress",
          "type": "address"
        }
      ],
      "name": "setup",
      "outputs": [],
      "stateMutability": "nonpayable",
      "type": "function"
    },
    {
      "inputs": [
        {
          "internalType": "address",
          "name": "newOwner",
          "type": "address"
        }
      ],
      "name": "transferOwnership",
      "outputs": [],
      "stateMutability": "nonpayable",
      "type": "function"
    },
    {
      "inputs": [],
      "name": "unpause",
      "outputs": [],
      "stateMutability": "nonpayable",
      "type": "function"
    },
    {
      "inputs": [
        {
          "internalType": "address",
          "name": "owner",
          "type": "address"
        },
        {
          "internalType": "uint256",
          "name": "nonce",
          "type": "uint256"
        },
        {
          "internalType": "uint256",
          "name": "chainID",
          "type": "uint256"
        },
        {
          "internalType": "bytes",
          "name": "functionSignature",
          "type": "bytes"
        },
        {
          "internalType": "bytes32",
          "name": "sigR",
          "type": "bytes32"
        },
        {
          "internalType": "bytes32",
          "name": "sigS",
          "type": "bytes32"
        },
        {
          "internalType": "uint8",
          "name": "sigV",
          "type": "uint8"
        }
      ],
      "name": "verify",
      "outputs": [
        {
          "internalType": "bool",
          "name": "",
          "type": "bool"
        }
      ],
      "stateMutability": "view",
      "type": "function"
    },
    {
      "inputs": [
        {
          "internalType": "address",
          "name": "_token",
          "type": "address"
        },
        {
          "internalType": "address",
          "name": "_to",
          "type": "address"
        },
        {
          "internalType": "uint256",
          "name": "_amount",
          "type": "uint256"
        }
      ],
      "name": "withdrawAsset",
      "outputs": [],
      "stateMutability": "nonpayable",
      "type": "function"
    },
    {
      "stateMutability": "payable",
      "type": "receive"
    }
  ],
  "transactionHash": "0xab71e4bd0c27fc54bc17a75cbb8a49e7bfa37310bd845e42ac4077b3649ef3b5",
  "args": [
    "0xd3e48FAcD30A73609ffA60AE84851e72d10fEa52",
    "0x9717cA3f6b5E560d244D41791D5760316d2b7bFE",
    "0x0921f628b8463227615D2199D0D3860E4fBcD411"
  ],
  "solcInputHash": "402f1543afb350be708cd1fbe1e6e8a3",
  "bytecode": "0x60806040523480156200001157600080fd5b50604051620026c8380380620026c883398101604081905262000034916200014c565b82826000620000426200012b565b600080546001600160a01b0319166001600160a01b0383169081178255604051929350917f8be0079c531659141344cd1fd0a4f28419497f9722a3daafe3b4186f6b6457e0908290a3506000805460ff60a01b191681556001600160a01b039283168152600360205260409020805460ff19166001908117909155600480546001600160a01b031916928416929092179091556005558116620001025760405162461bcd60e51b8152600401620000f99062000195565b60405180910390fd5b600680546001600160a01b0319166001600160a01b039290921691909117905550620001b29050565b3390565b80516001600160a01b03811681146200014757600080fd5b919050565b60008060006060848603121562000161578283fd5b6200016c846200012f565b92506200017c602085016200012f565b91506200018c604085016200012f565b90509250925092565b602080825260039082015262533a3160e81b604082015260600190565b61250680620001c26000396000f3fe60806040526004361061013e5760003560e01c8063715018a6116100bb578063aa57511d1161007f578063d5f4479c11610059578063d5f4479c14610355578063d9203b911461036a578063f2fde38b1461037f57610145565b8063aa57511d1461030b578063ad5c464814610320578063c5d3a1071461033557610145565b8063715018a61461028c5780638456cb59146102a15780638ab234b6146102b65780638da5cb5b146102d657806393a32fb1146102f857610145565b80633f4ba83a116101025780633f4ba83a1461020f5780634a3afe70146102245780635c975abb146102375780636281133d1461024c57806366d382031461026c57610145565b8063092ae4dc1461014a5780630c53c51c1461016c57806318a00d8e146101955780631af42c0f146101b55780632d0335ab146101e257610145565b3661014557005b600080fd5b34801561015657600080fd5b5061016a610165366004611724565b61039f565b005b61017f61017a36600461175f565b61043b565b60405161018c9190611f9b565b60405180910390f35b3480156101a157600080fd5b5061016a6101b0366004611703565b610591565b3480156101c157600080fd5b506101d56101d0366004611703565b61064e565b60405161018c9190611f72565b3480156101ee57600080fd5b506102026101fd366004611703565b610663565b60405161018c91906123ee565b34801561021b57600080fd5b5061016a61067e565b61016a610232366004611a00565b6106c7565b34801561024357600080fd5b506101d5610872565b34801561025857600080fd5b506101d56102673660046117cf565b610883565b34801561027857600080fd5b5061016a610287366004611703565b610953565b34801561029857600080fd5b5061016a6109da565b3480156102ad57600080fd5b5061016a610a63565b3480156102c257600080fd5b5061016a6102d1366004611703565b610aaa565b3480156102e257600080fd5b506102eb610b46565b60405161018c9190611d41565b61016a610306366004611852565b610b55565b34801561031757600080fd5b50610202610eec565b34801561032c57600080fd5b506102eb610ef2565b34801561034157600080fd5b5061016a610350366004611703565b610f0a565b34801561036157600080fd5b506102eb610fa2565b34801561037657600080fd5b506102eb610fb1565b34801561038b57600080fd5b5061016a61039a366004611703565b610fc0565b6103a7611080565b6001600160a01b03166103b8610b46565b6001600160a01b0316146103e75760405162461bcd60e51b81526004016103de90612215565b60405180910390fd5b6103f2838383611084565b7f37e6496681d2c16ab49733a2a6cf0916ebaa3e90250d01f84cec59f546d8cf2461041b611171565b83858460405161042e9493929190611da4565b60405180910390a1505050565b6001600160a01b0385166000908152600160205260409020546060906104679087904688888888610883565b6104835760405162461bcd60e51b81526004016103de90612281565b6001600160a01b038616600090815260016020819052604082208054919290916104ae908490612445565b9091555050604051600090819030906104cd9089908b90602001611c93565b60408051601f19818403018152908290526104e791611c77565b6000604051808303816000865af19150503d8060008114610524576040519150601f19603f3d011682016040523d82523d6000602084013e610529565b606091505b50915091508161054b5760405162461bcd60e51b81526004016103de9061202b565b7f5845892132946850460bff5a0083f71031bc5bf9aadcd40f1de79423eac9b10b88338960405161057e93929190611d6f565b60405180910390a1979650505050505050565b610599611080565b6001600160a01b03166105aa610b46565b6001600160a01b0316146105d05760405162461bcd60e51b81526004016103de90612215565b6001600160a01b0381166105f65760405162461bcd60e51b81526004016103de90612344565b600480546001600160a01b0319166001600160a01b0383161790556040517f0143625ceac80b2452760213c6b6f5a22eb63bc46e17d129c30fffefb4679eb6906106439033908490611d55565b60405180910390a150565b60036020526000908152604090205460ff1681565b6001600160a01b031660009081526001602052604090205490565b610686611080565b6001600160a01b0316610697610b46565b6001600160a01b0316146106bd5760405162461bcd60e51b81526004016103de90612215565b6106c56111cf565b565b600260055414156106ea5760405162461bcd60e51b81526004016103de906123b7565b60026005556106f7610872565b156107145760405162461bcd60e51b81526004016103de9061218a565b6001600160a01b03881673eeeeeeeeeeeeeeeeeeeeeeeeeeeeeeeeeeeeeeee146107505760405162461bcd60e51b81526004016103de906121c1565b853410156107705760405162461bcd60e51b81526004016103de9061230d565b600061077c873461245d565b111561079c5761079c61078d611171565b610797883461245d565b611240565b6006546001600160a01b031663ddeb2d4e878d8d8d8d6107ba611171565b8e8e8e8e8e8e8e6040518e63ffffffff1660e01b81526004016107e89c9b9a99989796959493929190611e96565b6000604051808303818588803b15801561080157600080fd5b505af1158015610815573d6000803e3d6000fd5b50505050507f59d66a3b6cbfa0745bc5ae77069c99fa61fbed2fe228b2c21a3fdd416bd5badf8b610844611171565b8a8b8a604051610858959493929190611e55565b60405180910390a150506001600555505050505050505050565b600054600160a01b900460ff165b90565b6000806108bb883089896040516020016108a09493929190611cfb565b604051602081830303815290604052805190602001206112d2565b90506000600182858888604051600081526020016040526040516108e29493929190611f7d565b6020604051602081039080840390855afa158015610904573d6000803e3d6000fd5b5050604051601f1901519150506001600160a01b0381166109375760405162461bcd60e51b81526004016103de9061211c565b6001600160a01b038a8116911614915050979650505050505050565b61095b611080565b6001600160a01b031661096c610b46565b6001600160a01b0316146109925760405162461bcd60e51b81526004016103de90612215565b6001600160a01b0381166109b85760405162461bcd60e51b81526004016103de906121f8565b600680546001600160a01b0319166001600160a01b0392909216919091179055565b6109e2611080565b6001600160a01b03166109f3610b46565b6001600160a01b031614610a195760405162461bcd60e51b81526004016103de90612215565b600080546040516001600160a01b03909116907f8be0079c531659141344cd1fd0a4f28419497f9722a3daafe3b4186f6b6457e0908390a3600080546001600160a01b0319169055565b610a6b611080565b6001600160a01b0316610a7c610b46565b6001600160a01b031614610aa25760405162461bcd60e51b81526004016103de90612215565b6106c5611303565b610ab2611080565b6001600160a01b0316610ac3610b46565b6001600160a01b031614610ae95760405162461bcd60e51b81526004016103de90612215565b6001600160a01b03811660009081526003602052604090205460ff1615610b225760405162461bcd60e51b81526004016103de90612153565b6001600160a01b03166000908152600360205260409020805460ff19166001179055565b6000546001600160a01b031690565b60026005541415610b785760405162461bcd60e51b81526004016103de906123b7565b6002600555610b85610872565b15610ba25760405162461bcd60e51b81526004016103de9061218a565b60006001600160a01b038a1673eeeeeeeeeeeeeeeeeeeeeeeeeeeeeeeeeeeeeeee1415610c53576004805460405163ba560ed960e01b81526001600160a01b039091169163ba560ed991610bfa918d918c9101611e1b565b602060405180830381600087803b158015610c1457600080fd5b505af1158015610c28573d6000803e3d6000fd5b505050506040513d601f19601f82011682018060405250810190610c4c9190611b87565b9050610cdb565b60048054604051631a44cdf360e11b81526001600160a01b03909116916334899be691610c86918d918f918d9101611dce565b602060405180830381600087803b158015610ca057600080fd5b505af1158015610cb4573d6000803e3d6000fd5b505050506040513d601f19601f82011682018060405250810190610cd89190611b87565b90505b610cee89610ce7611171565b3084611364565b600454610d06908a906001600160a01b031683611454565b6001600160a01b038a1673eeeeeeeeeeeeeeeeeeeeeeeeeeeeeeeeeeeeeeee1415610d9557600480546040516303790ccd60e21b81526001600160a01b0390911691630de4333491610d5e918d9186918d9101611e34565b600060405180830381600087803b158015610d7857600080fd5b505af1158015610d8c573d6000803e3d6000fd5b50505050610e14565b6004805460405163406e622b60e11b81526001600160a01b03909116916380dcc45691610dca918d918f9187918e9101611df2565b600060405180830381600087803b158015610de457600080fd5b505af1158015610df8573d6000803e3d6000fd5b5050600654610e1492508c91506001600160a01b031689611454565b6006546001600160a01b031663ddeb2d4e888f8f8f8f610e32611171565b8f8f8f8f8f8f8f6040518e63ffffffff1660e01b8152600401610e609c9b9a99989796959493929190611e96565b6000604051808303818588803b158015610e7957600080fd5b505af1158015610e8d573d6000803e3d6000fd5b50505050507f59d66a3b6cbfa0745bc5ae77069c99fa61fbed2fe228b2c21a3fdd416bd5badf8d610ebc611171565b8c8c8b604051610ed0959493929190611e55565b60405180910390a1505060016005555050505050505050505050565b60025481565b73eeeeeeeeeeeeeeeeeeeeeeeeeeeeeeeeeeeeeeee81565b610f12611080565b6001600160a01b0316610f23610b46565b6001600160a01b031614610f495760405162461bcd60e51b81526004016103de90612215565b6001600160a01b03811660009081526003602052604090205460ff16610f815760405162461bcd60e51b81526004016103de9061224a565b6001600160a01b03166000908152600360205260409020805460ff19169055565b6006546001600160a01b031681565b6004546001600160a01b031681565b610fc8611080565b6001600160a01b0316610fd9610b46565b6001600160a01b031614610fff5760405162461bcd60e51b81526004016103de90612215565b6001600160a01b0381166110255760405162461bcd60e51b81526004016103de90611fe5565b600080546040516001600160a01b03808516939216917f8be0079c531659141344cd1fd0a4f28419497f9722a3daafe3b4186f6b6457e091a3600080546001600160a01b0319166001600160a01b0392909216919091179055565b3390565b600080846001600160a01b031663a9059cbb85856040516024016110a9929190611e1b565b6040516020818303038152906040529060e01b6020820180516001600160e01b0383818316178352505050506040516110e29190611c77565b6000604051808303816000865af19150503d806000811461111f576040519150601f19603f3d011682016040523d82523d6000602084013e611124565b606091505b509150915081801561114e57508051158061114e57508080602001905181019061114e9190611b67565b61116a5760405162461bcd60e51b81526004016103de9061236a565b5050505050565b6000333014156111c857600080368080601f0160208091040260200160405190810160405280939291908181526020018383808284376000920191909152505050503601516001600160a01b031691506108809050565b5033610880565b6111d7610872565b6111f35760405162461bcd60e51b81526004016103de90611fae565b6000805460ff60a01b191690557f5db9ee0a495bf2e6ff9c91a7834c1ba4fdd244a5e8aa4e537bd38aeae4b073aa611229611080565b6040516112369190611d41565b60405180910390a1565b604080516000808252602082019092526001600160a01b03841690839060405161126a9190611c77565b60006040518083038185875af1925050503d80600081146112a7576040519150601f19603f3d011682016040523d82523d6000602084013e6112ac565b606091505b50509050806112cd5760405162461bcd60e51b81526004016103de906120bf565b505050565b6000816040516020016112e59190611cca565b6040516020818303038152906040528051906020012090505b919050565b61130b610872565b156113285760405162461bcd60e51b81526004016103de9061218a565b6000805460ff60a01b1916600160a01b1790557f62e78cea01bee320cd4e420270b5ea74000d11b0c9f74754ebdbfc544b05a258611229611080565b600080856001600160a01b03166323b872dd86868660405160240161138b93929190611dce565b6040516020818303038152906040529060e01b6020820180516001600160e01b0383818316178352505050506040516113c49190611c77565b6000604051808303816000865af19150503d8060008114611401576040519150601f19603f3d011682016040523d82523d6000602084013e611406565b606091505b50915091508180156114305750805115806114305750808060200190518101906114309190611b67565b61144c5760405162461bcd60e51b81526004016103de90612062565b505050505050565b600080846001600160a01b031663095ea7b38585604051602401611479929190611e1b565b6040516020818303038152906040529060e01b6020820180516001600160e01b0383818316178352505050506040516114b29190611c77565b6000604051808303816000865af19150503d80600081146114ef576040519150601f19603f3d011682016040523d82523d6000602084013e6114f4565b606091505b509150915081801561151e57508051158061151e57508080602001905181019061151e9190611b67565b61116a5760405162461bcd60e51b81526004016103de906122c2565b80356001600160a01b03811681146112fe57600080fd5b600082601f830112611561578081fd5b8135602061157661157183612421565b6123f7565b8281528181019085830183850287018401881015611592578586fd5b855b858110156115b057813584529284019290840190600101611594565b5090979650505050505050565b600082601f8301126115cd578081fd5b813560206115dd61157183612421565b82815281810190858301838502870184018810156115f9578586fd5b855b858110156115b057813561ffff81168114611614578788fd5b845292840192908401906001016115fb565b600082601f830112611636578081fd5b8135602061164661157183612421565b8281528181019085830183850287018401881015611662578586fd5b855b858110156115b057611675826116f2565b84529284019290840190600101611664565b600082601f830112611697578081fd5b813567ffffffffffffffff8111156116b1576116b16124ba565b6116c4601f8201601f19166020016123f7565b8181528460208386010111156116d8578283fd5b816020850160208301379081016020019190915292915050565b803560ff811681146112fe57600080fd5b600060208284031215611714578081fd5b61171d8261153a565b9392505050565b600080600060608486031215611738578182fd5b6117418461153a565b925061174f6020850161153a565b9150604084013590509250925092565b600080600080600060a08688031215611776578081fd5b61177f8661153a565b9450602086013567ffffffffffffffff81111561179a578182fd5b6117a688828901611687565b94505060408601359250606086013591506117c3608087016116f2565b90509295509295909350565b600080600080600080600060e0888a0312156117e9578182fd5b6117f28861153a565b96506020880135955060408801359450606088013567ffffffffffffffff81111561181b578283fd5b6118278a828b01611687565b9450506080880135925060a0880135915061184460c089016116f2565b905092959891949750929550565b6000806000806000806000806000806000806101808d8f031215611874578586fd5b67ffffffffffffffff8d351115611889578586fd5b6118968e8e358f016115bd565b9b5067ffffffffffffffff60208e013511156118b0578586fd5b6118c08e60208f01358f016115bd565b9a5067ffffffffffffffff60408e013511156118da578586fd5b6118ea8e60408f01358f01611551565b99506118f860608e0161153a565b985061190660808e0161153a565b975060a08d0135965060c08d0135955067ffffffffffffffff60e08e0135111561192e578485fd5b61193e8e60e08f01358f01611551565b945067ffffffffffffffff6101008e01351115611959578384fd5b61196a8e6101008f01358f01611551565b935067ffffffffffffffff6101208e01351115611985578283fd5b6119968e6101208f01358f01611626565b925067ffffffffffffffff6101408e013511156119b1578081fd5b6119c28e6101408f01358f01611551565b915067ffffffffffffffff6101608e013511156119dd578081fd5b6119ee8e6101608f01358f01611551565b90509295989b509295989b509295989b565b60008060008060008060008060008060006101608c8e031215611a21578485fd5b67ffffffffffffffff808d351115611a37578586fd5b611a448e8e358f016115bd565b9b508060208e01351115611a56578586fd5b611a668e60208f01358f016115bd565b9a508060408e01351115611a78578586fd5b611a888e60408f01358f01611551565b9950611a9660608e0161153a565b985060808d0135975060a08d013596508060c08e01351115611ab6578586fd5b611ac68e60c08f01358f01611551565b95508060e08e01351115611ad8578485fd5b611ae88e60e08f01358f01611551565b9450806101008e01351115611afb578182fd5b611b0c8e6101008f01358f01611626565b9350806101208e01351115611b1f578182fd5b611b308e6101208f01358f01611551565b9250806101408e01351115611b43578182fd5b50611b558d6101408e01358e01611551565b90509295989b509295989b9093969950565b600060208284031215611b78578081fd5b8151801515811461171d578182fd5b600060208284031215611b98578081fd5b5051919050565b6001600160a01b03169052565b6000815180845260208085019450808401835b83811015611bdb57815187529582019590820190600101611bbf565b509495945050505050565b6000815180845260208085019450808401835b83811015611bdb57815161ffff1687529582019590820190600101611bf9565b6000815180845260208085019450808401835b83811015611bdb57815160ff1687529582019590820190600101611c2c565b60008151808452611c63816020860160208601612474565b601f01601f19169290920160200192915050565b60008251611c89818460208701612474565b9190910192915050565b60008351611ca5818460208801612474565b60609390931b6bffffffffffffffffffffffff19169190920190815260140192915050565b7f19457468657265756d205369676e6564204d6573736167653a0a3332000000008152601c810191909152603c0190565b60008582526bffffffffffffffffffffffff198560601b1660208301528360348301528251611d31816054850160208701612474565b9190910160540195945050505050565b6001600160a01b0391909116815260200190565b6001600160a01b0392831681529116602082015260400190565b60006001600160a01b03808616835280851660208401525060606040830152611d9b6060830184611c4b565b95945050505050565b6001600160a01b039485168152928416602084015292166040820152606081019190915260800190565b6001600160a01b039384168152919092166020820152604081019190915260600190565b6001600160a01b0394851681529290931660208301526040820152606081019190915260800190565b6001600160a01b03929092168252602082015260400190565b6001600160a01b039390931683526020830191909152604082015260600190565b600060a08252611e6860a0830188611be6565b6001600160a01b03968716602084015294861660408301525091909316606082015260800191909152919050565b60006101808252611eab61018083018f611be6565b8281036020840152611ebd818f611be6565b90508281036040840152611ed1818e611bac565b9050611ee0606084018d611b9f565b611eed608084018c611b9f565b8960a08401528860c084015282810360e0840152611f0b8189611bac565b9050828103610100840152611f208188611bac565b9050828103610120840152611f358187611c19565b9050828103610140840152611f4a8186611bac565b9050828103610160840152611f5f8185611bac565b9f9e505050505050505050505050505050565b901515815260200190565b93845260ff9290921660208401526040830152606082015260800190565b60006020825261171d6020830184611c4b565b60208082526014908201527f5061757361626c653a206e6f7420706175736564000000000000000000000000604082015260600190565b60208082526026908201527f4f776e61626c653a206e6577206f776e657220697320746865207a65726f206160408201526564647265737360d01b606082015260800190565b6020808252601c908201527f46756e6374696f6e2063616c6c206e6f74207375636365737366756c00000000604082015260600190565b60208082526031908201527f5472616e7366657248656c7065723a3a7472616e7366657246726f6d3a20747260408201527f616e7366657246726f6d206661696c6564000000000000000000000000000000606082015260800190565b60208082526034908201527f5472616e7366657248656c7065723a3a736166655472616e736665724554483a60408201527f20455448207472616e73666572206661696c6564000000000000000000000000606082015260800190565b60208082526011908201527f496e76616c6964207369676e6174757265000000000000000000000000000000604082015260600190565b60208082526011908201527f416c726561647920617661696c61626c65000000000000000000000000000000604082015260600190565b60208082526010908201527f5061757361626c653a2070617573656400000000000000000000000000000000604082015260600190565b6020808252600f908201527f4e6f74204554482070726f647563740000000000000000000000000000000000604082015260600190565b602080825260039082015262533a3160e81b604082015260600190565b6020808252818101527f4f776e61626c653a2063616c6c6572206973206e6f7420746865206f776e6572604082015260600190565b60208082526011908201527f4e6f7420617661696c61626c6520796574000000000000000000000000000000604082015260600190565b60208082526021908201527f5369676e657220616e64207369676e617475726520646f206e6f74206d6174636040820152600d60fb1b606082015260800190565b6020808252602b908201527f5472616e7366657248656c7065723a3a73616665417070726f76653a2061707060408201526a1c9bdd994819985a5b195960aa1b606082015260800190565b60208082526013908201527f496e73756666696369656e7420616d6f756e7400000000000000000000000000604082015260600190565b6020808252600c908201526b5a45524f204164647265737360a01b604082015260600190565b6020808252602d908201527f5472616e7366657248656c7065723a3a736166655472616e736665723a20747260408201526c185b9cd9995c8819985a5b1959609a1b606082015260800190565b6020808252601f908201527f5265656e7472616e637947756172643a207265656e7472616e742063616c6c00604082015260600190565b90815260200190565b60405181810167ffffffffffffffff81118282101715612419576124196124ba565b604052919050565b600067ffffffffffffffff82111561243b5761243b6124ba565b5060209081020190565b60008219821115612458576124586124a4565b500190565b60008282101561246f5761246f6124a4565b500390565b60005b8381101561248f578181015183820152602001612477565b8381111561249e576000848401525b50505050565b634e487b7160e01b600052601160045260246000fd5b634e487b7160e01b600052604160045260246000fdfea2646970667358221220777bdd33c56a8a7021323fca3e8604f2fb488de9fc3fb19d239ffb398457ef2564736f6c63430008000033",
  "devdoc": {
    "kind": "dev",
    "methods": {
      "buyCoverByToken(uint16[],uint16[],uint256[],address,address,uint256,uint256,uint256[],uint256[],uint8[],bytes32[],bytes32[])": {
        "details": "Through this function, users can get covers from Insure by some tokens such as CVR..."
      },
      "executeMetaTransaction(address,bytes,bytes32,bytes32,uint8)": {
        "params": {
          "functionSignature": "Signature of the actual function to be called via meta transaction",
          "sigR": "R part of the signature",
          "sigS": "S part of the signature",
          "sigV": "V part of the signature",
          "userAddress": "Address of user trying to do meta transaction"
        }
      },
      "owner()": {
        "details": "Returns the address of the current owner."
      },
      "paused()": {
        "details": "Returns true if the contract is paused, and false otherwise."
      },
      "renounceOwnership()": {
        "details": "Leaves the contract without owner. It will not be possible to call `onlyOwner` functions anymore. Can only be called by the current owner. NOTE: Renouncing ownership will leave the contract without an owner, thereby removing any functionality that is only available to the owner."
      },
      "transferOwnership(address)": {
        "details": "Transfers ownership of the contract to a new account (`newOwner`). Can only be called by the current owner."
      },
      "withdrawAsset(address,address,uint256)": {
        "details": "For reflect tokens, we should deposit some tokens at contract directly, We will withdraw tokens deposited at contract through this function"
      }
    },
    "version": 1
  },
  "userdoc": {
    "kind": "user",
    "methods": {
      "executeMetaTransaction(address,bytes,bytes32,bytes32,uint8)": {
        "notice": "Main function to be called when user wants to execute meta transaction. The actual function to be called should be passed as param with name functionSignature Here the basic signature recovery is being used. Signature is expected to be generated using personal_sign method."
      }
    },
    "notice": "We are supporting only CVR for InsureAce",
    "version": 1
  },
  "storageLayout": {
    "storage": [
      {
        "astId": 7,
        "contract": "contracts/onchain/InsureAceCover.sol:InsureAceCover",
        "label": "_owner",
        "offset": 0,
        "slot": "0",
        "type": "t_address"
      },
      {
        "astId": 127,
        "contract": "contracts/onchain/InsureAceCover.sol:InsureAceCover",
        "label": "_paused",
        "offset": 20,
        "slot": "0",
        "type": "t_bool"
      },
      {
        "astId": 2117,
        "contract": "contracts/onchain/InsureAceCover.sol:InsureAceCover",
        "label": "nonces",
        "offset": 0,
        "slot": "1",
        "type": "t_mapping(t_address,t_uint256)"
      },
      {
        "astId": 4141,
        "contract": "contracts/onchain/InsureAceCover.sol:InsureAceCover",
        "label": "productIds",
        "offset": 0,
        "slot": "2",
        "type": "t_struct(Counter)1041_storage"
      },
      {
        "astId": 4145,
        "contract": "contracts/onchain/InsureAceCover.sol:InsureAceCover",
        "label": "availableCurrencies",
        "offset": 0,
        "slot": "3",
        "type": "t_mapping(t_address,t_bool)"
      },
      {
        "astId": 4147,
        "contract": "contracts/onchain/InsureAceCover.sol:InsureAceCover",
        "label": "exchangeAgent",
        "offset": 0,
        "slot": "4",
        "type": "t_address"
      },
      {
        "astId": 212,
        "contract": "contracts/onchain/InsureAceCover.sol:InsureAceCover",
        "label": "_status",
        "offset": 0,
        "slot": "5",
        "type": "t_uint256"
      },
      {
        "astId": 4328,
        "contract": "contracts/onchain/InsureAceCover.sol:InsureAceCover",
        "label": "coverContractAddress",
        "offset": 0,
        "slot": "6",
        "type": "t_address"
      }
    ],
    "types": {
      "t_address": {
        "encoding": "inplace",
        "label": "address",
        "numberOfBytes": "20"
      },
      "t_bool": {
        "encoding": "inplace",
        "label": "bool",
        "numberOfBytes": "1"
      },
      "t_mapping(t_address,t_bool)": {
        "encoding": "mapping",
        "key": "t_address",
        "label": "mapping(address => bool)",
        "numberOfBytes": "32",
        "value": "t_bool"
      },
      "t_mapping(t_address,t_uint256)": {
        "encoding": "mapping",
        "key": "t_address",
        "label": "mapping(address => uint256)",
        "numberOfBytes": "32",
        "value": "t_uint256"
      },
      "t_struct(Counter)1041_storage": {
        "encoding": "inplace",
        "label": "struct Counters.Counter",
        "members": [
          {
            "astId": 1040,
            "contract": "contracts/onchain/InsureAceCover.sol:InsureAceCover",
            "label": "_value",
            "offset": 0,
            "slot": "0",
            "type": "t_uint256"
          }
        ],
        "numberOfBytes": "32"
      },
      "t_uint256": {
        "encoding": "inplace",
        "label": "uint256",
        "numberOfBytes": "32"
      }
    }
  }
}