{
  "address": "0x423B0e4Ba1afa83E9f6416F0D7A28454BC9e2636",
  "abi": [
    {
      "inputs": [
        {
          "internalType": "address",
          "name": "_CVR",
          "type": "address"
        },
        {
          "internalType": "address",
          "name": "_exchangeAgent",
          "type": "address"
        },
        {
          "internalType": "address",
          "name": "_coverContractAddress",
          "type": "address"
        }
      ],
      "stateMutability": "nonpayable",
      "type": "constructor"
    },
    {
      "anonymous": false,
      "inputs": [
        {
          "indexed": false,
          "internalType": "uint16[]",
          "name": "productIds",
          "type": "uint16[]"
        },
        {
          "indexed": false,
          "internalType": "address",
          "name": "_buyer",
          "type": "address"
        },
        {
          "indexed": false,
          "internalType": "address",
          "name": "_currency",
          "type": "address"
        },
        {
          "indexed": false,
          "internalType": "uint256",
          "name": "_amount",
          "type": "uint256"
        }
      ],
      "name": "BuyInsureAce",
      "type": "event"
    },
    {
      "anonymous": false,
      "inputs": [
        {
          "indexed": true,
          "internalType": "uint256",
          "name": "_productId",
          "type": "uint256"
        },
        {
          "indexed": false,
          "internalType": "address",
          "name": "_buyer",
          "type": "address"
        }
      ],
      "name": "BuyProduct",
      "type": "event"
    },
    {
      "anonymous": false,
      "inputs": [
        {
          "indexed": true,
          "internalType": "address",
          "name": "previousOwner",
          "type": "address"
        },
        {
          "indexed": true,
          "internalType": "address",
          "name": "newOwner",
          "type": "address"
        }
      ],
      "name": "OwnershipTransferred",
      "type": "event"
    },
    {
      "anonymous": false,
      "inputs": [
        {
          "indexed": false,
          "internalType": "address",
          "name": "_user",
          "type": "address"
        },
        {
          "indexed": false,
          "internalType": "address",
          "name": "_to",
          "type": "address"
        },
        {
          "indexed": false,
          "internalType": "address",
          "name": "_token",
          "type": "address"
        },
        {
          "indexed": false,
          "internalType": "uint256",
          "name": "_amount",
          "type": "uint256"
        }
      ],
      "name": "WithdrawAsset",
      "type": "event"
    },
    {
      "inputs": [],
      "name": "CVR",
      "outputs": [
        {
          "internalType": "address",
          "name": "",
          "type": "address"
        }
      ],
      "stateMutability": "view",
      "type": "function"
    },
    {
      "inputs": [],
      "name": "WETH",
      "outputs": [
        {
          "internalType": "address",
          "name": "",
          "type": "address"
        }
      ],
      "stateMutability": "view",
      "type": "function"
    },
    {
      "inputs": [
        {
          "internalType": "address",
          "name": "_currency",
          "type": "address"
        }
      ],
      "name": "addCurrency",
      "outputs": [],
      "stateMutability": "nonpayable",
      "type": "function"
    },
    {
      "inputs": [
        {
          "internalType": "address",
          "name": "",
          "type": "address"
        }
      ],
      "name": "availableCurrencies",
      "outputs": [
        {
          "internalType": "bool",
          "name": "",
          "type": "bool"
        }
      ],
      "stateMutability": "view",
      "type": "function"
    },
    {
      "inputs": [
        {
          "internalType": "uint16[]",
          "name": "products",
          "type": "uint16[]"
        },
        {
          "internalType": "uint16[]",
          "name": "durationInDays",
          "type": "uint16[]"
        },
        {
          "internalType": "uint256[]",
          "name": "amounts",
          "type": "uint256[]"
        },
        {
          "internalType": "address",
          "name": "currency",
          "type": "address"
        },
        {
          "internalType": "address",
          "name": "owner",
          "type": "address"
        },
        {
          "internalType": "uint256",
          "name": "referralCode",
          "type": "uint256"
        },
        {
          "internalType": "uint256",
          "name": "premiumAmount",
          "type": "uint256"
        },
        {
          "internalType": "uint256[]",
          "name": "helperParameters",
          "type": "uint256[]"
        },
        {
          "internalType": "uint256[]",
          "name": "securityParameters",
          "type": "uint256[]"
        },
        {
          "internalType": "uint8[]",
          "name": "v",
          "type": "uint8[]"
        },
        {
          "internalType": "bytes32[]",
          "name": "r",
          "type": "bytes32[]"
        },
        {
          "internalType": "bytes32[]",
          "name": "s",
          "type": "bytes32[]"
        }
      ],
      "name": "buyCoverByETH",
      "outputs": [],
      "stateMutability": "payable",
      "type": "function"
    },
    {
      "inputs": [
        {
          "internalType": "uint16[]",
          "name": "products",
          "type": "uint16[]"
        },
        {
          "internalType": "uint16[]",
          "name": "durationInDays",
          "type": "uint16[]"
        },
        {
          "internalType": "uint256[]",
          "name": "amounts",
          "type": "uint256[]"
        },
        {
          "internalType": "address",
          "name": "currency",
          "type": "address"
        },
        {
          "internalType": "address",
          "name": "owner",
          "type": "address"
        },
        {
          "internalType": "uint256",
          "name": "referralCode",
          "type": "uint256"
        },
        {
          "internalType": "uint256",
          "name": "premiumAmount",
          "type": "uint256"
        },
        {
          "internalType": "uint256[]",
          "name": "helperParameters",
          "type": "uint256[]"
        },
        {
          "internalType": "uint256[]",
          "name": "securityParameters",
          "type": "uint256[]"
        },
        {
          "internalType": "uint8[]",
          "name": "v",
          "type": "uint8[]"
        },
        {
          "internalType": "bytes32[]",
          "name": "r",
          "type": "bytes32[]"
        },
        {
          "internalType": "bytes32[]",
          "name": "s",
          "type": "bytes32[]"
        }
      ],
      "name": "buyCoverByToken",
      "outputs": [],
      "stateMutability": "payable",
      "type": "function"
    },
    {
      "inputs": [],
      "name": "coverContractAddress",
      "outputs": [
        {
          "internalType": "address",
          "name": "",
          "type": "address"
        }
      ],
      "stateMutability": "view",
      "type": "function"
    },
    {
      "inputs": [],
      "name": "exchangeAgent",
      "outputs": [
        {
          "internalType": "address",
          "name": "",
          "type": "address"
        }
      ],
      "stateMutability": "view",
      "type": "function"
    },
    {
      "inputs": [],
      "name": "owner",
      "outputs": [
        {
          "internalType": "address",
          "name": "",
          "type": "address"
        }
      ],
      "stateMutability": "view",
      "type": "function"
    },
    {
      "inputs": [],
      "name": "productIds",
      "outputs": [
        {
          "internalType": "uint256",
          "name": "_value",
          "type": "uint256"
        }
      ],
      "stateMutability": "view",
      "type": "function"
    },
    {
      "inputs": [
        {
          "internalType": "address",
          "name": "_currency",
          "type": "address"
        }
      ],
      "name": "removeCurrency",
      "outputs": [],
      "stateMutability": "nonpayable",
      "type": "function"
    },
    {
      "inputs": [],
      "name": "renounceOwnership",
      "outputs": [],
      "stateMutability": "nonpayable",
      "type": "function"
    },
    {
      "inputs": [
        {
          "internalType": "address",
          "name": "_coverContractAddress",
          "type": "address"
        }
      ],
      "name": "setup",
      "outputs": [],
      "stateMutability": "nonpayable",
      "type": "function"
    },
    {
      "inputs": [
        {
          "internalType": "address",
          "name": "newOwner",
          "type": "address"
        }
      ],
      "name": "transferOwnership",
      "outputs": [],
      "stateMutability": "nonpayable",
      "type": "function"
    },
    {
      "inputs": [
        {
          "internalType": "address",
          "name": "_token",
          "type": "address"
        },
        {
          "internalType": "address",
          "name": "_to",
          "type": "address"
        },
        {
          "internalType": "uint256",
          "name": "_amount",
          "type": "uint256"
        }
      ],
      "name": "withdrawAsset",
      "outputs": [],
      "stateMutability": "nonpayable",
      "type": "function"
    },
    {
      "stateMutability": "payable",
      "type": "receive"
    }
  ],
  "transactionHash": "0x66827f3a18f410c182e13e023141b540e1c0e9c000f207a0c8e40b2b5dc3c885",
  "args": [
    "0xd3e48FAcD30A73609ffA60AE84851e72d10fEa52",
    "0x5A198C9f43FB5E74b167aCE6aDeD3c7BD4d1eaA8",
    "0x0921f628b8463227615D2199D0D3860E4fBcD411"
  ],
  "solcInputHash": "dfa6136c7b9c50f121f112f3ea535364",
  "bytecode": "0x60a06040523480156200001157600080fd5b5060405162001b2d38038062001b2d83398101604081905262000034916200015b565b82826200004a62000044620000ea565b620000ee565b6001600160a01b039182166000908152600260205260409020805460ff19166001179055600380549183166001600160a01b03199092169190911790558116620000b15760405162461bcd60e51b8152600401620000a890620001a4565b60405180910390fd5b60609290921b6001600160601b03191660805250600480546001600160a01b0319166001600160a01b03909216919091179055620001c1565b3390565b600080546001600160a01b038381166001600160a01b0319831681178455604051919092169283917f8be0079c531659141344cd1fd0a4f28419497f9722a3daafe3b4186f6b6457e09190a35050565b80516001600160a01b03811681146200015657600080fd5b919050565b60008060006060848603121562000170578283fd5b6200017b846200013e565b92506200018b602085016200013e565b91506200019b604085016200013e565b90509250925092565b602080825260039082015262533a3160e81b604082015260600190565b60805160601c6119236200020a60003960008181610511015281816105c40152818161066701528181610697015281816107130152818161079c0152610a5e01526119236000f3fe6080604052600436106100ec5760003560e01c8063a3d05bed1161008a578063c5d3a10711610059578063c5d3a10714610239578063d5f4479c14610259578063d9203b911461026e578063f2fde38b14610283576100f3565b8063a3d05bed146101da578063aa57511d146101ed578063ad5c46481461020f578063b7160dee14610224576100f3565b8063715018a6116100c6578063715018a6146101705780638ab234b6146101855780638da5cb5b146101a557806393a32fb1146101c7576100f3565b8063092ae4dc146100f85780631af42c0f1461011a57806366d3820314610150576100f3565b366100f357005b600080fd5b34801561010457600080fd5b506101186101133660046110d7565b6102a3565b005b34801561012657600080fd5b5061013a6101353660046110b6565b610338565b604051610147919061156a565b60405180910390f35b34801561015c57600080fd5b5061011861016b3660046110b6565b61034d565b34801561017c57600080fd5b506101186103e1565b34801561019157600080fd5b506101186101a03660046110b6565b61042c565b3480156101b157600080fd5b506101ba6104c8565b60405161014791906113dd565b6101186101d5366004611112565b6104d7565b6101186101e8366004611112565b6108e8565b3480156101f957600080fd5b50610202610a3e565b604051610147919061183b565b34801561021b57600080fd5b506101ba610a44565b34801561023057600080fd5b506101ba610a5c565b34801561024557600080fd5b506101186102543660046110b6565b610a80565b34801561026557600080fd5b506101ba610b18565b34801561027a57600080fd5b506101ba610b27565b34801561028f57600080fd5b5061011861029e3660046110b6565b610b36565b6102ab610ba7565b6001600160a01b03166102bc6104c8565b6001600160a01b0316146102eb5760405162461bcd60e51b81526004016102e290611700565b60405180910390fd5b6102f6838383610bab565b7f37e6496681d2c16ab49733a2a6cf0916ebaa3e90250d01f84cec59f546d8cf243383858460405161032b94939291906113f1565b60405180910390a1505050565b60026020526000908152604090205460ff1681565b610355610ba7565b6001600160a01b03166103666104c8565b6001600160a01b03161461038c5760405162461bcd60e51b81526004016102e290611700565b6001600160a01b0381166103b25760405162461bcd60e51b81526004016102e2906116e3565b6004805473ffffffffffffffffffffffffffffffffffffffff19166001600160a01b0392909216919091179055565b6103e9610ba7565b6001600160a01b03166103fa6104c8565b6001600160a01b0316146104205760405162461bcd60e51b81526004016102e290611700565b61042a6000610c98565b565b610434610ba7565b6001600160a01b03166104456104c8565b6001600160a01b03161461046b5760405162461bcd60e51b81526004016102e290611700565b6001600160a01b03811660009081526002602052604090205460ff16156104a45760405162461bcd60e51b81526004016102e290611675565b6001600160a01b03166000908152600260205260409020805460ff19166001179055565b6000546001600160a01b031690565b60006001600160a01b038a1673eeeeeeeeeeeeeeeeeeeeeeeeeeeeeeeeeeeeeeee14156105b1576003546001600160a01b031663ba560ed97f000000000000000000000000000000000000000000000000000000000000000061053b8a6001611892565b6040518363ffffffff1660e01b815260040161055892919061143f565b602060405180830381600087803b15801561057257600080fd5b505af1158015610586573d6000803e3d6000fd5b505050506040513d601f19601f820116820180604052508101906105aa91906112e0565b9050610662565b6003546001600160a01b03166334899be67f00000000000000000000000000000000000000000000000000000000000000008c6105ef8b6001611892565b6040518463ffffffff1660e01b815260040161060d9392919061141b565b602060405180830381600087803b15801561062757600080fd5b505af115801561063b573d6000803e3d6000fd5b505050506040513d601f19601f8201168201806040525081019061065f91906112e0565b90505b61068e7f0000000000000000000000000000000000000000000000000000000000000000333084610cf5565b6003546106c6907f0000000000000000000000000000000000000000000000000000000000000000906001600160a01b031683610de5565b6001600160a01b038a1673eeeeeeeeeeeeeeeeeeeeeeeeeeeeeeeeeeeeeeee1415610774576003546040516378cb717160e01b81526001600160a01b03909116906378cb71719061073d907f000000000000000000000000000000000000000000000000000000000000000090859060040161143f565b600060405180830381600087803b15801561075757600080fd5b505af115801561076b573d6000803e3d6000fd5b50505050610812565b600354604051636e85a5ab60e01b81526001600160a01b0390911690636e85a5ab906107c8907f0000000000000000000000000000000000000000000000000000000000000000908e90869060040161141b565b600060405180830381600087803b1580156107e257600080fd5b505af11580156107f6573d6000803e3d6000fd5b505060045461081292508c91506001600160a01b031689610de5565b600460009054906101000a90046001600160a01b03166001600160a01b031663ddeb2d4e888f8f8f8f8f8f8f8f8f8f8f8f6040518e63ffffffff1660e01b815260040161086a9c9b9a9998979695949392919061148e565b6000604051808303818588803b15801561088357600080fd5b505af1158015610897573d6000803e3d6000fd5b50505050507f45085eb0f088969322b07998679405e4d60e68eee1902dd7311646dd46afcc2a8d8a8c8a6040516108d19493929190611458565b60405180910390a150505050505050505050505050565b6001600160a01b03891673eeeeeeeeeeeeeeeeeeeeeeeeeeeeeeeeeeeeeeee146109245760405162461bcd60e51b81526004016102e2906116ac565b853410156109445760405162461bcd60e51b81526004016102e2906117b7565b600061095087346118aa565b1115610969576109693361096488346118aa565b610ecb565b600460009054906101000a90046001600160a01b03166001600160a01b031663ddeb2d4e878e8e8e8e8e8e8e8e8e8e8e8e6040518e63ffffffff1660e01b81526004016109c19c9b9a9998979695949392919061148e565b6000604051808303818588803b1580156109da57600080fd5b505af11580156109ee573d6000803e3d6000fd5b50505050507f45085eb0f088969322b07998679405e4d60e68eee1902dd7311646dd46afcc2a8c898b89604051610a289493929190611458565b60405180910390a1505050505050505050505050565b60015481565b73eeeeeeeeeeeeeeeeeeeeeeeeeeeeeeeeeeeeeeee81565b7f000000000000000000000000000000000000000000000000000000000000000081565b610a88610ba7565b6001600160a01b0316610a996104c8565b6001600160a01b031614610abf5760405162461bcd60e51b81526004016102e290611700565b6001600160a01b03811660009081526002602052604090205460ff16610af75760405162461bcd60e51b81526004016102e290611735565b6001600160a01b03166000908152600260205260409020805460ff19169055565b6004546001600160a01b031681565b6003546001600160a01b031681565b610b3e610ba7565b6001600160a01b0316610b4f6104c8565b6001600160a01b031614610b755760405162461bcd60e51b81526004016102e290611700565b6001600160a01b038116610b9b5760405162461bcd60e51b81526004016102e290611575565b610ba481610c98565b50565b3390565b600080846001600160a01b031663a9059cbb8585604051602401610bd092919061143f565b6040516020818303038152906040529060e01b6020820180516001600160e01b038381831617835250505050604051610c0991906113a4565b6000604051808303816000865af19150503d8060008114610c46576040519150601f19603f3d011682016040523d82523d6000602084013e610c4b565b606091505b5091509150818015610c75575080511580610c75575080806020019051810190610c7591906112c0565b610c915760405162461bcd60e51b81526004016102e2906117ee565b5050505050565b600080546001600160a01b0383811673ffffffffffffffffffffffffffffffffffffffff19831681178455604051919092169283917f8be0079c531659141344cd1fd0a4f28419497f9722a3daafe3b4186f6b6457e09190a35050565b600080856001600160a01b03166323b872dd868686604051602401610d1c9392919061141b565b6040516020818303038152906040529060e01b6020820180516001600160e01b038381831617835250505050604051610d5591906113a4565b6000604051808303816000865af19150503d8060008114610d92576040519150601f19603f3d011682016040523d82523d6000602084013e610d97565b606091505b5091509150818015610dc1575080511580610dc1575080806020019051810190610dc191906112c0565b610ddd5760405162461bcd60e51b81526004016102e2906115bb565b505050505050565b600080846001600160a01b031663095ea7b38585604051602401610e0a92919061143f565b6040516020818303038152906040529060e01b6020820180516001600160e01b038381831617835250505050604051610e4391906113a4565b6000604051808303816000865af19150503d8060008114610e80576040519150601f19603f3d011682016040523d82523d6000602084013e610e85565b606091505b5091509150818015610eaf575080511580610eaf575080806020019051810190610eaf91906112c0565b610c915760405162461bcd60e51b81526004016102e29061176c565b604080516000808252602082019092526001600160a01b038416908390604051610ef591906113a4565b60006040518083038185875af1925050503d8060008114610f32576040519150601f19603f3d011682016040523d82523d6000602084013e610f37565b606091505b5050905080610f585760405162461bcd60e51b81526004016102e290611618565b505050565b80356001600160a01b0381168114610f7457600080fd5b919050565b600082601f830112610f89578081fd5b81356020610f9e610f998361186e565b611844565b8281528181019085830183850287018401881015610fba578586fd5b855b85811015610fd857813584529284019290840190600101610fbc565b5090979650505050505050565b600082601f830112610ff5578081fd5b81356020611005610f998361186e565b8281528181019085830183850287018401881015611021578586fd5b855b85811015610fd857813561ffff8116811461103c578788fd5b84529284019290840190600101611023565b600082601f83011261105e578081fd5b8135602061106e610f998361186e565b828152818101908583018385028701840188101561108a578586fd5b855b85811015610fd857813560ff811681146110a4578788fd5b8452928401929084019060010161108c565b6000602082840312156110c7578081fd5b6110d082610f5d565b9392505050565b6000806000606084860312156110eb578182fd5b6110f484610f5d565b925061110260208501610f5d565b9150604084013590509250925092565b6000806000806000806000806000806000806101808d8f031215611134578788fd5b67ffffffffffffffff8d351115611149578788fd5b6111568e8e358f01610fe5565b9b5067ffffffffffffffff60208e01351115611170578788fd5b6111808e60208f01358f01610fe5565b9a5067ffffffffffffffff60408e0135111561119a578788fd5b6111aa8e60408f01358f01610f79565b99506111b860608e01610f5d565b98506111c660808e01610f5d565b975060a08d0135965060c08d0135955067ffffffffffffffff60e08e013511156111ee578485fd5b6111fe8e60e08f01358f01610f79565b945067ffffffffffffffff6101008e01351115611219578384fd5b61122a8e6101008f01358f01610f79565b935067ffffffffffffffff6101208e01351115611245578283fd5b6112568e6101208f01358f0161104e565b925067ffffffffffffffff6101408e01351115611271578081fd5b6112828e6101408f01358f01610f79565b915067ffffffffffffffff6101608e0135111561129d578081fd5b6112ae8e6101608f01358f01610f79565b90509295989b509295989b509295989b565b6000602082840312156112d1578081fd5b815180151581146110d0578182fd5b6000602082840312156112f1578081fd5b5051919050565b6001600160a01b03169052565b6000815180845260208085019450808401835b8381101561133457815187529582019590820190600101611318565b509495945050505050565b6000815180845260208085019450808401835b8381101561133457815161ffff1687529582019590820190600101611352565b6000815180845260208085019450808401835b8381101561133457815160ff1687529582019590820190600101611385565b60008251815b818110156113c457602081860181015185830152016113aa565b818111156113d25782828501525b509190910192915050565b6001600160a01b0391909116815260200190565b6001600160a01b039485168152928416602084015292166040820152606081019190915260800190565b6001600160a01b039384168152919092166020820152604081019190915260600190565b6001600160a01b03929092168252602082015260400190565b60006080825261146b608083018761133f565b6001600160a01b0395861660208401529390941660408201526060015292915050565b600061018082526114a361018083018f61133f565b82810360208401526114b5818f61133f565b905082810360408401526114c9818e611305565b90506114d8606084018d6112f8565b6114e5608084018c6112f8565b8960a08401528860c084015282810360e08401526115038189611305565b90508281036101008401526115188188611305565b905082810361012084015261152d8187611372565b90508281036101408401526115428186611305565b90508281036101608401526115578185611305565b9f9e505050505050505050505050505050565b901515815260200190565b60208082526026908201527f4f776e61626c653a206e6577206f776e657220697320746865207a65726f206160408201526564647265737360d01b606082015260800190565b60208082526031908201527f5472616e7366657248656c7065723a3a7472616e7366657246726f6d3a20747260408201527f616e7366657246726f6d206661696c6564000000000000000000000000000000606082015260800190565b60208082526034908201527f5472616e7366657248656c7065723a3a736166655472616e736665724554483a60408201527f20455448207472616e73666572206661696c6564000000000000000000000000606082015260800190565b60208082526011908201527f416c726561647920617661696c61626c65000000000000000000000000000000604082015260600190565b6020808252600f908201527f4e6f74204554482070726f647563740000000000000000000000000000000000604082015260600190565b602080825260039082015262533a3160e81b604082015260600190565b6020808252818101527f4f776e61626c653a2063616c6c6572206973206e6f7420746865206f776e6572604082015260600190565b60208082526011908201527f4e6f7420617661696c61626c6520796574000000000000000000000000000000604082015260600190565b6020808252602b908201527f5472616e7366657248656c7065723a3a73616665417070726f76653a2061707060408201526a1c9bdd994819985a5b195960aa1b606082015260800190565b60208082526013908201527f496e73756666696369656e7420616d6f756e7400000000000000000000000000604082015260600190565b6020808252602d908201527f5472616e7366657248656c7065723a3a736166655472616e736665723a20747260408201526c185b9cd9995c8819985a5b1959609a1b606082015260800190565b90815260200190565b60405181810167ffffffffffffffff81118282101715611866576118666118d7565b604052919050565b600067ffffffffffffffff821115611888576118886118d7565b5060209081020190565b600082198211156118a5576118a56118c1565b500190565b6000828210156118bc576118bc6118c1565b500390565b634e487b7160e01b600052601160045260246000fd5b634e487b7160e01b600052604160045260246000fdfea2646970667358221220c75f08ffc740599c34131d08d146da95bccd618d5fcb9baa6b47fbd4dc24883664736f6c63430008000033",
  "devdoc": {
    "kind": "dev",
    "methods": {
      "buyCoverByToken(uint16[],uint16[],uint256[],address,address,uint256,uint256,uint256[],uint256[],uint8[],bytes32[],bytes32[])": {
        "details": "Through this function, users can get covers from Insure by some tokens such as CVR... if users want to save gas fee, he shoud reach to this function through MultiSigWallet."
      },
      "owner()": {
        "details": "Returns the address of the current owner."
      },
      "renounceOwnership()": {
        "details": "Leaves the contract without owner. It will not be possible to call `onlyOwner` functions anymore. Can only be called by the current owner. NOTE: Renouncing ownership will leave the contract without an owner, thereby removing any functionality that is only available to the owner."
      },
      "transferOwnership(address)": {
        "details": "Transfers ownership of the contract to a new account (`newOwner`). Can only be called by the current owner."
      },
      "withdrawAsset(address,address,uint256)": {
        "details": "For reflect tokens, we should deposit some tokens at contract directly, We will withdraw tokens deposited at contract through this function"
      }
    },
    "version": 1
  },
  "userdoc": {
    "kind": "user",
    "methods": {},
    "notice": "We are supporting only CVR for InsureAce",
    "version": 1
  },
  "storageLayout": {
    "storage": [
      {
        "astId": 535,
        "contract": "contracts/onchain/InsureAcePolka.sol:InsureAcePolka",
        "label": "_owner",
        "offset": 0,
        "slot": "0",
        "type": "t_address"
      },
      {
        "astId": 4229,
        "contract": "contracts/onchain/InsureAcePolka.sol:InsureAcePolka",
        "label": "productIds",
        "offset": 0,
        "slot": "1",
        "type": "t_struct(Counter)1510_storage"
      },
      {
        "astId": 4233,
        "contract": "contracts/onchain/InsureAcePolka.sol:InsureAcePolka",
        "label": "availableCurrencies",
        "offset": 0,
        "slot": "2",
        "type": "t_mapping(t_address,t_bool)"
      },
      {
        "astId": 4235,
        "contract": "contracts/onchain/InsureAcePolka.sol:InsureAcePolka",
        "label": "exchangeAgent",
        "offset": 0,
        "slot": "3",
        "type": "t_address"
      },
      {
        "astId": 4367,
        "contract": "contracts/onchain/InsureAcePolka.sol:InsureAcePolka",
        "label": "coverContractAddress",
        "offset": 0,
        "slot": "4",
        "type": "t_address"
      }
    ],
    "types": {
      "t_address": {
        "encoding": "inplace",
        "label": "address",
        "numberOfBytes": "20"
      },
      "t_bool": {
        "encoding": "inplace",
        "label": "bool",
        "numberOfBytes": "1"
      },
      "t_mapping(t_address,t_bool)": {
        "encoding": "mapping",
        "key": "t_address",
        "label": "mapping(address => bool)",
        "numberOfBytes": "32",
        "value": "t_bool"
      },
      "t_struct(Counter)1510_storage": {
        "encoding": "inplace",
        "label": "struct Counters.Counter",
        "members": [
          {
            "astId": 1509,
            "contract": "contracts/onchain/InsureAcePolka.sol:InsureAcePolka",
            "label": "_value",
            "offset": 0,
            "slot": "0",
            "type": "t_uint256"
          }
        ],
        "numberOfBytes": "32"
      },
      "t_uint256": {
        "encoding": "inplace",
        "label": "uint256",
        "numberOfBytes": "32"
      }
    }
  }
}