{
  "address": "0x1977D7A7Ea2E6D1340B37e017e7b335c67e306f1",
  "abi": [
    {
      "inputs": [
        {
          "internalType": "address",
          "name": "_CVR",
          "type": "address"
        },
        {
          "internalType": "address",
          "name": "_exchangeAgent",
          "type": "address"
        },
        {
          "internalType": "address",
          "name": "_coverContractAddress",
          "type": "address"
        }
      ],
      "stateMutability": "nonpayable",
      "type": "constructor"
    },
    {
      "anonymous": false,
      "inputs": [
        {
          "indexed": false,
          "internalType": "uint16[]",
          "name": "productIds",
          "type": "uint16[]"
        },
        {
          "indexed": false,
          "internalType": "address",
          "name": "_buyer",
          "type": "address"
        },
        {
          "indexed": false,
          "internalType": "address",
          "name": "_currency",
          "type": "address"
        },
        {
          "indexed": false,
          "internalType": "address",
          "name": "_token",
          "type": "address"
        },
        {
          "indexed": false,
          "internalType": "uint256",
          "name": "_amount",
          "type": "uint256"
        }
      ],
      "name": "BuyInsureAce",
      "type": "event"
    },
    {
      "anonymous": false,
      "inputs": [
        {
          "indexed": true,
          "internalType": "uint256",
          "name": "_productId",
          "type": "uint256"
        },
        {
          "indexed": false,
          "internalType": "address",
          "name": "_buyer",
          "type": "address"
        }
      ],
      "name": "BuyProduct",
      "type": "event"
    },
    {
      "anonymous": false,
      "inputs": [
        {
          "indexed": true,
          "internalType": "address",
          "name": "previousOwner",
          "type": "address"
        },
        {
          "indexed": true,
          "internalType": "address",
          "name": "newOwner",
          "type": "address"
        }
      ],
      "name": "OwnershipTransferred",
      "type": "event"
    },
    {
      "anonymous": false,
      "inputs": [
        {
          "indexed": false,
          "internalType": "address",
          "name": "_setter",
          "type": "address"
        },
        {
          "indexed": false,
          "internalType": "address",
          "name": "_exchangeAgent",
          "type": "address"
        }
      ],
      "name": "SetExchangeAgent",
      "type": "event"
    },
    {
      "anonymous": false,
      "inputs": [
        {
          "indexed": false,
          "internalType": "address",
          "name": "_user",
          "type": "address"
        },
        {
          "indexed": false,
          "internalType": "address",
          "name": "_to",
          "type": "address"
        },
        {
          "indexed": false,
          "internalType": "address",
          "name": "_token",
          "type": "address"
        },
        {
          "indexed": false,
          "internalType": "uint256",
          "name": "_amount",
          "type": "uint256"
        }
      ],
      "name": "WithdrawAsset",
      "type": "event"
    },
    {
      "inputs": [],
      "name": "CVR",
      "outputs": [
        {
          "internalType": "address",
          "name": "",
          "type": "address"
        }
      ],
      "stateMutability": "view",
      "type": "function"
    },
    {
      "inputs": [],
      "name": "WETH",
      "outputs": [
        {
          "internalType": "address",
          "name": "",
          "type": "address"
        }
      ],
      "stateMutability": "view",
      "type": "function"
    },
    {
      "inputs": [
        {
          "internalType": "address",
          "name": "_currency",
          "type": "address"
        }
      ],
      "name": "addCurrency",
      "outputs": [],
      "stateMutability": "nonpayable",
      "type": "function"
    },
    {
      "inputs": [
        {
          "internalType": "address",
          "name": "",
          "type": "address"
        }
      ],
      "name": "availableCurrencies",
      "outputs": [
        {
          "internalType": "bool",
          "name": "",
          "type": "bool"
        }
      ],
      "stateMutability": "view",
      "type": "function"
    },
    {
      "inputs": [
        {
          "internalType": "uint16[]",
          "name": "products",
          "type": "uint16[]"
        },
        {
          "internalType": "uint16[]",
          "name": "durationInDays",
          "type": "uint16[]"
        },
        {
          "internalType": "uint256[]",
          "name": "amounts",
          "type": "uint256[]"
        },
        {
          "internalType": "address",
          "name": "currency",
          "type": "address"
        },
        {
          "internalType": "uint256",
          "name": "referralCode",
          "type": "uint256"
        },
        {
          "internalType": "uint256",
          "name": "premiumAmount",
          "type": "uint256"
        },
        {
          "internalType": "uint256[]",
          "name": "helperParameters",
          "type": "uint256[]"
        },
        {
          "internalType": "uint256[]",
          "name": "securityParameters",
          "type": "uint256[]"
        },
        {
          "internalType": "uint8[]",
          "name": "v",
          "type": "uint8[]"
        },
        {
          "internalType": "bytes32[]",
          "name": "r",
          "type": "bytes32[]"
        },
        {
          "internalType": "bytes32[]",
          "name": "s",
          "type": "bytes32[]"
        }
      ],
      "name": "buyCoverByETH",
      "outputs": [],
      "stateMutability": "payable",
      "type": "function"
    },
    {
      "inputs": [
        {
          "internalType": "uint16[]",
          "name": "products",
          "type": "uint16[]"
        },
        {
          "internalType": "uint16[]",
          "name": "durationInDays",
          "type": "uint16[]"
        },
        {
          "internalType": "uint256[]",
          "name": "amounts",
          "type": "uint256[]"
        },
        {
          "internalType": "address",
          "name": "currency",
          "type": "address"
        },
        {
          "internalType": "address",
          "name": "_token",
          "type": "address"
        },
        {
          "internalType": "uint256",
          "name": "referralCode",
          "type": "uint256"
        },
        {
          "internalType": "uint256",
          "name": "premiumAmount",
          "type": "uint256"
        },
        {
          "internalType": "uint256[]",
          "name": "helperParameters",
          "type": "uint256[]"
        },
        {
          "internalType": "uint256[]",
          "name": "securityParameters",
          "type": "uint256[]"
        },
        {
          "internalType": "uint8[]",
          "name": "v",
          "type": "uint8[]"
        },
        {
          "internalType": "bytes32[]",
          "name": "r",
          "type": "bytes32[]"
        },
        {
          "internalType": "bytes32[]",
          "name": "s",
          "type": "bytes32[]"
        }
      ],
      "name": "buyCoverByToken",
      "outputs": [],
      "stateMutability": "payable",
      "type": "function"
    },
    {
      "inputs": [],
      "name": "coverContractAddress",
      "outputs": [
        {
          "internalType": "address",
          "name": "",
          "type": "address"
        }
      ],
      "stateMutability": "view",
      "type": "function"
    },
    {
      "inputs": [],
      "name": "exchangeAgent",
      "outputs": [
        {
          "internalType": "address",
          "name": "",
          "type": "address"
        }
      ],
      "stateMutability": "view",
      "type": "function"
    },
    {
      "inputs": [],
      "name": "owner",
      "outputs": [
        {
          "internalType": "address",
          "name": "",
          "type": "address"
        }
      ],
      "stateMutability": "view",
      "type": "function"
    },
    {
      "inputs": [],
      "name": "productIds",
      "outputs": [
        {
          "internalType": "uint256",
          "name": "_value",
          "type": "uint256"
        }
      ],
      "stateMutability": "view",
      "type": "function"
    },
    {
      "inputs": [
        {
          "internalType": "address",
          "name": "_currency",
          "type": "address"
        }
      ],
      "name": "removeCurrency",
      "outputs": [],
      "stateMutability": "nonpayable",
      "type": "function"
    },
    {
      "inputs": [],
      "name": "renounceOwnership",
      "outputs": [],
      "stateMutability": "nonpayable",
      "type": "function"
    },
    {
      "inputs": [
        {
          "internalType": "address",
          "name": "_exchangeAgent",
          "type": "address"
        }
      ],
      "name": "setExchangeAgent",
      "outputs": [],
      "stateMutability": "nonpayable",
      "type": "function"
    },
    {
      "inputs": [
        {
          "internalType": "address",
          "name": "_coverContractAddress",
          "type": "address"
        }
      ],
      "name": "setup",
      "outputs": [],
      "stateMutability": "nonpayable",
      "type": "function"
    },
    {
      "inputs": [
        {
          "internalType": "address",
          "name": "newOwner",
          "type": "address"
        }
      ],
      "name": "transferOwnership",
      "outputs": [],
      "stateMutability": "nonpayable",
      "type": "function"
    },
    {
      "inputs": [
        {
          "internalType": "address",
          "name": "_token",
          "type": "address"
        },
        {
          "internalType": "address",
          "name": "_to",
          "type": "address"
        },
        {
          "internalType": "uint256",
          "name": "_amount",
          "type": "uint256"
        }
      ],
      "name": "withdrawAsset",
      "outputs": [],
      "stateMutability": "nonpayable",
      "type": "function"
    },
    {
      "stateMutability": "payable",
      "type": "receive"
    }
  ],
  "transactionHash": "0x5351ca7bb296b0820d03bd7745c6240edb35713393e41d78fc2902cb814c59ff",
  "args": [
    "0xd3e48FAcD30A73609ffA60AE84851e72d10fEa52",
    "0x5640B69a5e1375a95e610052c5eedfea17675996",
    "0x0921f628b8463227615D2199D0D3860E4fBcD411"
  ],
  "solcInputHash": "ef270dec7daaf32e0838cb5bbbe360f4",
  "bytecode": "0x60a06040523480156200001157600080fd5b5060405162001d1138038062001d1183398101604081905262000034916200014d565b82826000620000426200012c565b600080546001600160a01b0319166001600160a01b0383169081178255604051929350917f8be0079c531659141344cd1fd0a4f28419497f9722a3daafe3b4186f6b6457e0908290a3506001600160a01b039182166000908152600260205260409020805460ff19166001179055600380549183166001600160a01b03199092169190911790558116620000f35760405162461bcd60e51b8152600401620000ea9062000196565b60405180910390fd5b60609290921b6001600160601b03191660805250600480546001600160a01b0319166001600160a01b03909216919091179055620001b3565b3390565b80516001600160a01b03811681146200014857600080fd5b919050565b60008060006060848603121562000162578283fd5b6200016d8462000130565b92506200017d6020850162000130565b91506200018d6040850162000130565b90509250925092565b602080825260039082015262533a3160e81b604082015260600190565b60805160601c611b3f620001d26000396000610aae0152611b3f6000f3fe6080604052600436106100f75760003560e01c806393a32fb11161008a578063c5d3a10711610059578063c5d3a10714610264578063d5f4479c14610284578063d9203b9114610299578063f2fde38b146102ae576100fe565b806393a32fb114610205578063aa57511d14610218578063ad5c46481461023a578063b7160dee1461024f576100fe565b806366d38203116100c657806366d382031461018e578063715018a6146101ae5780638ab234b6146101c35780638da5cb5b146101e3576100fe565b8063092ae4dc1461010357806318a00d8e146101255780631af42c0f146101455780634a3afe701461017b576100fe565b366100fe57005b600080fd5b34801561010f57600080fd5b5061012361011e366004611119565b6102ce565b005b34801561013157600080fd5b506101236101403660046110f8565b610363565b34801561015157600080fd5b506101656101603660046110f8565b610420565b6040516101729190611782565b60405180910390f35b610123610189366004611302565b610435565b34801561019a57600080fd5b506101236101a93660046110f8565b61058c565b3480156101ba57600080fd5b50610123610613565b3480156101cf57600080fd5b506101236101de3660046110f8565b61069c565b3480156101ef57600080fd5b506101f8610738565b6040516101729190611586565b610123610213366004611154565b610747565b34801561022457600080fd5b5061022d610a8e565b6040516101729190611a79565b34801561024657600080fd5b506101f8610a94565b34801561025b57600080fd5b506101f8610aac565b34801561027057600080fd5b5061012361027f3660046110f8565b610ad0565b34801561029057600080fd5b506101f8610b68565b3480156102a557600080fd5b506101f8610b77565b3480156102ba57600080fd5b506101236102c93660046110f8565b610b86565b6102d6610c46565b6001600160a01b03166102e7610738565b6001600160a01b0316146103165760405162461bcd60e51b815260040161030d90611918565b60405180910390fd5b610321838383610c4a565b7f37e6496681d2c16ab49733a2a6cf0916ebaa3e90250d01f84cec59f546d8cf243383858460405161035694939291906115b4565b60405180910390a1505050565b61036b610c46565b6001600160a01b031661037c610738565b6001600160a01b0316146103a25760405162461bcd60e51b815260040161030d90611918565b6001600160a01b0381166103c85760405162461bcd60e51b815260040161030d90611a06565b600380546001600160a01b0319166001600160a01b0383161790556040517f0143625ceac80b2452760213c6b6f5a22eb63bc46e17d129c30fffefb4679eb690610415903390849061159a565b60405180910390a150565b60026020526000908152604090205460ff1681565b6001600160a01b03881673eeeeeeeeeeeeeeeeeeeeeeeeeeeeeeeeeeeeeeee146104715760405162461bcd60e51b815260040161030d906118c4565b853410156104915760405162461bcd60e51b815260040161030d906119cf565b600061049d8734611ad0565b11156104b6576104b6336104b18834611ad0565b610d37565b600460009054906101000a90046001600160a01b03166001600160a01b031663ddeb2d4e878d8d8d8d338e8e8e8e8e8e8e6040518e63ffffffff1660e01b815260040161050e9c9b9a999897969594939291906116a6565b6000604051808303818588803b15801561052757600080fd5b505af115801561053b573d6000803e3d6000fd5b50505050507f59d66a3b6cbfa0745bc5ae77069c99fa61fbed2fe228b2c21a3fdd416bd5badf8b338a8b8a604051610577959493929190611665565b60405180910390a15050505050505050505050565b610594610c46565b6001600160a01b03166105a5610738565b6001600160a01b0316146105cb5760405162461bcd60e51b815260040161030d90611918565b6001600160a01b0381166105f15760405162461bcd60e51b815260040161030d906118fb565b600480546001600160a01b0319166001600160a01b0392909216919091179055565b61061b610c46565b6001600160a01b031661062c610738565b6001600160a01b0316146106525760405162461bcd60e51b815260040161030d90611918565b600080546040516001600160a01b03909116907f8be0079c531659141344cd1fd0a4f28419497f9722a3daafe3b4186f6b6457e0908390a3600080546001600160a01b0319169055565b6106a4610c46565b6001600160a01b03166106b5610738565b6001600160a01b0316146106db5760405162461bcd60e51b815260040161030d90611918565b6001600160a01b03811660009081526002602052604090205460ff16156107145760405162461bcd60e51b815260040161030d9061188d565b6001600160a01b03166000908152600260205260409020805460ff19166001179055565b6000546001600160a01b031690565b60006001600160a01b038a1673eeeeeeeeeeeeeeeeeeeeeeeeeeeeeeeeeeeeeeee14156107f95760035460405163ba560ed960e01b81526001600160a01b039091169063ba560ed9906107a0908c908b9060040161162b565b602060405180830381600087803b1580156107ba57600080fd5b505af11580156107ce573d6000803e3d6000fd5b505050506040513d601f19601f820116820180604052508101906107f29190611489565b9050610882565b600354604051631a44cdf360e11b81526001600160a01b03909116906334899be69061082d908c908e908c906004016115de565b602060405180830381600087803b15801561084757600080fd5b505af115801561085b573d6000803e3d6000fd5b505050506040513d601f19601f8201168201806040525081019061087f9190611489565b90505b61088e89333084610dc9565b6003546108a6908a906001600160a01b031683610eb9565b6001600160a01b038a1673eeeeeeeeeeeeeeeeeeeeeeeeeeeeeeeeeeeeeeee1415610936576003546040516303790ccd60e21b81526001600160a01b0390911690630de43334906108ff908c9085908c90600401611644565b600060405180830381600087803b15801561091957600080fd5b505af115801561092d573d6000803e3d6000fd5b505050506109b6565b60035460405163406e622b60e11b81526001600160a01b03909116906380dcc4569061096c908c908e9086908d90600401611602565b600060405180830381600087803b15801561098657600080fd5b505af115801561099a573d6000803e3d6000fd5b50506004546109b692508c91506001600160a01b031689610eb9565b600460009054906101000a90046001600160a01b03166001600160a01b031663ddeb2d4e888f8f8f8f338f8f8f8f8f8f8f6040518e63ffffffff1660e01b8152600401610a0e9c9b9a999897969594939291906116a6565b6000604051808303818588803b158015610a2757600080fd5b505af1158015610a3b573d6000803e3d6000fd5b50505050507f59d66a3b6cbfa0745bc5ae77069c99fa61fbed2fe228b2c21a3fdd416bd5badf8d338c8c8b604051610a77959493929190611665565b60405180910390a150505050505050505050505050565b60015481565b73eeeeeeeeeeeeeeeeeeeeeeeeeeeeeeeeeeeeeeee81565b7f000000000000000000000000000000000000000000000000000000000000000081565b610ad8610c46565b6001600160a01b0316610ae9610738565b6001600160a01b031614610b0f5760405162461bcd60e51b815260040161030d90611918565b6001600160a01b03811660009081526002602052604090205460ff16610b475760405162461bcd60e51b815260040161030d9061194d565b6001600160a01b03166000908152600260205260409020805460ff19169055565b6004546001600160a01b031681565b6003546001600160a01b031681565b610b8e610c46565b6001600160a01b0316610b9f610738565b6001600160a01b031614610bc55760405162461bcd60e51b815260040161030d90611918565b6001600160a01b038116610beb5760405162461bcd60e51b815260040161030d9061178d565b600080546040516001600160a01b03808516939216917f8be0079c531659141344cd1fd0a4f28419497f9722a3daafe3b4186f6b6457e091a3600080546001600160a01b0319166001600160a01b0392909216919091179055565b3390565b600080846001600160a01b031663a9059cbb8585604051602401610c6f92919061162b565b6040516020818303038152906040529060e01b6020820180516001600160e01b038381831617835250505050604051610ca8919061154d565b6000604051808303816000865af19150503d8060008114610ce5576040519150601f19603f3d011682016040523d82523d6000602084013e610cea565b606091505b5091509150818015610d14575080511580610d14575080806020019051810190610d149190611469565b610d305760405162461bcd60e51b815260040161030d90611a2c565b5050505050565b604080516000808252602082019092526001600160a01b038416908390604051610d61919061154d565b60006040518083038185875af1925050503d8060008114610d9e576040519150601f19603f3d011682016040523d82523d6000602084013e610da3565b606091505b5050905080610dc45760405162461bcd60e51b815260040161030d90611830565b505050565b600080856001600160a01b03166323b872dd868686604051602401610df0939291906115de565b6040516020818303038152906040529060e01b6020820180516001600160e01b038381831617835250505050604051610e29919061154d565b6000604051808303816000865af19150503d8060008114610e66576040519150601f19603f3d011682016040523d82523d6000602084013e610e6b565b606091505b5091509150818015610e95575080511580610e95575080806020019051810190610e959190611469565b610eb15760405162461bcd60e51b815260040161030d906117d3565b505050505050565b600080846001600160a01b031663095ea7b38585604051602401610ede92919061162b565b6040516020818303038152906040529060e01b6020820180516001600160e01b038381831617835250505050604051610f17919061154d565b6000604051808303816000865af19150503d8060008114610f54576040519150601f19603f3d011682016040523d82523d6000602084013e610f59565b606091505b5091509150818015610f83575080511580610f83575080806020019051810190610f839190611469565b610d305760405162461bcd60e51b815260040161030d90611984565b80356001600160a01b0381168114610fb657600080fd5b919050565b600082601f830112610fcb578081fd5b81356020610fe0610fdb83611aac565b611a82565b8281528181019085830183850287018401881015610ffc578586fd5b855b8581101561101a57813584529284019290840190600101610ffe565b5090979650505050505050565b600082601f830112611037578081fd5b81356020611047610fdb83611aac565b8281528181019085830183850287018401881015611063578586fd5b855b8581101561101a57813561ffff8116811461107e578788fd5b84529284019290840190600101611065565b600082601f8301126110a0578081fd5b813560206110b0610fdb83611aac565b82815281810190858301838502870184018810156110cc578586fd5b855b8581101561101a57813560ff811681146110e6578788fd5b845292840192908401906001016110ce565b600060208284031215611109578081fd5b61111282610f9f565b9392505050565b60008060006060848603121561112d578182fd5b61113684610f9f565b925061114460208501610f9f565b9150604084013590509250925092565b6000806000806000806000806000806000806101808d8f031215611176578788fd5b67ffffffffffffffff8d35111561118b578788fd5b6111988e8e358f01611027565b9b5067ffffffffffffffff60208e013511156111b2578788fd5b6111c28e60208f01358f01611027565b9a5067ffffffffffffffff60408e013511156111dc578788fd5b6111ec8e60408f01358f01610fbb565b99506111fa60608e01610f9f565b985061120860808e01610f9f565b975060a08d0135965060c08d0135955067ffffffffffffffff60e08e01351115611230578485fd5b6112408e60e08f01358f01610fbb565b945067ffffffffffffffff6101008e0135111561125b578384fd5b61126c8e6101008f01358f01610fbb565b935067ffffffffffffffff6101208e01351115611287578283fd5b6112988e6101208f01358f01611090565b925067ffffffffffffffff6101408e013511156112b3578081fd5b6112c48e6101408f01358f01610fbb565b915067ffffffffffffffff6101608e013511156112df578081fd5b6112f08e6101608f01358f01610fbb565b90509295989b509295989b509295989b565b60008060008060008060008060008060006101608c8e031215611323578081fd5b67ffffffffffffffff808d351115611339578182fd5b6113468e8e358f01611027565b9b508060208e01351115611358578182fd5b6113688e60208f01358f01611027565b9a508060408e0135111561137a578182fd5b61138a8e60408f01358f01610fbb565b995061139860608e01610f9f565b985060808d0135975060a08d013596508060c08e013511156113b8578182fd5b6113c88e60c08f01358f01610fbb565b95508060e08e013511156113da578182fd5b6113ea8e60e08f01358f01610fbb565b9450806101008e013511156113fd578182fd5b61140e8e6101008f01358f01611090565b9350806101208e01351115611421578182fd5b6114328e6101208f01358f01610fbb565b9250806101408e01351115611445578182fd5b506114578d6101408e01358e01610fbb565b90509295989b509295989b9093969950565b60006020828403121561147a578081fd5b81518015158114611112578182fd5b60006020828403121561149a578081fd5b5051919050565b6001600160a01b03169052565b6000815180845260208085019450808401835b838110156114dd578151875295820195908201906001016114c1565b509495945050505050565b6000815180845260208085019450808401835b838110156114dd57815161ffff16875295820195908201906001016114fb565b6000815180845260208085019450808401835b838110156114dd57815160ff168752958201959082019060010161152e565b60008251815b8181101561156d5760208186018101518583015201611553565b8181111561157b5782828501525b509190910192915050565b6001600160a01b0391909116815260200190565b6001600160a01b0392831681529116602082015260400190565b6001600160a01b039485168152928416602084015292166040820152606081019190915260800190565b6001600160a01b039384168152919092166020820152604081019190915260600190565b6001600160a01b0394851681529290931660208301526040820152606081019190915260800190565b6001600160a01b03929092168252602082015260400190565b6001600160a01b039390931683526020830191909152604082015260600190565b600060a0825261167860a08301886114e8565b6001600160a01b03968716602084015294861660408301525091909316606082015260800191909152919050565b600061018082526116bb61018083018f6114e8565b82810360208401526116cd818f6114e8565b905082810360408401526116e1818e6114ae565b90506116f0606084018d6114a1565b6116fd608084018c6114a1565b8960a08401528860c084015282810360e084015261171b81896114ae565b905082810361010084015261173081886114ae565b9050828103610120840152611745818761151b565b905082810361014084015261175a81866114ae565b905082810361016084015261176f81856114ae565b9f9e505050505050505050505050505050565b901515815260200190565b60208082526026908201527f4f776e61626c653a206e6577206f776e657220697320746865207a65726f206160408201526564647265737360d01b606082015260800190565b60208082526031908201527f5472616e7366657248656c7065723a3a7472616e7366657246726f6d3a20747260408201527f616e7366657246726f6d206661696c6564000000000000000000000000000000606082015260800190565b60208082526034908201527f5472616e7366657248656c7065723a3a736166655472616e736665724554483a60408201527f20455448207472616e73666572206661696c6564000000000000000000000000606082015260800190565b60208082526011908201527f416c726561647920617661696c61626c65000000000000000000000000000000604082015260600190565b6020808252600f908201527f4e6f74204554482070726f647563740000000000000000000000000000000000604082015260600190565b602080825260039082015262533a3160e81b604082015260600190565b6020808252818101527f4f776e61626c653a2063616c6c6572206973206e6f7420746865206f776e6572604082015260600190565b60208082526011908201527f4e6f7420617661696c61626c6520796574000000000000000000000000000000604082015260600190565b6020808252602b908201527f5472616e7366657248656c7065723a3a73616665417070726f76653a2061707060408201526a1c9bdd994819985a5b195960aa1b606082015260800190565b60208082526013908201527f496e73756666696369656e7420616d6f756e7400000000000000000000000000604082015260600190565b6020808252600c908201526b5a45524f204164647265737360a01b604082015260600190565b6020808252602d908201527f5472616e7366657248656c7065723a3a736166655472616e736665723a20747260408201526c185b9cd9995c8819985a5b1959609a1b606082015260800190565b90815260200190565b60405181810167ffffffffffffffff81118282101715611aa457611aa4611af3565b604052919050565b600067ffffffffffffffff821115611ac657611ac6611af3565b5060209081020190565b600082821015611aee57634e487b7160e01b81526011600452602481fd5b500390565b634e487b7160e01b600052604160045260246000fdfea26469706673582212203e8c8682d0488d51da6a2dbc8f73a851aeb412abb7a19f1ca6fde8a9f56b586f64736f6c63430008000033",
  "devdoc": {
    "kind": "dev",
    "methods": {
      "buyCoverByToken(uint16[],uint16[],uint256[],address,address,uint256,uint256,uint256[],uint256[],uint8[],bytes32[],bytes32[])": {
        "details": "Through this function, users can get covers from Insure by some tokens such as CVR... if users want to save gas fee, he shoud reach to this function through MultiSigWallet."
      },
      "owner()": {
        "details": "Returns the address of the current owner."
      },
      "renounceOwnership()": {
        "details": "Leaves the contract without owner. It will not be possible to call `onlyOwner` functions anymore. Can only be called by the current owner. NOTE: Renouncing ownership will leave the contract without an owner, thereby removing any functionality that is only available to the owner."
      },
      "transferOwnership(address)": {
        "details": "Transfers ownership of the contract to a new account (`newOwner`). Can only be called by the current owner."
      },
      "withdrawAsset(address,address,uint256)": {
        "details": "For reflect tokens, we should deposit some tokens at contract directly, We will withdraw tokens deposited at contract through this function"
      }
    },
    "version": 1
  },
  "userdoc": {
    "kind": "user",
    "methods": {},
    "notice": "We are supporting only CVR for InsureAce",
    "version": 1
  },
  "storageLayout": {
    "storage": [
      {
        "astId": 534,
        "contract": "contracts/onchain/InsureAceCover.sol:InsureAceCover",
        "label": "_owner",
        "offset": 0,
        "slot": "0",
        "type": "t_address"
      },
      {
        "astId": 3751,
        "contract": "contracts/onchain/InsureAceCover.sol:InsureAceCover",
        "label": "productIds",
        "offset": 0,
        "slot": "1",
        "type": "t_struct(Counter)1476_storage"
      },
      {
        "astId": 3755,
        "contract": "contracts/onchain/InsureAceCover.sol:InsureAceCover",
        "label": "availableCurrencies",
        "offset": 0,
        "slot": "2",
        "type": "t_mapping(t_address,t_bool)"
      },
      {
        "astId": 3757,
        "contract": "contracts/onchain/InsureAceCover.sol:InsureAceCover",
        "label": "exchangeAgent",
        "offset": 0,
        "slot": "3",
        "type": "t_address"
      },
      {
        "astId": 3919,
        "contract": "contracts/onchain/InsureAceCover.sol:InsureAceCover",
        "label": "coverContractAddress",
        "offset": 0,
        "slot": "4",
        "type": "t_address"
      }
    ],
    "types": {
      "t_address": {
        "encoding": "inplace",
        "label": "address",
        "numberOfBytes": "20"
      },
      "t_bool": {
        "encoding": "inplace",
        "label": "bool",
        "numberOfBytes": "1"
      },
      "t_mapping(t_address,t_bool)": {
        "encoding": "mapping",
        "key": "t_address",
        "label": "mapping(address => bool)",
        "numberOfBytes": "32",
        "value": "t_bool"
      },
      "t_struct(Counter)1476_storage": {
        "encoding": "inplace",
        "label": "struct Counters.Counter",
        "members": [
          {
            "astId": 1475,
            "contract": "contracts/onchain/InsureAceCover.sol:InsureAceCover",
            "label": "_value",
            "offset": 0,
            "slot": "0",
            "type": "t_uint256"
          }
        ],
        "numberOfBytes": "32"
      },
      "t_uint256": {
        "encoding": "inplace",
        "label": "uint256",
        "numberOfBytes": "32"
      }
    }
  }
}