{
  "address": "0xC2bccEC5468042822d8CDD75913Edf0425253882",
  "abi": [
    {
      "inputs": [
        {
          "internalType": "address",
          "name": "_CVR",
          "type": "address"
        },
        {
          "internalType": "address",
          "name": "_exchangeAgent",
          "type": "address"
        },
        {
          "internalType": "address",
          "name": "_coverContractAddress",
          "type": "address"
        }
      ],
      "stateMutability": "nonpayable",
      "type": "constructor"
    },
    {
      "anonymous": false,
      "inputs": [
        {
          "indexed": false,
          "internalType": "uint16[]",
          "name": "productIds",
          "type": "uint16[]"
        },
        {
          "indexed": false,
          "internalType": "address",
          "name": "_buyer",
          "type": "address"
        },
        {
          "indexed": false,
          "internalType": "address",
          "name": "_currency",
          "type": "address"
        },
        {
          "indexed": false,
          "internalType": "address",
          "name": "_token",
          "type": "address"
        },
        {
          "indexed": false,
          "internalType": "uint256",
          "name": "_amount",
          "type": "uint256"
        }
      ],
      "name": "BuyInsureAce",
      "type": "event"
    },
    {
      "anonymous": false,
      "inputs": [
        {
          "indexed": true,
          "internalType": "uint256",
          "name": "_productId",
          "type": "uint256"
        },
        {
          "indexed": false,
          "internalType": "address",
          "name": "_buyer",
          "type": "address"
        }
      ],
      "name": "BuyProduct",
      "type": "event"
    },
    {
      "anonymous": false,
      "inputs": [
        {
          "indexed": false,
          "internalType": "address",
          "name": "userAddress",
          "type": "address"
        },
        {
          "indexed": false,
          "internalType": "address payable",
          "name": "relayerAddress",
          "type": "address"
        },
        {
          "indexed": false,
          "internalType": "bytes",
          "name": "functionSignature",
          "type": "bytes"
        }
      ],
      "name": "MetaTransactionExecuted",
      "type": "event"
    },
    {
      "anonymous": false,
      "inputs": [
        {
          "indexed": true,
          "internalType": "address",
          "name": "previousOwner",
          "type": "address"
        },
        {
          "indexed": true,
          "internalType": "address",
          "name": "newOwner",
          "type": "address"
        }
      ],
      "name": "OwnershipTransferred",
      "type": "event"
    },
    {
      "anonymous": false,
      "inputs": [
        {
          "indexed": false,
          "internalType": "address",
          "name": "_setter",
          "type": "address"
        },
        {
          "indexed": false,
          "internalType": "address",
          "name": "_exchangeAgent",
          "type": "address"
        }
      ],
      "name": "SetExchangeAgent",
      "type": "event"
    },
    {
      "anonymous": false,
      "inputs": [
        {
          "indexed": false,
          "internalType": "address",
          "name": "_user",
          "type": "address"
        },
        {
          "indexed": false,
          "internalType": "address",
          "name": "_to",
          "type": "address"
        },
        {
          "indexed": false,
          "internalType": "address",
          "name": "_token",
          "type": "address"
        },
        {
          "indexed": false,
          "internalType": "uint256",
          "name": "_amount",
          "type": "uint256"
        }
      ],
      "name": "WithdrawAsset",
      "type": "event"
    },
    {
      "inputs": [],
      "name": "CVR",
      "outputs": [
        {
          "internalType": "address",
          "name": "",
          "type": "address"
        }
      ],
      "stateMutability": "view",
      "type": "function"
    },
    {
      "inputs": [],
      "name": "WETH",
      "outputs": [
        {
          "internalType": "address",
          "name": "",
          "type": "address"
        }
      ],
      "stateMutability": "view",
      "type": "function"
    },
    {
      "inputs": [
        {
          "internalType": "address",
          "name": "_currency",
          "type": "address"
        }
      ],
      "name": "addCurrency",
      "outputs": [],
      "stateMutability": "nonpayable",
      "type": "function"
    },
    {
      "inputs": [
        {
          "internalType": "address",
          "name": "",
          "type": "address"
        }
      ],
      "name": "availableCurrencies",
      "outputs": [
        {
          "internalType": "bool",
          "name": "",
          "type": "bool"
        }
      ],
      "stateMutability": "view",
      "type": "function"
    },
    {
      "inputs": [
        {
          "internalType": "uint16[]",
          "name": "products",
          "type": "uint16[]"
        },
        {
          "internalType": "uint16[]",
          "name": "durationInDays",
          "type": "uint16[]"
        },
        {
          "internalType": "uint256[]",
          "name": "amounts",
          "type": "uint256[]"
        },
        {
          "internalType": "address",
          "name": "currency",
          "type": "address"
        },
        {
          "internalType": "uint256",
          "name": "referralCode",
          "type": "uint256"
        },
        {
          "internalType": "uint256",
          "name": "premiumAmount",
          "type": "uint256"
        },
        {
          "internalType": "uint256[]",
          "name": "helperParameters",
          "type": "uint256[]"
        },
        {
          "internalType": "uint256[]",
          "name": "securityParameters",
          "type": "uint256[]"
        },
        {
          "internalType": "uint8[]",
          "name": "v",
          "type": "uint8[]"
        },
        {
          "internalType": "bytes32[]",
          "name": "r",
          "type": "bytes32[]"
        },
        {
          "internalType": "bytes32[]",
          "name": "s",
          "type": "bytes32[]"
        }
      ],
      "name": "buyCoverByETH",
      "outputs": [],
      "stateMutability": "payable",
      "type": "function"
    },
    {
      "inputs": [
        {
          "internalType": "uint16[]",
          "name": "products",
          "type": "uint16[]"
        },
        {
          "internalType": "uint16[]",
          "name": "durationInDays",
          "type": "uint16[]"
        },
        {
          "internalType": "uint256[]",
          "name": "amounts",
          "type": "uint256[]"
        },
        {
          "internalType": "address",
          "name": "currency",
          "type": "address"
        },
        {
          "internalType": "address",
          "name": "_token",
          "type": "address"
        },
        {
          "internalType": "uint256",
          "name": "referralCode",
          "type": "uint256"
        },
        {
          "internalType": "uint256",
          "name": "premiumAmount",
          "type": "uint256"
        },
        {
          "internalType": "uint256[]",
          "name": "helperParameters",
          "type": "uint256[]"
        },
        {
          "internalType": "uint256[]",
          "name": "securityParameters",
          "type": "uint256[]"
        },
        {
          "internalType": "uint8[]",
          "name": "v",
          "type": "uint8[]"
        },
        {
          "internalType": "bytes32[]",
          "name": "r",
          "type": "bytes32[]"
        },
        {
          "internalType": "bytes32[]",
          "name": "s",
          "type": "bytes32[]"
        }
      ],
      "name": "buyCoverByToken",
      "outputs": [],
      "stateMutability": "payable",
      "type": "function"
    },
    {
      "inputs": [],
      "name": "coverContractAddress",
      "outputs": [
        {
          "internalType": "address",
          "name": "",
          "type": "address"
        }
      ],
      "stateMutability": "view",
      "type": "function"
    },
    {
      "inputs": [],
      "name": "exchangeAgent",
      "outputs": [
        {
          "internalType": "address",
          "name": "",
          "type": "address"
        }
      ],
      "stateMutability": "view",
      "type": "function"
    },
    {
      "inputs": [
        {
          "internalType": "address",
          "name": "userAddress",
          "type": "address"
        },
        {
          "internalType": "bytes",
          "name": "functionSignature",
          "type": "bytes"
        },
        {
          "internalType": "bytes32",
          "name": "sigR",
          "type": "bytes32"
        },
        {
          "internalType": "bytes32",
          "name": "sigS",
          "type": "bytes32"
        },
        {
          "internalType": "uint8",
          "name": "sigV",
          "type": "uint8"
        }
      ],
      "name": "executeMetaTransaction",
      "outputs": [
        {
          "internalType": "bytes",
          "name": "",
          "type": "bytes"
        }
      ],
      "stateMutability": "payable",
      "type": "function"
    },
    {
      "inputs": [
        {
          "internalType": "address",
          "name": "user",
          "type": "address"
        }
      ],
      "name": "getNonce",
      "outputs": [
        {
          "internalType": "uint256",
          "name": "nonce",
          "type": "uint256"
        }
      ],
      "stateMutability": "view",
      "type": "function"
    },
    {
      "inputs": [],
      "name": "owner",
      "outputs": [
        {
          "internalType": "address",
          "name": "",
          "type": "address"
        }
      ],
      "stateMutability": "view",
      "type": "function"
    },
    {
      "inputs": [],
      "name": "productIds",
      "outputs": [
        {
          "internalType": "uint256",
          "name": "_value",
          "type": "uint256"
        }
      ],
      "stateMutability": "view",
      "type": "function"
    },
    {
      "inputs": [
        {
          "internalType": "address",
          "name": "_currency",
          "type": "address"
        }
      ],
      "name": "removeCurrency",
      "outputs": [],
      "stateMutability": "nonpayable",
      "type": "function"
    },
    {
      "inputs": [],
      "name": "renounceOwnership",
      "outputs": [],
      "stateMutability": "nonpayable",
      "type": "function"
    },
    {
      "inputs": [
        {
          "internalType": "address",
          "name": "_exchangeAgent",
          "type": "address"
        }
      ],
      "name": "setExchangeAgent",
      "outputs": [],
      "stateMutability": "nonpayable",
      "type": "function"
    },
    {
      "inputs": [
        {
          "internalType": "address",
          "name": "_coverContractAddress",
          "type": "address"
        }
      ],
      "name": "setup",
      "outputs": [],
      "stateMutability": "nonpayable",
      "type": "function"
    },
    {
      "inputs": [
        {
          "internalType": "address",
          "name": "newOwner",
          "type": "address"
        }
      ],
      "name": "transferOwnership",
      "outputs": [],
      "stateMutability": "nonpayable",
      "type": "function"
    },
    {
      "inputs": [
        {
          "internalType": "address",
          "name": "owner",
          "type": "address"
        },
        {
          "internalType": "uint256",
          "name": "nonce",
          "type": "uint256"
        },
        {
          "internalType": "uint256",
          "name": "chainID",
          "type": "uint256"
        },
        {
          "internalType": "bytes",
          "name": "functionSignature",
          "type": "bytes"
        },
        {
          "internalType": "bytes32",
          "name": "sigR",
          "type": "bytes32"
        },
        {
          "internalType": "bytes32",
          "name": "sigS",
          "type": "bytes32"
        },
        {
          "internalType": "uint8",
          "name": "sigV",
          "type": "uint8"
        }
      ],
      "name": "verify",
      "outputs": [
        {
          "internalType": "bool",
          "name": "",
          "type": "bool"
        }
      ],
      "stateMutability": "view",
      "type": "function"
    },
    {
      "inputs": [
        {
          "internalType": "address",
          "name": "_token",
          "type": "address"
        },
        {
          "internalType": "address",
          "name": "_to",
          "type": "address"
        },
        {
          "internalType": "uint256",
          "name": "_amount",
          "type": "uint256"
        }
      ],
      "name": "withdrawAsset",
      "outputs": [],
      "stateMutability": "nonpayable",
      "type": "function"
    },
    {
      "stateMutability": "payable",
      "type": "receive"
    }
  ],
  "transactionHash": "0xaf87912900be1038ec42a5737ee8471e231cd351b1e9ed0976eb2eabd68919d4",
  "args": [
    "0xd3e48FAcD30A73609ffA60AE84851e72d10fEa52",
    "0x5640B69a5e1375a95e610052c5eedfea17675996",
    "0x0921f628b8463227615D2199D0D3860E4fBcD411"
  ],
  "solcInputHash": "72e708df0775b21f517637d69b302982",
  "bytecode": "0x60a06040523480156200001157600080fd5b50604051620023f1380380620023f183398101604081905262000034916200014d565b82826000620000426200012c565b600080546001600160a01b0319166001600160a01b0383169081178255604051929350917f8be0079c531659141344cd1fd0a4f28419497f9722a3daafe3b4186f6b6457e0908290a3506001600160a01b039182166000908152600360205260409020805460ff19166001179055600480549183166001600160a01b03199092169190911790558116620000f35760405162461bcd60e51b8152600401620000ea9062000196565b60405180910390fd5b60609290921b6001600160601b03191660805250600580546001600160a01b0319166001600160a01b03909216919091179055620001b3565b3390565b80516001600160a01b03811681146200014857600080fd5b919050565b60008060006060848603121562000162578283fd5b6200016d8462000130565b92506200017d6020850162000130565b91506200018d6040850162000130565b90509250925092565b602080825260039082015262533a3160e81b604082015260600190565b60805160601c61221f620001d26000396000610d78015261221f6000f3fe6080604052600436106101185760003560e01c80638ab234b6116100a0578063b7160dee11610064578063b7160dee146102d0578063c5d3a107146102e5578063d5f4479c14610305578063d9203b911461031a578063f2fde38b1461032f5761011f565b80638ab234b6146102515780638da5cb5b1461027157806393a32fb114610293578063aa57511d146102a6578063ad5c4648146102bb5761011f565b80632d0335ab116100e75780632d0335ab146101bc5780634a3afe70146101e95780636281133d146101fc57806366d382031461021c578063715018a61461023c5761011f565b8063092ae4dc146101245780630c53c51c1461014657806318a00d8e1461016f5780631af42c0f1461018f5761011f565b3661011f57005b600080fd5b34801561013057600080fd5b5061014461013f3660046114e2565b61034f565b005b61015961015436600461151d565b6103eb565b6040516101669190611d59565b60405180910390f35b34801561017b57600080fd5b5061014461018a3660046114c1565b610541565b34801561019b57600080fd5b506101af6101aa3660046114c1565b6105fe565b6040516101669190611d30565b3480156101c857600080fd5b506101dc6101d73660046114c1565b610613565b6040516101669190612107565b6101446101f73660046117be565b61062e565b34801561020857600080fd5b506101af61021736600461158d565b610787565b34801561022857600080fd5b506101446102373660046114c1565b610857565b34801561024857600080fd5b506101446108de565b34801561025d57600080fd5b5061014461026c3660046114c1565b610967565b34801561027d57600080fd5b50610286610a03565b6040516101669190611aff565b6101446102a1366004611610565b610a13565b3480156102b257600080fd5b506101dc610d58565b3480156102c757600080fd5b50610286610d5e565b3480156102dc57600080fd5b50610286610d76565b3480156102f157600080fd5b506101446103003660046114c1565b610d9a565b34801561031157600080fd5b50610286610e32565b34801561032657600080fd5b50610286610e41565b34801561033b57600080fd5b5061014461034a3660046114c1565b610e50565b610357610f10565b6001600160a01b0316610368610a03565b6001600160a01b0316146103975760405162461bcd60e51b815260040161038e90611f65565b60405180910390fd5b6103a2838383610f14565b7f37e6496681d2c16ab49733a2a6cf0916ebaa3e90250d01f84cec59f546d8cf246103cb611001565b8385846040516103de9493929190611b62565b60405180910390a1505050565b6001600160a01b0385166000908152600160205260409020546060906104179087904688888888610787565b6104335760405162461bcd60e51b815260040161038e90611fd1565b6001600160a01b0386166000908152600160208190526040822080549192909161045e90849061215e565b90915550506040516000908190309061047d9089908b90602001611a51565b60408051601f198184030181529082905261049791611a35565b6000604051808303816000865af19150503d80600081146104d4576040519150601f19603f3d011682016040523d82523d6000602084013e6104d9565b606091505b5091509150816104fb5760405162461bcd60e51b815260040161038e90611db2565b7f5845892132946850460bff5a0083f71031bc5bf9aadcd40f1de79423eac9b10b88338960405161052e93929190611b2d565b60405180910390a1979650505050505050565b610549610f10565b6001600160a01b031661055a610a03565b6001600160a01b0316146105805760405162461bcd60e51b815260040161038e90611f65565b6001600160a01b0381166105a65760405162461bcd60e51b815260040161038e90612094565b600480546001600160a01b0319166001600160a01b0383161790556040517f0143625ceac80b2452760213c6b6f5a22eb63bc46e17d129c30fffefb4679eb6906105f39033908490611b13565b60405180910390a150565b60036020526000908152604090205460ff1681565b6001600160a01b031660009081526001602052604090205490565b6001600160a01b03881673eeeeeeeeeeeeeeeeeeeeeeeeeeeeeeeeeeeeeeee1461066a5760405162461bcd60e51b815260040161038e90611f11565b8534101561068a5760405162461bcd60e51b815260040161038e9061205d565b60006106968734612176565b11156106b6576106b66106a7611001565b6106b18834612176565b61105f565b6005546001600160a01b031663ddeb2d4e878d8d8d8d6106d4611001565b8e8e8e8e8e8e8e6040518e63ffffffff1660e01b81526004016107029c9b9a99989796959493929190611c54565b6000604051808303818588803b15801561071b57600080fd5b505af115801561072f573d6000803e3d6000fd5b50505050507f59d66a3b6cbfa0745bc5ae77069c99fa61fbed2fe228b2c21a3fdd416bd5badf8b61075e611001565b8a8b8a604051610772959493929190611c13565b60405180910390a15050505050505050505050565b6000806107bf883089896040516020016107a49493929190611ab9565b604051602081830303815290604052805190602001206110f1565b90506000600182858888604051600081526020016040526040516107e69493929190611d3b565b6020604051602081039080840390855afa158015610808573d6000803e3d6000fd5b5050604051601f1901519150506001600160a01b03811661083b5760405162461bcd60e51b815260040161038e90611ea3565b6001600160a01b038a8116911614915050979650505050505050565b61085f610f10565b6001600160a01b0316610870610a03565b6001600160a01b0316146108965760405162461bcd60e51b815260040161038e90611f65565b6001600160a01b0381166108bc5760405162461bcd60e51b815260040161038e90611f48565b600580546001600160a01b0319166001600160a01b0392909216919091179055565b6108e6610f10565b6001600160a01b03166108f7610a03565b6001600160a01b03161461091d5760405162461bcd60e51b815260040161038e90611f65565b600080546040516001600160a01b03909116907f8be0079c531659141344cd1fd0a4f28419497f9722a3daafe3b4186f6b6457e0908390a3600080546001600160a01b0319169055565b61096f610f10565b6001600160a01b0316610980610a03565b6001600160a01b0316146109a65760405162461bcd60e51b815260040161038e90611f65565b6001600160a01b03811660009081526003602052604090205460ff16156109df5760405162461bcd60e51b815260040161038e90611eda565b6001600160a01b03166000908152600360205260409020805460ff19166001179055565b6000546001600160a01b03165b90565b60006001600160a01b038a1673eeeeeeeeeeeeeeeeeeeeeeeeeeeeeeeeeeeeeeee1415610ac4576004805460405163ba560ed960e01b81526001600160a01b039091169163ba560ed991610a6b918d918c9101611bd9565b602060405180830381600087803b158015610a8557600080fd5b505af1158015610a99573d6000803e3d6000fd5b505050506040513d601f19601f82011682018060405250810190610abd9190611945565b9050610b4c565b60048054604051631a44cdf360e11b81526001600160a01b03909116916334899be691610af7918d918f918d9101611b8c565b602060405180830381600087803b158015610b1157600080fd5b505af1158015610b25573d6000803e3d6000fd5b505050506040513d601f19601f82011682018060405250810190610b499190611945565b90505b610b5f89610b58611001565b3084611122565b600454610b77908a906001600160a01b031683611212565b6001600160a01b038a1673eeeeeeeeeeeeeeeeeeeeeeeeeeeeeeeeeeeeeeee1415610c0657600480546040516303790ccd60e21b81526001600160a01b0390911691630de4333491610bcf918d9186918d9101611bf2565b600060405180830381600087803b158015610be957600080fd5b505af1158015610bfd573d6000803e3d6000fd5b50505050610c85565b6004805460405163406e622b60e11b81526001600160a01b03909116916380dcc45691610c3b918d918f9187918e9101611bb0565b600060405180830381600087803b158015610c5557600080fd5b505af1158015610c69573d6000803e3d6000fd5b5050600554610c8592508c91506001600160a01b031689611212565b6005546001600160a01b031663ddeb2d4e888f8f8f8f610ca3611001565b8f8f8f8f8f8f8f6040518e63ffffffff1660e01b8152600401610cd19c9b9a99989796959493929190611c54565b6000604051808303818588803b158015610cea57600080fd5b505af1158015610cfe573d6000803e3d6000fd5b50505050507f59d66a3b6cbfa0745bc5ae77069c99fa61fbed2fe228b2c21a3fdd416bd5badf8d610d2d611001565b8c8c8b604051610d41959493929190611c13565b60405180910390a150505050505050505050505050565b60025481565b73eeeeeeeeeeeeeeeeeeeeeeeeeeeeeeeeeeeeeeee81565b7f000000000000000000000000000000000000000000000000000000000000000081565b610da2610f10565b6001600160a01b0316610db3610a03565b6001600160a01b031614610dd95760405162461bcd60e51b815260040161038e90611f65565b6001600160a01b03811660009081526003602052604090205460ff16610e115760405162461bcd60e51b815260040161038e90611f9a565b6001600160a01b03166000908152600360205260409020805460ff19169055565b6005546001600160a01b031681565b6004546001600160a01b031681565b610e58610f10565b6001600160a01b0316610e69610a03565b6001600160a01b031614610e8f5760405162461bcd60e51b815260040161038e90611f65565b6001600160a01b038116610eb55760405162461bcd60e51b815260040161038e90611d6c565b600080546040516001600160a01b03808516939216917f8be0079c531659141344cd1fd0a4f28419497f9722a3daafe3b4186f6b6457e091a3600080546001600160a01b0319166001600160a01b0392909216919091179055565b3390565b600080846001600160a01b031663a9059cbb8585604051602401610f39929190611bd9565b6040516020818303038152906040529060e01b6020820180516001600160e01b038381831617835250505050604051610f729190611a35565b6000604051808303816000865af19150503d8060008114610faf576040519150601f19603f3d011682016040523d82523d6000602084013e610fb4565b606091505b5091509150818015610fde575080511580610fde575080806020019051810190610fde9190611925565b610ffa5760405162461bcd60e51b815260040161038e906120ba565b5050505050565b60003330141561105857600080368080601f0160208091040260200160405190810160405280939291908181526020018383808284376000920191909152505050503601516001600160a01b03169150610a109050565b5033610a10565b604080516000808252602082019092526001600160a01b0384169083906040516110899190611a35565b60006040518083038185875af1925050503d80600081146110c6576040519150601f19603f3d011682016040523d82523d6000602084013e6110cb565b606091505b50509050806110ec5760405162461bcd60e51b815260040161038e90611e46565b505050565b6000816040516020016111049190611a88565b6040516020818303038152906040528051906020012090505b919050565b600080856001600160a01b03166323b872dd86868660405160240161114993929190611b8c565b6040516020818303038152906040529060e01b6020820180516001600160e01b0383818316178352505050506040516111829190611a35565b6000604051808303816000865af19150503d80600081146111bf576040519150601f19603f3d011682016040523d82523d6000602084013e6111c4565b606091505b50915091508180156111ee5750805115806111ee5750808060200190518101906111ee9190611925565b61120a5760405162461bcd60e51b815260040161038e90611de9565b505050505050565b600080846001600160a01b031663095ea7b38585604051602401611237929190611bd9565b6040516020818303038152906040529060e01b6020820180516001600160e01b0383818316178352505050506040516112709190611a35565b6000604051808303816000865af19150503d80600081146112ad576040519150601f19603f3d011682016040523d82523d6000602084013e6112b2565b606091505b50915091508180156112dc5750805115806112dc5750808060200190518101906112dc9190611925565b610ffa5760405162461bcd60e51b815260040161038e90612012565b80356001600160a01b038116811461111d57600080fd5b600082601f83011261131f578081fd5b8135602061133461132f8361213a565b612110565b8281528181019085830183850287018401881015611350578586fd5b855b8581101561136e57813584529284019290840190600101611352565b5090979650505050505050565b600082601f83011261138b578081fd5b8135602061139b61132f8361213a565b82815281810190858301838502870184018810156113b7578586fd5b855b8581101561136e57813561ffff811681146113d2578788fd5b845292840192908401906001016113b9565b600082601f8301126113f4578081fd5b8135602061140461132f8361213a565b8281528181019085830183850287018401881015611420578586fd5b855b8581101561136e57611433826114b0565b84529284019290840190600101611422565b600082601f830112611455578081fd5b813567ffffffffffffffff81111561146f5761146f6121d3565b611482601f8201601f1916602001612110565b818152846020838601011115611496578283fd5b816020850160208301379081016020019190915292915050565b803560ff8116811461111d57600080fd5b6000602082840312156114d2578081fd5b6114db826112f8565b9392505050565b6000806000606084860312156114f6578182fd5b6114ff846112f8565b925061150d602085016112f8565b9150604084013590509250925092565b600080600080600060a08688031215611534578081fd5b61153d866112f8565b9450602086013567ffffffffffffffff811115611558578182fd5b61156488828901611445565b9450506040860135925060608601359150611581608087016114b0565b90509295509295909350565b600080600080600080600060e0888a0312156115a7578182fd5b6115b0886112f8565b96506020880135955060408801359450606088013567ffffffffffffffff8111156115d9578283fd5b6115e58a828b01611445565b9450506080880135925060a0880135915061160260c089016114b0565b905092959891949750929550565b6000806000806000806000806000806000806101808d8f031215611632578586fd5b67ffffffffffffffff8d351115611647578586fd5b6116548e8e358f0161137b565b9b5067ffffffffffffffff60208e0135111561166e578586fd5b61167e8e60208f01358f0161137b565b9a5067ffffffffffffffff60408e01351115611698578586fd5b6116a88e60408f01358f0161130f565b99506116b660608e016112f8565b98506116c460808e016112f8565b975060a08d0135965060c08d0135955067ffffffffffffffff60e08e013511156116ec578485fd5b6116fc8e60e08f01358f0161130f565b945067ffffffffffffffff6101008e01351115611717578384fd5b6117288e6101008f01358f0161130f565b935067ffffffffffffffff6101208e01351115611743578283fd5b6117548e6101208f01358f016113e4565b925067ffffffffffffffff6101408e0135111561176f578081fd5b6117808e6101408f01358f0161130f565b915067ffffffffffffffff6101608e0135111561179b578081fd5b6117ac8e6101608f01358f0161130f565b90509295989b509295989b509295989b565b60008060008060008060008060008060006101608c8e0312156117df578485fd5b67ffffffffffffffff808d3511156117f5578586fd5b6118028e8e358f0161137b565b9b508060208e01351115611814578586fd5b6118248e60208f01358f0161137b565b9a508060408e01351115611836578586fd5b6118468e60408f01358f0161130f565b995061185460608e016112f8565b985060808d0135975060a08d013596508060c08e01351115611874578586fd5b6118848e60c08f01358f0161130f565b95508060e08e01351115611896578485fd5b6118a68e60e08f01358f0161130f565b9450806101008e013511156118b9578182fd5b6118ca8e6101008f01358f016113e4565b9350806101208e013511156118dd578182fd5b6118ee8e6101208f01358f0161130f565b9250806101408e01351115611901578182fd5b506119138d6101408e01358e0161130f565b90509295989b509295989b9093969950565b600060208284031215611936578081fd5b815180151581146114db578182fd5b600060208284031215611956578081fd5b5051919050565b6001600160a01b03169052565b6000815180845260208085019450808401835b838110156119995781518752958201959082019060010161197d565b509495945050505050565b6000815180845260208085019450808401835b8381101561199957815161ffff16875295820195908201906001016119b7565b6000815180845260208085019450808401835b8381101561199957815160ff16875295820195908201906001016119ea565b60008151808452611a2181602086016020860161218d565b601f01601f19169290920160200192915050565b60008251611a4781846020870161218d565b9190910192915050565b60008351611a6381846020880161218d565b60609390931b6bffffffffffffffffffffffff19169190920190815260140192915050565b7f19457468657265756d205369676e6564204d6573736167653a0a3332000000008152601c810191909152603c0190565b60008582526bffffffffffffffffffffffff198560601b1660208301528360348301528251611aef81605485016020870161218d565b9190910160540195945050505050565b6001600160a01b0391909116815260200190565b6001600160a01b0392831681529116602082015260400190565b60006001600160a01b03808616835280851660208401525060606040830152611b596060830184611a09565b95945050505050565b6001600160a01b039485168152928416602084015292166040820152606081019190915260800190565b6001600160a01b039384168152919092166020820152604081019190915260600190565b6001600160a01b0394851681529290931660208301526040820152606081019190915260800190565b6001600160a01b03929092168252602082015260400190565b6001600160a01b039390931683526020830191909152604082015260600190565b600060a08252611c2660a08301886119a4565b6001600160a01b03968716602084015294861660408301525091909316606082015260800191909152919050565b60006101808252611c6961018083018f6119a4565b8281036020840152611c7b818f6119a4565b90508281036040840152611c8f818e61196a565b9050611c9e606084018d61195d565b611cab608084018c61195d565b8960a08401528860c084015282810360e0840152611cc9818961196a565b9050828103610100840152611cde818861196a565b9050828103610120840152611cf381876119d7565b9050828103610140840152611d08818661196a565b9050828103610160840152611d1d818561196a565b9f9e505050505050505050505050505050565b901515815260200190565b93845260ff9290921660208401526040830152606082015260800190565b6000602082526114db6020830184611a09565b60208082526026908201527f4f776e61626c653a206e6577206f776e657220697320746865207a65726f206160408201526564647265737360d01b606082015260800190565b6020808252601c908201527f46756e6374696f6e2063616c6c206e6f74207375636365737366756c00000000604082015260600190565b60208082526031908201527f5472616e7366657248656c7065723a3a7472616e7366657246726f6d3a20747260408201527f616e7366657246726f6d206661696c6564000000000000000000000000000000606082015260800190565b60208082526034908201527f5472616e7366657248656c7065723a3a736166655472616e736665724554483a60408201527f20455448207472616e73666572206661696c6564000000000000000000000000606082015260800190565b60208082526011908201527f496e76616c6964207369676e6174757265000000000000000000000000000000604082015260600190565b60208082526011908201527f416c726561647920617661696c61626c65000000000000000000000000000000604082015260600190565b6020808252600f908201527f4e6f74204554482070726f647563740000000000000000000000000000000000604082015260600190565b602080825260039082015262533a3160e81b604082015260600190565b6020808252818101527f4f776e61626c653a2063616c6c6572206973206e6f7420746865206f776e6572604082015260600190565b60208082526011908201527f4e6f7420617661696c61626c6520796574000000000000000000000000000000604082015260600190565b60208082526021908201527f5369676e657220616e64207369676e617475726520646f206e6f74206d6174636040820152600d60fb1b606082015260800190565b6020808252602b908201527f5472616e7366657248656c7065723a3a73616665417070726f76653a2061707060408201526a1c9bdd994819985a5b195960aa1b606082015260800190565b60208082526013908201527f496e73756666696369656e7420616d6f756e7400000000000000000000000000604082015260600190565b6020808252600c908201526b5a45524f204164647265737360a01b604082015260600190565b6020808252602d908201527f5472616e7366657248656c7065723a3a736166655472616e736665723a20747260408201526c185b9cd9995c8819985a5b1959609a1b606082015260800190565b90815260200190565b60405181810167ffffffffffffffff81118282101715612132576121326121d3565b604052919050565b600067ffffffffffffffff821115612154576121546121d3565b5060209081020190565b60008219821115612171576121716121bd565b500190565b600082821015612188576121886121bd565b500390565b60005b838110156121a8578181015183820152602001612190565b838111156121b7576000848401525b50505050565b634e487b7160e01b600052601160045260246000fd5b634e487b7160e01b600052604160045260246000fdfea26469706673582212202d0cec81a13db7d1e575264d982efa131960979602b6504797acc6fa127f14e264736f6c63430008000033",
  "devdoc": {
    "kind": "dev",
    "methods": {
      "buyCoverByToken(uint16[],uint16[],uint256[],address,address,uint256,uint256,uint256[],uint256[],uint8[],bytes32[],bytes32[])": {
        "details": "Through this function, users can get covers from Insure by some tokens such as CVR... if users want to save gas fee, he shoud reach to this function through MultiSigWallet."
      },
      "executeMetaTransaction(address,bytes,bytes32,bytes32,uint8)": {
        "params": {
          "functionSignature": "Signature of the actual function to be called via meta transaction",
          "sigR": "R part of the signature",
          "sigS": "S part of the signature",
          "sigV": "V part of the signature",
          "userAddress": "Address of user trying to do meta transaction"
        }
      },
      "owner()": {
        "details": "Returns the address of the current owner."
      },
      "renounceOwnership()": {
        "details": "Leaves the contract without owner. It will not be possible to call `onlyOwner` functions anymore. Can only be called by the current owner. NOTE: Renouncing ownership will leave the contract without an owner, thereby removing any functionality that is only available to the owner."
      },
      "transferOwnership(address)": {
        "details": "Transfers ownership of the contract to a new account (`newOwner`). Can only be called by the current owner."
      },
      "withdrawAsset(address,address,uint256)": {
        "details": "For reflect tokens, we should deposit some tokens at contract directly, We will withdraw tokens deposited at contract through this function"
      }
    },
    "version": 1
  },
  "userdoc": {
    "kind": "user",
    "methods": {
      "executeMetaTransaction(address,bytes,bytes32,bytes32,uint8)": {
        "notice": "Main function to be called when user wants to execute meta transaction. The actual function to be called should be passed as param with name functionSignature Here the basic signature recovery is being used. Signature is expected to be generated using personal_sign method."
      }
    },
    "notice": "We are supporting only CVR for InsureAce",
    "version": 1
  },
  "storageLayout": {
    "storage": [
      {
        "astId": 534,
        "contract": "contracts/onchain/InsureAceCover.sol:InsureAceCover",
        "label": "_owner",
        "offset": 0,
        "slot": "0",
        "type": "t_address"
      },
      {
        "astId": 2543,
        "contract": "contracts/onchain/InsureAceCover.sol:InsureAceCover",
        "label": "nonces",
        "offset": 0,
        "slot": "1",
        "type": "t_mapping(t_address,t_uint256)"
      },
      {
        "astId": 4535,
        "contract": "contracts/onchain/InsureAceCover.sol:InsureAceCover",
        "label": "productIds",
        "offset": 0,
        "slot": "2",
        "type": "t_struct(Counter)1476_storage"
      },
      {
        "astId": 4539,
        "contract": "contracts/onchain/InsureAceCover.sol:InsureAceCover",
        "label": "availableCurrencies",
        "offset": 0,
        "slot": "3",
        "type": "t_mapping(t_address,t_bool)"
      },
      {
        "astId": 4541,
        "contract": "contracts/onchain/InsureAceCover.sol:InsureAceCover",
        "label": "exchangeAgent",
        "offset": 0,
        "slot": "4",
        "type": "t_address"
      },
      {
        "astId": 4703,
        "contract": "contracts/onchain/InsureAceCover.sol:InsureAceCover",
        "label": "coverContractAddress",
        "offset": 0,
        "slot": "5",
        "type": "t_address"
      }
    ],
    "types": {
      "t_address": {
        "encoding": "inplace",
        "label": "address",
        "numberOfBytes": "20"
      },
      "t_bool": {
        "encoding": "inplace",
        "label": "bool",
        "numberOfBytes": "1"
      },
      "t_mapping(t_address,t_bool)": {
        "encoding": "mapping",
        "key": "t_address",
        "label": "mapping(address => bool)",
        "numberOfBytes": "32",
        "value": "t_bool"
      },
      "t_mapping(t_address,t_uint256)": {
        "encoding": "mapping",
        "key": "t_address",
        "label": "mapping(address => uint256)",
        "numberOfBytes": "32",
        "value": "t_uint256"
      },
      "t_struct(Counter)1476_storage": {
        "encoding": "inplace",
        "label": "struct Counters.Counter",
        "members": [
          {
            "astId": 1475,
            "contract": "contracts/onchain/InsureAceCover.sol:InsureAceCover",
            "label": "_value",
            "offset": 0,
            "slot": "0",
            "type": "t_uint256"
          }
        ],
        "numberOfBytes": "32"
      },
      "t_uint256": {
        "encoding": "inplace",
        "label": "uint256",
        "numberOfBytes": "32"
      }
    }
  }
}