{
  "address": "0xd913fB5daEe432B184f46b27878F5880B8c0Bcc4",
  "abi": [
    {
      "inputs": [
        {
          "internalType": "address",
          "name": "_CVR",
          "type": "address"
        },
        {
          "internalType": "address",
          "name": "_exchangeAgent",
          "type": "address"
        },
        {
          "internalType": "address",
          "name": "_coverContractAddress",
          "type": "address"
        }
      ],
      "stateMutability": "nonpayable",
      "type": "constructor"
    },
    {
      "anonymous": false,
      "inputs": [
        {
          "indexed": false,
          "internalType": "uint16[]",
          "name": "productIds",
          "type": "uint16[]"
        },
        {
          "indexed": false,
          "internalType": "address",
          "name": "_buyer",
          "type": "address"
        },
        {
          "indexed": false,
          "internalType": "address",
          "name": "_currency",
          "type": "address"
        },
        {
          "indexed": false,
          "internalType": "uint256",
          "name": "_amount",
          "type": "uint256"
        }
      ],
      "name": "BuyInsureAce",
      "type": "event"
    },
    {
      "anonymous": false,
      "inputs": [
        {
          "indexed": true,
          "internalType": "uint256",
          "name": "_productId",
          "type": "uint256"
        },
        {
          "indexed": false,
          "internalType": "address",
          "name": "_buyer",
          "type": "address"
        }
      ],
      "name": "BuyProduct",
      "type": "event"
    },
    {
      "anonymous": false,
      "inputs": [
        {
          "indexed": true,
          "internalType": "address",
          "name": "previousOwner",
          "type": "address"
        },
        {
          "indexed": true,
          "internalType": "address",
          "name": "newOwner",
          "type": "address"
        }
      ],
      "name": "OwnershipTransferred",
      "type": "event"
    },
    {
      "anonymous": false,
      "inputs": [
        {
          "indexed": false,
          "internalType": "address",
          "name": "_user",
          "type": "address"
        },
        {
          "indexed": false,
          "internalType": "address",
          "name": "_to",
          "type": "address"
        },
        {
          "indexed": false,
          "internalType": "address",
          "name": "_token",
          "type": "address"
        },
        {
          "indexed": false,
          "internalType": "uint256",
          "name": "_amount",
          "type": "uint256"
        }
      ],
      "name": "WithdrawAsset",
      "type": "event"
    },
    {
      "inputs": [],
      "name": "CVR",
      "outputs": [
        {
          "internalType": "address",
          "name": "",
          "type": "address"
        }
      ],
      "stateMutability": "view",
      "type": "function"
    },
    {
      "inputs": [],
      "name": "WETH",
      "outputs": [
        {
          "internalType": "address",
          "name": "",
          "type": "address"
        }
      ],
      "stateMutability": "view",
      "type": "function"
    },
    {
      "inputs": [
        {
          "internalType": "address",
          "name": "_currency",
          "type": "address"
        }
      ],
      "name": "addCurrency",
      "outputs": [],
      "stateMutability": "nonpayable",
      "type": "function"
    },
    {
      "inputs": [
        {
          "internalType": "address",
          "name": "",
          "type": "address"
        }
      ],
      "name": "availableCurrencies",
      "outputs": [
        {
          "internalType": "bool",
          "name": "",
          "type": "bool"
        }
      ],
      "stateMutability": "view",
      "type": "function"
    },
    {
      "inputs": [
        {
          "internalType": "uint16[]",
          "name": "products",
          "type": "uint16[]"
        },
        {
          "internalType": "uint16[]",
          "name": "durationInDays",
          "type": "uint16[]"
        },
        {
          "internalType": "uint256[]",
          "name": "amounts",
          "type": "uint256[]"
        },
        {
          "internalType": "address",
          "name": "currency",
          "type": "address"
        },
        {
          "internalType": "address",
          "name": "owner",
          "type": "address"
        },
        {
          "internalType": "uint256",
          "name": "referralCode",
          "type": "uint256"
        },
        {
          "internalType": "uint256",
          "name": "premiumAmount",
          "type": "uint256"
        },
        {
          "internalType": "uint256[]",
          "name": "helperParameters",
          "type": "uint256[]"
        },
        {
          "internalType": "uint256[]",
          "name": "securityParameters",
          "type": "uint256[]"
        },
        {
          "internalType": "uint8[]",
          "name": "v",
          "type": "uint8[]"
        },
        {
          "internalType": "bytes32[]",
          "name": "r",
          "type": "bytes32[]"
        },
        {
          "internalType": "bytes32[]",
          "name": "s",
          "type": "bytes32[]"
        }
      ],
      "name": "buyCoverByETH",
      "outputs": [],
      "stateMutability": "payable",
      "type": "function"
    },
    {
      "inputs": [
        {
          "internalType": "uint16[]",
          "name": "products",
          "type": "uint16[]"
        },
        {
          "internalType": "uint16[]",
          "name": "durationInDays",
          "type": "uint16[]"
        },
        {
          "internalType": "uint256[]",
          "name": "amounts",
          "type": "uint256[]"
        },
        {
          "internalType": "address",
          "name": "currency",
          "type": "address"
        },
        {
          "internalType": "address",
          "name": "owner",
          "type": "address"
        },
        {
          "internalType": "uint256",
          "name": "referralCode",
          "type": "uint256"
        },
        {
          "internalType": "uint256",
          "name": "premiumAmount",
          "type": "uint256"
        },
        {
          "internalType": "uint256[]",
          "name": "helperParameters",
          "type": "uint256[]"
        },
        {
          "internalType": "uint256[]",
          "name": "securityParameters",
          "type": "uint256[]"
        },
        {
          "internalType": "uint8[]",
          "name": "v",
          "type": "uint8[]"
        },
        {
          "internalType": "bytes32[]",
          "name": "r",
          "type": "bytes32[]"
        },
        {
          "internalType": "bytes32[]",
          "name": "s",
          "type": "bytes32[]"
        }
      ],
      "name": "buyCoverByToken",
      "outputs": [],
      "stateMutability": "payable",
      "type": "function"
    },
    {
      "inputs": [],
      "name": "coverContractAddress",
      "outputs": [
        {
          "internalType": "address",
          "name": "",
          "type": "address"
        }
      ],
      "stateMutability": "view",
      "type": "function"
    },
    {
      "inputs": [],
      "name": "exchangeAgent",
      "outputs": [
        {
          "internalType": "address",
          "name": "",
          "type": "address"
        }
      ],
      "stateMutability": "view",
      "type": "function"
    },
    {
      "inputs": [],
      "name": "owner",
      "outputs": [
        {
          "internalType": "address",
          "name": "",
          "type": "address"
        }
      ],
      "stateMutability": "view",
      "type": "function"
    },
    {
      "inputs": [],
      "name": "productIds",
      "outputs": [
        {
          "internalType": "uint256",
          "name": "_value",
          "type": "uint256"
        }
      ],
      "stateMutability": "view",
      "type": "function"
    },
    {
      "inputs": [
        {
          "internalType": "address",
          "name": "_currency",
          "type": "address"
        }
      ],
      "name": "removeCurrency",
      "outputs": [],
      "stateMutability": "nonpayable",
      "type": "function"
    },
    {
      "inputs": [],
      "name": "renounceOwnership",
      "outputs": [],
      "stateMutability": "nonpayable",
      "type": "function"
    },
    {
      "inputs": [
        {
          "internalType": "address",
          "name": "_coverContractAddress",
          "type": "address"
        }
      ],
      "name": "setup",
      "outputs": [],
      "stateMutability": "nonpayable",
      "type": "function"
    },
    {
      "inputs": [
        {
          "internalType": "address",
          "name": "newOwner",
          "type": "address"
        }
      ],
      "name": "transferOwnership",
      "outputs": [],
      "stateMutability": "nonpayable",
      "type": "function"
    },
    {
      "inputs": [
        {
          "internalType": "address",
          "name": "_token",
          "type": "address"
        },
        {
          "internalType": "address",
          "name": "_to",
          "type": "address"
        },
        {
          "internalType": "uint256",
          "name": "_amount",
          "type": "uint256"
        }
      ],
      "name": "withdrawAsset",
      "outputs": [],
      "stateMutability": "nonpayable",
      "type": "function"
    },
    {
      "stateMutability": "payable",
      "type": "receive"
    }
  ],
  "transactionHash": "0xba947800e5378b5efa86a2080803acbc2490c1eb6d8829e367baf02d87519dd2",
  "args": [
    "0xd3e48FAcD30A73609ffA60AE84851e72d10fEa52",
    "0x9Bb129C697b9E8593f329253AFB8Bc777B8Cc892",
    "0x0921f628b8463227615D2199D0D3860E4fBcD411"
  ],
  "solcInputHash": "e121b956ef2c863635cbc7b7bf41db2d",
  "bytecode": "0x60a06040523480156200001157600080fd5b5060405162001b4938038062001b4983398101604081905262000034916200015b565b82826200004a62000044620000ea565b620000ee565b6001600160a01b039182166000908152600260205260409020805460ff19166001179055600380549183166001600160a01b03199092169190911790558116620000b15760405162461bcd60e51b8152600401620000a890620001a4565b60405180910390fd5b60609290921b6001600160601b03191660805250600480546001600160a01b0319166001600160a01b03909216919091179055620001c1565b3390565b600080546001600160a01b038381166001600160a01b0319831681178455604051919092169283917f8be0079c531659141344cd1fd0a4f28419497f9722a3daafe3b4186f6b6457e09190a35050565b80516001600160a01b03811681146200015657600080fd5b919050565b60008060006060848603121562000170578283fd5b6200017b846200013e565b92506200018b602085016200013e565b91506200019b604085016200013e565b90509250925092565b602080825260039082015262533a3160e81b604082015260600190565b60805160601c61193f6200020a60003960008181610526015281816105d10152818161065701528181610687015281816107030152818161078e0152610a52015261193f6000f3fe6080604052600436106100ec5760003560e01c8063a3d05bed1161008a578063c5d3a10711610059578063c5d3a10714610239578063d5f4479c14610259578063d9203b911461026e578063f2fde38b14610283576100f3565b8063a3d05bed146101da578063aa57511d146101ed578063ad5c46481461020f578063b7160dee14610224576100f3565b8063715018a6116100c6578063715018a6146101705780638ab234b6146101855780638da5cb5b146101a557806393a32fb1146101c7576100f3565b8063092ae4dc146100f85780631af42c0f1461011a57806366d3820314610150576100f3565b366100f357005b600080fd5b34801561010457600080fd5b506101186101133660046110cb565b6102a3565b005b34801561012657600080fd5b5061013a6101353660046110aa565b610338565b60405161014791906115a8565b60405180910390f35b34801561015c57600080fd5b5061011861016b3660046110aa565b61034d565b34801561017c57600080fd5b506101186103e1565b34801561019157600080fd5b506101186101a03660046110aa565b61042c565b3480156101b157600080fd5b506101ba6104c8565b60405161014791906113d1565b6101186101d5366004611106565b6104d7565b6101186101e8366004611106565b6108dc565b3480156101f957600080fd5b50610202610a32565b6040516101479190611879565b34801561021b57600080fd5b506101ba610a38565b34801561023057600080fd5b506101ba610a50565b34801561024557600080fd5b506101186102543660046110aa565b610a74565b34801561026557600080fd5b506101ba610b0c565b34801561027a57600080fd5b506101ba610b1b565b34801561028f57600080fd5b5061011861029e3660046110aa565b610b2a565b6102ab610b9b565b6001600160a01b03166102bc6104c8565b6001600160a01b0316146102eb5760405162461bcd60e51b81526004016102e29061173e565b60405180910390fd5b6102f6838383610b9f565b7f37e6496681d2c16ab49733a2a6cf0916ebaa3e90250d01f84cec59f546d8cf243383858460405161032b94939291906113e5565b60405180910390a1505050565b60026020526000908152604090205460ff1681565b610355610b9b565b6001600160a01b03166103666104c8565b6001600160a01b03161461038c5760405162461bcd60e51b81526004016102e29061173e565b6001600160a01b0381166103b25760405162461bcd60e51b81526004016102e290611721565b6004805473ffffffffffffffffffffffffffffffffffffffff19166001600160a01b0392909216919091179055565b6103e9610b9b565b6001600160a01b03166103fa6104c8565b6001600160a01b0316146104205760405162461bcd60e51b81526004016102e29061173e565b61042a6000610c8c565b565b610434610b9b565b6001600160a01b03166104456104c8565b6001600160a01b03161461046b5760405162461bcd60e51b81526004016102e29061173e565b6001600160a01b03811660009081526002602052604090205460ff16156104a45760405162461bcd60e51b81526004016102e2906116b3565b6001600160a01b03166000908152600260205260409020805460ff19166001179055565b6000546001600160a01b031690565b60006001600160a01b038a1673eeeeeeeeeeeeeeeeeeeeeeeeeeeeeeeeeeeeeeee14156105a95760035460405163ba560ed960e01b81526001600160a01b039091169063ba560ed990610550907f0000000000000000000000000000000000000000000000000000000000000000908b9060040161145c565b602060405180830381600087803b15801561056a57600080fd5b505af115801561057e573d6000803e3d6000fd5b505050506040513d601f19601f820116820180604052508101906105a291906112d4565b9050610652565b600354604051631a44cdf360e11b81526001600160a01b03909116906334899be6906105fd907f0000000000000000000000000000000000000000000000000000000000000000908e908c9060040161140f565b602060405180830381600087803b15801561061757600080fd5b505af115801561062b573d6000803e3d6000fd5b505050506040513d601f19601f8201168201806040525081019061064f91906112d4565b90505b61067e7f0000000000000000000000000000000000000000000000000000000000000000333084610ce9565b6003546106b6907f0000000000000000000000000000000000000000000000000000000000000000906001600160a01b031683610dd9565b6001600160a01b038a1673eeeeeeeeeeeeeeeeeeeeeeeeeeeeeeeeeeeeeeee1415610766576003546040516303790ccd60e21b81526001600160a01b0390911690630de433349061072f907f00000000000000000000000000000000000000000000000000000000000000009085908c90600401611475565b600060405180830381600087803b15801561074957600080fd5b505af115801561075d573d6000803e3d6000fd5b50505050610806565b60035460405163406e622b60e11b81526001600160a01b03909116906380dcc456906107bc907f0000000000000000000000000000000000000000000000000000000000000000908e9086908d90600401611433565b600060405180830381600087803b1580156107d657600080fd5b505af11580156107ea573d6000803e3d6000fd5b505060045461080692508c91506001600160a01b031689610dd9565b600460009054906101000a90046001600160a01b03166001600160a01b031663ddeb2d4e888f8f8f8f8f8f8f8f8f8f8f8f6040518e63ffffffff1660e01b815260040161085e9c9b9a999897969594939291906114cc565b6000604051808303818588803b15801561087757600080fd5b505af115801561088b573d6000803e3d6000fd5b50505050507f45085eb0f088969322b07998679405e4d60e68eee1902dd7311646dd46afcc2a8d8a8c8a6040516108c59493929190611496565b60405180910390a150505050505050505050505050565b6001600160a01b03891673eeeeeeeeeeeeeeeeeeeeeeeeeeeeeeeeeeeeeeee146109185760405162461bcd60e51b81526004016102e2906116ea565b853410156109385760405162461bcd60e51b81526004016102e2906117f5565b600061094487346118d0565b111561095d5761095d3361095888346118d0565b610ebf565b600460009054906101000a90046001600160a01b03166001600160a01b031663ddeb2d4e878e8e8e8e8e8e8e8e8e8e8e8e6040518e63ffffffff1660e01b81526004016109b59c9b9a999897969594939291906114cc565b6000604051808303818588803b1580156109ce57600080fd5b505af11580156109e2573d6000803e3d6000fd5b50505050507f45085eb0f088969322b07998679405e4d60e68eee1902dd7311646dd46afcc2a8c898b89604051610a1c9493929190611496565b60405180910390a1505050505050505050505050565b60015481565b73eeeeeeeeeeeeeeeeeeeeeeeeeeeeeeeeeeeeeeee81565b7f000000000000000000000000000000000000000000000000000000000000000081565b610a7c610b9b565b6001600160a01b0316610a8d6104c8565b6001600160a01b031614610ab35760405162461bcd60e51b81526004016102e29061173e565b6001600160a01b03811660009081526002602052604090205460ff16610aeb5760405162461bcd60e51b81526004016102e290611773565b6001600160a01b03166000908152600260205260409020805460ff19169055565b6004546001600160a01b031681565b6003546001600160a01b031681565b610b32610b9b565b6001600160a01b0316610b436104c8565b6001600160a01b031614610b695760405162461bcd60e51b81526004016102e29061173e565b6001600160a01b038116610b8f5760405162461bcd60e51b81526004016102e2906115b3565b610b9881610c8c565b50565b3390565b600080846001600160a01b031663a9059cbb8585604051602401610bc492919061145c565b6040516020818303038152906040529060e01b6020820180516001600160e01b038381831617835250505050604051610bfd9190611398565b6000604051808303816000865af19150503d8060008114610c3a576040519150601f19603f3d011682016040523d82523d6000602084013e610c3f565b606091505b5091509150818015610c69575080511580610c69575080806020019051810190610c6991906112b4565b610c855760405162461bcd60e51b81526004016102e29061182c565b5050505050565b600080546001600160a01b0383811673ffffffffffffffffffffffffffffffffffffffff19831681178455604051919092169283917f8be0079c531659141344cd1fd0a4f28419497f9722a3daafe3b4186f6b6457e09190a35050565b600080856001600160a01b03166323b872dd868686604051602401610d109392919061140f565b6040516020818303038152906040529060e01b6020820180516001600160e01b038381831617835250505050604051610d499190611398565b6000604051808303816000865af19150503d8060008114610d86576040519150601f19603f3d011682016040523d82523d6000602084013e610d8b565b606091505b5091509150818015610db5575080511580610db5575080806020019051810190610db591906112b4565b610dd15760405162461bcd60e51b81526004016102e2906115f9565b505050505050565b600080846001600160a01b031663095ea7b38585604051602401610dfe92919061145c565b6040516020818303038152906040529060e01b6020820180516001600160e01b038381831617835250505050604051610e379190611398565b6000604051808303816000865af19150503d8060008114610e74576040519150601f19603f3d011682016040523d82523d6000602084013e610e79565b606091505b5091509150818015610ea3575080511580610ea3575080806020019051810190610ea391906112b4565b610c855760405162461bcd60e51b81526004016102e2906117aa565b604080516000808252602082019092526001600160a01b038416908390604051610ee99190611398565b60006040518083038185875af1925050503d8060008114610f26576040519150601f19603f3d011682016040523d82523d6000602084013e610f2b565b606091505b5050905080610f4c5760405162461bcd60e51b81526004016102e290611656565b505050565b80356001600160a01b0381168114610f6857600080fd5b919050565b600082601f830112610f7d578081fd5b81356020610f92610f8d836118ac565b611882565b8281528181019085830183850287018401881015610fae578586fd5b855b85811015610fcc57813584529284019290840190600101610fb0565b5090979650505050505050565b600082601f830112610fe9578081fd5b81356020610ff9610f8d836118ac565b8281528181019085830183850287018401881015611015578586fd5b855b85811015610fcc57813561ffff81168114611030578788fd5b84529284019290840190600101611017565b600082601f830112611052578081fd5b81356020611062610f8d836118ac565b828152818101908583018385028701840188101561107e578586fd5b855b85811015610fcc57813560ff81168114611098578788fd5b84529284019290840190600101611080565b6000602082840312156110bb578081fd5b6110c482610f51565b9392505050565b6000806000606084860312156110df578182fd5b6110e884610f51565b92506110f660208501610f51565b9150604084013590509250925092565b6000806000806000806000806000806000806101808d8f031215611128578788fd5b67ffffffffffffffff8d35111561113d578788fd5b61114a8e8e358f01610fd9565b9b5067ffffffffffffffff60208e01351115611164578788fd5b6111748e60208f01358f01610fd9565b9a5067ffffffffffffffff60408e0135111561118e578788fd5b61119e8e60408f01358f01610f6d565b99506111ac60608e01610f51565b98506111ba60808e01610f51565b975060a08d0135965060c08d0135955067ffffffffffffffff60e08e013511156111e2578485fd5b6111f28e60e08f01358f01610f6d565b945067ffffffffffffffff6101008e0135111561120d578384fd5b61121e8e6101008f01358f01610f6d565b935067ffffffffffffffff6101208e01351115611239578283fd5b61124a8e6101208f01358f01611042565b925067ffffffffffffffff6101408e01351115611265578081fd5b6112768e6101408f01358f01610f6d565b915067ffffffffffffffff6101608e01351115611291578081fd5b6112a28e6101608f01358f01610f6d565b90509295989b509295989b509295989b565b6000602082840312156112c5578081fd5b815180151581146110c4578182fd5b6000602082840312156112e5578081fd5b5051919050565b6001600160a01b03169052565b6000815180845260208085019450808401835b838110156113285781518752958201959082019060010161130c565b509495945050505050565b6000815180845260208085019450808401835b8381101561132857815161ffff1687529582019590820190600101611346565b6000815180845260208085019450808401835b8381101561132857815160ff1687529582019590820190600101611379565b60008251815b818110156113b8576020818601810151858301520161139e565b818111156113c65782828501525b509190910192915050565b6001600160a01b0391909116815260200190565b6001600160a01b039485168152928416602084015292166040820152606081019190915260800190565b6001600160a01b039384168152919092166020820152604081019190915260600190565b6001600160a01b0394851681529290931660208301526040820152606081019190915260800190565b6001600160a01b03929092168252602082015260400190565b6001600160a01b039390931683526020830191909152604082015260600190565b6000608082526114a96080830187611333565b6001600160a01b0395861660208401529390941660408201526060015292915050565b600061018082526114e161018083018f611333565b82810360208401526114f3818f611333565b90508281036040840152611507818e6112f9565b9050611516606084018d6112ec565b611523608084018c6112ec565b8960a08401528860c084015282810360e084015261154181896112f9565b905082810361010084015261155681886112f9565b905082810361012084015261156b8187611366565b905082810361014084015261158081866112f9565b905082810361016084015261159581856112f9565b9f9e505050505050505050505050505050565b901515815260200190565b60208082526026908201527f4f776e61626c653a206e6577206f776e657220697320746865207a65726f206160408201526564647265737360d01b606082015260800190565b60208082526031908201527f5472616e7366657248656c7065723a3a7472616e7366657246726f6d3a20747260408201527f616e7366657246726f6d206661696c6564000000000000000000000000000000606082015260800190565b60208082526034908201527f5472616e7366657248656c7065723a3a736166655472616e736665724554483a60408201527f20455448207472616e73666572206661696c6564000000000000000000000000606082015260800190565b60208082526011908201527f416c726561647920617661696c61626c65000000000000000000000000000000604082015260600190565b6020808252600f908201527f4e6f74204554482070726f647563740000000000000000000000000000000000604082015260600190565b602080825260039082015262533a3160e81b604082015260600190565b6020808252818101527f4f776e61626c653a2063616c6c6572206973206e6f7420746865206f776e6572604082015260600190565b60208082526011908201527f4e6f7420617661696c61626c6520796574000000000000000000000000000000604082015260600190565b6020808252602b908201527f5472616e7366657248656c7065723a3a73616665417070726f76653a2061707060408201526a1c9bdd994819985a5b195960aa1b606082015260800190565b60208082526013908201527f496e73756666696369656e7420616d6f756e7400000000000000000000000000604082015260600190565b6020808252602d908201527f5472616e7366657248656c7065723a3a736166655472616e736665723a20747260408201526c185b9cd9995c8819985a5b1959609a1b606082015260800190565b90815260200190565b60405181810167ffffffffffffffff811182821017156118a4576118a46118f3565b604052919050565b600067ffffffffffffffff8211156118c6576118c66118f3565b5060209081020190565b6000828210156118ee57634e487b7160e01b81526011600452602481fd5b500390565b634e487b7160e01b600052604160045260246000fdfea2646970667358221220eff3cd489f0ebd108c9eb234461c1c35a67e9fd622422be6d9b2cec254936efd64736f6c63430008000033",
  "devdoc": {
    "kind": "dev",
    "methods": {
      "buyCoverByToken(uint16[],uint16[],uint256[],address,address,uint256,uint256,uint256[],uint256[],uint8[],bytes32[],bytes32[])": {
        "details": "Through this function, users can get covers from Insure by some tokens such as CVR... if users want to save gas fee, he shoud reach to this function through MultiSigWallet."
      },
      "owner()": {
        "details": "Returns the address of the current owner."
      },
      "renounceOwnership()": {
        "details": "Leaves the contract without owner. It will not be possible to call `onlyOwner` functions anymore. Can only be called by the current owner. NOTE: Renouncing ownership will leave the contract without an owner, thereby removing any functionality that is only available to the owner."
      },
      "transferOwnership(address)": {
        "details": "Transfers ownership of the contract to a new account (`newOwner`). Can only be called by the current owner."
      },
      "withdrawAsset(address,address,uint256)": {
        "details": "For reflect tokens, we should deposit some tokens at contract directly, We will withdraw tokens deposited at contract through this function"
      }
    },
    "version": 1
  },
  "userdoc": {
    "kind": "user",
    "methods": {},
    "notice": "We are supporting only CVR for InsureAce",
    "version": 1
  },
  "storageLayout": {
    "storage": [
      {
        "astId": 535,
        "contract": "contracts/onchain/InsureAcePolka.sol:InsureAcePolka",
        "label": "_owner",
        "offset": 0,
        "slot": "0",
        "type": "t_address"
      },
      {
        "astId": 4303,
        "contract": "contracts/onchain/InsureAcePolka.sol:InsureAcePolka",
        "label": "productIds",
        "offset": 0,
        "slot": "1",
        "type": "t_struct(Counter)1510_storage"
      },
      {
        "astId": 4307,
        "contract": "contracts/onchain/InsureAcePolka.sol:InsureAcePolka",
        "label": "availableCurrencies",
        "offset": 0,
        "slot": "2",
        "type": "t_mapping(t_address,t_bool)"
      },
      {
        "astId": 4309,
        "contract": "contracts/onchain/InsureAcePolka.sol:InsureAcePolka",
        "label": "exchangeAgent",
        "offset": 0,
        "slot": "3",
        "type": "t_address"
      },
      {
        "astId": 4441,
        "contract": "contracts/onchain/InsureAcePolka.sol:InsureAcePolka",
        "label": "coverContractAddress",
        "offset": 0,
        "slot": "4",
        "type": "t_address"
      }
    ],
    "types": {
      "t_address": {
        "encoding": "inplace",
        "label": "address",
        "numberOfBytes": "20"
      },
      "t_bool": {
        "encoding": "inplace",
        "label": "bool",
        "numberOfBytes": "1"
      },
      "t_mapping(t_address,t_bool)": {
        "encoding": "mapping",
        "key": "t_address",
        "label": "mapping(address => bool)",
        "numberOfBytes": "32",
        "value": "t_bool"
      },
      "t_struct(Counter)1510_storage": {
        "encoding": "inplace",
        "label": "struct Counters.Counter",
        "members": [
          {
            "astId": 1509,
            "contract": "contracts/onchain/InsureAcePolka.sol:InsureAcePolka",
            "label": "_value",
            "offset": 0,
            "slot": "0",
            "type": "t_uint256"
          }
        ],
        "numberOfBytes": "32"
      },
      "t_uint256": {
        "encoding": "inplace",
        "label": "uint256",
        "numberOfBytes": "32"
      }
    }
  }
}