{
  "address": "0xA583E4fF443716496f4bc23AD7CcC0490994AE20",
  "abi": [
    {
      "inputs": [
        {
          "internalType": "address",
          "name": "_CVR",
          "type": "address"
        },
        {
          "internalType": "address",
          "name": "_exchangeAgent",
          "type": "address"
        },
        {
          "internalType": "address",
          "name": "_coverContractAddress",
          "type": "address"
        }
      ],
      "stateMutability": "nonpayable",
      "type": "constructor"
    },
    {
      "anonymous": false,
      "inputs": [
        {
          "indexed": false,
          "internalType": "uint16[]",
          "name": "productIds",
          "type": "uint16[]"
        },
        {
          "indexed": false,
          "internalType": "address",
          "name": "_buyer",
          "type": "address"
        },
        {
          "indexed": false,
          "internalType": "address",
          "name": "_currency",
          "type": "address"
        },
        {
          "indexed": false,
          "internalType": "address",
          "name": "_token",
          "type": "address"
        },
        {
          "indexed": false,
          "internalType": "uint256",
          "name": "_amount",
          "type": "uint256"
        }
      ],
      "name": "BuyInsureAce",
      "type": "event"
    },
    {
      "anonymous": false,
      "inputs": [
        {
          "indexed": true,
          "internalType": "uint256",
          "name": "_productId",
          "type": "uint256"
        },
        {
          "indexed": false,
          "internalType": "address",
          "name": "_buyer",
          "type": "address"
        }
      ],
      "name": "BuyProduct",
      "type": "event"
    },
    {
      "anonymous": false,
      "inputs": [
        {
          "indexed": false,
          "internalType": "address",
          "name": "userAddress",
          "type": "address"
        },
        {
          "indexed": false,
          "internalType": "address payable",
          "name": "relayerAddress",
          "type": "address"
        },
        {
          "indexed": false,
          "internalType": "bytes",
          "name": "functionSignature",
          "type": "bytes"
        }
      ],
      "name": "MetaTransactionExecuted",
      "type": "event"
    },
    {
      "anonymous": false,
      "inputs": [
        {
          "indexed": true,
          "internalType": "address",
          "name": "previousOwner",
          "type": "address"
        },
        {
          "indexed": true,
          "internalType": "address",
          "name": "newOwner",
          "type": "address"
        }
      ],
      "name": "OwnershipTransferred",
      "type": "event"
    },
    {
      "anonymous": false,
      "inputs": [
        {
          "indexed": false,
          "internalType": "address",
          "name": "account",
          "type": "address"
        }
      ],
      "name": "Paused",
      "type": "event"
    },
    {
      "anonymous": false,
      "inputs": [
        {
          "indexed": false,
          "internalType": "address",
          "name": "_setter",
          "type": "address"
        },
        {
          "indexed": false,
          "internalType": "address",
          "name": "_exchangeAgent",
          "type": "address"
        }
      ],
      "name": "SetExchangeAgent",
      "type": "event"
    },
    {
      "anonymous": false,
      "inputs": [
        {
          "indexed": false,
          "internalType": "address",
          "name": "account",
          "type": "address"
        }
      ],
      "name": "Unpaused",
      "type": "event"
    },
    {
      "anonymous": false,
      "inputs": [
        {
          "indexed": false,
          "internalType": "address",
          "name": "_user",
          "type": "address"
        },
        {
          "indexed": false,
          "internalType": "address",
          "name": "_to",
          "type": "address"
        },
        {
          "indexed": false,
          "internalType": "address",
          "name": "_token",
          "type": "address"
        },
        {
          "indexed": false,
          "internalType": "uint256",
          "name": "_amount",
          "type": "uint256"
        }
      ],
      "name": "WithdrawAsset",
      "type": "event"
    },
    {
      "inputs": [],
      "name": "WETH",
      "outputs": [
        {
          "internalType": "address",
          "name": "",
          "type": "address"
        }
      ],
      "stateMutability": "view",
      "type": "function"
    },
    {
      "inputs": [
        {
          "internalType": "address",
          "name": "_currency",
          "type": "address"
        }
      ],
      "name": "addCurrency",
      "outputs": [],
      "stateMutability": "nonpayable",
      "type": "function"
    },
    {
      "inputs": [
        {
          "internalType": "address",
          "name": "",
          "type": "address"
        }
      ],
      "name": "availableCurrencies",
      "outputs": [
        {
          "internalType": "bool",
          "name": "",
          "type": "bool"
        }
      ],
      "stateMutability": "view",
      "type": "function"
    },
    {
      "inputs": [
        {
          "internalType": "uint16[]",
          "name": "products",
          "type": "uint16[]"
        },
        {
          "internalType": "uint16[]",
          "name": "durationInDays",
          "type": "uint16[]"
        },
        {
          "internalType": "uint256[]",
          "name": "amounts",
          "type": "uint256[]"
        },
        {
          "internalType": "address",
          "name": "currency",
          "type": "address"
        },
        {
          "internalType": "uint256",
          "name": "referralCode",
          "type": "uint256"
        },
        {
          "internalType": "uint256",
          "name": "premiumAmount",
          "type": "uint256"
        },
        {
          "internalType": "uint256[]",
          "name": "helperParameters",
          "type": "uint256[]"
        },
        {
          "internalType": "uint256[]",
          "name": "securityParameters",
          "type": "uint256[]"
        },
        {
          "internalType": "uint8[]",
          "name": "v",
          "type": "uint8[]"
        },
        {
          "internalType": "bytes32[]",
          "name": "r",
          "type": "bytes32[]"
        },
        {
          "internalType": "bytes32[]",
          "name": "s",
          "type": "bytes32[]"
        }
      ],
      "name": "buyETHCoverByETH",
      "outputs": [],
      "stateMutability": "payable",
      "type": "function"
    },
    {
      "inputs": [
        {
          "internalType": "uint16[]",
          "name": "products",
          "type": "uint16[]"
        },
        {
          "internalType": "uint16[]",
          "name": "durationInDays",
          "type": "uint16[]"
        },
        {
          "internalType": "uint256[]",
          "name": "amounts",
          "type": "uint256[]"
        },
        {
          "internalType": "address",
          "name": "currency",
          "type": "address"
        },
        {
          "internalType": "address",
          "name": "_token",
          "type": "address"
        },
        {
          "internalType": "uint256",
          "name": "referralCode",
          "type": "uint256"
        },
        {
          "internalType": "uint256",
          "name": "premiumAmount",
          "type": "uint256"
        },
        {
          "internalType": "uint256[]",
          "name": "helperParameters",
          "type": "uint256[]"
        },
        {
          "internalType": "uint256[]",
          "name": "securityParameters",
          "type": "uint256[]"
        },
        {
          "internalType": "uint8[]",
          "name": "v",
          "type": "uint8[]"
        },
        {
          "internalType": "bytes32[]",
          "name": "r",
          "type": "bytes32[]"
        },
        {
          "internalType": "bytes32[]",
          "name": "s",
          "type": "bytes32[]"
        }
      ],
      "name": "buyETHCoverByToken",
      "outputs": [],
      "stateMutability": "nonpayable",
      "type": "function"
    },
    {
      "inputs": [
        {
          "internalType": "uint16[]",
          "name": "products",
          "type": "uint16[]"
        },
        {
          "internalType": "uint16[]",
          "name": "durationInDays",
          "type": "uint16[]"
        },
        {
          "internalType": "uint256[]",
          "name": "amounts",
          "type": "uint256[]"
        },
        {
          "internalType": "address",
          "name": "currency",
          "type": "address"
        },
        {
          "internalType": "address",
          "name": "_token",
          "type": "address"
        },
        {
          "internalType": "uint256",
          "name": "referralCode",
          "type": "uint256"
        },
        {
          "internalType": "uint256",
          "name": "premiumAmount",
          "type": "uint256"
        },
        {
          "internalType": "uint256[]",
          "name": "helperParameters",
          "type": "uint256[]"
        },
        {
          "internalType": "uint256[]",
          "name": "securityParameters",
          "type": "uint256[]"
        },
        {
          "internalType": "uint8[]",
          "name": "v",
          "type": "uint8[]"
        },
        {
          "internalType": "bytes32[]",
          "name": "r",
          "type": "bytes32[]"
        },
        {
          "internalType": "bytes32[]",
          "name": "s",
          "type": "bytes32[]"
        }
      ],
      "name": "buyTokenCoverByToken",
      "outputs": [],
      "stateMutability": "nonpayable",
      "type": "function"
    },
    {
      "inputs": [],
      "name": "coverContractAddress",
      "outputs": [
        {
          "internalType": "address",
          "name": "",
          "type": "address"
        }
      ],
      "stateMutability": "view",
      "type": "function"
    },
    {
      "inputs": [],
      "name": "exchangeAgent",
      "outputs": [
        {
          "internalType": "address",
          "name": "",
          "type": "address"
        }
      ],
      "stateMutability": "view",
      "type": "function"
    },
    {
      "inputs": [
        {
          "internalType": "address",
          "name": "userAddress",
          "type": "address"
        },
        {
          "internalType": "bytes",
          "name": "functionSignature",
          "type": "bytes"
        },
        {
          "internalType": "bytes32",
          "name": "sigR",
          "type": "bytes32"
        },
        {
          "internalType": "bytes32",
          "name": "sigS",
          "type": "bytes32"
        },
        {
          "internalType": "uint8",
          "name": "sigV",
          "type": "uint8"
        }
      ],
      "name": "executeMetaTransaction",
      "outputs": [
        {
          "internalType": "bytes",
          "name": "",
          "type": "bytes"
        }
      ],
      "stateMutability": "payable",
      "type": "function"
    },
    {
      "inputs": [
        {
          "internalType": "address",
          "name": "user",
          "type": "address"
        }
      ],
      "name": "getNonce",
      "outputs": [
        {
          "internalType": "uint256",
          "name": "nonce",
          "type": "uint256"
        }
      ],
      "stateMutability": "view",
      "type": "function"
    },
    {
      "inputs": [],
      "name": "owner",
      "outputs": [
        {
          "internalType": "address",
          "name": "",
          "type": "address"
        }
      ],
      "stateMutability": "view",
      "type": "function"
    },
    {
      "inputs": [],
      "name": "pause",
      "outputs": [],
      "stateMutability": "nonpayable",
      "type": "function"
    },
    {
      "inputs": [],
      "name": "paused",
      "outputs": [
        {
          "internalType": "bool",
          "name": "",
          "type": "bool"
        }
      ],
      "stateMutability": "view",
      "type": "function"
    },
    {
      "inputs": [],
      "name": "productIds",
      "outputs": [
        {
          "internalType": "uint256",
          "name": "_value",
          "type": "uint256"
        }
      ],
      "stateMutability": "view",
      "type": "function"
    },
    {
      "inputs": [
        {
          "internalType": "address",
          "name": "_currency",
          "type": "address"
        }
      ],
      "name": "removeCurrency",
      "outputs": [],
      "stateMutability": "nonpayable",
      "type": "function"
    },
    {
      "inputs": [],
      "name": "renounceOwnership",
      "outputs": [],
      "stateMutability": "nonpayable",
      "type": "function"
    },
    {
      "inputs": [
        {
          "internalType": "address",
          "name": "_token",
          "type": "address"
        }
      ],
      "name": "revokeAllowExchangeAgent",
      "outputs": [],
      "stateMutability": "nonpayable",
      "type": "function"
    },
    {
      "inputs": [
        {
          "internalType": "address",
          "name": "_token",
          "type": "address"
        }
      ],
      "name": "setAllowanceExchangeAgent",
      "outputs": [],
      "stateMutability": "nonpayable",
      "type": "function"
    },
    {
      "inputs": [
        {
          "internalType": "address",
          "name": "_exchangeAgent",
          "type": "address"
        }
      ],
      "name": "setExchangeAgent",
      "outputs": [],
      "stateMutability": "nonpayable",
      "type": "function"
    },
    {
      "inputs": [
        {
          "internalType": "address",
          "name": "_coverContractAddress",
          "type": "address"
        }
      ],
      "name": "setup",
      "outputs": [],
      "stateMutability": "nonpayable",
      "type": "function"
    },
    {
      "inputs": [
        {
          "internalType": "address",
          "name": "newOwner",
          "type": "address"
        }
      ],
      "name": "transferOwnership",
      "outputs": [],
      "stateMutability": "nonpayable",
      "type": "function"
    },
    {
      "inputs": [],
      "name": "unpause",
      "outputs": [],
      "stateMutability": "nonpayable",
      "type": "function"
    },
    {
      "inputs": [
        {
          "internalType": "address",
          "name": "owner",
          "type": "address"
        },
        {
          "internalType": "uint256",
          "name": "nonce",
          "type": "uint256"
        },
        {
          "internalType": "uint256",
          "name": "chainID",
          "type": "uint256"
        },
        {
          "internalType": "bytes",
          "name": "functionSignature",
          "type": "bytes"
        },
        {
          "internalType": "bytes32",
          "name": "sigR",
          "type": "bytes32"
        },
        {
          "internalType": "bytes32",
          "name": "sigS",
          "type": "bytes32"
        },
        {
          "internalType": "uint8",
          "name": "sigV",
          "type": "uint8"
        }
      ],
      "name": "verify",
      "outputs": [
        {
          "internalType": "bool",
          "name": "",
          "type": "bool"
        }
      ],
      "stateMutability": "view",
      "type": "function"
    },
    {
      "inputs": [
        {
          "internalType": "address",
          "name": "_token",
          "type": "address"
        },
        {
          "internalType": "address",
          "name": "_to",
          "type": "address"
        },
        {
          "internalType": "uint256",
          "name": "_amount",
          "type": "uint256"
        }
      ],
      "name": "withdrawAsset",
      "outputs": [],
      "stateMutability": "nonpayable",
      "type": "function"
    },
    {
      "stateMutability": "payable",
      "type": "receive"
    }
  ],
  "transactionHash": "0xc585b034703687a179ec9ebfd7a9c92e0f9c96c3d32d43ad4e0f137508688e96",
  "args": [
    "0xd3e48FAcD30A73609ffA60AE84851e72d10fEa52",
    "0x3320C193109265faC179cC3eF0a466Cca01651DF",
    "0x0921f628b8463227615D2199D0D3860E4fBcD411"
  ],
  "solcInputHash": "dc4dea4f22376d00ebd11d6c722b0add",
  "bytecode": "0x60806040523480156200001157600080fd5b50604051620029833803806200298383398101604081905262000034916200014c565b82826000620000426200012b565b600080546001600160a01b0319166001600160a01b0383169081178255604051929350917f8be0079c531659141344cd1fd0a4f28419497f9722a3daafe3b4186f6b6457e0908290a3506000805460ff60a01b191681556001600160a01b039283168152600360205260409020805460ff19166001908117909155600480546001600160a01b031916928416929092179091556005558116620001025760405162461bcd60e51b8152600401620000f99062000195565b60405180910390fd5b600680546001600160a01b0319166001600160a01b039290921691909117905550620001b29050565b3390565b80516001600160a01b03811681146200014757600080fd5b919050565b60008060006060848603121562000161578283fd5b6200016c846200012f565b92506200017c602085016200012f565b91506200018c604085016200012f565b90509250925092565b602080825260039082015262533a3160e81b604082015260600190565b6127c180620001c26000396000f3fe60806040526004361061018f5760003560e01c80638456cb59116100d6578063c9702e351161007f578063d9203b9111610059578063d9203b9114610408578063f238a3c11461041d578063f2fde38b1461043d57610196565b8063c9702e35146103b3578063cace1b11146103d3578063d5f4479c146103f357610196565b8063aa57511d116100b0578063aa57511d14610369578063ad5c46481461037e578063c5d3a1071461039357610196565b80638456cb59146103125780638ab234b6146103275780638da5cb5b1461034757610196565b80632d0335ab116101385780636281133d116101125780636281133d146102bd57806366d38203146102dd578063715018a6146102fd57610196565b80632d0335ab146102665780633f4ba83a146102935780635c975abb146102a857610196565b806318a00d8e1161016957806318a00d8e146102065780631af42c0f1461022657806326d700d21461025357610196565b806307f6ff2c1461019b578063092ae4dc146101bd5780630c53c51c146101dd57610196565b3661019657005b600080fd5b3480156101a757600080fd5b506101bb6101b6366004611ad6565b61045d565b005b3480156101c957600080fd5b506101bb6101d83660046119a8565b6106e3565b6101f06101eb3660046119e3565b610776565b6040516101fd919061221f565b60405180910390f35b34801561021257600080fd5b506101bb610221366004611987565b6108cc565b34801561023257600080fd5b50610246610241366004611987565b610989565b6040516101fd91906121f6565b6101bb610261366004611c84565b61099e565b34801561027257600080fd5b50610286610281366004611987565b610b49565b6040516101fd91906126a9565b34801561029f57600080fd5b506101bb610b64565b3480156102b457600080fd5b50610246610bad565b3480156102c957600080fd5b506102466102d8366004611a53565b610bbe565b3480156102e957600080fd5b506101bb6102f8366004611987565b610c8e565b34801561030957600080fd5b506101bb610d15565b34801561031e57600080fd5b506101bb610d9e565b34801561033357600080fd5b506101bb610342366004611987565b610de5565b34801561035357600080fd5b5061035c610e81565b6040516101fd9190611fc5565b34801561037557600080fd5b50610286610e90565b34801561038a57600080fd5b5061035c610e96565b34801561039f57600080fd5b506101bb6103ae366004611987565b610eae565b3480156103bf57600080fd5b506101bb6103ce366004611987565b610f46565b3480156103df57600080fd5b506101bb6103ee366004611987565b610fa1565b3480156103ff57600080fd5b5061035c610ffa565b34801561041457600080fd5b5061035c611009565b34801561042957600080fd5b506101bb610438366004611ad6565b611018565b34801561044957600080fd5b506101bb610458366004611987565b611244565b600260055414156104895760405162461bcd60e51b815260040161048090612672565b60405180910390fd5b6002600555610496610bad565b156104b35760405162461bcd60e51b815260040161048090612445565b6001600160a01b03891673eeeeeeeeeeeeeeeeeeeeeeeeeeeeeeeeeeeeeeee14156104f05760405162461bcd60e51b815260040161048090612546565b60048054604051631a44cdf360e11b81526000926001600160a01b03909216916334899be691610526918d918f918d9101612052565b602060405180830381600087803b15801561054057600080fd5b505af1158015610554573d6000803e3d6000fd5b505050506040513d601f19601f820116820180604052508101906105789190611e0b565b905061058d89610586611304565b3084611362565b6004805460405163406e622b60e11b81526001600160a01b03909116916380dcc456916105c2918d918f9187918e9101612076565b600060405180830381600087803b1580156105dc57600080fd5b505af11580156105f0573d6000803e3d6000fd5b505060065461060c92508c91506001600160a01b031689611452565b6006546001600160a01b031663ddeb2d4e8e8e8e8e610629611304565b8e8e8e8e8e8e8e6040518d63ffffffff1660e01b81526004016106579c9b9a9998979695949392919061211a565b600060405180830381600087803b15801561067157600080fd5b505af1158015610685573d6000803e3d6000fd5b505050507f59d66a3b6cbfa0745bc5ae77069c99fa61fbed2fe228b2c21a3fdd416bd5badf8d6106b3611304565b8c8c8b6040516106c79594939291906120d9565b60405180910390a1505060016005555050505050505050505050565b6106eb61153f565b6001600160a01b03166106fc610e81565b6001600160a01b0316146107225760405162461bcd60e51b815260040161048090612499565b61072d838383611543565b7f37e6496681d2c16ab49733a2a6cf0916ebaa3e90250d01f84cec59f546d8cf24610756611304565b8385846040516107699493929190612028565b60405180910390a1505050565b6001600160a01b0385166000908152600160205260409020546060906107a29087904688888888610bbe565b6107be5760405162461bcd60e51b815260040161048090612505565b6001600160a01b038616600090815260016020819052604082208054919290916107e9908490612700565b9091555050604051600090819030906108089089908b90602001611f17565b60408051601f198184030181529082905261082291611efb565b6000604051808303816000865af19150503d806000811461085f576040519150601f19603f3d011682016040523d82523d6000602084013e610864565b606091505b5091509150816108865760405162461bcd60e51b8152600401610480906122e6565b7f5845892132946850460bff5a0083f71031bc5bf9aadcd40f1de79423eac9b10b8833896040516108b993929190611ff3565b60405180910390a1979650505050505050565b6108d461153f565b6001600160a01b03166108e5610e81565b6001600160a01b03161461090b5760405162461bcd60e51b815260040161048090612499565b6001600160a01b0381166109315760405162461bcd60e51b8152600401610480906125ff565b600480546001600160a01b0319166001600160a01b0383161790556040517f0143625ceac80b2452760213c6b6f5a22eb63bc46e17d129c30fffefb4679eb69061097e9033908490611fd9565b60405180910390a150565b60036020526000908152604090205460ff1681565b600260055414156109c15760405162461bcd60e51b815260040161048090612672565b60026005556109ce610bad565b156109eb5760405162461bcd60e51b815260040161048090612445565b6001600160a01b03881673eeeeeeeeeeeeeeeeeeeeeeeeeeeeeeeeeeeeeeee14610a275760405162461bcd60e51b815260040161048090612232565b85341015610a475760405162461bcd60e51b8152600401610480906125c8565b6000610a538734612718565b1115610a7357610a73610a64611304565b610a6e8834612718565b611629565b6006546001600160a01b031663ddeb2d4e878d8d8d8d610a91611304565b8e8e8e8e8e8e8e6040518e63ffffffff1660e01b8152600401610abf9c9b9a9998979695949392919061211a565b6000604051808303818588803b158015610ad857600080fd5b505af1158015610aec573d6000803e3d6000fd5b50505050507f59d66a3b6cbfa0745bc5ae77069c99fa61fbed2fe228b2c21a3fdd416bd5badf8b610b1b611304565b8a8b8a604051610b2f9594939291906120d9565b60405180910390a150506001600555505050505050505050565b6001600160a01b031660009081526001602052604090205490565b610b6c61153f565b6001600160a01b0316610b7d610e81565b6001600160a01b031614610ba35760405162461bcd60e51b815260040161048090612499565b610bab6116bb565b565b600054600160a01b900460ff165b90565b600080610bf688308989604051602001610bdb9493929190611f7f565b6040516020818303038152906040528051906020012061172c565b9050600060018285888860405160008152602001604052604051610c1d9493929190612201565b6020604051602081039080840390855afa158015610c3f573d6000803e3d6000fd5b5050604051601f1901519150506001600160a01b038116610c725760405162461bcd60e51b8152600401610480906123d7565b6001600160a01b038a8116911614915050979650505050505050565b610c9661153f565b6001600160a01b0316610ca7610e81565b6001600160a01b031614610ccd5760405162461bcd60e51b815260040161048090612499565b6001600160a01b038116610cf35760405162461bcd60e51b81526004016104809061247c565b600680546001600160a01b0319166001600160a01b0392909216919091179055565b610d1d61153f565b6001600160a01b0316610d2e610e81565b6001600160a01b031614610d545760405162461bcd60e51b815260040161048090612499565b600080546040516001600160a01b03909116907f8be0079c531659141344cd1fd0a4f28419497f9722a3daafe3b4186f6b6457e0908390a3600080546001600160a01b0319169055565b610da661153f565b6001600160a01b0316610db7610e81565b6001600160a01b031614610ddd5760405162461bcd60e51b815260040161048090612499565b610bab61175d565b610ded61153f565b6001600160a01b0316610dfe610e81565b6001600160a01b031614610e245760405162461bcd60e51b815260040161048090612499565b6001600160a01b03811660009081526003602052604090205460ff1615610e5d5760405162461bcd60e51b81526004016104809061240e565b6001600160a01b03166000908152600360205260409020805460ff19166001179055565b6000546001600160a01b031690565b60025481565b73eeeeeeeeeeeeeeeeeeeeeeeeeeeeeeeeeeeeeeee81565b610eb661153f565b6001600160a01b0316610ec7610e81565b6001600160a01b031614610eed5760405162461bcd60e51b815260040161048090612499565b6001600160a01b03811660009081526003602052604090205460ff16610f255760405162461bcd60e51b8152600401610480906124ce565b6001600160a01b03166000908152600360205260409020805460ff19169055565b610f4e61153f565b6001600160a01b0316610f5f610e81565b6001600160a01b031614610f855760405162461bcd60e51b815260040161048090612499565b600454610f9e9082906001600160a01b03166000611452565b50565b610fa961153f565b6001600160a01b0316610fba610e81565b6001600160a01b031614610fe05760405162461bcd60e51b815260040161048090612499565b600454610f9e9082906001600160a01b0316600019611452565b6006546001600160a01b031681565b6004546001600160a01b031681565b6002600554141561103b5760405162461bcd60e51b815260040161048090612672565b6002600555611048610bad565b156110655760405162461bcd60e51b815260040161048090612445565b6001600160a01b03891673eeeeeeeeeeeeeeeeeeeeeeeeeeeeeeeeeeeeeeee146110a15760405162461bcd60e51b815260040161048090612232565b6004805460405163ba560ed960e01b81526000926001600160a01b039092169163ba560ed9916110d5918d918c910161209f565b602060405180830381600087803b1580156110ef57600080fd5b505af1158015611103573d6000803e3d6000fd5b505050506040513d601f19601f820116820180604052508101906111279190611e0b565b905061113589610586611304565b600480546040516303790ccd60e21b81526001600160a01b0390911691630de4333491611168918d9186918d91016120b8565b600060405180830381600087803b15801561118257600080fd5b505af1158015611196573d6000803e3d6000fd5b50506006546001600160a01b0316915063ddeb2d4e9050888f8f8f8f6111ba611304565b8f8f8f8f8f8f8f6040518e63ffffffff1660e01b81526004016111e89c9b9a9998979695949392919061211a565b6000604051808303818588803b15801561120157600080fd5b505af1158015611215573d6000803e3d6000fd5b50505050507f59d66a3b6cbfa0745bc5ae77069c99fa61fbed2fe228b2c21a3fdd416bd5badf8d6106b3611304565b61124c61153f565b6001600160a01b031661125d610e81565b6001600160a01b0316146112835760405162461bcd60e51b815260040161048090612499565b6001600160a01b0381166112a95760405162461bcd60e51b8152600401610480906122a0565b600080546040516001600160a01b03808516939216917f8be0079c531659141344cd1fd0a4f28419497f9722a3daafe3b4186f6b6457e091a3600080546001600160a01b0319166001600160a01b0392909216919091179055565b60003330141561135b57600080368080601f0160208091040260200160405190810160405280939291908181526020018383808284376000920191909152505050503601516001600160a01b03169150610bbb9050565b5033610bbb565b600080856001600160a01b03166323b872dd86868660405160240161138993929190612052565b6040516020818303038152906040529060e01b6020820180516001600160e01b0383818316178352505050506040516113c29190611efb565b6000604051808303816000865af19150503d80600081146113ff576040519150601f19603f3d011682016040523d82523d6000602084013e611404565b606091505b509150915081801561142e57508051158061142e57508080602001905181019061142e9190611deb565b61144a5760405162461bcd60e51b81526004016104809061231d565b505050505050565b600080846001600160a01b031663095ea7b3858560405160240161147792919061209f565b6040516020818303038152906040529060e01b6020820180516001600160e01b0383818316178352505050506040516114b09190611efb565b6000604051808303816000865af19150503d80600081146114ed576040519150601f19603f3d011682016040523d82523d6000602084013e6114f2565b606091505b509150915081801561151c57508051158061151c57508080602001905181019061151c9190611deb565b6115385760405162461bcd60e51b81526004016104809061257d565b5050505050565b3390565b600080846001600160a01b031663a9059cbb858560405160240161156892919061209f565b6040516020818303038152906040529060e01b6020820180516001600160e01b0383818316178352505050506040516115a19190611efb565b6000604051808303816000865af19150503d80600081146115de576040519150601f19603f3d011682016040523d82523d6000602084013e6115e3565b606091505b509150915081801561160d57508051158061160d57508080602001905181019061160d9190611deb565b6115385760405162461bcd60e51b815260040161048090612625565b604080516000808252602082019092526001600160a01b0384169083906040516116539190611efb565b60006040518083038185875af1925050503d8060008114611690576040519150601f19603f3d011682016040523d82523d6000602084013e611695565b606091505b50509050806116b65760405162461bcd60e51b81526004016104809061237a565b505050565b6116c3610bad565b6116df5760405162461bcd60e51b815260040161048090612269565b6000805460ff60a01b191690557f5db9ee0a495bf2e6ff9c91a7834c1ba4fdd244a5e8aa4e537bd38aeae4b073aa61171561153f565b6040516117229190611fc5565b60405180910390a1565b60008160405160200161173f9190611f4e565b6040516020818303038152906040528051906020012090505b919050565b611765610bad565b156117825760405162461bcd60e51b815260040161048090612445565b6000805460ff60a01b1916600160a01b1790557f62e78cea01bee320cd4e420270b5ea74000d11b0c9f74754ebdbfc544b05a25861171561153f565b80356001600160a01b038116811461175857600080fd5b600082601f8301126117e5578081fd5b813560206117fa6117f5836126dc565b6126b2565b8281528181019085830183850287018401881015611816578586fd5b855b8581101561183457813584529284019290840190600101611818565b5090979650505050505050565b600082601f830112611851578081fd5b813560206118616117f5836126dc565b828152818101908583018385028701840188101561187d578586fd5b855b8581101561183457813561ffff81168114611898578788fd5b8452928401929084019060010161187f565b600082601f8301126118ba578081fd5b813560206118ca6117f5836126dc565b82815281810190858301838502870184018810156118e6578586fd5b855b85811015611834576118f982611976565b845292840192908401906001016118e8565b600082601f83011261191b578081fd5b813567ffffffffffffffff81111561193557611935612775565b611948601f8201601f19166020016126b2565b81815284602083860101111561195c578283fd5b816020850160208301379081016020019190915292915050565b803560ff8116811461175857600080fd5b600060208284031215611998578081fd5b6119a1826117be565b9392505050565b6000806000606084860312156119bc578182fd5b6119c5846117be565b92506119d3602085016117be565b9150604084013590509250925092565b600080600080600060a086880312156119fa578081fd5b611a03866117be565b9450602086013567ffffffffffffffff811115611a1e578182fd5b611a2a8882890161190b565b9450506040860135925060608601359150611a4760808701611976565b90509295509295909350565b600080600080600080600060e0888a031215611a6d578182fd5b611a76886117be565b96506020880135955060408801359450606088013567ffffffffffffffff811115611a9f578283fd5b611aab8a828b0161190b565b9450506080880135925060a08801359150611ac860c08901611976565b905092959891949750929550565b6000806000806000806000806000806000806101808d8f031215611af8578586fd5b67ffffffffffffffff8d351115611b0d578586fd5b611b1a8e8e358f01611841565b9b5067ffffffffffffffff60208e01351115611b34578586fd5b611b448e60208f01358f01611841565b9a5067ffffffffffffffff60408e01351115611b5e578586fd5b611b6e8e60408f01358f016117d5565b9950611b7c60608e016117be565b9850611b8a60808e016117be565b975060a08d0135965060c08d0135955067ffffffffffffffff60e08e01351115611bb2578485fd5b611bc28e60e08f01358f016117d5565b945067ffffffffffffffff6101008e01351115611bdd578384fd5b611bee8e6101008f01358f016117d5565b935067ffffffffffffffff6101208e01351115611c09578283fd5b611c1a8e6101208f01358f016118aa565b925067ffffffffffffffff6101408e01351115611c35578081fd5b611c468e6101408f01358f016117d5565b915067ffffffffffffffff6101608e01351115611c61578081fd5b611c728e6101608f01358f016117d5565b90509295989b509295989b509295989b565b60008060008060008060008060008060006101608c8e031215611ca5578485fd5b67ffffffffffffffff808d351115611cbb578586fd5b611cc88e8e358f01611841565b9b508060208e01351115611cda578586fd5b611cea8e60208f01358f01611841565b9a508060408e01351115611cfc578586fd5b611d0c8e60408f01358f016117d5565b9950611d1a60608e016117be565b985060808d0135975060a08d013596508060c08e01351115611d3a578586fd5b611d4a8e60c08f01358f016117d5565b95508060e08e01351115611d5c578485fd5b611d6c8e60e08f01358f016117d5565b9450806101008e01351115611d7f578182fd5b611d908e6101008f01358f016118aa565b9350806101208e01351115611da3578182fd5b611db48e6101208f01358f016117d5565b9250806101408e01351115611dc7578182fd5b50611dd98d6101408e01358e016117d5565b90509295989b509295989b9093969950565b600060208284031215611dfc578081fd5b815180151581146119a1578182fd5b600060208284031215611e1c578081fd5b5051919050565b6001600160a01b03169052565b6000815180845260208085019450808401835b83811015611e5f57815187529582019590820190600101611e43565b509495945050505050565b6000815180845260208085019450808401835b83811015611e5f57815161ffff1687529582019590820190600101611e7d565b6000815180845260208085019450808401835b83811015611e5f57815160ff1687529582019590820190600101611eb0565b60008151808452611ee781602086016020860161272f565b601f01601f19169290920160200192915050565b60008251611f0d81846020870161272f565b9190910192915050565b60008351611f2981846020880161272f565b60609390931b6bffffffffffffffffffffffff19169190920190815260140192915050565b7f19457468657265756d205369676e6564204d6573736167653a0a3332000000008152601c810191909152603c0190565b60008582526bffffffffffffffffffffffff198560601b1660208301528360348301528251611fb581605485016020870161272f565b9190910160540195945050505050565b6001600160a01b0391909116815260200190565b6001600160a01b0392831681529116602082015260400190565b60006001600160a01b0380861683528085166020840152506060604083015261201f6060830184611ecf565b95945050505050565b6001600160a01b039485168152928416602084015292166040820152606081019190915260800190565b6001600160a01b039384168152919092166020820152604081019190915260600190565b6001600160a01b0394851681529290931660208301526040820152606081019190915260800190565b6001600160a01b03929092168252602082015260400190565b6001600160a01b039390931683526020830191909152604082015260600190565b600060a082526120ec60a0830188611e6a565b6001600160a01b03968716602084015294861660408301525091909316606082015260800191909152919050565b6000610180825261212f61018083018f611e6a565b8281036020840152612141818f611e6a565b90508281036040840152612155818e611e30565b9050612164606084018d611e23565b612171608084018c611e23565b8960a08401528860c084015282810360e084015261218f8189611e30565b90508281036101008401526121a48188611e30565b90508281036101208401526121b98187611e9d565b90508281036101408401526121ce8186611e30565b90508281036101608401526121e38185611e30565b9f9e505050505050505050505050505050565b901515815260200190565b93845260ff9290921660208401526040830152606082015260800190565b6000602082526119a16020830184611ecf565b60208082526015908201527f53686f756c64206265204554482070726f647563740000000000000000000000604082015260600190565b60208082526014908201527f5061757361626c653a206e6f7420706175736564000000000000000000000000604082015260600190565b60208082526026908201527f4f776e61626c653a206e6577206f776e657220697320746865207a65726f206160408201526564647265737360d01b606082015260800190565b6020808252601c908201527f46756e6374696f6e2063616c6c206e6f74207375636365737366756c00000000604082015260600190565b60208082526031908201527f5472616e7366657248656c7065723a3a7472616e7366657246726f6d3a20747260408201527f616e7366657246726f6d206661696c6564000000000000000000000000000000606082015260800190565b60208082526034908201527f5472616e7366657248656c7065723a3a736166655472616e736665724554483a60408201527f20455448207472616e73666572206661696c6564000000000000000000000000606082015260800190565b60208082526011908201527f496e76616c6964207369676e6174757265000000000000000000000000000000604082015260600190565b60208082526011908201527f416c726561647920617661696c61626c65000000000000000000000000000000604082015260600190565b60208082526010908201527f5061757361626c653a2070617573656400000000000000000000000000000000604082015260600190565b602080825260039082015262533a3160e81b604082015260600190565b6020808252818101527f4f776e61626c653a2063616c6c6572206973206e6f7420746865206f776e6572604082015260600190565b60208082526011908201527f4e6f7420617661696c61626c6520796574000000000000000000000000000000604082015260600190565b60208082526021908201527f5369676e657220616e64207369676e617475726520646f206e6f74206d6174636040820152600d60fb1b606082015260800190565b6020808252601d908201527f53686f756c6420626520455243323020746f6b656e2070726f64756374000000604082015260600190565b6020808252602b908201527f5472616e7366657248656c7065723a3a73616665417070726f76653a2061707060408201526a1c9bdd994819985a5b195960aa1b606082015260800190565b60208082526013908201527f496e73756666696369656e7420616d6f756e7400000000000000000000000000604082015260600190565b6020808252600c908201526b5a45524f204164647265737360a01b604082015260600190565b6020808252602d908201527f5472616e7366657248656c7065723a3a736166655472616e736665723a20747260408201526c185b9cd9995c8819985a5b1959609a1b606082015260800190565b6020808252601f908201527f5265656e7472616e637947756172643a207265656e7472616e742063616c6c00604082015260600190565b90815260200190565b60405181810167ffffffffffffffff811182821017156126d4576126d4612775565b604052919050565b600067ffffffffffffffff8211156126f6576126f6612775565b5060209081020190565b600082198211156127135761271361275f565b500190565b60008282101561272a5761272a61275f565b500390565b60005b8381101561274a578181015183820152602001612732565b83811115612759576000848401525b50505050565b634e487b7160e01b600052601160045260246000fd5b634e487b7160e01b600052604160045260246000fdfea26469706673582212205de8f28ffb22a9f30dcb1f57b11b5e888232b733d350e1b5e3d03775f478dd2b64736f6c63430008000033",
  "devdoc": {
    "kind": "dev",
    "methods": {
      "buyETHCoverByToken(uint16[],uint16[],uint256[],address,address,uint256,uint256,uint256[],uint256[],uint8[],bytes32[],bytes32[])": {
        "details": "Through this function, users can get covers from Insure by some tokens such as CVR..."
      },
      "buyTokenCoverByToken(uint16[],uint16[],uint256[],address,address,uint256,uint256,uint256[],uint256[],uint8[],bytes32[],bytes32[])": {
        "details": "Through this function, users can get covers from Insure by some tokens such as CVR..."
      },
      "executeMetaTransaction(address,bytes,bytes32,bytes32,uint8)": {
        "params": {
          "functionSignature": "Signature of the actual function to be called via meta transaction",
          "sigR": "R part of the signature",
          "sigS": "S part of the signature",
          "sigV": "V part of the signature",
          "userAddress": "Address of user trying to do meta transaction"
        }
      },
      "owner()": {
        "details": "Returns the address of the current owner."
      },
      "paused()": {
        "details": "Returns true if the contract is paused, and false otherwise."
      },
      "renounceOwnership()": {
        "details": "Leaves the contract without owner. It will not be possible to call `onlyOwner` functions anymore. Can only be called by the current owner. NOTE: Renouncing ownership will leave the contract without an owner, thereby removing any functionality that is only available to the owner."
      },
      "transferOwnership(address)": {
        "details": "Transfers ownership of the contract to a new account (`newOwner`). Can only be called by the current owner."
      },
      "withdrawAsset(address,address,uint256)": {
        "details": "For reflect tokens, we should deposit some tokens at contract directly, We will withdraw tokens deposited at contract through this function"
      }
    },
    "version": 1
  },
  "userdoc": {
    "kind": "user",
    "methods": {
      "executeMetaTransaction(address,bytes,bytes32,bytes32,uint8)": {
        "notice": "Main function to be called when user wants to execute meta transaction. The actual function to be called should be passed as param with name functionSignature Here the basic signature recovery is being used. Signature is expected to be generated using personal_sign method."
      },
      "setAllowanceExchangeAgent(address)": {
        "notice": "We would allow ExchangeAgent to consume _token in advance to save gas fee"
      }
    },
    "notice": "We are supporting only CVR for InsureAce",
    "version": 1
  },
  "storageLayout": {
    "storage": [
      {
        "astId": 7,
        "contract": "contracts/onchain/InsureAceCover.sol:InsureAceCover",
        "label": "_owner",
        "offset": 0,
        "slot": "0",
        "type": "t_address"
      },
      {
        "astId": 127,
        "contract": "contracts/onchain/InsureAceCover.sol:InsureAceCover",
        "label": "_paused",
        "offset": 20,
        "slot": "0",
        "type": "t_bool"
      },
      {
        "astId": 2107,
        "contract": "contracts/onchain/InsureAceCover.sol:InsureAceCover",
        "label": "nonces",
        "offset": 0,
        "slot": "1",
        "type": "t_mapping(t_address,t_uint256)"
      },
      {
        "astId": 4127,
        "contract": "contracts/onchain/InsureAceCover.sol:InsureAceCover",
        "label": "productIds",
        "offset": 0,
        "slot": "2",
        "type": "t_struct(Counter)1041_storage"
      },
      {
        "astId": 4131,
        "contract": "contracts/onchain/InsureAceCover.sol:InsureAceCover",
        "label": "availableCurrencies",
        "offset": 0,
        "slot": "3",
        "type": "t_mapping(t_address,t_bool)"
      },
      {
        "astId": 4133,
        "contract": "contracts/onchain/InsureAceCover.sol:InsureAceCover",
        "label": "exchangeAgent",
        "offset": 0,
        "slot": "4",
        "type": "t_address"
      },
      {
        "astId": 212,
        "contract": "contracts/onchain/InsureAceCover.sol:InsureAceCover",
        "label": "_status",
        "offset": 0,
        "slot": "5",
        "type": "t_uint256"
      },
      {
        "astId": 4351,
        "contract": "contracts/onchain/InsureAceCover.sol:InsureAceCover",
        "label": "coverContractAddress",
        "offset": 0,
        "slot": "6",
        "type": "t_address"
      }
    ],
    "types": {
      "t_address": {
        "encoding": "inplace",
        "label": "address",
        "numberOfBytes": "20"
      },
      "t_bool": {
        "encoding": "inplace",
        "label": "bool",
        "numberOfBytes": "1"
      },
      "t_mapping(t_address,t_bool)": {
        "encoding": "mapping",
        "key": "t_address",
        "label": "mapping(address => bool)",
        "numberOfBytes": "32",
        "value": "t_bool"
      },
      "t_mapping(t_address,t_uint256)": {
        "encoding": "mapping",
        "key": "t_address",
        "label": "mapping(address => uint256)",
        "numberOfBytes": "32",
        "value": "t_uint256"
      },
      "t_struct(Counter)1041_storage": {
        "encoding": "inplace",
        "label": "struct Counters.Counter",
        "members": [
          {
            "astId": 1040,
            "contract": "contracts/onchain/InsureAceCover.sol:InsureAceCover",
            "label": "_value",
            "offset": 0,
            "slot": "0",
            "type": "t_uint256"
          }
        ],
        "numberOfBytes": "32"
      },
      "t_uint256": {
        "encoding": "inplace",
        "label": "uint256",
        "numberOfBytes": "32"
      }
    }
  }
}