{
  "address": "0x49d7Ed485b90aDc96e8e24240e96bc0c7bf5BD13",
  "abi": [
    {
      "inputs": [
        {
          "internalType": "address",
          "name": "_WETH",
          "type": "address"
        },
        {
          "internalType": "address",
          "name": "_exchangeAgent",
          "type": "address"
        },
        {
          "internalType": "address",
          "name": "_devWallet",
          "type": "address"
        },
        {
          "internalType": "address",
          "name": "_signer",
          "type": "address"
        }
      ],
      "stateMutability": "nonpayable",
      "type": "constructor"
    },
    {
      "anonymous": false,
      "inputs": [
        {
          "indexed": true,
          "internalType": "uint256",
          "name": "_productId",
          "type": "uint256"
        },
        {
          "indexed": false,
          "internalType": "uint256",
          "name": "_amount",
          "type": "uint256"
        },
        {
          "indexed": false,
          "internalType": "uint256",
          "name": "_priceInUSD",
          "type": "uint256"
        },
        {
          "indexed": false,
          "internalType": "uint256",
          "name": "_conciergePrice",
          "type": "uint256"
        },
        {
          "indexed": false,
          "internalType": "address",
          "name": "_buyer",
          "type": "address"
        },
        {
          "indexed": false,
          "internalType": "address",
          "name": "_currency",
          "type": "address"
        }
      ],
      "name": "BuyMSO",
      "type": "event"
    },
    {
      "anonymous": false,
      "inputs": [
        {
          "indexed": true,
          "internalType": "uint256",
          "name": "_productId",
          "type": "uint256"
        },
        {
          "indexed": false,
          "internalType": "address",
          "name": "_buyer",
          "type": "address"
        }
      ],
      "name": "BuyProduct",
      "type": "event"
    },
    {
      "anonymous": false,
      "inputs": [
        {
          "indexed": false,
          "internalType": "address",
          "name": "userAddress",
          "type": "address"
        },
        {
          "indexed": false,
          "internalType": "address payable",
          "name": "relayerAddress",
          "type": "address"
        },
        {
          "indexed": false,
          "internalType": "bytes",
          "name": "functionSignature",
          "type": "bytes"
        }
      ],
      "name": "MetaTransactionExecuted",
      "type": "event"
    },
    {
      "anonymous": false,
      "inputs": [
        {
          "indexed": true,
          "internalType": "address",
          "name": "previousOwner",
          "type": "address"
        },
        {
          "indexed": true,
          "internalType": "address",
          "name": "newOwner",
          "type": "address"
        }
      ],
      "name": "OwnershipTransferred",
      "type": "event"
    },
    {
      "anonymous": false,
      "inputs": [
        {
          "indexed": false,
          "internalType": "address",
          "name": "account",
          "type": "address"
        }
      ],
      "name": "Paused",
      "type": "event"
    },
    {
      "anonymous": false,
      "inputs": [
        {
          "indexed": false,
          "internalType": "address",
          "name": "_setter",
          "type": "address"
        },
        {
          "indexed": false,
          "internalType": "address",
          "name": "_exchangeAgent",
          "type": "address"
        }
      ],
      "name": "SetExchangeAgent",
      "type": "event"
    },
    {
      "anonymous": false,
      "inputs": [
        {
          "indexed": false,
          "internalType": "address",
          "name": "_setter",
          "type": "address"
        },
        {
          "indexed": false,
          "internalType": "address",
          "name": "_signer",
          "type": "address"
        }
      ],
      "name": "SetSigner",
      "type": "event"
    },
    {
      "anonymous": false,
      "inputs": [
        {
          "indexed": false,
          "internalType": "address",
          "name": "account",
          "type": "address"
        }
      ],
      "name": "Unpaused",
      "type": "event"
    },
    {
      "inputs": [],
      "name": "WETH",
      "outputs": [
        {
          "internalType": "address",
          "name": "",
          "type": "address"
        }
      ],
      "stateMutability": "view",
      "type": "function"
    },
    {
      "inputs": [
        {
          "internalType": "address",
          "name": "_currency",
          "type": "address"
        }
      ],
      "name": "addCurrency",
      "outputs": [],
      "stateMutability": "nonpayable",
      "type": "function"
    },
    {
      "inputs": [
        {
          "internalType": "address",
          "name": "",
          "type": "address"
        }
      ],
      "name": "availableCurrencies",
      "outputs": [
        {
          "internalType": "bool",
          "name": "",
          "type": "bool"
        }
      ],
      "stateMutability": "view",
      "type": "function"
    },
    {
      "inputs": [
        {
          "internalType": "address",
          "name": "_account",
          "type": "address"
        }
      ],
      "name": "balanceOf",
      "outputs": [
        {
          "internalType": "uint64",
          "name": "",
          "type": "uint64"
        }
      ],
      "stateMutability": "view",
      "type": "function"
    },
    {
      "inputs": [
        {
          "internalType": "string",
          "name": "policyId",
          "type": "string"
        },
        {
          "internalType": "uint256",
          "name": "priceInUSD",
          "type": "uint256"
        },
        {
          "internalType": "uint256",
          "name": "period",
          "type": "uint256"
        },
        {
          "internalType": "uint256",
          "name": "conciergePrice",
          "type": "uint256"
        },
        {
          "internalType": "bytes",
          "name": "sig",
          "type": "bytes"
        }
      ],
      "name": "buyProductByETH",
      "outputs": [],
      "stateMutability": "payable",
      "type": "function"
    },
    {
      "inputs": [
        {
          "internalType": "string",
          "name": "policyId",
          "type": "string"
        },
        {
          "internalType": "uint256",
          "name": "priceInUSD",
          "type": "uint256"
        },
        {
          "internalType": "uint256",
          "name": "period",
          "type": "uint256"
        },
        {
          "internalType": "address",
          "name": "_token",
          "type": "address"
        },
        {
          "internalType": "uint256",
          "name": "conciergePrice",
          "type": "uint256"
        },
        {
          "internalType": "bytes",
          "name": "sig",
          "type": "bytes"
        }
      ],
      "name": "buyProductByToken",
      "outputs": [],
      "stateMutability": "nonpayable",
      "type": "function"
    },
    {
      "inputs": [],
      "name": "devWallet",
      "outputs": [
        {
          "internalType": "address",
          "name": "",
          "type": "address"
        }
      ],
      "stateMutability": "view",
      "type": "function"
    },
    {
      "inputs": [],
      "name": "exchangeAgent",
      "outputs": [
        {
          "internalType": "address",
          "name": "",
          "type": "address"
        }
      ],
      "stateMutability": "view",
      "type": "function"
    },
    {
      "inputs": [
        {
          "internalType": "address",
          "name": "userAddress",
          "type": "address"
        },
        {
          "internalType": "bytes",
          "name": "functionSignature",
          "type": "bytes"
        },
        {
          "internalType": "bytes32",
          "name": "sigR",
          "type": "bytes32"
        },
        {
          "internalType": "bytes32",
          "name": "sigS",
          "type": "bytes32"
        },
        {
          "internalType": "uint8",
          "name": "sigV",
          "type": "uint8"
        }
      ],
      "name": "executeMetaTransaction",
      "outputs": [
        {
          "internalType": "bytes",
          "name": "",
          "type": "bytes"
        }
      ],
      "stateMutability": "payable",
      "type": "function"
    },
    {
      "inputs": [
        {
          "internalType": "address",
          "name": "user",
          "type": "address"
        }
      ],
      "name": "getNonce",
      "outputs": [
        {
          "internalType": "uint256",
          "name": "nonce",
          "type": "uint256"
        }
      ],
      "stateMutability": "view",
      "type": "function"
    },
    {
      "inputs": [],
      "name": "owner",
      "outputs": [
        {
          "internalType": "address",
          "name": "",
          "type": "address"
        }
      ],
      "stateMutability": "view",
      "type": "function"
    },
    {
      "inputs": [
        {
          "internalType": "uint256",
          "name": "_prodId",
          "type": "uint256"
        }
      ],
      "name": "ownerOf",
      "outputs": [
        {
          "internalType": "address",
          "name": "",
          "type": "address"
        }
      ],
      "stateMutability": "view",
      "type": "function"
    },
    {
      "inputs": [],
      "name": "pause",
      "outputs": [],
      "stateMutability": "nonpayable",
      "type": "function"
    },
    {
      "inputs": [],
      "name": "paused",
      "outputs": [
        {
          "internalType": "bool",
          "name": "",
          "type": "bool"
        }
      ],
      "stateMutability": "view",
      "type": "function"
    },
    {
      "inputs": [],
      "name": "productIds",
      "outputs": [
        {
          "internalType": "uint256",
          "name": "_value",
          "type": "uint256"
        }
      ],
      "stateMutability": "view",
      "type": "function"
    },
    {
      "inputs": [
        {
          "internalType": "address",
          "name": "_owner",
          "type": "address"
        },
        {
          "internalType": "uint64",
          "name": "_idx",
          "type": "uint64"
        }
      ],
      "name": "productOf",
      "outputs": [
        {
          "internalType": "uint64",
          "name": "",
          "type": "uint64"
        }
      ],
      "stateMutability": "view",
      "type": "function"
    },
    {
      "inputs": [
        {
          "internalType": "uint256",
          "name": "",
          "type": "uint256"
        }
      ],
      "name": "products",
      "outputs": [
        {
          "internalType": "string",
          "name": "policyId",
          "type": "string"
        },
        {
          "internalType": "uint256",
          "name": "priceInUSD",
          "type": "uint256"
        },
        {
          "internalType": "uint256",
          "name": "period",
          "type": "uint256"
        },
        {
          "internalType": "uint256",
          "name": "startTime",
          "type": "uint256"
        },
        {
          "internalType": "uint256",
          "name": "conciergePrice",
          "type": "uint256"
        }
      ],
      "stateMutability": "view",
      "type": "function"
    },
    {
      "inputs": [
        {
          "internalType": "address",
          "name": "_currency",
          "type": "address"
        }
      ],
      "name": "removeCurrency",
      "outputs": [],
      "stateMutability": "nonpayable",
      "type": "function"
    },
    {
      "inputs": [],
      "name": "renounceOwnership",
      "outputs": [],
      "stateMutability": "nonpayable",
      "type": "function"
    },
    {
      "inputs": [
        {
          "internalType": "address",
          "name": "_exchangeAgent",
          "type": "address"
        }
      ],
      "name": "setExchangeAgent",
      "outputs": [],
      "stateMutability": "nonpayable",
      "type": "function"
    },
    {
      "inputs": [
        {
          "internalType": "address",
          "name": "_signer",
          "type": "address"
        }
      ],
      "name": "setSigner",
      "outputs": [],
      "stateMutability": "nonpayable",
      "type": "function"
    },
    {
      "inputs": [],
      "name": "signer",
      "outputs": [
        {
          "internalType": "address",
          "name": "",
          "type": "address"
        }
      ],
      "stateMutability": "view",
      "type": "function"
    },
    {
      "inputs": [
        {
          "internalType": "address",
          "name": "newOwner",
          "type": "address"
        }
      ],
      "name": "transferOwnership",
      "outputs": [],
      "stateMutability": "nonpayable",
      "type": "function"
    },
    {
      "inputs": [],
      "name": "unpause",
      "outputs": [],
      "stateMutability": "nonpayable",
      "type": "function"
    },
    {
      "inputs": [
        {
          "internalType": "address",
          "name": "owner",
          "type": "address"
        },
        {
          "internalType": "uint256",
          "name": "nonce",
          "type": "uint256"
        },
        {
          "internalType": "uint256",
          "name": "chainID",
          "type": "uint256"
        },
        {
          "internalType": "bytes",
          "name": "functionSignature",
          "type": "bytes"
        },
        {
          "internalType": "bytes32",
          "name": "sigR",
          "type": "bytes32"
        },
        {
          "internalType": "bytes32",
          "name": "sigS",
          "type": "bytes32"
        },
        {
          "internalType": "uint8",
          "name": "sigV",
          "type": "uint8"
        }
      ],
      "name": "verify",
      "outputs": [
        {
          "internalType": "bool",
          "name": "",
          "type": "bool"
        }
      ],
      "stateMutability": "view",
      "type": "function"
    }
  ],
  "transactionHash": "0x7de11ddaa07dbe29505185e4fd449c640acb9703adef705f37471bb0ede0a698",
  "args": [
    "0xc778417e063141139fce010982780140aa0cd5ab",
    "0x3320C193109265faC179cC3eF0a466Cca01651DF",
    "0x6C641CE6A7216F12d28692f9d8b2BDcdE812eD2b",
    "0x356C9B814a5D3508ab76834D0eF67e6A171d3740"
  ],
  "solcInputHash": "dc4dea4f22376d00ebd11d6c722b0add",
  "bytecode": "0x60a06040523480156200001157600080fd5b506040516200257638038062002576833981016040819052620000349162000118565b83838383600062000044620000f7565b600080546001600160a01b0319166001600160a01b0383169081178255604051929350917f8be0079c531659141344cd1fd0a4f28419497f9722a3daafe3b4186f6b6457e0908290a350600180556002805460ff1916905560609390931b6001600160601b031916608052600980546001600160a01b03199081166001600160a01b0394851617909155600a8054821692841692909217909155600b805490911691909216179055506200017492505050565b3390565b80516001600160a01b03811681146200011357600080fd5b919050565b600080600080608085870312156200012e578384fd5b6200013985620000fb565b93506200014960208601620000fb565b92506200015960408601620000fb565b91506200016960608601620000fb565b905092959194509250565b60805160601c6123dc6200019a60003960008181610b7e0152610d4501526123dc6000f3fe6080604052600436106101965760003560e01c80637acc0b20116100e1578063ad5c46481161008a578063d9203b9111610064578063d9203b911461041b578063f2fde38b14610430578063f479628714610450578063fdc815661461047057610196565b8063ad5c4648146103d3578063c0bddef2146103e8578063c5d3a107146103fb57610196565b80638da5cb5b116100bb5780638da5cb5b146103945780638ea5220f146103a9578063aa57511d146103be57610196565b80637acc0b201461032e5780638456cb591461035f5780638ab234b61461037457610196565b80635c975abb116101435780636c19e7831161011d5780636c19e783146102cc57806370a08231146102ec578063715018a61461031957610196565b80635c975abb146102775780636281133d1461028c5780636352211e146102ac57610196565b8063238ac93311610174578063238ac933146102135780632d0335ab146102355780633f4ba83a1461026257610196565b80630c53c51c1461019b57806318a00d8e146101c45780631af42c0f146101e6575b600080fd5b6101ae6101a9366004611938565b610490565b6040516101bb9190611df3565b60405180910390f35b3480156101d057600080fd5b506101e46101df36600461191e565b6105ef565b005b3480156101f257600080fd5b5061020661020136600461191e565b6106b2565b6040516101bb9190611dca565b34801561021f57600080fd5b506102286106c7565b6040516101bb9190611d33565b34801561024157600080fd5b5061025561025036600461191e565b6106d6565b6040516101bb919061226b565b34801561026e57600080fd5b506101e46106f1565b34801561028357600080fd5b5061020661073a565b34801561029857600080fd5b506102066102a73660046119a8565b610744565b3480156102b857600080fd5b506102286102c7366004611bde565b610814565b3480156102d857600080fd5b506101e46102e736600461191e565b610868565b3480156102f857600080fd5b5061030c61030736600461191e565b610911565b6040516101bb91906122a3565b34801561032557600080fd5b506101e4610936565b34801561033a57600080fd5b5061034e610349366004611bde565b6109bf565b6040516101bb959493929190611e06565b34801561036b57600080fd5b506101e4610a75565b34801561038057600080fd5b506101e461038f36600461191e565b610abc565b3480156103a057600080fd5b50610228610b58565b3480156103b557600080fd5b50610228610b67565b3480156103ca57600080fd5b50610255610b76565b3480156103df57600080fd5b50610228610b7c565b6101e46103f6366004611b4a565b610ba0565b34801561040757600080fd5b506101e461041636600461191e565b610d8c565b34801561042757600080fd5b50610228610e24565b34801561043c57600080fd5b506101e461044b36600461191e565b610e33565b34801561045c57600080fd5b5061030c61046b366004611a2b565b610ef3565b34801561047c57600080fd5b506101e461048b366004611a8d565b610f67565b6001600160a01b0385166000908152600360205260409020546060906104bc9087904688888888610744565b6104e15760405162461bcd60e51b81526004016104d890612128565b60405180910390fd5b6001600160a01b038616600090815260036020526040812080546001929061050a9084906122b8565b9091555050604051600090819030906105299089908b90602001611c56565b60408051601f198184030181529082905261054391611c3a565b6000604051808303816000865af19150503d8060008114610580576040519150601f19603f3d011682016040523d82523d6000602084013e610585565b606091505b5091509150816105a75760405162461bcd60e51b81526004016104d890611eef565b7f5845892132946850460bff5a0083f71031bc5bf9aadcd40f1de79423eac9b10b8833896040516105da93929190611d61565b60405180910390a19150505b95945050505050565b6105f76111a5565b6001600160a01b0316610608610b58565b6001600160a01b03161461062e5760405162461bcd60e51b81526004016104d8906120bc565b6001600160a01b0381166106545760405162461bcd60e51b81526004016104d8906121d7565b600980546001600160a01b0319166001600160a01b0383161790557f0143625ceac80b2452760213c6b6f5a22eb63bc46e17d129c30fffefb4679eb66106986111a9565b826040516106a7929190611d47565b60405180910390a150565b60086020526000908152604090205460ff1681565b600b546001600160a01b031681565b6001600160a01b031660009081526003602052604090205490565b6106f96111a5565b6001600160a01b031661070a610b58565b6001600160a01b0316146107305760405162461bcd60e51b81526004016104d8906120bc565b610738611207565b565b60025460ff165b90565b60008061077c883089896040516020016107619493929190611ced565b60405160208183030381529060405280519060200120611275565b90506000600182858888604051600081526020016040526040516107a39493929190611dd5565b6020604051602081039080840390855afa1580156107c5573d6000803e3d6000fd5b5050604051601f1901519150506001600160a01b0381166107f85760405162461bcd60e51b81526004016104d890612017565b6001600160a01b038a8116911614915050979650505050505050565b600061082060046112a5565b61082b9060016122b8565b82106108495760405162461bcd60e51b81526004016104d8906121a0565b506000818152600560205260409020546001600160a01b03165b919050565b6108706111a5565b6001600160a01b0316610881610b58565b6001600160a01b0316146108a75760405162461bcd60e51b81526004016104d8906120bc565b6001600160a01b0381166108cd5760405162461bcd60e51b81526004016104d8906121d7565b600b80546001600160a01b0319166001600160a01b0383161790557f3271c8694494a7cc76cd185c743e9ee6b515a043ea98c0db7f5ca112f694add46106986111a9565b6001600160a01b031660009081526006602052604090205467ffffffffffffffff1690565b61093e6111a5565b6001600160a01b031661094f610b58565b6001600160a01b0316146109755760405162461bcd60e51b81526004016104d8906120bc565b600080546040516001600160a01b03909116907f8be0079c531659141344cd1fd0a4f28419497f9722a3daafe3b4186f6b6457e0908390a3600080546001600160a01b0319169055565b600c602052600090815260409020805481906109da90612317565b80601f0160208091040260200160405190810160405280929190818152602001828054610a0690612317565b8015610a535780601f10610a2857610100808354040283529160200191610a53565b820191906000526020600020905b815481529060010190602001808311610a3657829003601f168201915b5050505050908060010154908060020154908060030154908060040154905085565b610a7d6111a5565b6001600160a01b0316610a8e610b58565b6001600160a01b031614610ab45760405162461bcd60e51b81526004016104d8906120bc565b6107386112a9565b610ac46111a5565b6001600160a01b0316610ad5610b58565b6001600160a01b031614610afb5760405162461bcd60e51b81526004016104d8906120bc565b6001600160a01b03811660009081526008602052604090205460ff1615610b345760405162461bcd60e51b81526004016104d89061204e565b6001600160a01b03166000908152600860205260409020805460ff19166001179055565b6000546001600160a01b031690565b600a546001600160a01b031681565b60045481565b7f000000000000000000000000000000000000000000000000000000000000000081565b60026001541415610bc35760405162461bcd60e51b81526004016104d890612234565b6002600155610bd061073a565b15610bed5760405162461bcd60e51b81526004016104d890612085565b6000610bf983866122b8565b90506000610c0987878787611304565b600b54909150610c23906001600160a01b03168285611368565b60095460405163531a221160e01b81526000916001600160a01b03169063531a221190610c5490869060040161226b565b60206040518083038186803b158015610c6c57600080fd5b505afa158015610c80573d6000803e3d6000fd5b505050506040513d601f19601f82011682018060405250810190610ca49190611bf6565b905080341015610cc65760405162461bcd60e51b81526004016104d890612169565b80341115610ce857610ce8610cd96111a9565b610ce383346122d0565b61141e565b600a54610cfe906001600160a01b03168261141e565b6000610d1489898989610d0f6111a9565b6114b0565b9050807f1927ed64f868245dda652d1823bd0fbd30faf077622861a5b0b147775a37a17e838a89610d436111a9565b7f0000000000000000000000000000000000000000000000000000000000000000604051610d75959493929190612274565b60405180910390a250506001805550505050505050565b610d946111a5565b6001600160a01b0316610da5610b58565b6001600160a01b031614610dcb5760405162461bcd60e51b81526004016104d8906120bc565b6001600160a01b03811660009081526008602052604090205460ff16610e035760405162461bcd60e51b81526004016104d8906120f1565b6001600160a01b03166000908152600860205260409020805460ff19169055565b6009546001600160a01b031681565b610e3b6111a5565b6001600160a01b0316610e4c610b58565b6001600160a01b031614610e725760405162461bcd60e51b81526004016104d8906120bc565b6001600160a01b038116610e985760405162461bcd60e51b81526004016104d890611ea9565b600080546040516001600160a01b03808516939216917f8be0079c531659141344cd1fd0a4f28419497f9722a3daafe3b4186f6b6457e091a3600080546001600160a01b0319166001600160a01b0392909216919091179055565b6001600160a01b0382166000908152600760205260408120805467ffffffffffffffff8416908110610f3557634e487b7160e01b600052603260045260246000fd5b90600052602060002090600491828204019190066008029054906101000a900467ffffffffffffffff16905092915050565b60026001541415610f8a5760405162461bcd60e51b81526004016104d890612234565b6002600155610f9761073a565b15610fb45760405162461bcd60e51b81526004016104d890612085565b6001600160a01b038316600090815260086020526040902054839060ff16610fee5760405162461bcd60e51b81526004016104d890611f26565b6000610ffa84886122b8565b905060006110428a8a8080601f0160208091040260200160405190810160405280939291908181526020018383808284376000920191909152508c92508b9150899050611304565b600b5490915061105c906001600160a01b03168286611368565b60095460405163a9a12d4360e01b81526000916001600160a01b03169063a9a12d439061108f908a908790600401611db1565b602060405180830381600087803b1580156110a957600080fd5b505af11580156110bd573d6000803e3d6000fd5b505050506040513d601f19601f820116820180604052508101906110e19190611bf6565b9050611101876110ef6111a9565b600a546001600160a01b03168461155c565b600061114a8c8c8080601f0160208091040260200160405190810160405280939291908181526020018383808284376000920191909152508e92508d91508b9050610d0f6111a9565b9050807f1927ed64f868245dda652d1823bd0fbd30faf077622861a5b0b147775a37a17e838c8a6111796111a9565b8d60405161118b959493929190612274565b60405180910390a250506001805550505050505050505050565b3390565b60003330141561120057600080368080601f0160208091040260200160405190810160405280939291908181526020018383808284376000920191909152505050503601516001600160a01b031691506107419050565b5033610741565b61120f61073a565b61122b5760405162461bcd60e51b81526004016104d890611e3d565b6002805460ff191690557f5db9ee0a495bf2e6ff9c91a7834c1ba4fdd244a5e8aa4e537bd38aeae4b073aa61125e6111a5565b60405161126b9190611d33565b60405180910390a1565b6000816040516020016112889190611cbc565b604051602081830303815290604052805190602001209050919050565b5490565b6112b161073a565b156112ce5760405162461bcd60e51b81526004016104d890612085565b6002805460ff191660011790557f62e78cea01bee320cd4e420270b5ea74000d11b0c9f74754ebdbfc544b05a25861125e6111a5565b6000808585858560405160200161131e9493929190611c8d565b604051602081830303815290604052805190602001209050806040516020016113479190611cbc565b60405160208183030381529060405280519060200120915050949350505050565b600080600061137684611661565b9250925092506000600186838686604051600081526020016040526040516113a19493929190611dd5565b6020604051602081039080840390855afa1580156113c3573d6000803e3d6000fd5b5050604051601f1901519150506001600160a01b038116158015906113f95750866001600160a01b0316816001600160a01b0316145b6114155760405162461bcd60e51b81526004016104d890611e74565b50505050505050565b604080516000808252602082019092526001600160a01b0384169083906040516114489190611c3a565b60006040518083038185875af1925050503d8060008114611485576040519150601f19603f3d011682016040523d82523d6000602084013e61148a565b606091505b50509050806114ab5760405162461bcd60e51b81526004016104d890611fba565b505050565b60006114bc60046112a5565b6040805160a0810182528881526020808201899052818301889052426060830152608082018790526000848152600c825292909220815180519495509193909261150a9284929101906117c7565b5060208201516001820155604082015160028201556060820151600382015560809091015160049091015561153f81836116a5565b611548826116d3565b611552828261172b565b6105e660046117be565b600080856001600160a01b03166323b872dd86868660405160240161158393929190611d8d565b6040516020818303038152906040529060e01b6020820180517bffffffffffffffffffffffffffffffffffffffffffffffffffffffff83818316178352505050506040516115d19190611c3a565b6000604051808303816000865af19150503d806000811461160e576040519150601f19603f3d011682016040523d82523d6000602084013e611613565b606091505b509150915081801561163d57508051158061163d57508080602001905181019061163d9190611a6d565b6116595760405162461bcd60e51b81526004016104d890611f5d565b505050505050565b600080600083516041146116875760405162461bcd60e51b81526004016104d8906121fd565b50505060208101516040820151606090920151909260009190911a90565b60009182526005602052604090912080546001600160a01b0319166001600160a01b03909216919091179055565b6001600160a01b0381166000908152600660205260408120805467ffffffffffffffff169161170183612352565b91906101000a81548167ffffffffffffffff021916908367ffffffffffffffff1602179055505050565b6001600160a01b03821660009081526007602090815260408083208054600181018255908452919092206004820401805460039092166008026101000a67ffffffffffffffff81810219909316928516029190911790555181907fbe51e9a2a9ea8219cc8ab3194ee452fbdf2fa052f0d88d96a854c8ff2686151e906117b2908590611d33565b60405180910390a25050565b80546001019055565b8280546117d390612317565b90600052602060002090601f0160209004810192826117f5576000855561183b565b82601f1061180e57805160ff191683800117855561183b565b8280016001018555821561183b579182015b8281111561183b578251825591602001919060010190611820565b5061184792915061184b565b5090565b5b80821115611847576000815560010161184c565b600067ffffffffffffffff8084111561187b5761187b612390565b604051601f8501601f19168101602001828111828210171561189f5761189f612390565b6040528481529150818385018610156118b757600080fd5b8484602083013760006020868301015250509392505050565b80356001600160a01b038116811461086357600080fd5b600082601f8301126118f7578081fd5b61190683833560208501611860565b9392505050565b803560ff8116811461086357600080fd5b60006020828403121561192f578081fd5b611906826118d0565b600080600080600060a0868803121561194f578081fd5b611958866118d0565b9450602086013567ffffffffffffffff811115611973578182fd5b61197f888289016118e7565b945050604086013592506060860135915061199c6080870161190d565b90509295509295909350565b600080600080600080600060e0888a0312156119c2578182fd5b6119cb886118d0565b96506020880135955060408801359450606088013567ffffffffffffffff8111156119f4578283fd5b611a008a828b016118e7565b9450506080880135925060a08801359150611a1d60c0890161190d565b905092959891949750929550565b60008060408385031215611a3d578182fd5b611a46836118d0565b9150602083013567ffffffffffffffff81168114611a62578182fd5b809150509250929050565b600060208284031215611a7e578081fd5b81518015158114611906578182fd5b600080600080600080600060c0888a031215611aa7578283fd5b873567ffffffffffffffff80821115611abe578485fd5b818a0191508a601f830112611ad1578485fd5b813581811115611adf578586fd5b8b6020828501011115611af0578586fd5b60208381019a509098508a0135965060408a01359550611b1260608b016118d0565b945060808a0135935060a08a0135915080821115611b2e578283fd5b50611b3b8a828b016118e7565b91505092959891949750929550565b600080600080600060a08688031215611b61578081fd5b853567ffffffffffffffff80821115611b78578283fd5b818801915088601f830112611b8b578283fd5b611b9a89833560208501611860565b96506020880135955060408801359450606088013593506080880135915080821115611bc4578283fd5b50611bd1888289016118e7565b9150509295509295909350565b600060208284031215611bef578081fd5b5035919050565b600060208284031215611c07578081fd5b5051919050565b60008151808452611c268160208601602086016122e7565b601f01601f19169290920160200192915050565b60008251611c4c8184602087016122e7565b9190910192915050565b60008351611c688184602088016122e7565b60609390931b6bffffffffffffffffffffffff19169190920190815260140192915050565b60008551611c9f818460208a016122e7565b919091019384525060208301919091526040820152606001919050565b7f19457468657265756d205369676e6564204d6573736167653a0a3332000000008152601c810191909152603c0190565b60008582526bffffffffffffffffffffffff198560601b1660208301528360348301528251611d238160548501602087016122e7565b9190910160540195945050505050565b6001600160a01b0391909116815260200190565b6001600160a01b0392831681529116602082015260400190565b60006001600160a01b038086168352808516602084015250606060408301526105e66060830184611c0e565b6001600160a01b039384168152919092166020820152604081019190915260600190565b6001600160a01b03929092168252602082015260400190565b901515815260200190565b93845260ff9290921660208401526040830152606082015260800190565b6000602082526119066020830184611c0e565b600060a08252611e1960a0830188611c0e565b90508560208301528460408301528360608301528260808301529695505050505050565b60208082526014908201527f5061757361626c653a206e6f7420706175736564000000000000000000000000604082015260600190565b6020808252818101527f436f766572436f6d70617265643a20494e56414c49445f5349474e4154555245604082015260600190565b60208082526026908201527f4f776e61626c653a206e6577206f776e657220697320746865207a65726f206160408201526564647265737360d01b606082015260800190565b6020808252601c908201527f46756e6374696f6e2063616c6c206e6f74207375636365737366756c00000000604082015260600190565b60208082526011908201527f4e6f7420616c6c6f77656420746f6b656e000000000000000000000000000000604082015260600190565b60208082526031908201527f5472616e7366657248656c7065723a3a7472616e7366657246726f6d3a20747260408201527f616e7366657246726f6d206661696c6564000000000000000000000000000000606082015260800190565b60208082526034908201527f5472616e7366657248656c7065723a3a736166655472616e736665724554483a60408201527f20455448207472616e73666572206661696c6564000000000000000000000000606082015260800190565b60208082526011908201527f496e76616c6964207369676e6174757265000000000000000000000000000000604082015260600190565b60208082526011908201527f416c726561647920617661696c61626c65000000000000000000000000000000604082015260600190565b60208082526010908201527f5061757361626c653a2070617573656400000000000000000000000000000000604082015260600190565b6020808252818101527f4f776e61626c653a2063616c6c6572206973206e6f7420746865206f776e6572604082015260600190565b60208082526011908201527f4e6f7420617661696c61626c6520796574000000000000000000000000000000604082015260600190565b60208082526021908201527f5369676e657220616e64207369676e617475726520646f206e6f74206d6174636040820152600d60fb1b606082015260800190565b60208082526013908201527f496e73756666696369656e7420616d6f756e7400000000000000000000000000604082015260600190565b60208082526012908201527f496e76616c69642070726f647563742049440000000000000000000000000000604082015260600190565b6020808252600c908201526b5a45524f204164647265737360a01b604082015260600190565b60208082526018908201527f696e76616c6964207369676e6174757265206c656e6774680000000000000000604082015260600190565b6020808252601f908201527f5265656e7472616e637947756172643a207265656e7472616e742063616c6c00604082015260600190565b90815260200190565b948552602085019390935260408401919091526001600160a01b03908116606084015216608082015260a00190565b67ffffffffffffffff91909116815260200190565b600082198211156122cb576122cb61237a565b500190565b6000828210156122e2576122e261237a565b500390565b60005b838110156123025781810151838201526020016122ea565b83811115612311576000848401525b50505050565b60028104600182168061232b57607f821691505b6020821081141561234c57634e487b7160e01b600052602260045260246000fd5b50919050565b600067ffffffffffffffff808316818114156123705761237061237a565b6001019392505050565b634e487b7160e01b600052601160045260246000fd5b634e487b7160e01b600052604160045260246000fdfea264697066735822122078e57d2b42bb0697f29b009c7b242e8f550c4c3c4d0a9eab9ff9bfd877acd55064736f6c63430008000033",
  "devdoc": {
    "kind": "dev",
    "methods": {
      "buyProductByETH(string,uint256,uint256,uint256,bytes)": {
        "details": "buyProductByETH function:"
      },
      "buyProductByToken(string,uint256,uint256,address,uint256,bytes)": {
        "details": "buyProductByToken function:"
      },
      "executeMetaTransaction(address,bytes,bytes32,bytes32,uint8)": {
        "params": {
          "functionSignature": "Signature of the actual function to be called via meta transaction",
          "sigR": "R part of the signature",
          "sigS": "S part of the signature",
          "sigV": "V part of the signature",
          "userAddress": "Address of user trying to do meta transaction"
        }
      },
      "owner()": {
        "details": "Returns the address of the current owner."
      },
      "paused()": {
        "details": "Returns true if the contract is paused, and false otherwise."
      },
      "renounceOwnership()": {
        "details": "Leaves the contract without owner. It will not be possible to call `onlyOwner` functions anymore. Can only be called by the current owner. NOTE: Renouncing ownership will leave the contract without an owner, thereby removing any functionality that is only available to the owner."
      },
      "transferOwnership(address)": {
        "details": "Transfers ownership of the contract to a new account (`newOwner`). Can only be called by the current owner."
      }
    },
    "version": 1
  },
  "userdoc": {
    "kind": "user",
    "methods": {
      "executeMetaTransaction(address,bytes,bytes32,bytes32,uint8)": {
        "notice": "Main function to be called when user wants to execute meta transaction. The actual function to be called should be passed as param with name functionSignature Here the basic signature recovery is being used. Signature is expected to be generated using personal_sign method."
      }
    },
    "version": 1
  },
  "storageLayout": {
    "storage": [
      {
        "astId": 7,
        "contract": "contracts/offchain/MSOCover.sol:MSOCover",
        "label": "_owner",
        "offset": 0,
        "slot": "0",
        "type": "t_address"
      },
      {
        "astId": 212,
        "contract": "contracts/offchain/MSOCover.sol:MSOCover",
        "label": "_status",
        "offset": 0,
        "slot": "1",
        "type": "t_uint256"
      },
      {
        "astId": 127,
        "contract": "contracts/offchain/MSOCover.sol:MSOCover",
        "label": "_paused",
        "offset": 0,
        "slot": "2",
        "type": "t_bool"
      },
      {
        "astId": 2107,
        "contract": "contracts/offchain/MSOCover.sol:MSOCover",
        "label": "nonces",
        "offset": 0,
        "slot": "3",
        "type": "t_mapping(t_address,t_uint256)"
      },
      {
        "astId": 3071,
        "contract": "contracts/offchain/MSOCover.sol:MSOCover",
        "label": "productIds",
        "offset": 0,
        "slot": "4",
        "type": "t_struct(Counter)1041_storage"
      },
      {
        "astId": 3075,
        "contract": "contracts/offchain/MSOCover.sol:MSOCover",
        "label": "_ownerOf",
        "offset": 0,
        "slot": "5",
        "type": "t_mapping(t_uint256,t_address)"
      },
      {
        "astId": 3079,
        "contract": "contracts/offchain/MSOCover.sol:MSOCover",
        "label": "_balanceOf",
        "offset": 0,
        "slot": "6",
        "type": "t_mapping(t_address,t_uint64)"
      },
      {
        "astId": 3084,
        "contract": "contracts/offchain/MSOCover.sol:MSOCover",
        "label": "_productsOf",
        "offset": 0,
        "slot": "7",
        "type": "t_mapping(t_address,t_array(t_uint64)dyn_storage)"
      },
      {
        "astId": 3088,
        "contract": "contracts/offchain/MSOCover.sol:MSOCover",
        "label": "availableCurrencies",
        "offset": 0,
        "slot": "8",
        "type": "t_mapping(t_address,t_bool)"
      },
      {
        "astId": 3092,
        "contract": "contracts/offchain/MSOCover.sol:MSOCover",
        "label": "exchangeAgent",
        "offset": 0,
        "slot": "9",
        "type": "t_address"
      },
      {
        "astId": 3094,
        "contract": "contracts/offchain/MSOCover.sol:MSOCover",
        "label": "devWallet",
        "offset": 0,
        "slot": "10",
        "type": "t_address"
      },
      {
        "astId": 3096,
        "contract": "contracts/offchain/MSOCover.sol:MSOCover",
        "label": "signer",
        "offset": 0,
        "slot": "11",
        "type": "t_address"
      },
      {
        "astId": 3466,
        "contract": "contracts/offchain/MSOCover.sol:MSOCover",
        "label": "products",
        "offset": 0,
        "slot": "12",
        "type": "t_mapping(t_uint256,t_struct(Product)3461_storage)"
      }
    ],
    "types": {
      "t_address": {
        "encoding": "inplace",
        "label": "address",
        "numberOfBytes": "20"
      },
      "t_array(t_uint64)dyn_storage": {
        "base": "t_uint64",
        "encoding": "dynamic_array",
        "label": "uint64[]",
        "numberOfBytes": "32"
      },
      "t_bool": {
        "encoding": "inplace",
        "label": "bool",
        "numberOfBytes": "1"
      },
      "t_mapping(t_address,t_array(t_uint64)dyn_storage)": {
        "encoding": "mapping",
        "key": "t_address",
        "label": "mapping(address => uint64[])",
        "numberOfBytes": "32",
        "value": "t_array(t_uint64)dyn_storage"
      },
      "t_mapping(t_address,t_bool)": {
        "encoding": "mapping",
        "key": "t_address",
        "label": "mapping(address => bool)",
        "numberOfBytes": "32",
        "value": "t_bool"
      },
      "t_mapping(t_address,t_uint256)": {
        "encoding": "mapping",
        "key": "t_address",
        "label": "mapping(address => uint256)",
        "numberOfBytes": "32",
        "value": "t_uint256"
      },
      "t_mapping(t_address,t_uint64)": {
        "encoding": "mapping",
        "key": "t_address",
        "label": "mapping(address => uint64)",
        "numberOfBytes": "32",
        "value": "t_uint64"
      },
      "t_mapping(t_uint256,t_address)": {
        "encoding": "mapping",
        "key": "t_uint256",
        "label": "mapping(uint256 => address)",
        "numberOfBytes": "32",
        "value": "t_address"
      },
      "t_mapping(t_uint256,t_struct(Product)3461_storage)": {
        "encoding": "mapping",
        "key": "t_uint256",
        "label": "mapping(uint256 => struct MSOCover.Product)",
        "numberOfBytes": "32",
        "value": "t_struct(Product)3461_storage"
      },
      "t_string_storage": {
        "encoding": "bytes",
        "label": "string",
        "numberOfBytes": "32"
      },
      "t_struct(Counter)1041_storage": {
        "encoding": "inplace",
        "label": "struct Counters.Counter",
        "members": [
          {
            "astId": 1040,
            "contract": "contracts/offchain/MSOCover.sol:MSOCover",
            "label": "_value",
            "offset": 0,
            "slot": "0",
            "type": "t_uint256"
          }
        ],
        "numberOfBytes": "32"
      },
      "t_struct(Product)3461_storage": {
        "encoding": "inplace",
        "label": "struct MSOCover.Product",
        "members": [
          {
            "astId": 3452,
            "contract": "contracts/offchain/MSOCover.sol:MSOCover",
            "label": "policyId",
            "offset": 0,
            "slot": "0",
            "type": "t_string_storage"
          },
          {
            "astId": 3454,
            "contract": "contracts/offchain/MSOCover.sol:MSOCover",
            "label": "priceInUSD",
            "offset": 0,
            "slot": "1",
            "type": "t_uint256"
          },
          {
            "astId": 3456,
            "contract": "contracts/offchain/MSOCover.sol:MSOCover",
            "label": "period",
            "offset": 0,
            "slot": "2",
            "type": "t_uint256"
          },
          {
            "astId": 3458,
            "contract": "contracts/offchain/MSOCover.sol:MSOCover",
            "label": "startTime",
            "offset": 0,
            "slot": "3",
            "type": "t_uint256"
          },
          {
            "astId": 3460,
            "contract": "contracts/offchain/MSOCover.sol:MSOCover",
            "label": "conciergePrice",
            "offset": 0,
            "slot": "4",
            "type": "t_uint256"
          }
        ],
        "numberOfBytes": "160"
      },
      "t_uint256": {
        "encoding": "inplace",
        "label": "uint256",
        "numberOfBytes": "32"
      },
      "t_uint64": {
        "encoding": "inplace",
        "label": "uint64",
        "numberOfBytes": "8"
      }
    }
  }
}