{
  "address": "0x262dAdE0988169bB530983D197189f39c41AcaFB",
  "abi": [
    {
      "inputs": [
        {
          "internalType": "address",
          "name": "_WETH",
          "type": "address"
        },
        {
          "internalType": "address",
          "name": "_exchangeAgent",
          "type": "address"
        },
        {
          "internalType": "address",
          "name": "_devWallet",
          "type": "address"
        },
        {
          "internalType": "address",
          "name": "_signer",
          "type": "address"
        }
      ],
      "stateMutability": "nonpayable",
      "type": "constructor"
    },
    {
      "anonymous": false,
      "inputs": [
        {
          "indexed": true,
          "internalType": "uint256",
          "name": "_productId",
          "type": "uint256"
        },
        {
          "indexed": false,
          "internalType": "uint256",
          "name": "_amount",
          "type": "uint256"
        },
        {
          "indexed": false,
          "internalType": "uint256",
          "name": "_priceInUSD",
          "type": "uint256"
        },
        {
          "indexed": false,
          "internalType": "uint256",
          "name": "_conciergePrice",
          "type": "uint256"
        },
        {
          "indexed": false,
          "internalType": "address",
          "name": "_buyer",
          "type": "address"
        },
        {
          "indexed": false,
          "internalType": "address",
          "name": "_currency",
          "type": "address"
        }
      ],
      "name": "BuyMSO",
      "type": "event"
    },
    {
      "anonymous": false,
      "inputs": [
        {
          "indexed": true,
          "internalType": "uint256",
          "name": "_productId",
          "type": "uint256"
        },
        {
          "indexed": false,
          "internalType": "address",
          "name": "_buyer",
          "type": "address"
        }
      ],
      "name": "BuyProduct",
      "type": "event"
    },
    {
      "anonymous": false,
      "inputs": [
        {
          "indexed": false,
          "internalType": "address",
          "name": "userAddress",
          "type": "address"
        },
        {
          "indexed": false,
          "internalType": "address payable",
          "name": "relayerAddress",
          "type": "address"
        },
        {
          "indexed": false,
          "internalType": "bytes",
          "name": "functionSignature",
          "type": "bytes"
        }
      ],
      "name": "MetaTransactionExecuted",
      "type": "event"
    },
    {
      "anonymous": false,
      "inputs": [
        {
          "indexed": true,
          "internalType": "address",
          "name": "previousOwner",
          "type": "address"
        },
        {
          "indexed": true,
          "internalType": "address",
          "name": "newOwner",
          "type": "address"
        }
      ],
      "name": "OwnershipTransferred",
      "type": "event"
    },
    {
      "anonymous": false,
      "inputs": [
        {
          "indexed": false,
          "internalType": "address",
          "name": "_setter",
          "type": "address"
        },
        {
          "indexed": false,
          "internalType": "address",
          "name": "_exchangeAgent",
          "type": "address"
        }
      ],
      "name": "SetExchangeAgent",
      "type": "event"
    },
    {
      "anonymous": false,
      "inputs": [
        {
          "indexed": false,
          "internalType": "address",
          "name": "_setter",
          "type": "address"
        },
        {
          "indexed": false,
          "internalType": "address",
          "name": "_signer",
          "type": "address"
        }
      ],
      "name": "SetSigner",
      "type": "event"
    },
    {
      "inputs": [],
      "name": "WETH",
      "outputs": [
        {
          "internalType": "address",
          "name": "",
          "type": "address"
        }
      ],
      "stateMutability": "view",
      "type": "function"
    },
    {
      "inputs": [
        {
          "internalType": "address",
          "name": "_currency",
          "type": "address"
        }
      ],
      "name": "addCurrency",
      "outputs": [],
      "stateMutability": "nonpayable",
      "type": "function"
    },
    {
      "inputs": [
        {
          "internalType": "address",
          "name": "",
          "type": "address"
        }
      ],
      "name": "availableCurrencies",
      "outputs": [
        {
          "internalType": "bool",
          "name": "",
          "type": "bool"
        }
      ],
      "stateMutability": "view",
      "type": "function"
    },
    {
      "inputs": [
        {
          "internalType": "address",
          "name": "_account",
          "type": "address"
        }
      ],
      "name": "balanceOf",
      "outputs": [
        {
          "internalType": "uint64",
          "name": "",
          "type": "uint64"
        }
      ],
      "stateMutability": "view",
      "type": "function"
    },
    {
      "inputs": [
        {
          "internalType": "string",
          "name": "policyId",
          "type": "string"
        },
        {
          "internalType": "uint256",
          "name": "priceInUSD",
          "type": "uint256"
        },
        {
          "internalType": "uint256",
          "name": "period",
          "type": "uint256"
        },
        {
          "internalType": "uint256",
          "name": "conciergePrice",
          "type": "uint256"
        },
        {
          "internalType": "bytes",
          "name": "sig",
          "type": "bytes"
        }
      ],
      "name": "buyProductByETH",
      "outputs": [],
      "stateMutability": "payable",
      "type": "function"
    },
    {
      "inputs": [
        {
          "internalType": "string",
          "name": "policyId",
          "type": "string"
        },
        {
          "internalType": "uint256",
          "name": "priceInUSD",
          "type": "uint256"
        },
        {
          "internalType": "uint256",
          "name": "period",
          "type": "uint256"
        },
        {
          "internalType": "address",
          "name": "_token",
          "type": "address"
        },
        {
          "internalType": "uint256",
          "name": "conciergePrice",
          "type": "uint256"
        },
        {
          "internalType": "bytes",
          "name": "sig",
          "type": "bytes"
        }
      ],
      "name": "buyProductByToken",
      "outputs": [],
      "stateMutability": "nonpayable",
      "type": "function"
    },
    {
      "inputs": [],
      "name": "devWallet",
      "outputs": [
        {
          "internalType": "address",
          "name": "",
          "type": "address"
        }
      ],
      "stateMutability": "view",
      "type": "function"
    },
    {
      "inputs": [],
      "name": "exchangeAgent",
      "outputs": [
        {
          "internalType": "address",
          "name": "",
          "type": "address"
        }
      ],
      "stateMutability": "view",
      "type": "function"
    },
    {
      "inputs": [
        {
          "internalType": "address",
          "name": "userAddress",
          "type": "address"
        },
        {
          "internalType": "bytes",
          "name": "functionSignature",
          "type": "bytes"
        },
        {
          "internalType": "bytes32",
          "name": "sigR",
          "type": "bytes32"
        },
        {
          "internalType": "bytes32",
          "name": "sigS",
          "type": "bytes32"
        },
        {
          "internalType": "uint8",
          "name": "sigV",
          "type": "uint8"
        }
      ],
      "name": "executeMetaTransaction",
      "outputs": [
        {
          "internalType": "bytes",
          "name": "",
          "type": "bytes"
        }
      ],
      "stateMutability": "payable",
      "type": "function"
    },
    {
      "inputs": [
        {
          "internalType": "address",
          "name": "user",
          "type": "address"
        }
      ],
      "name": "getNonce",
      "outputs": [
        {
          "internalType": "uint256",
          "name": "nonce",
          "type": "uint256"
        }
      ],
      "stateMutability": "view",
      "type": "function"
    },
    {
      "inputs": [],
      "name": "owner",
      "outputs": [
        {
          "internalType": "address",
          "name": "",
          "type": "address"
        }
      ],
      "stateMutability": "view",
      "type": "function"
    },
    {
      "inputs": [
        {
          "internalType": "uint256",
          "name": "_prodId",
          "type": "uint256"
        }
      ],
      "name": "ownerOf",
      "outputs": [
        {
          "internalType": "address",
          "name": "",
          "type": "address"
        }
      ],
      "stateMutability": "view",
      "type": "function"
    },
    {
      "inputs": [],
      "name": "productIds",
      "outputs": [
        {
          "internalType": "uint256",
          "name": "_value",
          "type": "uint256"
        }
      ],
      "stateMutability": "view",
      "type": "function"
    },
    {
      "inputs": [
        {
          "internalType": "address",
          "name": "_owner",
          "type": "address"
        },
        {
          "internalType": "uint64",
          "name": "_idx",
          "type": "uint64"
        }
      ],
      "name": "productOf",
      "outputs": [
        {
          "internalType": "uint64",
          "name": "",
          "type": "uint64"
        }
      ],
      "stateMutability": "view",
      "type": "function"
    },
    {
      "inputs": [
        {
          "internalType": "uint256",
          "name": "",
          "type": "uint256"
        }
      ],
      "name": "products",
      "outputs": [
        {
          "internalType": "string",
          "name": "policyId",
          "type": "string"
        },
        {
          "internalType": "uint256",
          "name": "priceInUSD",
          "type": "uint256"
        },
        {
          "internalType": "uint256",
          "name": "period",
          "type": "uint256"
        },
        {
          "internalType": "uint256",
          "name": "startTime",
          "type": "uint256"
        },
        {
          "internalType": "uint256",
          "name": "conciergePrice",
          "type": "uint256"
        }
      ],
      "stateMutability": "view",
      "type": "function"
    },
    {
      "inputs": [
        {
          "internalType": "address",
          "name": "_currency",
          "type": "address"
        }
      ],
      "name": "removeCurrency",
      "outputs": [],
      "stateMutability": "nonpayable",
      "type": "function"
    },
    {
      "inputs": [],
      "name": "renounceOwnership",
      "outputs": [],
      "stateMutability": "nonpayable",
      "type": "function"
    },
    {
      "inputs": [
        {
          "internalType": "address",
          "name": "_exchangeAgent",
          "type": "address"
        }
      ],
      "name": "setExchangeAgent",
      "outputs": [],
      "stateMutability": "nonpayable",
      "type": "function"
    },
    {
      "inputs": [
        {
          "internalType": "address",
          "name": "_signer",
          "type": "address"
        }
      ],
      "name": "setSigner",
      "outputs": [],
      "stateMutability": "nonpayable",
      "type": "function"
    },
    {
      "inputs": [],
      "name": "signer",
      "outputs": [
        {
          "internalType": "address",
          "name": "",
          "type": "address"
        }
      ],
      "stateMutability": "view",
      "type": "function"
    },
    {
      "inputs": [
        {
          "internalType": "bytes",
          "name": "sig",
          "type": "bytes"
        }
      ],
      "name": "splitSignature",
      "outputs": [
        {
          "internalType": "bytes32",
          "name": "r",
          "type": "bytes32"
        },
        {
          "internalType": "bytes32",
          "name": "s",
          "type": "bytes32"
        },
        {
          "internalType": "uint8",
          "name": "v",
          "type": "uint8"
        }
      ],
      "stateMutability": "pure",
      "type": "function"
    },
    {
      "inputs": [
        {
          "internalType": "address",
          "name": "newOwner",
          "type": "address"
        }
      ],
      "name": "transferOwnership",
      "outputs": [],
      "stateMutability": "nonpayable",
      "type": "function"
    },
    {
      "inputs": [
        {
          "internalType": "address",
          "name": "owner",
          "type": "address"
        },
        {
          "internalType": "uint256",
          "name": "nonce",
          "type": "uint256"
        },
        {
          "internalType": "uint256",
          "name": "chainID",
          "type": "uint256"
        },
        {
          "internalType": "bytes",
          "name": "functionSignature",
          "type": "bytes"
        },
        {
          "internalType": "bytes32",
          "name": "sigR",
          "type": "bytes32"
        },
        {
          "internalType": "bytes32",
          "name": "sigS",
          "type": "bytes32"
        },
        {
          "internalType": "uint8",
          "name": "sigV",
          "type": "uint8"
        }
      ],
      "name": "verify",
      "outputs": [
        {
          "internalType": "bool",
          "name": "",
          "type": "bool"
        }
      ],
      "stateMutability": "view",
      "type": "function"
    },
    {
      "stateMutability": "payable",
      "type": "receive"
    }
  ],
  "transactionHash": "0x2556e00c4d0ef2c80dd4a643f617843bde7f714c77510f5ea4fc21515cf72a24",
  "args": [
    "0xc778417e063141139fce010982780140aa0cd5ab",
    "0x5640B69a5e1375a95e610052c5eedfea17675996",
    "0x6C641CE6A7216F12d28692f9d8b2BDcdE812eD2b",
    "0x356C9B814a5D3508ab76834D0eF67e6A171d3740"
  ],
  "solcInputHash": "72e708df0775b21f517637d69b302982",
  "bytecode": "0x60a06040523480156200001157600080fd5b506040516200237b3803806200237b83398101604081905262000034916200010e565b83838383600062000044620000ed565b600080546001600160a01b0319166001600160a01b0383169081178255604051929350917f8be0079c531659141344cd1fd0a4f28419497f9722a3daafe3b4186f6b6457e0908290a3506001805560609390931b6001600160601b031916608052600880546001600160a01b03199081166001600160a01b039485161790915560098054821692841692909217909155600a805490911691909216179055506200016a92505050565b3390565b80516001600160a01b03811681146200010957600080fd5b919050565b6000806000806080858703121562000124578384fd5b6200012f85620000f1565b93506200013f60208601620000f1565b92506200014f60408601620000f1565b91506200015f60608601620000f1565b905092959194509250565b60805160601c6121eb6200019060003960008181610afe0152610ca001526121eb6000f3fe6080604052600436106101745760003560e01c80638ab234b6116100d6578063c0bddef21161007f578063f2fde38b11610059578063f2fde38b14610405578063f479628714610425578063fdc81566146104455761017b565b8063c0bddef2146103bd578063c5d3a107146103d0578063d9203b91146103f05761017b565b8063a7bb5803116100b0578063a7bb580314610364578063aa57511d14610393578063ad5c4648146103a85761017b565b80638ab234b61461031a5780638da5cb5b1461033a5780638ea5220f1461034f5761017b565b80636281133d1161013857806370a082311161011257806370a08231146102a7578063715018a6146102d45780637acc0b20146102e95761017b565b80636281133d146102475780636352211e146102675780636c19e783146102875761017b565b80630c53c51c1461018057806318a00d8e146101a95780631af42c0f146101cb578063238ac933146101f85780632d0335ab1461021a5761017b565b3661017b57005b600080fd5b61019361018e366004611761565b610465565b6040516101a09190611c70565b60405180910390f35b3480156101b557600080fd5b506101c96101c4366004611747565b6105c4565b005b3480156101d757600080fd5b506101eb6101e6366004611747565b610687565b6040516101a09190611c2e565b34801561020457600080fd5b5061020d61069c565b6040516101a09190611b97565b34801561022657600080fd5b5061023a610235366004611747565b6106ab565b6040516101a0919061207a565b34801561025357600080fd5b506101eb6102623660046117d1565b6106c6565b34801561027357600080fd5b5061020d610282366004611a42565b610796565b34801561029357600080fd5b506101c96102a2366004611747565b6107ea565b3480156102b357600080fd5b506102c76102c2366004611747565b610893565b6040516101a091906120b2565b3480156102e057600080fd5b506101c96108b8565b3480156102f557600080fd5b50610309610304366004611a42565b610941565b6040516101a0959493929190611c83565b34801561032657600080fd5b506101c9610335366004611747565b6109f7565b34801561034657600080fd5b5061020d610a93565b34801561035b57600080fd5b5061020d610aa3565b34801561037057600080fd5b5061038461037f3660046118b6565b610ab2565b6040516101a093929190611c39565b34801561039f57600080fd5b5061023a610af6565b3480156103b457600080fd5b5061020d610afc565b6101c96103cb3660046119ae565b610b20565b3480156103dc57600080fd5b506101c96103eb366004611747565b610ce7565b3480156103fc57600080fd5b5061020d610d7f565b34801561041157600080fd5b506101c9610420366004611747565b610d8e565b34801561043157600080fd5b506102c7610440366004611854565b610e4e565b34801561045157600080fd5b506101c96104603660046118f1565b610ec2565b6001600160a01b03851660009081526002602052604090205460609061049190879046888888886106c6565b6104b65760405162461bcd60e51b81526004016104ad90611f37565b60405180910390fd5b6001600160a01b03861660009081526002602052604081208054600192906104df9084906120c7565b9091555050604051600090819030906104fe9089908b90602001611aba565b60408051601f198184030181529082905261051891611a9e565b6000604051808303816000865af19150503d8060008114610555576040519150601f19603f3d011682016040523d82523d6000602084013e61055a565b606091505b50915091508161057c5760405162461bcd60e51b81526004016104ad90611d35565b7f5845892132946850460bff5a0083f71031bc5bf9aadcd40f1de79423eac9b10b8833896040516105af93929190611bc5565b60405180910390a19150505b95945050505050565b6105cc6110db565b6001600160a01b03166105dd610a93565b6001600160a01b0316146106035760405162461bcd60e51b81526004016104ad90611ecb565b6001600160a01b0381166106295760405162461bcd60e51b81526004016104ad90611fe6565b600880546001600160a01b0319166001600160a01b0383161790557f0143625ceac80b2452760213c6b6f5a22eb63bc46e17d129c30fffefb4679eb661066d6110df565b8260405161067c929190611bab565b60405180910390a150565b60076020526000908152604090205460ff1681565b600a546001600160a01b031681565b6001600160a01b031660009081526002602052604090205490565b6000806106fe883089896040516020016106e39493929190611b51565b6040516020818303038152906040528051906020012061113d565b90506000600182858888604051600081526020016040526040516107259493929190611c52565b6020604051602081039080840390855afa158015610747573d6000803e3d6000fd5b5050604051601f1901519150506001600160a01b03811661077a5760405162461bcd60e51b81526004016104ad90611e5d565b6001600160a01b038a8116911614915050979650505050505050565b60006107a2600361116d565b6107ad9060016120c7565b82106107cb5760405162461bcd60e51b81526004016104ad90611faf565b506000818152600460205260409020546001600160a01b03165b919050565b6107f26110db565b6001600160a01b0316610803610a93565b6001600160a01b0316146108295760405162461bcd60e51b81526004016104ad90611ecb565b6001600160a01b03811661084f5760405162461bcd60e51b81526004016104ad90611fe6565b600a80546001600160a01b0319166001600160a01b0383161790557f3271c8694494a7cc76cd185c743e9ee6b515a043ea98c0db7f5ca112f694add461066d6110df565b6001600160a01b031660009081526005602052604090205467ffffffffffffffff1690565b6108c06110db565b6001600160a01b03166108d1610a93565b6001600160a01b0316146108f75760405162461bcd60e51b81526004016104ad90611ecb565b600080546040516001600160a01b03909116907f8be0079c531659141344cd1fd0a4f28419497f9722a3daafe3b4186f6b6457e0908390a3600080546001600160a01b0319169055565b600b6020526000908152604090208054819061095c90612126565b80601f016020809104026020016040519081016040528092919081815260200182805461098890612126565b80156109d55780601f106109aa576101008083540402835291602001916109d5565b820191906000526020600020905b8154815290600101906020018083116109b857829003601f168201915b5050505050908060010154908060020154908060030154908060040154905085565b6109ff6110db565b6001600160a01b0316610a10610a93565b6001600160a01b031614610a365760405162461bcd60e51b81526004016104ad90611ecb565b6001600160a01b03811660009081526007602052604090205460ff1615610a6f5760405162461bcd60e51b81526004016104ad90611e94565b6001600160a01b03166000908152600760205260409020805460ff19166001179055565b6000546001600160a01b03165b90565b6009546001600160a01b031681565b60008060008351604114610ad85760405162461bcd60e51b81526004016104ad9061200c565b50505060208101516040820151606090920151909260009190911a90565b60035481565b7f000000000000000000000000000000000000000000000000000000000000000081565b60026001541415610b435760405162461bcd60e51b81526004016104ad90612043565b60026001556000610b5483866120c7565b90506000610b6487878787611171565b600a54909150610b7e906001600160a01b031682856111d5565b60085460405163531a221160e01b81526000916001600160a01b03169063531a221190610baf90869060040161207a565b60206040518083038186803b158015610bc757600080fd5b505afa158015610bdb573d6000803e3d6000fd5b505050506040513d601f19601f82011682018060405250810190610bff9190611a5a565b905080341015610c215760405162461bcd60e51b81526004016104ad90611f78565b80341115610c4357610c43610c346110df565b610c3e83346120df565b61128b565b600954610c59906001600160a01b03168261128b565b6000610c6f89898989610c6a6110df565b61131d565b9050807f1927ed64f868245dda652d1823bd0fbd30faf077622861a5b0b147775a37a17e838a89610c9e6110df565b7f0000000000000000000000000000000000000000000000000000000000000000604051610cd0959493929190612083565b60405180910390a250506001805550505050505050565b610cef6110db565b6001600160a01b0316610d00610a93565b6001600160a01b031614610d265760405162461bcd60e51b81526004016104ad90611ecb565b6001600160a01b03811660009081526007602052604090205460ff16610d5e5760405162461bcd60e51b81526004016104ad90611f00565b6001600160a01b03166000908152600760205260409020805460ff19169055565b6008546001600160a01b031681565b610d966110db565b6001600160a01b0316610da7610a93565b6001600160a01b031614610dcd5760405162461bcd60e51b81526004016104ad90611ecb565b6001600160a01b038116610df35760405162461bcd60e51b81526004016104ad90611cef565b600080546040516001600160a01b03808516939216917f8be0079c531659141344cd1fd0a4f28419497f9722a3daafe3b4186f6b6457e091a3600080546001600160a01b0319166001600160a01b0392909216919091179055565b6001600160a01b0382166000908152600660205260408120805467ffffffffffffffff8416908110610e9057634e487b7160e01b600052603260045260246000fd5b90600052602060002090600491828204019190066008029054906101000a900467ffffffffffffffff16905092915050565b60026001541415610ee55760405162461bcd60e51b81526004016104ad90612043565b60026001556001600160a01b038316600090815260076020526040902054839060ff16610f245760405162461bcd60e51b81526004016104ad90611d6c565b6000610f3084886120c7565b90506000610f788a8a8080601f0160208091040260200160405190810160405280939291908181526020018383808284376000920191909152508c92508b9150899050611171565b600a54909150610f92906001600160a01b031682866111d5565b60085460405163a9a12d4360e01b81526000916001600160a01b03169063a9a12d4390610fc5908a908790600401611c15565b602060405180830381600087803b158015610fdf57600080fd5b505af1158015610ff3573d6000803e3d6000fd5b505050506040513d601f19601f820116820180604052508101906110179190611a5a565b9050611037876110256110df565b6009546001600160a01b0316846113c9565b60006110808c8c8080601f0160208091040260200160405190810160405280939291908181526020018383808284376000920191909152508e92508d91508b9050610c6a6110df565b9050807f1927ed64f868245dda652d1823bd0fbd30faf077622861a5b0b147775a37a17e838c8a6110af6110df565b8d6040516110c1959493929190612083565b60405180910390a250506001805550505050505050505050565b3390565b60003330141561113657600080368080601f0160208091040260200160405190810160405280939291908181526020018383808284376000920191909152505050503601516001600160a01b03169150610aa09050565b5033610aa0565b6000816040516020016111509190611b20565b604051602081830303815290604052805190602001209050919050565b5490565b6000808585858560405160200161118b9493929190611af1565b604051602081830303815290604052805190602001209050806040516020016111b49190611b20565b60405160208183030381529060405280519060200120915050949350505050565b60008060006111e384610ab2565b92509250925060006001868386866040516000815260200160405260405161120e9493929190611c52565b6020604051602081039080840390855afa158015611230573d6000803e3d6000fd5b5050604051601f1901519150506001600160a01b038116158015906112665750866001600160a01b0316816001600160a01b0316145b6112825760405162461bcd60e51b81526004016104ad90611cba565b50505050505050565b604080516000808252602082019092526001600160a01b0384169083906040516112b59190611a9e565b60006040518083038185875af1925050503d80600081146112f2576040519150601f19603f3d011682016040523d82523d6000602084013e6112f7565b606091505b50509050806113185760405162461bcd60e51b81526004016104ad90611e00565b505050565b6000611329600361116d565b6040805160a0810182528881526020808201899052818301889052426060830152608082018790526000848152600b82529290922081518051949550919390926113779284929101906115f0565b506020820151600182015560408201516002820155606082015160038201556080909101516004909101556113ac81836114ce565b6113b5826114fc565b6113bf8282611554565b6105bb60036115e7565b600080856001600160a01b03166323b872dd8686866040516024016113f093929190611bf1565b6040516020818303038152906040529060e01b6020820180517bffffffffffffffffffffffffffffffffffffffffffffffffffffffff838183161783525050505060405161143e9190611a9e565b6000604051808303816000865af19150503d806000811461147b576040519150601f19603f3d011682016040523d82523d6000602084013e611480565b606091505b50915091508180156114aa5750805115806114aa5750808060200190518101906114aa9190611896565b6114c65760405162461bcd60e51b81526004016104ad90611da3565b505050505050565b60009182526004602052604090912080546001600160a01b0319166001600160a01b03909216919091179055565b6001600160a01b0381166000908152600560205260408120805467ffffffffffffffff169161152a83612161565b91906101000a81548167ffffffffffffffff021916908367ffffffffffffffff1602179055505050565b6001600160a01b03821660009081526006602090815260408083208054600181018255908452919092206004820401805460039092166008026101000a67ffffffffffffffff81810219909316928516029190911790555181907fbe51e9a2a9ea8219cc8ab3194ee452fbdf2fa052f0d88d96a854c8ff2686151e906115db908590611b97565b60405180910390a25050565b80546001019055565b8280546115fc90612126565b90600052602060002090601f01602090048101928261161e5760008555611664565b82601f1061163757805160ff1916838001178555611664565b82800160010185558215611664579182015b82811115611664578251825591602001919060010190611649565b50611670929150611674565b5090565b5b808211156116705760008155600101611675565b600067ffffffffffffffff808411156116a4576116a461219f565b604051601f8501601f1916810160200182811182821017156116c8576116c861219f565b6040528481529150818385018610156116e057600080fd5b8484602083013760006020868301015250509392505050565b80356001600160a01b03811681146107e557600080fd5b600082601f830112611720578081fd5b61172f83833560208501611689565b9392505050565b803560ff811681146107e557600080fd5b600060208284031215611758578081fd5b61172f826116f9565b600080600080600060a08688031215611778578081fd5b611781866116f9565b9450602086013567ffffffffffffffff81111561179c578182fd5b6117a888828901611710565b94505060408601359250606086013591506117c560808701611736565b90509295509295909350565b600080600080600080600060e0888a0312156117eb578182fd5b6117f4886116f9565b96506020880135955060408801359450606088013567ffffffffffffffff81111561181d578283fd5b6118298a828b01611710565b9450506080880135925060a0880135915061184660c08901611736565b905092959891949750929550565b60008060408385031215611866578182fd5b61186f836116f9565b9150602083013567ffffffffffffffff8116811461188b578182fd5b809150509250929050565b6000602082840312156118a7578081fd5b8151801515811461172f578182fd5b6000602082840312156118c7578081fd5b813567ffffffffffffffff8111156118dd578182fd5b6118e984828501611710565b949350505050565b600080600080600080600060c0888a03121561190b578283fd5b873567ffffffffffffffff80821115611922578485fd5b818a0191508a601f830112611935578485fd5b813581811115611943578586fd5b8b6020828501011115611954578586fd5b60208381019a509098508a0135965060408a0135955061197660608b016116f9565b945060808a0135935060a08a0135915080821115611992578283fd5b5061199f8a828b01611710565b91505092959891949750929550565b600080600080600060a086880312156119c5578081fd5b853567ffffffffffffffff808211156119dc578283fd5b818801915088601f8301126119ef578283fd5b6119fe89833560208501611689565b96506020880135955060408801359450606088013593506080880135915080821115611a28578283fd5b50611a3588828901611710565b9150509295509295909350565b600060208284031215611a53578081fd5b5035919050565b600060208284031215611a6b578081fd5b5051919050565b60008151808452611a8a8160208601602086016120f6565b601f01601f19169290920160200192915050565b60008251611ab08184602087016120f6565b9190910192915050565b60008351611acc8184602088016120f6565b60609390931b6bffffffffffffffffffffffff19169190920190815260140192915050565b60008551611b03818460208a016120f6565b919091019384525060208301919091526040820152606001919050565b7f19457468657265756d205369676e6564204d6573736167653a0a3332000000008152601c810191909152603c0190565b60008582526bffffffffffffffffffffffff198560601b1660208301528360348301528251611b878160548501602087016120f6565b9190910160540195945050505050565b6001600160a01b0391909116815260200190565b6001600160a01b0392831681529116602082015260400190565b60006001600160a01b038086168352808516602084015250606060408301526105bb6060830184611a72565b6001600160a01b039384168152919092166020820152604081019190915260600190565b6001600160a01b03929092168252602082015260400190565b901515815260200190565b928352602083019190915260ff16604082015260600190565b93845260ff9290921660208401526040830152606082015260800190565b60006020825261172f6020830184611a72565b600060a08252611c9660a0830188611a72565b90508560208301528460408301528360608301528260808301529695505050505050565b6020808252818101527f436f766572436f6d70617265643a20494e56414c49445f5349474e4154555245604082015260600190565b60208082526026908201527f4f776e61626c653a206e6577206f776e657220697320746865207a65726f206160408201526564647265737360d01b606082015260800190565b6020808252601c908201527f46756e6374696f6e2063616c6c206e6f74207375636365737366756c00000000604082015260600190565b60208082526011908201527f4e6f7420616c6c6f77656420746f6b656e000000000000000000000000000000604082015260600190565b60208082526031908201527f5472616e7366657248656c7065723a3a7472616e7366657246726f6d3a20747260408201527f616e7366657246726f6d206661696c6564000000000000000000000000000000606082015260800190565b60208082526034908201527f5472616e7366657248656c7065723a3a736166655472616e736665724554483a60408201527f20455448207472616e73666572206661696c6564000000000000000000000000606082015260800190565b60208082526011908201527f496e76616c6964207369676e6174757265000000000000000000000000000000604082015260600190565b60208082526011908201527f416c726561647920617661696c61626c65000000000000000000000000000000604082015260600190565b6020808252818101527f4f776e61626c653a2063616c6c6572206973206e6f7420746865206f776e6572604082015260600190565b60208082526011908201527f4e6f7420617661696c61626c6520796574000000000000000000000000000000604082015260600190565b60208082526021908201527f5369676e657220616e64207369676e617475726520646f206e6f74206d6174636040820152600d60fb1b606082015260800190565b60208082526013908201527f496e73756666696369656e7420616d6f756e7400000000000000000000000000604082015260600190565b60208082526012908201527f496e76616c69642070726f647563742049440000000000000000000000000000604082015260600190565b6020808252600c908201526b5a45524f204164647265737360a01b604082015260600190565b60208082526018908201527f696e76616c6964207369676e6174757265206c656e6774680000000000000000604082015260600190565b6020808252601f908201527f5265656e7472616e637947756172643a207265656e7472616e742063616c6c00604082015260600190565b90815260200190565b948552602085019390935260408401919091526001600160a01b03908116606084015216608082015260a00190565b67ffffffffffffffff91909116815260200190565b600082198211156120da576120da612189565b500190565b6000828210156120f1576120f1612189565b500390565b60005b838110156121115781810151838201526020016120f9565b83811115612120576000848401525b50505050565b60028104600182168061213a57607f821691505b6020821081141561215b57634e487b7160e01b600052602260045260246000fd5b50919050565b600067ffffffffffffffff8083168181141561217f5761217f612189565b6001019392505050565b634e487b7160e01b600052601160045260246000fd5b634e487b7160e01b600052604160045260246000fdfea26469706673582212200866b907c87c99c658bce24c4947fd36637ba217aece2f51f679e13ec5ca2d8864736f6c63430008000033",
  "devdoc": {
    "kind": "dev",
    "methods": {
      "buyProductByETH(string,uint256,uint256,uint256,bytes)": {
        "details": "buyProductByETH function:"
      },
      "buyProductByToken(string,uint256,uint256,address,uint256,bytes)": {
        "details": "buyProductByToken function:"
      },
      "executeMetaTransaction(address,bytes,bytes32,bytes32,uint8)": {
        "params": {
          "functionSignature": "Signature of the actual function to be called via meta transaction",
          "sigR": "R part of the signature",
          "sigS": "S part of the signature",
          "sigV": "V part of the signature",
          "userAddress": "Address of user trying to do meta transaction"
        }
      },
      "owner()": {
        "details": "Returns the address of the current owner."
      },
      "renounceOwnership()": {
        "details": "Leaves the contract without owner. It will not be possible to call `onlyOwner` functions anymore. Can only be called by the current owner. NOTE: Renouncing ownership will leave the contract without an owner, thereby removing any functionality that is only available to the owner."
      },
      "transferOwnership(address)": {
        "details": "Transfers ownership of the contract to a new account (`newOwner`). Can only be called by the current owner."
      }
    },
    "version": 1
  },
  "userdoc": {
    "kind": "user",
    "methods": {
      "executeMetaTransaction(address,bytes,bytes32,bytes32,uint8)": {
        "notice": "Main function to be called when user wants to execute meta transaction. The actual function to be called should be passed as param with name functionSignature Here the basic signature recovery is being used. Signature is expected to be generated using personal_sign method."
      }
    },
    "version": 1
  },
  "storageLayout": {
    "storage": [
      {
        "astId": 534,
        "contract": "contracts/offchain/MSOCover.sol:MSOCover",
        "label": "_owner",
        "offset": 0,
        "slot": "0",
        "type": "t_address"
      },
      {
        "astId": 647,
        "contract": "contracts/offchain/MSOCover.sol:MSOCover",
        "label": "_status",
        "offset": 0,
        "slot": "1",
        "type": "t_uint256"
      },
      {
        "astId": 2543,
        "contract": "contracts/offchain/MSOCover.sol:MSOCover",
        "label": "nonces",
        "offset": 0,
        "slot": "2",
        "type": "t_mapping(t_address,t_uint256)"
      },
      {
        "astId": 3504,
        "contract": "contracts/offchain/MSOCover.sol:MSOCover",
        "label": "productIds",
        "offset": 0,
        "slot": "3",
        "type": "t_struct(Counter)1476_storage"
      },
      {
        "astId": 3508,
        "contract": "contracts/offchain/MSOCover.sol:MSOCover",
        "label": "_ownerOf",
        "offset": 0,
        "slot": "4",
        "type": "t_mapping(t_uint256,t_address)"
      },
      {
        "astId": 3512,
        "contract": "contracts/offchain/MSOCover.sol:MSOCover",
        "label": "_balanceOf",
        "offset": 0,
        "slot": "5",
        "type": "t_mapping(t_address,t_uint64)"
      },
      {
        "astId": 3517,
        "contract": "contracts/offchain/MSOCover.sol:MSOCover",
        "label": "_productsOf",
        "offset": 0,
        "slot": "6",
        "type": "t_mapping(t_address,t_array(t_uint64)dyn_storage)"
      },
      {
        "astId": 3521,
        "contract": "contracts/offchain/MSOCover.sol:MSOCover",
        "label": "availableCurrencies",
        "offset": 0,
        "slot": "7",
        "type": "t_mapping(t_address,t_bool)"
      },
      {
        "astId": 3525,
        "contract": "contracts/offchain/MSOCover.sol:MSOCover",
        "label": "exchangeAgent",
        "offset": 0,
        "slot": "8",
        "type": "t_address"
      },
      {
        "astId": 3527,
        "contract": "contracts/offchain/MSOCover.sol:MSOCover",
        "label": "devWallet",
        "offset": 0,
        "slot": "9",
        "type": "t_address"
      },
      {
        "astId": 3529,
        "contract": "contracts/offchain/MSOCover.sol:MSOCover",
        "label": "signer",
        "offset": 0,
        "slot": "10",
        "type": "t_address"
      },
      {
        "astId": 3885,
        "contract": "contracts/offchain/MSOCover.sol:MSOCover",
        "label": "products",
        "offset": 0,
        "slot": "11",
        "type": "t_mapping(t_uint256,t_struct(Product)3880_storage)"
      }
    ],
    "types": {
      "t_address": {
        "encoding": "inplace",
        "label": "address",
        "numberOfBytes": "20"
      },
      "t_array(t_uint64)dyn_storage": {
        "base": "t_uint64",
        "encoding": "dynamic_array",
        "label": "uint64[]",
        "numberOfBytes": "32"
      },
      "t_bool": {
        "encoding": "inplace",
        "label": "bool",
        "numberOfBytes": "1"
      },
      "t_mapping(t_address,t_array(t_uint64)dyn_storage)": {
        "encoding": "mapping",
        "key": "t_address",
        "label": "mapping(address => uint64[])",
        "numberOfBytes": "32",
        "value": "t_array(t_uint64)dyn_storage"
      },
      "t_mapping(t_address,t_bool)": {
        "encoding": "mapping",
        "key": "t_address",
        "label": "mapping(address => bool)",
        "numberOfBytes": "32",
        "value": "t_bool"
      },
      "t_mapping(t_address,t_uint256)": {
        "encoding": "mapping",
        "key": "t_address",
        "label": "mapping(address => uint256)",
        "numberOfBytes": "32",
        "value": "t_uint256"
      },
      "t_mapping(t_address,t_uint64)": {
        "encoding": "mapping",
        "key": "t_address",
        "label": "mapping(address => uint64)",
        "numberOfBytes": "32",
        "value": "t_uint64"
      },
      "t_mapping(t_uint256,t_address)": {
        "encoding": "mapping",
        "key": "t_uint256",
        "label": "mapping(uint256 => address)",
        "numberOfBytes": "32",
        "value": "t_address"
      },
      "t_mapping(t_uint256,t_struct(Product)3880_storage)": {
        "encoding": "mapping",
        "key": "t_uint256",
        "label": "mapping(uint256 => struct MSOCover.Product)",
        "numberOfBytes": "32",
        "value": "t_struct(Product)3880_storage"
      },
      "t_string_storage": {
        "encoding": "bytes",
        "label": "string",
        "numberOfBytes": "32"
      },
      "t_struct(Counter)1476_storage": {
        "encoding": "inplace",
        "label": "struct Counters.Counter",
        "members": [
          {
            "astId": 1475,
            "contract": "contracts/offchain/MSOCover.sol:MSOCover",
            "label": "_value",
            "offset": 0,
            "slot": "0",
            "type": "t_uint256"
          }
        ],
        "numberOfBytes": "32"
      },
      "t_struct(Product)3880_storage": {
        "encoding": "inplace",
        "label": "struct MSOCover.Product",
        "members": [
          {
            "astId": 3871,
            "contract": "contracts/offchain/MSOCover.sol:MSOCover",
            "label": "policyId",
            "offset": 0,
            "slot": "0",
            "type": "t_string_storage"
          },
          {
            "astId": 3873,
            "contract": "contracts/offchain/MSOCover.sol:MSOCover",
            "label": "priceInUSD",
            "offset": 0,
            "slot": "1",
            "type": "t_uint256"
          },
          {
            "astId": 3875,
            "contract": "contracts/offchain/MSOCover.sol:MSOCover",
            "label": "period",
            "offset": 0,
            "slot": "2",
            "type": "t_uint256"
          },
          {
            "astId": 3877,
            "contract": "contracts/offchain/MSOCover.sol:MSOCover",
            "label": "startTime",
            "offset": 0,
            "slot": "3",
            "type": "t_uint256"
          },
          {
            "astId": 3879,
            "contract": "contracts/offchain/MSOCover.sol:MSOCover",
            "label": "conciergePrice",
            "offset": 0,
            "slot": "4",
            "type": "t_uint256"
          }
        ],
        "numberOfBytes": "160"
      },
      "t_uint256": {
        "encoding": "inplace",
        "label": "uint256",
        "numberOfBytes": "32"
      },
      "t_uint64": {
        "encoding": "inplace",
        "label": "uint64",
        "numberOfBytes": "8"
      }
    }
  }
}