{
  "address": "0xd26ff61c97F95DbE79a28fCCfc40A8fa6e5e10A5",
  "abi": [
    {
      "inputs": [
        {
          "internalType": "address",
          "name": "_WETH",
          "type": "address"
        },
        {
          "internalType": "address",
          "name": "_exchangeAgent",
          "type": "address"
        },
        {
          "internalType": "address",
          "name": "_devWallet",
          "type": "address"
        },
        {
          "internalType": "address",
          "name": "_signer",
          "type": "address"
        }
      ],
      "stateMutability": "nonpayable",
      "type": "constructor"
    },
    {
      "anonymous": false,
      "inputs": [
        {
          "indexed": true,
          "internalType": "uint256",
          "name": "_productId",
          "type": "uint256"
        },
        {
          "indexed": false,
          "internalType": "uint256",
          "name": "_amount",
          "type": "uint256"
        },
        {
          "indexed": false,
          "internalType": "uint256",
          "name": "_priceInUSD",
          "type": "uint256"
        },
        {
          "indexed": false,
          "internalType": "uint256",
          "name": "_conciergePrice",
          "type": "uint256"
        },
        {
          "indexed": false,
          "internalType": "address",
          "name": "_buyer",
          "type": "address"
        },
        {
          "indexed": false,
          "internalType": "address",
          "name": "_currency",
          "type": "address"
        }
      ],
      "name": "BuyMSO",
      "type": "event"
    },
    {
      "anonymous": false,
      "inputs": [
        {
          "indexed": true,
          "internalType": "uint256",
          "name": "_productId",
          "type": "uint256"
        },
        {
          "indexed": false,
          "internalType": "address",
          "name": "_buyer",
          "type": "address"
        }
      ],
      "name": "BuyProduct",
      "type": "event"
    },
    {
      "anonymous": false,
      "inputs": [
        {
          "indexed": false,
          "internalType": "address",
          "name": "userAddress",
          "type": "address"
        },
        {
          "indexed": false,
          "internalType": "address payable",
          "name": "relayerAddress",
          "type": "address"
        },
        {
          "indexed": false,
          "internalType": "bytes",
          "name": "functionSignature",
          "type": "bytes"
        }
      ],
      "name": "MetaTransactionExecuted",
      "type": "event"
    },
    {
      "anonymous": false,
      "inputs": [
        {
          "indexed": true,
          "internalType": "address",
          "name": "previousOwner",
          "type": "address"
        },
        {
          "indexed": true,
          "internalType": "address",
          "name": "newOwner",
          "type": "address"
        }
      ],
      "name": "OwnershipTransferred",
      "type": "event"
    },
    {
      "anonymous": false,
      "inputs": [
        {
          "indexed": false,
          "internalType": "address",
          "name": "account",
          "type": "address"
        }
      ],
      "name": "Paused",
      "type": "event"
    },
    {
      "anonymous": false,
      "inputs": [
        {
          "indexed": false,
          "internalType": "address",
          "name": "_setter",
          "type": "address"
        },
        {
          "indexed": false,
          "internalType": "address",
          "name": "_exchangeAgent",
          "type": "address"
        }
      ],
      "name": "SetExchangeAgent",
      "type": "event"
    },
    {
      "anonymous": false,
      "inputs": [
        {
          "indexed": false,
          "internalType": "address",
          "name": "_setter",
          "type": "address"
        },
        {
          "indexed": false,
          "internalType": "address",
          "name": "_signer",
          "type": "address"
        }
      ],
      "name": "SetSigner",
      "type": "event"
    },
    {
      "anonymous": false,
      "inputs": [
        {
          "indexed": false,
          "internalType": "address",
          "name": "account",
          "type": "address"
        }
      ],
      "name": "Unpaused",
      "type": "event"
    },
    {
      "inputs": [],
      "name": "WETH",
      "outputs": [
        {
          "internalType": "address",
          "name": "",
          "type": "address"
        }
      ],
      "stateMutability": "view",
      "type": "function"
    },
    {
      "inputs": [
        {
          "internalType": "address",
          "name": "_currency",
          "type": "address"
        }
      ],
      "name": "addCurrency",
      "outputs": [],
      "stateMutability": "nonpayable",
      "type": "function"
    },
    {
      "inputs": [
        {
          "internalType": "address",
          "name": "",
          "type": "address"
        }
      ],
      "name": "availableCurrencies",
      "outputs": [
        {
          "internalType": "bool",
          "name": "",
          "type": "bool"
        }
      ],
      "stateMutability": "view",
      "type": "function"
    },
    {
      "inputs": [
        {
          "internalType": "address",
          "name": "_account",
          "type": "address"
        }
      ],
      "name": "balanceOf",
      "outputs": [
        {
          "internalType": "uint64",
          "name": "",
          "type": "uint64"
        }
      ],
      "stateMutability": "view",
      "type": "function"
    },
    {
      "inputs": [
        {
          "internalType": "string",
          "name": "policyId",
          "type": "string"
        },
        {
          "internalType": "uint256",
          "name": "priceInUSD",
          "type": "uint256"
        },
        {
          "internalType": "uint256",
          "name": "period",
          "type": "uint256"
        },
        {
          "internalType": "uint256",
          "name": "conciergePrice",
          "type": "uint256"
        },
        {
          "internalType": "bytes",
          "name": "sig",
          "type": "bytes"
        }
      ],
      "name": "buyProductByETH",
      "outputs": [],
      "stateMutability": "payable",
      "type": "function"
    },
    {
      "inputs": [
        {
          "internalType": "string",
          "name": "policyId",
          "type": "string"
        },
        {
          "internalType": "uint256",
          "name": "priceInUSD",
          "type": "uint256"
        },
        {
          "internalType": "uint256",
          "name": "period",
          "type": "uint256"
        },
        {
          "internalType": "address",
          "name": "_token",
          "type": "address"
        },
        {
          "internalType": "uint256",
          "name": "conciergePrice",
          "type": "uint256"
        },
        {
          "internalType": "bytes",
          "name": "sig",
          "type": "bytes"
        }
      ],
      "name": "buyProductByToken",
      "outputs": [],
      "stateMutability": "nonpayable",
      "type": "function"
    },
    {
      "inputs": [],
      "name": "devWallet",
      "outputs": [
        {
          "internalType": "address",
          "name": "",
          "type": "address"
        }
      ],
      "stateMutability": "view",
      "type": "function"
    },
    {
      "inputs": [],
      "name": "exchangeAgent",
      "outputs": [
        {
          "internalType": "address",
          "name": "",
          "type": "address"
        }
      ],
      "stateMutability": "view",
      "type": "function"
    },
    {
      "inputs": [
        {
          "internalType": "address",
          "name": "userAddress",
          "type": "address"
        },
        {
          "internalType": "bytes",
          "name": "functionSignature",
          "type": "bytes"
        },
        {
          "internalType": "bytes32",
          "name": "sigR",
          "type": "bytes32"
        },
        {
          "internalType": "bytes32",
          "name": "sigS",
          "type": "bytes32"
        },
        {
          "internalType": "uint8",
          "name": "sigV",
          "type": "uint8"
        }
      ],
      "name": "executeMetaTransaction",
      "outputs": [
        {
          "internalType": "bytes",
          "name": "",
          "type": "bytes"
        }
      ],
      "stateMutability": "payable",
      "type": "function"
    },
    {
      "inputs": [
        {
          "internalType": "address",
          "name": "user",
          "type": "address"
        }
      ],
      "name": "getNonce",
      "outputs": [
        {
          "internalType": "uint256",
          "name": "nonce",
          "type": "uint256"
        }
      ],
      "stateMutability": "view",
      "type": "function"
    },
    {
      "inputs": [],
      "name": "owner",
      "outputs": [
        {
          "internalType": "address",
          "name": "",
          "type": "address"
        }
      ],
      "stateMutability": "view",
      "type": "function"
    },
    {
      "inputs": [
        {
          "internalType": "uint256",
          "name": "_prodId",
          "type": "uint256"
        }
      ],
      "name": "ownerOf",
      "outputs": [
        {
          "internalType": "address",
          "name": "",
          "type": "address"
        }
      ],
      "stateMutability": "view",
      "type": "function"
    },
    {
      "inputs": [],
      "name": "pause",
      "outputs": [],
      "stateMutability": "nonpayable",
      "type": "function"
    },
    {
      "inputs": [],
      "name": "paused",
      "outputs": [
        {
          "internalType": "bool",
          "name": "",
          "type": "bool"
        }
      ],
      "stateMutability": "view",
      "type": "function"
    },
    {
      "inputs": [],
      "name": "productIds",
      "outputs": [
        {
          "internalType": "uint256",
          "name": "_value",
          "type": "uint256"
        }
      ],
      "stateMutability": "view",
      "type": "function"
    },
    {
      "inputs": [
        {
          "internalType": "address",
          "name": "_owner",
          "type": "address"
        },
        {
          "internalType": "uint64",
          "name": "_idx",
          "type": "uint64"
        }
      ],
      "name": "productOf",
      "outputs": [
        {
          "internalType": "uint64",
          "name": "",
          "type": "uint64"
        }
      ],
      "stateMutability": "view",
      "type": "function"
    },
    {
      "inputs": [
        {
          "internalType": "uint256",
          "name": "",
          "type": "uint256"
        }
      ],
      "name": "products",
      "outputs": [
        {
          "internalType": "string",
          "name": "policyId",
          "type": "string"
        },
        {
          "internalType": "uint256",
          "name": "priceInUSD",
          "type": "uint256"
        },
        {
          "internalType": "uint256",
          "name": "period",
          "type": "uint256"
        },
        {
          "internalType": "uint256",
          "name": "startTime",
          "type": "uint256"
        },
        {
          "internalType": "uint256",
          "name": "conciergePrice",
          "type": "uint256"
        }
      ],
      "stateMutability": "view",
      "type": "function"
    },
    {
      "inputs": [
        {
          "internalType": "address",
          "name": "_currency",
          "type": "address"
        }
      ],
      "name": "removeCurrency",
      "outputs": [],
      "stateMutability": "nonpayable",
      "type": "function"
    },
    {
      "inputs": [],
      "name": "renounceOwnership",
      "outputs": [],
      "stateMutability": "nonpayable",
      "type": "function"
    },
    {
      "inputs": [
        {
          "internalType": "address",
          "name": "_exchangeAgent",
          "type": "address"
        }
      ],
      "name": "setExchangeAgent",
      "outputs": [],
      "stateMutability": "nonpayable",
      "type": "function"
    },
    {
      "inputs": [
        {
          "internalType": "address",
          "name": "_signer",
          "type": "address"
        }
      ],
      "name": "setSigner",
      "outputs": [],
      "stateMutability": "nonpayable",
      "type": "function"
    },
    {
      "inputs": [],
      "name": "signer",
      "outputs": [
        {
          "internalType": "address",
          "name": "",
          "type": "address"
        }
      ],
      "stateMutability": "view",
      "type": "function"
    },
    {
      "inputs": [
        {
          "internalType": "address",
          "name": "newOwner",
          "type": "address"
        }
      ],
      "name": "transferOwnership",
      "outputs": [],
      "stateMutability": "nonpayable",
      "type": "function"
    },
    {
      "inputs": [],
      "name": "unpause",
      "outputs": [],
      "stateMutability": "nonpayable",
      "type": "function"
    },
    {
      "inputs": [
        {
          "internalType": "address",
          "name": "owner",
          "type": "address"
        },
        {
          "internalType": "uint256",
          "name": "nonce",
          "type": "uint256"
        },
        {
          "internalType": "uint256",
          "name": "chainID",
          "type": "uint256"
        },
        {
          "internalType": "bytes",
          "name": "functionSignature",
          "type": "bytes"
        },
        {
          "internalType": "bytes32",
          "name": "sigR",
          "type": "bytes32"
        },
        {
          "internalType": "bytes32",
          "name": "sigS",
          "type": "bytes32"
        },
        {
          "internalType": "uint8",
          "name": "sigV",
          "type": "uint8"
        }
      ],
      "name": "verify",
      "outputs": [
        {
          "internalType": "bool",
          "name": "",
          "type": "bool"
        }
      ],
      "stateMutability": "view",
      "type": "function"
    },
    {
      "stateMutability": "payable",
      "type": "receive"
    }
  ],
  "transactionHash": "0x3e5cd29489ff67cca857bf417b566349fbae9111a928959b2aac4196c7e29a31",
  "args": [
    "0xc778417e063141139fce010982780140aa0cd5ab",
    "0x9717cA3f6b5E560d244D41791D5760316d2b7bFE",
    "0x6C641CE6A7216F12d28692f9d8b2BDcdE812eD2b",
    "0x356C9B814a5D3508ab76834D0eF67e6A171d3740"
  ],
  "solcInputHash": "402f1543afb350be708cd1fbe1e6e8a3",
  "bytecode": "0x60a06040523480156200001157600080fd5b506040516200258138038062002581833981016040819052620000349162000118565b83838383600062000044620000f7565b600080546001600160a01b0319166001600160a01b0383169081178255604051929350917f8be0079c531659141344cd1fd0a4f28419497f9722a3daafe3b4186f6b6457e0908290a350600180556002805460ff1916905560609390931b6001600160601b031916608052600980546001600160a01b03199081166001600160a01b0394851617909155600a8054821692841692909217909155600b805490911691909216179055506200017492505050565b3390565b80516001600160a01b03811681146200011357600080fd5b919050565b600080600080608085870312156200012e578384fd5b6200013985620000fb565b93506200014960208601620000fb565b92506200015960408601620000fb565b91506200016960608601620000fb565b905092959194509250565b60805160601c6123e76200019a60003960008181610b890152610d5001526123e76000f3fe60806040526004361061019a5760003560e01c80637acc0b20116100e1578063ad5c46481161008a578063d9203b9111610064578063d9203b9114610426578063f2fde38b1461043b578063f47962871461045b578063fdc815661461047b576101a1565b8063ad5c4648146103de578063c0bddef2146103f3578063c5d3a10714610406576101a1565b80638da5cb5b116100bb5780638da5cb5b1461039f5780638ea5220f146103b4578063aa57511d146103c9576101a1565b80637acc0b20146103395780638456cb591461036a5780638ab234b61461037f576101a1565b80635c975abb116101435780636c19e7831161011d5780636c19e783146102d757806370a08231146102f7578063715018a614610324576101a1565b80635c975abb146102825780636281133d146102975780636352211e146102b7576101a1565b8063238ac93311610174578063238ac9331461021e5780632d0335ab146102405780633f4ba83a1461026d576101a1565b80630c53c51c146101a657806318a00d8e146101cf5780631af42c0f146101f1576101a1565b366101a157005b600080fd5b6101b96101b4366004611943565b61049b565b6040516101c69190611dfe565b60405180910390f35b3480156101db57600080fd5b506101ef6101ea366004611929565b6105fa565b005b3480156101fd57600080fd5b5061021161020c366004611929565b6106bd565b6040516101c69190611dd5565b34801561022a57600080fd5b506102336106d2565b6040516101c69190611d3e565b34801561024c57600080fd5b5061026061025b366004611929565b6106e1565b6040516101c69190612276565b34801561027957600080fd5b506101ef6106fc565b34801561028e57600080fd5b50610211610745565b3480156102a357600080fd5b506102116102b23660046119b3565b61074f565b3480156102c357600080fd5b506102336102d2366004611be9565b61081f565b3480156102e357600080fd5b506101ef6102f2366004611929565b610873565b34801561030357600080fd5b50610317610312366004611929565b61091c565b6040516101c691906122ae565b34801561033057600080fd5b506101ef610941565b34801561034557600080fd5b50610359610354366004611be9565b6109ca565b6040516101c6959493929190611e11565b34801561037657600080fd5b506101ef610a80565b34801561038b57600080fd5b506101ef61039a366004611929565b610ac7565b3480156103ab57600080fd5b50610233610b63565b3480156103c057600080fd5b50610233610b72565b3480156103d557600080fd5b50610260610b81565b3480156103ea57600080fd5b50610233610b87565b6101ef610401366004611b55565b610bab565b34801561041257600080fd5b506101ef610421366004611929565b610d97565b34801561043257600080fd5b50610233610e2f565b34801561044757600080fd5b506101ef610456366004611929565b610e3e565b34801561046757600080fd5b50610317610476366004611a36565b610efe565b34801561048757600080fd5b506101ef610496366004611a98565b610f72565b6001600160a01b0385166000908152600360205260409020546060906104c7908790468888888861074f565b6104ec5760405162461bcd60e51b81526004016104e390612133565b60405180910390fd5b6001600160a01b03861660009081526003602052604081208054600192906105159084906122c3565b9091555050604051600090819030906105349089908b90602001611c61565b60408051601f198184030181529082905261054e91611c45565b6000604051808303816000865af19150503d806000811461058b576040519150601f19603f3d011682016040523d82523d6000602084013e610590565b606091505b5091509150816105b25760405162461bcd60e51b81526004016104e390611efa565b7f5845892132946850460bff5a0083f71031bc5bf9aadcd40f1de79423eac9b10b8833896040516105e593929190611d6c565b60405180910390a19150505b95945050505050565b6106026111b0565b6001600160a01b0316610613610b63565b6001600160a01b0316146106395760405162461bcd60e51b81526004016104e3906120c7565b6001600160a01b03811661065f5760405162461bcd60e51b81526004016104e3906121e2565b600980546001600160a01b0319166001600160a01b0383161790557f0143625ceac80b2452760213c6b6f5a22eb63bc46e17d129c30fffefb4679eb66106a36111b4565b826040516106b2929190611d52565b60405180910390a150565b60086020526000908152604090205460ff1681565b600b546001600160a01b031681565b6001600160a01b031660009081526003602052604090205490565b6107046111b0565b6001600160a01b0316610715610b63565b6001600160a01b03161461073b5760405162461bcd60e51b81526004016104e3906120c7565b610743611212565b565b60025460ff165b90565b6000806107878830898960405160200161076c9493929190611cf8565b60405160208183030381529060405280519060200120611280565b90506000600182858888604051600081526020016040526040516107ae9493929190611de0565b6020604051602081039080840390855afa1580156107d0573d6000803e3d6000fd5b5050604051601f1901519150506001600160a01b0381166108035760405162461bcd60e51b81526004016104e390612022565b6001600160a01b038a8116911614915050979650505050505050565b600061082b60046112b0565b6108369060016122c3565b82106108545760405162461bcd60e51b81526004016104e3906121ab565b506000818152600560205260409020546001600160a01b03165b919050565b61087b6111b0565b6001600160a01b031661088c610b63565b6001600160a01b0316146108b25760405162461bcd60e51b81526004016104e3906120c7565b6001600160a01b0381166108d85760405162461bcd60e51b81526004016104e3906121e2565b600b80546001600160a01b0319166001600160a01b0383161790557f3271c8694494a7cc76cd185c743e9ee6b515a043ea98c0db7f5ca112f694add46106a36111b4565b6001600160a01b031660009081526006602052604090205467ffffffffffffffff1690565b6109496111b0565b6001600160a01b031661095a610b63565b6001600160a01b0316146109805760405162461bcd60e51b81526004016104e3906120c7565b600080546040516001600160a01b03909116907f8be0079c531659141344cd1fd0a4f28419497f9722a3daafe3b4186f6b6457e0908390a3600080546001600160a01b0319169055565b600c602052600090815260409020805481906109e590612322565b80601f0160208091040260200160405190810160405280929190818152602001828054610a1190612322565b8015610a5e5780601f10610a3357610100808354040283529160200191610a5e565b820191906000526020600020905b815481529060010190602001808311610a4157829003601f168201915b5050505050908060010154908060020154908060030154908060040154905085565b610a886111b0565b6001600160a01b0316610a99610b63565b6001600160a01b031614610abf5760405162461bcd60e51b81526004016104e3906120c7565b6107436112b4565b610acf6111b0565b6001600160a01b0316610ae0610b63565b6001600160a01b031614610b065760405162461bcd60e51b81526004016104e3906120c7565b6001600160a01b03811660009081526008602052604090205460ff1615610b3f5760405162461bcd60e51b81526004016104e390612059565b6001600160a01b03166000908152600860205260409020805460ff19166001179055565b6000546001600160a01b031690565b600a546001600160a01b031681565b60045481565b7f000000000000000000000000000000000000000000000000000000000000000081565b60026001541415610bce5760405162461bcd60e51b81526004016104e39061223f565b6002600155610bdb610745565b15610bf85760405162461bcd60e51b81526004016104e390612090565b6000610c0483866122c3565b90506000610c148787878761130f565b600b54909150610c2e906001600160a01b03168285611373565b60095460405163531a221160e01b81526000916001600160a01b03169063531a221190610c5f908690600401612276565b60206040518083038186803b158015610c7757600080fd5b505afa158015610c8b573d6000803e3d6000fd5b505050506040513d601f19601f82011682018060405250810190610caf9190611c01565b905080341015610cd15760405162461bcd60e51b81526004016104e390612174565b80341115610cf357610cf3610ce46111b4565b610cee83346122db565b611429565b600a54610d09906001600160a01b031682611429565b6000610d1f89898989610d1a6111b4565b6114bb565b9050807f1927ed64f868245dda652d1823bd0fbd30faf077622861a5b0b147775a37a17e838a89610d4e6111b4565b7f0000000000000000000000000000000000000000000000000000000000000000604051610d8095949392919061227f565b60405180910390a250506001805550505050505050565b610d9f6111b0565b6001600160a01b0316610db0610b63565b6001600160a01b031614610dd65760405162461bcd60e51b81526004016104e3906120c7565b6001600160a01b03811660009081526008602052604090205460ff16610e0e5760405162461bcd60e51b81526004016104e3906120fc565b6001600160a01b03166000908152600860205260409020805460ff19169055565b6009546001600160a01b031681565b610e466111b0565b6001600160a01b0316610e57610b63565b6001600160a01b031614610e7d5760405162461bcd60e51b81526004016104e3906120c7565b6001600160a01b038116610ea35760405162461bcd60e51b81526004016104e390611eb4565b600080546040516001600160a01b03808516939216917f8be0079c531659141344cd1fd0a4f28419497f9722a3daafe3b4186f6b6457e091a3600080546001600160a01b0319166001600160a01b0392909216919091179055565b6001600160a01b0382166000908152600760205260408120805467ffffffffffffffff8416908110610f4057634e487b7160e01b600052603260045260246000fd5b90600052602060002090600491828204019190066008029054906101000a900467ffffffffffffffff16905092915050565b60026001541415610f955760405162461bcd60e51b81526004016104e39061223f565b6002600155610fa2610745565b15610fbf5760405162461bcd60e51b81526004016104e390612090565b6001600160a01b038316600090815260086020526040902054839060ff16610ff95760405162461bcd60e51b81526004016104e390611f31565b600061100584886122c3565b9050600061104d8a8a8080601f0160208091040260200160405190810160405280939291908181526020018383808284376000920191909152508c92508b915089905061130f565b600b54909150611067906001600160a01b03168286611373565b60095460405163a9a12d4360e01b81526000916001600160a01b03169063a9a12d439061109a908a908790600401611dbc565b602060405180830381600087803b1580156110b457600080fd5b505af11580156110c8573d6000803e3d6000fd5b505050506040513d601f19601f820116820180604052508101906110ec9190611c01565b905061110c876110fa6111b4565b600a546001600160a01b031684611567565b60006111558c8c8080601f0160208091040260200160405190810160405280939291908181526020018383808284376000920191909152508e92508d91508b9050610d1a6111b4565b9050807f1927ed64f868245dda652d1823bd0fbd30faf077622861a5b0b147775a37a17e838c8a6111846111b4565b8d60405161119695949392919061227f565b60405180910390a250506001805550505050505050505050565b3390565b60003330141561120b57600080368080601f0160208091040260200160405190810160405280939291908181526020018383808284376000920191909152505050503601516001600160a01b0316915061074c9050565b503361074c565b61121a610745565b6112365760405162461bcd60e51b81526004016104e390611e48565b6002805460ff191690557f5db9ee0a495bf2e6ff9c91a7834c1ba4fdd244a5e8aa4e537bd38aeae4b073aa6112696111b0565b6040516112769190611d3e565b60405180910390a1565b6000816040516020016112939190611cc7565b604051602081830303815290604052805190602001209050919050565b5490565b6112bc610745565b156112d95760405162461bcd60e51b81526004016104e390612090565b6002805460ff191660011790557f62e78cea01bee320cd4e420270b5ea74000d11b0c9f74754ebdbfc544b05a2586112696111b0565b600080858585856040516020016113299493929190611c98565b604051602081830303815290604052805190602001209050806040516020016113529190611cc7565b60405160208183030381529060405280519060200120915050949350505050565b60008060006113818461166c565b9250925092506000600186838686604051600081526020016040526040516113ac9493929190611de0565b6020604051602081039080840390855afa1580156113ce573d6000803e3d6000fd5b5050604051601f1901519150506001600160a01b038116158015906114045750866001600160a01b0316816001600160a01b0316145b6114205760405162461bcd60e51b81526004016104e390611e7f565b50505050505050565b604080516000808252602082019092526001600160a01b0384169083906040516114539190611c45565b60006040518083038185875af1925050503d8060008114611490576040519150601f19603f3d011682016040523d82523d6000602084013e611495565b606091505b50509050806114b65760405162461bcd60e51b81526004016104e390611fc5565b505050565b60006114c760046112b0565b6040805160a0810182528881526020808201899052818301889052426060830152608082018790526000848152600c82529290922081518051949550919390926115159284929101906117d2565b5060208201516001820155604082015160028201556060820151600382015560809091015160049091015561154a81836116b0565b611553826116de565b61155d8282611736565b6105f160046117c9565b600080856001600160a01b03166323b872dd86868660405160240161158e93929190611d98565b6040516020818303038152906040529060e01b6020820180517bffffffffffffffffffffffffffffffffffffffffffffffffffffffff83818316178352505050506040516115dc9190611c45565b6000604051808303816000865af19150503d8060008114611619576040519150601f19603f3d011682016040523d82523d6000602084013e61161e565b606091505b50915091508180156116485750805115806116485750808060200190518101906116489190611a78565b6116645760405162461bcd60e51b81526004016104e390611f68565b505050505050565b600080600083516041146116925760405162461bcd60e51b81526004016104e390612208565b50505060208101516040820151606090920151909260009190911a90565b60009182526005602052604090912080546001600160a01b0319166001600160a01b03909216919091179055565b6001600160a01b0381166000908152600660205260408120805467ffffffffffffffff169161170c8361235d565b91906101000a81548167ffffffffffffffff021916908367ffffffffffffffff1602179055505050565b6001600160a01b03821660009081526007602090815260408083208054600181018255908452919092206004820401805460039092166008026101000a67ffffffffffffffff81810219909316928516029190911790555181907fbe51e9a2a9ea8219cc8ab3194ee452fbdf2fa052f0d88d96a854c8ff2686151e906117bd908590611d3e565b60405180910390a25050565b80546001019055565b8280546117de90612322565b90600052602060002090601f0160209004810192826118005760008555611846565b82601f1061181957805160ff1916838001178555611846565b82800160010185558215611846579182015b8281111561184657825182559160200191906001019061182b565b50611852929150611856565b5090565b5b808211156118525760008155600101611857565b600067ffffffffffffffff808411156118865761188661239b565b604051601f8501601f1916810160200182811182821017156118aa576118aa61239b565b6040528481529150818385018610156118c257600080fd5b8484602083013760006020868301015250509392505050565b80356001600160a01b038116811461086e57600080fd5b600082601f830112611902578081fd5b6119118383356020850161186b565b9392505050565b803560ff8116811461086e57600080fd5b60006020828403121561193a578081fd5b611911826118db565b600080600080600060a0868803121561195a578081fd5b611963866118db565b9450602086013567ffffffffffffffff81111561197e578182fd5b61198a888289016118f2565b94505060408601359250606086013591506119a760808701611918565b90509295509295909350565b600080600080600080600060e0888a0312156119cd578182fd5b6119d6886118db565b96506020880135955060408801359450606088013567ffffffffffffffff8111156119ff578283fd5b611a0b8a828b016118f2565b9450506080880135925060a08801359150611a2860c08901611918565b905092959891949750929550565b60008060408385031215611a48578182fd5b611a51836118db565b9150602083013567ffffffffffffffff81168114611a6d578182fd5b809150509250929050565b600060208284031215611a89578081fd5b81518015158114611911578182fd5b600080600080600080600060c0888a031215611ab2578283fd5b873567ffffffffffffffff80821115611ac9578485fd5b818a0191508a601f830112611adc578485fd5b813581811115611aea578586fd5b8b6020828501011115611afb578586fd5b60208381019a509098508a0135965060408a01359550611b1d60608b016118db565b945060808a0135935060a08a0135915080821115611b39578283fd5b50611b468a828b016118f2565b91505092959891949750929550565b600080600080600060a08688031215611b6c578081fd5b853567ffffffffffffffff80821115611b83578283fd5b818801915088601f830112611b96578283fd5b611ba58983356020850161186b565b96506020880135955060408801359450606088013593506080880135915080821115611bcf578283fd5b50611bdc888289016118f2565b9150509295509295909350565b600060208284031215611bfa578081fd5b5035919050565b600060208284031215611c12578081fd5b5051919050565b60008151808452611c318160208601602086016122f2565b601f01601f19169290920160200192915050565b60008251611c578184602087016122f2565b9190910192915050565b60008351611c738184602088016122f2565b60609390931b6bffffffffffffffffffffffff19169190920190815260140192915050565b60008551611caa818460208a016122f2565b919091019384525060208301919091526040820152606001919050565b7f19457468657265756d205369676e6564204d6573736167653a0a3332000000008152601c810191909152603c0190565b60008582526bffffffffffffffffffffffff198560601b1660208301528360348301528251611d2e8160548501602087016122f2565b9190910160540195945050505050565b6001600160a01b0391909116815260200190565b6001600160a01b0392831681529116602082015260400190565b60006001600160a01b038086168352808516602084015250606060408301526105f16060830184611c19565b6001600160a01b039384168152919092166020820152604081019190915260600190565b6001600160a01b03929092168252602082015260400190565b901515815260200190565b93845260ff9290921660208401526040830152606082015260800190565b6000602082526119116020830184611c19565b600060a08252611e2460a0830188611c19565b90508560208301528460408301528360608301528260808301529695505050505050565b60208082526014908201527f5061757361626c653a206e6f7420706175736564000000000000000000000000604082015260600190565b6020808252818101527f436f766572436f6d70617265643a20494e56414c49445f5349474e4154555245604082015260600190565b60208082526026908201527f4f776e61626c653a206e6577206f776e657220697320746865207a65726f206160408201526564647265737360d01b606082015260800190565b6020808252601c908201527f46756e6374696f6e2063616c6c206e6f74207375636365737366756c00000000604082015260600190565b60208082526011908201527f4e6f7420616c6c6f77656420746f6b656e000000000000000000000000000000604082015260600190565b60208082526031908201527f5472616e7366657248656c7065723a3a7472616e7366657246726f6d3a20747260408201527f616e7366657246726f6d206661696c6564000000000000000000000000000000606082015260800190565b60208082526034908201527f5472616e7366657248656c7065723a3a736166655472616e736665724554483a60408201527f20455448207472616e73666572206661696c6564000000000000000000000000606082015260800190565b60208082526011908201527f496e76616c6964207369676e6174757265000000000000000000000000000000604082015260600190565b60208082526011908201527f416c726561647920617661696c61626c65000000000000000000000000000000604082015260600190565b60208082526010908201527f5061757361626c653a2070617573656400000000000000000000000000000000604082015260600190565b6020808252818101527f4f776e61626c653a2063616c6c6572206973206e6f7420746865206f776e6572604082015260600190565b60208082526011908201527f4e6f7420617661696c61626c6520796574000000000000000000000000000000604082015260600190565b60208082526021908201527f5369676e657220616e64207369676e617475726520646f206e6f74206d6174636040820152600d60fb1b606082015260800190565b60208082526013908201527f496e73756666696369656e7420616d6f756e7400000000000000000000000000604082015260600190565b60208082526012908201527f496e76616c69642070726f647563742049440000000000000000000000000000604082015260600190565b6020808252600c908201526b5a45524f204164647265737360a01b604082015260600190565b60208082526018908201527f696e76616c6964207369676e6174757265206c656e6774680000000000000000604082015260600190565b6020808252601f908201527f5265656e7472616e637947756172643a207265656e7472616e742063616c6c00604082015260600190565b90815260200190565b948552602085019390935260408401919091526001600160a01b03908116606084015216608082015260a00190565b67ffffffffffffffff91909116815260200190565b600082198211156122d6576122d6612385565b500190565b6000828210156122ed576122ed612385565b500390565b60005b8381101561230d5781810151838201526020016122f5565b8381111561231c576000848401525b50505050565b60028104600182168061233657607f821691505b6020821081141561235757634e487b7160e01b600052602260045260246000fd5b50919050565b600067ffffffffffffffff8083168181141561237b5761237b612385565b6001019392505050565b634e487b7160e01b600052601160045260246000fd5b634e487b7160e01b600052604160045260246000fdfea2646970667358221220fb3165e298dcf7a52803ede930274b5d5cbe2bdb2b6eaea97e15dcf781daf0af64736f6c63430008000033",
  "devdoc": {
    "kind": "dev",
    "methods": {
      "buyProductByETH(string,uint256,uint256,uint256,bytes)": {
        "details": "buyProductByETH function:"
      },
      "buyProductByToken(string,uint256,uint256,address,uint256,bytes)": {
        "details": "buyProductByToken function:"
      },
      "executeMetaTransaction(address,bytes,bytes32,bytes32,uint8)": {
        "params": {
          "functionSignature": "Signature of the actual function to be called via meta transaction",
          "sigR": "R part of the signature",
          "sigS": "S part of the signature",
          "sigV": "V part of the signature",
          "userAddress": "Address of user trying to do meta transaction"
        }
      },
      "owner()": {
        "details": "Returns the address of the current owner."
      },
      "paused()": {
        "details": "Returns true if the contract is paused, and false otherwise."
      },
      "renounceOwnership()": {
        "details": "Leaves the contract without owner. It will not be possible to call `onlyOwner` functions anymore. Can only be called by the current owner. NOTE: Renouncing ownership will leave the contract without an owner, thereby removing any functionality that is only available to the owner."
      },
      "transferOwnership(address)": {
        "details": "Transfers ownership of the contract to a new account (`newOwner`). Can only be called by the current owner."
      }
    },
    "version": 1
  },
  "userdoc": {
    "kind": "user",
    "methods": {
      "executeMetaTransaction(address,bytes,bytes32,bytes32,uint8)": {
        "notice": "Main function to be called when user wants to execute meta transaction. The actual function to be called should be passed as param with name functionSignature Here the basic signature recovery is being used. Signature is expected to be generated using personal_sign method."
      }
    },
    "version": 1
  },
  "storageLayout": {
    "storage": [
      {
        "astId": 7,
        "contract": "contracts/offchain/MSOCover.sol:MSOCover",
        "label": "_owner",
        "offset": 0,
        "slot": "0",
        "type": "t_address"
      },
      {
        "astId": 212,
        "contract": "contracts/offchain/MSOCover.sol:MSOCover",
        "label": "_status",
        "offset": 0,
        "slot": "1",
        "type": "t_uint256"
      },
      {
        "astId": 127,
        "contract": "contracts/offchain/MSOCover.sol:MSOCover",
        "label": "_paused",
        "offset": 0,
        "slot": "2",
        "type": "t_bool"
      },
      {
        "astId": 2117,
        "contract": "contracts/offchain/MSOCover.sol:MSOCover",
        "label": "nonces",
        "offset": 0,
        "slot": "3",
        "type": "t_mapping(t_address,t_uint256)"
      },
      {
        "astId": 3081,
        "contract": "contracts/offchain/MSOCover.sol:MSOCover",
        "label": "productIds",
        "offset": 0,
        "slot": "4",
        "type": "t_struct(Counter)1041_storage"
      },
      {
        "astId": 3085,
        "contract": "contracts/offchain/MSOCover.sol:MSOCover",
        "label": "_ownerOf",
        "offset": 0,
        "slot": "5",
        "type": "t_mapping(t_uint256,t_address)"
      },
      {
        "astId": 3089,
        "contract": "contracts/offchain/MSOCover.sol:MSOCover",
        "label": "_balanceOf",
        "offset": 0,
        "slot": "6",
        "type": "t_mapping(t_address,t_uint64)"
      },
      {
        "astId": 3094,
        "contract": "contracts/offchain/MSOCover.sol:MSOCover",
        "label": "_productsOf",
        "offset": 0,
        "slot": "7",
        "type": "t_mapping(t_address,t_array(t_uint64)dyn_storage)"
      },
      {
        "astId": 3098,
        "contract": "contracts/offchain/MSOCover.sol:MSOCover",
        "label": "availableCurrencies",
        "offset": 0,
        "slot": "8",
        "type": "t_mapping(t_address,t_bool)"
      },
      {
        "astId": 3102,
        "contract": "contracts/offchain/MSOCover.sol:MSOCover",
        "label": "exchangeAgent",
        "offset": 0,
        "slot": "9",
        "type": "t_address"
      },
      {
        "astId": 3104,
        "contract": "contracts/offchain/MSOCover.sol:MSOCover",
        "label": "devWallet",
        "offset": 0,
        "slot": "10",
        "type": "t_address"
      },
      {
        "astId": 3106,
        "contract": "contracts/offchain/MSOCover.sol:MSOCover",
        "label": "signer",
        "offset": 0,
        "slot": "11",
        "type": "t_address"
      },
      {
        "astId": 3480,
        "contract": "contracts/offchain/MSOCover.sol:MSOCover",
        "label": "products",
        "offset": 0,
        "slot": "12",
        "type": "t_mapping(t_uint256,t_struct(Product)3475_storage)"
      }
    ],
    "types": {
      "t_address": {
        "encoding": "inplace",
        "label": "address",
        "numberOfBytes": "20"
      },
      "t_array(t_uint64)dyn_storage": {
        "base": "t_uint64",
        "encoding": "dynamic_array",
        "label": "uint64[]",
        "numberOfBytes": "32"
      },
      "t_bool": {
        "encoding": "inplace",
        "label": "bool",
        "numberOfBytes": "1"
      },
      "t_mapping(t_address,t_array(t_uint64)dyn_storage)": {
        "encoding": "mapping",
        "key": "t_address",
        "label": "mapping(address => uint64[])",
        "numberOfBytes": "32",
        "value": "t_array(t_uint64)dyn_storage"
      },
      "t_mapping(t_address,t_bool)": {
        "encoding": "mapping",
        "key": "t_address",
        "label": "mapping(address => bool)",
        "numberOfBytes": "32",
        "value": "t_bool"
      },
      "t_mapping(t_address,t_uint256)": {
        "encoding": "mapping",
        "key": "t_address",
        "label": "mapping(address => uint256)",
        "numberOfBytes": "32",
        "value": "t_uint256"
      },
      "t_mapping(t_address,t_uint64)": {
        "encoding": "mapping",
        "key": "t_address",
        "label": "mapping(address => uint64)",
        "numberOfBytes": "32",
        "value": "t_uint64"
      },
      "t_mapping(t_uint256,t_address)": {
        "encoding": "mapping",
        "key": "t_uint256",
        "label": "mapping(uint256 => address)",
        "numberOfBytes": "32",
        "value": "t_address"
      },
      "t_mapping(t_uint256,t_struct(Product)3475_storage)": {
        "encoding": "mapping",
        "key": "t_uint256",
        "label": "mapping(uint256 => struct MSOCover.Product)",
        "numberOfBytes": "32",
        "value": "t_struct(Product)3475_storage"
      },
      "t_string_storage": {
        "encoding": "bytes",
        "label": "string",
        "numberOfBytes": "32"
      },
      "t_struct(Counter)1041_storage": {
        "encoding": "inplace",
        "label": "struct Counters.Counter",
        "members": [
          {
            "astId": 1040,
            "contract": "contracts/offchain/MSOCover.sol:MSOCover",
            "label": "_value",
            "offset": 0,
            "slot": "0",
            "type": "t_uint256"
          }
        ],
        "numberOfBytes": "32"
      },
      "t_struct(Product)3475_storage": {
        "encoding": "inplace",
        "label": "struct MSOCover.Product",
        "members": [
          {
            "astId": 3466,
            "contract": "contracts/offchain/MSOCover.sol:MSOCover",
            "label": "policyId",
            "offset": 0,
            "slot": "0",
            "type": "t_string_storage"
          },
          {
            "astId": 3468,
            "contract": "contracts/offchain/MSOCover.sol:MSOCover",
            "label": "priceInUSD",
            "offset": 0,
            "slot": "1",
            "type": "t_uint256"
          },
          {
            "astId": 3470,
            "contract": "contracts/offchain/MSOCover.sol:MSOCover",
            "label": "period",
            "offset": 0,
            "slot": "2",
            "type": "t_uint256"
          },
          {
            "astId": 3472,
            "contract": "contracts/offchain/MSOCover.sol:MSOCover",
            "label": "startTime",
            "offset": 0,
            "slot": "3",
            "type": "t_uint256"
          },
          {
            "astId": 3474,
            "contract": "contracts/offchain/MSOCover.sol:MSOCover",
            "label": "conciergePrice",
            "offset": 0,
            "slot": "4",
            "type": "t_uint256"
          }
        ],
        "numberOfBytes": "160"
      },
      "t_uint256": {
        "encoding": "inplace",
        "label": "uint256",
        "numberOfBytes": "32"
      },
      "t_uint64": {
        "encoding": "inplace",
        "label": "uint64",
        "numberOfBytes": "8"
      }
    }
  }
}