{
  "address": "0xEe9acb5A56cfc232A60397a2027a97ABDFDC6E27",
  "abi": [
    {
      "inputs": [
        {
          "internalType": "address",
          "name": "_WETH",
          "type": "address"
        },
        {
          "internalType": "address",
          "name": "_exchangeAgent",
          "type": "address"
        },
        {
          "internalType": "address",
          "name": "_devWallet",
          "type": "address"
        },
        {
          "internalType": "address",
          "name": "_multiSigWallet",
          "type": "address"
        }
      ],
      "stateMutability": "nonpayable",
      "type": "constructor"
    },
    {
      "anonymous": false,
      "inputs": [
        {
          "indexed": true,
          "internalType": "uint256",
          "name": "_productId",
          "type": "uint256"
        },
        {
          "indexed": false,
          "internalType": "address",
          "name": "_buyer",
          "type": "address"
        },
        {
          "indexed": false,
          "internalType": "address",
          "name": "_currency",
          "type": "address"
        },
        {
          "indexed": false,
          "internalType": "uint256",
          "name": "_amount",
          "type": "uint256"
        },
        {
          "indexed": false,
          "internalType": "uint256",
          "name": "_priceInUSD",
          "type": "uint256"
        },
        {
          "indexed": false,
          "internalType": "uint256",
          "name": "_conciergePrice",
          "type": "uint256"
        }
      ],
      "name": "BuyMSO",
      "type": "event"
    },
    {
      "anonymous": false,
      "inputs": [
        {
          "indexed": true,
          "internalType": "uint256",
          "name": "_productId",
          "type": "uint256"
        },
        {
          "indexed": false,
          "internalType": "address",
          "name": "_buyer",
          "type": "address"
        }
      ],
      "name": "BuyProduct",
      "type": "event"
    },
    {
      "anonymous": false,
      "inputs": [
        {
          "indexed": true,
          "internalType": "address",
          "name": "previousOwner",
          "type": "address"
        },
        {
          "indexed": true,
          "internalType": "address",
          "name": "newOwner",
          "type": "address"
        }
      ],
      "name": "OwnershipTransferred",
      "type": "event"
    },
    {
      "anonymous": false,
      "inputs": [
        {
          "indexed": false,
          "internalType": "address",
          "name": "_setter",
          "type": "address"
        },
        {
          "indexed": false,
          "internalType": "address",
          "name": "_exchangeAgent",
          "type": "address"
        }
      ],
      "name": "SetExchangeAgent",
      "type": "event"
    },
    {
      "inputs": [],
      "name": "WETH",
      "outputs": [
        {
          "internalType": "address",
          "name": "",
          "type": "address"
        }
      ],
      "stateMutability": "view",
      "type": "function"
    },
    {
      "inputs": [
        {
          "internalType": "address",
          "name": "_currency",
          "type": "address"
        }
      ],
      "name": "addCurrency",
      "outputs": [],
      "stateMutability": "nonpayable",
      "type": "function"
    },
    {
      "inputs": [
        {
          "internalType": "address",
          "name": "",
          "type": "address"
        }
      ],
      "name": "availableCurrencies",
      "outputs": [
        {
          "internalType": "bool",
          "name": "",
          "type": "bool"
        }
      ],
      "stateMutability": "view",
      "type": "function"
    },
    {
      "inputs": [
        {
          "internalType": "address",
          "name": "_account",
          "type": "address"
        }
      ],
      "name": "balanceOf",
      "outputs": [
        {
          "internalType": "uint64",
          "name": "",
          "type": "uint64"
        }
      ],
      "stateMutability": "view",
      "type": "function"
    },
    {
      "inputs": [
        {
          "internalType": "string",
          "name": "productName",
          "type": "string"
        },
        {
          "internalType": "uint256",
          "name": "priceInUSD",
          "type": "uint256"
        },
        {
          "internalType": "uint256",
          "name": "period",
          "type": "uint256"
        },
        {
          "internalType": "uint256",
          "name": "conciergePrice",
          "type": "uint256"
        },
        {
          "internalType": "bytes",
          "name": "sig",
          "type": "bytes"
        }
      ],
      "name": "buyProductByETH",
      "outputs": [],
      "stateMutability": "payable",
      "type": "function"
    },
    {
      "inputs": [
        {
          "internalType": "string",
          "name": "productName",
          "type": "string"
        },
        {
          "internalType": "uint256",
          "name": "priceInUSD",
          "type": "uint256"
        },
        {
          "internalType": "uint256",
          "name": "period",
          "type": "uint256"
        },
        {
          "internalType": "address",
          "name": "_token",
          "type": "address"
        },
        {
          "internalType": "address",
          "name": "_sender",
          "type": "address"
        },
        {
          "internalType": "uint256",
          "name": "conciergePrice",
          "type": "uint256"
        },
        {
          "internalType": "bytes",
          "name": "sig",
          "type": "bytes"
        }
      ],
      "name": "buyProductByToken",
      "outputs": [],
      "stateMutability": "nonpayable",
      "type": "function"
    },
    {
      "inputs": [],
      "name": "devWallet",
      "outputs": [
        {
          "internalType": "address",
          "name": "",
          "type": "address"
        }
      ],
      "stateMutability": "view",
      "type": "function"
    },
    {
      "inputs": [],
      "name": "exchangeAgent",
      "outputs": [
        {
          "internalType": "address",
          "name": "",
          "type": "address"
        }
      ],
      "stateMutability": "view",
      "type": "function"
    },
    {
      "inputs": [],
      "name": "owner",
      "outputs": [
        {
          "internalType": "address",
          "name": "",
          "type": "address"
        }
      ],
      "stateMutability": "view",
      "type": "function"
    },
    {
      "inputs": [
        {
          "internalType": "uint256",
          "name": "_prodId",
          "type": "uint256"
        }
      ],
      "name": "ownerOf",
      "outputs": [
        {
          "internalType": "address",
          "name": "",
          "type": "address"
        }
      ],
      "stateMutability": "view",
      "type": "function"
    },
    {
      "inputs": [],
      "name": "productIds",
      "outputs": [
        {
          "internalType": "uint256",
          "name": "_value",
          "type": "uint256"
        }
      ],
      "stateMutability": "view",
      "type": "function"
    },
    {
      "inputs": [
        {
          "internalType": "address",
          "name": "_owner",
          "type": "address"
        },
        {
          "internalType": "uint64",
          "name": "_idx",
          "type": "uint64"
        }
      ],
      "name": "productOf",
      "outputs": [
        {
          "internalType": "uint64",
          "name": "",
          "type": "uint64"
        }
      ],
      "stateMutability": "view",
      "type": "function"
    },
    {
      "inputs": [
        {
          "internalType": "uint256",
          "name": "",
          "type": "uint256"
        }
      ],
      "name": "products",
      "outputs": [
        {
          "internalType": "string",
          "name": "productName",
          "type": "string"
        },
        {
          "internalType": "uint256",
          "name": "priceInUSD",
          "type": "uint256"
        },
        {
          "internalType": "uint256",
          "name": "period",
          "type": "uint256"
        },
        {
          "internalType": "uint256",
          "name": "startTime",
          "type": "uint256"
        },
        {
          "internalType": "uint256",
          "name": "conciergePrice",
          "type": "uint256"
        }
      ],
      "stateMutability": "view",
      "type": "function"
    },
    {
      "inputs": [
        {
          "internalType": "address",
          "name": "_currency",
          "type": "address"
        }
      ],
      "name": "removeCurrency",
      "outputs": [],
      "stateMutability": "nonpayable",
      "type": "function"
    },
    {
      "inputs": [],
      "name": "renounceOwnership",
      "outputs": [],
      "stateMutability": "nonpayable",
      "type": "function"
    },
    {
      "inputs": [
        {
          "internalType": "address",
          "name": "_exchangeAgent",
          "type": "address"
        }
      ],
      "name": "setExchangeAgent",
      "outputs": [],
      "stateMutability": "nonpayable",
      "type": "function"
    },
    {
      "inputs": [
        {
          "internalType": "bytes",
          "name": "sig",
          "type": "bytes"
        }
      ],
      "name": "splitSignature",
      "outputs": [
        {
          "internalType": "bytes32",
          "name": "r",
          "type": "bytes32"
        },
        {
          "internalType": "bytes32",
          "name": "s",
          "type": "bytes32"
        },
        {
          "internalType": "uint8",
          "name": "v",
          "type": "uint8"
        }
      ],
      "stateMutability": "pure",
      "type": "function"
    },
    {
      "inputs": [
        {
          "internalType": "address",
          "name": "newOwner",
          "type": "address"
        }
      ],
      "name": "transferOwnership",
      "outputs": [],
      "stateMutability": "nonpayable",
      "type": "function"
    },
    {
      "stateMutability": "payable",
      "type": "receive"
    }
  ],
  "transactionHash": "0xe64cff04f7c417d9a47ad790f7ce85d69a812087d1edba9f31a54fb33cb2f9e9",
  "args": [
    "0xc778417e063141139fce010982780140aa0cd5ab",
    "0x1eEF7bF547aC2EFeFd2B0582d208Bef5ae0d92d6",
    "0x6C641CE6A7216F12d28692f9d8b2BDcdE812eD2b",
    "0xC31F8d97B0B9fcD8A30F9AA906335dCCdba99bD5"
  ],
  "solcInputHash": "b9f5be885696f0e623502845256d15e8",
  "bytecode": "0x60a06040523480156200001157600080fd5b5060405162001ce938038062001ce98339810160408190526200003491620001ce565b83838383600062000044620000dc565b600080546001600160a01b0319166001600160a01b03831690811782556040519293509160008051602062001cc9833981519152908290a350600180556001600160601b0319606085901b16608052600780546001600160a01b038581166001600160a01b0319928316179092556008805492851692909116919091179055620000ce81620000e0565b5050505050505050620002a5565b3390565b620000ea620000dc565b6001600160a01b0316620000fd620001a2565b6001600160a01b0316146200012f5760405162461bcd60e51b8152600401620001269062000270565b60405180910390fd5b6001600160a01b038116620001585760405162461bcd60e51b815260040162000126906200022a565b600080546040516001600160a01b038085169392169160008051602062001cc983398151915291a3600080546001600160a01b0319166001600160a01b0392909216919091179055565b6000546001600160a01b031690565b80516001600160a01b0381168114620001c957600080fd5b919050565b60008060008060808587031215620001e4578384fd5b620001ef85620001b1565b9350620001ff60208601620001b1565b92506200020f60408601620001b1565b91506200021f60608601620001b1565b905092959194509250565b60208082526026908201527f4f776e61626c653a206e6577206f776e657220697320746865207a65726f206160408201526564647265737360d01b606082015260800190565b6020808252818101527f4f776e61626c653a2063616c6c6572206973206e6f7420746865206f776e6572604082015260600190565b60805160601c6119fe620002cb60003960008181610702015261087f01526119fe6000f3fe60806040526004361061010d5760003560e01c8063a7bb580311610095578063c58284ab11610064578063c58284ab146102d4578063c5d3a107146102f4578063d9203b9114610314578063f2fde38b14610329578063f47962871461034957610114565b8063a7bb58031461025b578063aa57511d1461028a578063ad5c4648146102ac578063c0bddef2146102c157610114565b8063715018a6116100dc578063715018a6146101cb5780637acc0b20146101e05780638ab234b6146102115780638da5cb5b146102315780638ea5220f1461024657610114565b806318a00d8e146101195780631af42c0f1461013b5780636352211e1461017157806370a082311461019e57610114565b3661011457005b600080fd5b34801561012557600080fd5b506101396101343660046111f5565b610369565b005b34801561014757600080fd5b5061015b6101563660046111f5565b61042f565b6040516101689190611518565b60405180910390f35b34801561017d57600080fd5b5061019161018c3660046113d0565b610444565b604051610168919061147c565b3480156101aa57600080fd5b506101be6101b93660046111f5565b610498565b60405161016891906118c5565b3480156101d757600080fd5b506101396104bd565b3480156101ec57600080fd5b506102006101fb3660046113d0565b610546565b60405161016895949392919061155a565b34801561021d57600080fd5b5061013961022c3660046111f5565b6105fc565b34801561023d57600080fd5b50610191610698565b34801561025257600080fd5b506101916106a7565b34801561026757600080fd5b5061027b610276366004611278565b6106b6565b60405161016893929190611523565b34801561029657600080fd5b5061029f6106fa565b60405161016891906118bc565b3480156102b857600080fd5b50610191610700565b6101396102cf366004611352565b610724565b3480156102e057600080fd5b506101396102ef3660046112b3565b6108c9565b34801561030057600080fd5b5061013961030f3660046111f5565b610a59565b34801561032057600080fd5b50610191610af1565b34801561033557600080fd5b506101396103443660046111f5565b610b00565b34801561035557600080fd5b506101be610364366004611216565b610bc0565b610371610c34565b6001600160a01b0316610382610698565b6001600160a01b0316146103b15760405162461bcd60e51b81526004016103a89061174e565b60405180910390fd5b6001600160a01b0381166103d75760405162461bcd60e51b81526004016103a890611828565b600780546001600160a01b0319166001600160a01b0383161790556040517f0143625ceac80b2452760213c6b6f5a22eb63bc46e17d129c30fffefb4679eb6906104249033908490611490565b60405180910390a150565b60066020526000908152604090205460ff1681565b60006104506002610c38565b61045b9060016118da565b82106104795760405162461bcd60e51b81526004016103a8906117f1565b506000818152600360205260409020546001600160a01b03165b919050565b6001600160a01b031660009081526004602052604090205467ffffffffffffffff1690565b6104c5610c34565b6001600160a01b03166104d6610698565b6001600160a01b0316146104fc5760405162461bcd60e51b81526004016103a89061174e565b600080546040516001600160a01b03909116907f8be0079c531659141344cd1fd0a4f28419497f9722a3daafe3b4186f6b6457e0908390a3600080546001600160a01b0319169055565b60096020526000908152604090208054819061056190611939565b80601f016020809104026020016040519081016040528092919081815260200182805461058d90611939565b80156105da5780601f106105af576101008083540402835291602001916105da565b820191906000526020600020905b8154815290600101906020018083116105bd57829003601f168201915b5050505050908060010154908060020154908060030154908060040154905085565b610604610c34565b6001600160a01b0316610615610698565b6001600160a01b03161461063b5760405162461bcd60e51b81526004016103a89061174e565b6001600160a01b03811660009081526006602052604090205460ff16156106745760405162461bcd60e51b81526004016103a890611717565b6001600160a01b03166000908152600660205260409020805460ff19166001179055565b6000546001600160a01b031690565b6008546001600160a01b031681565b600080600083516041146106dc5760405162461bcd60e51b81526004016103a89061184e565b50505060208101516040820151606090920151909260009190911a90565b60025481565b7f000000000000000000000000000000000000000000000000000000000000000081565b600260015414156107475760405162461bcd60e51b81526004016103a890611885565b6002600155600061075883866118da565b9050600061076887878787610c3c565b9050610775338285610ca0565b60075460405163531a221160e01b81526000916001600160a01b03169063531a2211906107a69086906004016118bc565b60206040518083038186803b1580156107be57600080fd5b505afa1580156107d2573d6000803e3d6000fd5b505050506040513d601f19601f820116820180604052508101906107f691906113e8565b9050803410156108185760405162461bcd60e51b81526004016103a8906117ba565b80341115610833576108333361082e83346118f2565b610d56565b600854610849906001600160a01b031682610d56565b60006108588989898933610de8565b9050807f948b502f5a059386f0abaddbadd52ec597d1e73fc4f8e25131924f2ad871b027337f0000000000000000000000000000000000000000000000000000000000000000858c8b6040516108b29594939291906114ce565b60405180910390a250506001805550505050505050565b600260015414156108ec5760405162461bcd60e51b81526004016103a890611885565b60026001556001600160a01b038416600090815260066020526040902054849060ff1661092b5760405162461bcd60e51b81526004016103a890611626565b600061093784896118da565b905060006109478a8a8a88610c3c565b9050610954868286610ca0565b60075460405163a9a12d4360e01b81526000916001600160a01b03169063a9a12d4390610987908b9087906004016114ff565b602060405180830381600087803b1580156109a157600080fd5b505af11580156109b5573d6000803e3d6000fd5b505050506040513d601f19601f820116820180604052508101906109d991906113e8565b6008549091506109f690899089906001600160a01b031684610e9d565b6000610a058c8c8c8a8c610de8565b9050807f948b502f5a059386f0abaddbadd52ec597d1e73fc4f8e25131924f2ad871b027898b858f8c604051610a3f9594939291906114ce565b60405180910390a250506001805550505050505050505050565b610a61610c34565b6001600160a01b0316610a72610698565b6001600160a01b031614610a985760405162461bcd60e51b81526004016103a89061174e565b6001600160a01b03811660009081526006602052604090205460ff16610ad05760405162461bcd60e51b81526004016103a890611783565b6001600160a01b03166000908152600660205260409020805460ff19169055565b6007546001600160a01b031681565b610b08610c34565b6001600160a01b0316610b19610698565b6001600160a01b031614610b3f5760405162461bcd60e51b81526004016103a89061174e565b6001600160a01b038116610b655760405162461bcd60e51b81526004016103a8906115e0565b600080546040516001600160a01b03808516939216917f8be0079c531659141344cd1fd0a4f28419497f9722a3daafe3b4186f6b6457e091a3600080546001600160a01b0319166001600160a01b0392909216919091179055565b6001600160a01b0382166000908152600560205260408120805467ffffffffffffffff8416908110610c0257634e487b7160e01b600052603260045260246000fd5b90600052602060002090600491828204019190066008029054906101000a900467ffffffffffffffff16905092915050565b3390565b5490565b60008085858585604051602001610c56949392919061141c565b60405160208183030381529060405280519060200120905080604051602001610c7f919061144b565b60405160208183030381529060405280519060200120915050949350505050565b6000806000610cae846106b6565b925092509250600060018683868660405160008152602001604052604051610cd9949392919061153c565b6020604051602081039080840390855afa158015610cfb573d6000803e3d6000fd5b5050604051601f1901519150506001600160a01b03811615801590610d315750866001600160a01b0316816001600160a01b0316145b610d4d5760405162461bcd60e51b81526004016103a8906115a9565b50505050505050565b604080516000808252602082019092526001600160a01b038416908390604051610d809190611400565b60006040518083038185875af1925050503d8060008114610dbd576040519150601f19603f3d011682016040523d82523d6000602084013e610dc2565b606091505b5050905080610de35760405162461bcd60e51b81526004016103a8906116ba565b505050565b6000610df46002610c38565b6040805160a081018252888152602080820189905281830188905242606083015260808201879052600084815260098252929092208151805194955091939092610e429284929101906110c4565b50602082015160018201556040820151600282015560608201516003820155608090910151600490910155610e778183610fa2565b610e8082610fd0565b610e8a8282611028565b610e9460026110bb565b95945050505050565b600080856001600160a01b03166323b872dd868686604051602401610ec4939291906114aa565b6040516020818303038152906040529060e01b6020820180517bffffffffffffffffffffffffffffffffffffffffffffffffffffffff8381831617835250505050604051610f129190611400565b6000604051808303816000865af19150503d8060008114610f4f576040519150601f19603f3d011682016040523d82523d6000602084013e610f54565b606091505b5091509150818015610f7e575080511580610f7e575080806020019051810190610f7e9190611258565b610f9a5760405162461bcd60e51b81526004016103a89061165d565b505050505050565b60009182526003602052604090912080546001600160a01b0319166001600160a01b03909216919091179055565b6001600160a01b0381166000908152600460205260408120805467ffffffffffffffff1691610ffe83611974565b91906101000a81548167ffffffffffffffff021916908367ffffffffffffffff1602179055505050565b6001600160a01b03821660009081526005602090815260408083208054600181018255908452919092206004820401805460039092166008026101000a67ffffffffffffffff81810219909316928516029190911790555181907fbe51e9a2a9ea8219cc8ab3194ee452fbdf2fa052f0d88d96a854c8ff2686151e906110af90859061147c565b60405180910390a25050565b80546001019055565b8280546110d090611939565b90600052602060002090601f0160209004810192826110f25760008555611138565b82601f1061110b57805160ff1916838001178555611138565b82800160010185558215611138579182015b8281111561113857825182559160200191906001019061111d565b50611144929150611148565b5090565b5b808211156111445760008155600101611149565b80356001600160a01b038116811461049357600080fd5b600082601f830112611184578081fd5b813567ffffffffffffffff8082111561119f5761119f6119b2565b604051601f8301601f1916810160200182811182821017156111c3576111c36119b2565b6040528281528483016020018610156111da578384fd5b82602086016020830137918201602001929092529392505050565b600060208284031215611206578081fd5b61120f8261115d565b9392505050565b60008060408385031215611228578081fd5b6112318361115d565b9150602083013567ffffffffffffffff8116811461124d578182fd5b809150509250929050565b600060208284031215611269578081fd5b8151801515811461120f578182fd5b600060208284031215611289578081fd5b813567ffffffffffffffff81111561129f578182fd5b6112ab84828501611174565b949350505050565b600080600080600080600060e0888a0312156112cd578283fd5b873567ffffffffffffffff808211156112e4578485fd5b6112f08b838c01611174565b985060208a0135975060408a0135965061130c60608b0161115d565b955061131a60808b0161115d565b945060a08a0135935060c08a0135915080821115611336578283fd5b506113438a828b01611174565b91505092959891949750929550565b600080600080600060a08688031215611369578081fd5b853567ffffffffffffffff80821115611380578283fd5b61138c89838a01611174565b965060208801359550604088013594506060880135935060808801359150808211156113b6578283fd5b506113c388828901611174565b9150509295509295909350565b6000602082840312156113e1578081fd5b5035919050565b6000602082840312156113f9578081fd5b5051919050565b60008251611412818460208701611909565b9190910192915050565b6000855161142e818460208a01611909565b919091019384525060208301919091526040820152606001919050565b7f19457468657265756d205369676e6564204d6573736167653a0a3332000000008152601c810191909152603c0190565b6001600160a01b0391909116815260200190565b6001600160a01b0392831681529116602082015260400190565b6001600160a01b039384168152919092166020820152604081019190915260600190565b6001600160a01b03958616815293909416602084015260408301919091526060820152608081019190915260a00190565b6001600160a01b03929092168252602082015260400190565b901515815260200190565b928352602083019190915260ff16604082015260600190565b93845260ff9290921660208401526040830152606082015260800190565b600060a0825286518060a08401526115798160c0850160208b01611909565b60208301969096525060408101939093526060830191909152608082015260c0601f909201601f19160101919050565b6020808252601f908201527f506f6c6b61436f6d706172653a20494e56414c49445f5349474e415455524500604082015260600190565b60208082526026908201527f4f776e61626c653a206e6577206f776e657220697320746865207a65726f206160408201526564647265737360d01b606082015260800190565b60208082526011908201527f4e6f7420616c6c6f77656420746f6b656e000000000000000000000000000000604082015260600190565b60208082526031908201527f5472616e7366657248656c7065723a3a7472616e7366657246726f6d3a20747260408201527f616e7366657246726f6d206661696c6564000000000000000000000000000000606082015260800190565b60208082526034908201527f5472616e7366657248656c7065723a3a736166655472616e736665724554483a60408201527f20455448207472616e73666572206661696c6564000000000000000000000000606082015260800190565b60208082526011908201527f416c726561647920617661696c61626c65000000000000000000000000000000604082015260600190565b6020808252818101527f4f776e61626c653a2063616c6c6572206973206e6f7420746865206f776e6572604082015260600190565b60208082526011908201527f4e6f7420617661696c61626c6520796574000000000000000000000000000000604082015260600190565b60208082526013908201527f496e73756666696369656e7420616d6f756e7400000000000000000000000000604082015260600190565b60208082526012908201527f496e76616c69642070726f647563742049440000000000000000000000000000604082015260600190565b6020808252600c908201526b5a45524f204164647265737360a01b604082015260600190565b60208082526018908201527f696e76616c6964207369676e6174757265206c656e6774680000000000000000604082015260600190565b6020808252601f908201527f5265656e7472616e637947756172643a207265656e7472616e742063616c6c00604082015260600190565b90815260200190565b67ffffffffffffffff91909116815260200190565b600082198211156118ed576118ed61199c565b500190565b6000828210156119045761190461199c565b500390565b60005b8381101561192457818101518382015260200161190c565b83811115611933576000848401525b50505050565b60028104600182168061194d57607f821691505b6020821081141561196e57634e487b7160e01b600052602260045260246000fd5b50919050565b600067ffffffffffffffff808316818114156119925761199261199c565b6001019392505050565b634e487b7160e01b600052601160045260246000fd5b634e487b7160e01b600052604160045260246000fdfea26469706673582212205fe27eb1ec505e2f61d10950b3c0ab0cb73eb2ab846bbb1513731e637c4b8b2864736f6c634300080000338be0079c531659141344cd1fd0a4f28419497f9722a3daafe3b4186f6b6457e0",
  "devdoc": {
    "kind": "dev",
    "methods": {
      "buyProductByETH(string,uint256,uint256,uint256,bytes)": {
        "details": "buyProductByETH function:"
      },
      "buyProductByToken(string,uint256,uint256,address,address,uint256,bytes)": {
        "details": "buyProductByToken function: TODO check if this should be onlyOwner or not. If it is not onlyOwner, users can call this function directly."
      },
      "owner()": {
        "details": "Returns the address of the current owner."
      },
      "renounceOwnership()": {
        "details": "Leaves the contract without owner. It will not be possible to call `onlyOwner` functions anymore. Can only be called by the current owner. NOTE: Renouncing ownership will leave the contract without an owner, thereby removing any functionality that is only available to the owner."
      },
      "transferOwnership(address)": {
        "details": "Transfers ownership of the contract to a new account (`newOwner`). Can only be called by the current owner."
      }
    },
    "version": 1
  },
  "userdoc": {
    "kind": "user",
    "methods": {},
    "version": 1
  },
  "storageLayout": {
    "storage": [
      {
        "astId": 534,
        "contract": "contracts/offchain/MSOPolka.sol:MSOPolka",
        "label": "_owner",
        "offset": 0,
        "slot": "0",
        "type": "t_address"
      },
      {
        "astId": 647,
        "contract": "contracts/offchain/MSOPolka.sol:MSOPolka",
        "label": "_status",
        "offset": 0,
        "slot": "1",
        "type": "t_uint256"
      },
      {
        "astId": 3190,
        "contract": "contracts/offchain/MSOPolka.sol:MSOPolka",
        "label": "productIds",
        "offset": 0,
        "slot": "2",
        "type": "t_struct(Counter)1476_storage"
      },
      {
        "astId": 3194,
        "contract": "contracts/offchain/MSOPolka.sol:MSOPolka",
        "label": "_ownerOf",
        "offset": 0,
        "slot": "3",
        "type": "t_mapping(t_uint256,t_address)"
      },
      {
        "astId": 3198,
        "contract": "contracts/offchain/MSOPolka.sol:MSOPolka",
        "label": "_balanceOf",
        "offset": 0,
        "slot": "4",
        "type": "t_mapping(t_address,t_uint64)"
      },
      {
        "astId": 3203,
        "contract": "contracts/offchain/MSOPolka.sol:MSOPolka",
        "label": "_productsOf",
        "offset": 0,
        "slot": "5",
        "type": "t_mapping(t_address,t_array(t_uint64)dyn_storage)"
      },
      {
        "astId": 3207,
        "contract": "contracts/offchain/MSOPolka.sol:MSOPolka",
        "label": "availableCurrencies",
        "offset": 0,
        "slot": "6",
        "type": "t_mapping(t_address,t_bool)"
      },
      {
        "astId": 3211,
        "contract": "contracts/offchain/MSOPolka.sol:MSOPolka",
        "label": "exchangeAgent",
        "offset": 0,
        "slot": "7",
        "type": "t_address"
      },
      {
        "astId": 3213,
        "contract": "contracts/offchain/MSOPolka.sol:MSOPolka",
        "label": "devWallet",
        "offset": 0,
        "slot": "8",
        "type": "t_address"
      },
      {
        "astId": 3541,
        "contract": "contracts/offchain/MSOPolka.sol:MSOPolka",
        "label": "products",
        "offset": 0,
        "slot": "9",
        "type": "t_mapping(t_uint256,t_struct(Product)3536_storage)"
      }
    ],
    "types": {
      "t_address": {
        "encoding": "inplace",
        "label": "address",
        "numberOfBytes": "20"
      },
      "t_array(t_uint64)dyn_storage": {
        "base": "t_uint64",
        "encoding": "dynamic_array",
        "label": "uint64[]",
        "numberOfBytes": "32"
      },
      "t_bool": {
        "encoding": "inplace",
        "label": "bool",
        "numberOfBytes": "1"
      },
      "t_mapping(t_address,t_array(t_uint64)dyn_storage)": {
        "encoding": "mapping",
        "key": "t_address",
        "label": "mapping(address => uint64[])",
        "numberOfBytes": "32",
        "value": "t_array(t_uint64)dyn_storage"
      },
      "t_mapping(t_address,t_bool)": {
        "encoding": "mapping",
        "key": "t_address",
        "label": "mapping(address => bool)",
        "numberOfBytes": "32",
        "value": "t_bool"
      },
      "t_mapping(t_address,t_uint64)": {
        "encoding": "mapping",
        "key": "t_address",
        "label": "mapping(address => uint64)",
        "numberOfBytes": "32",
        "value": "t_uint64"
      },
      "t_mapping(t_uint256,t_address)": {
        "encoding": "mapping",
        "key": "t_uint256",
        "label": "mapping(uint256 => address)",
        "numberOfBytes": "32",
        "value": "t_address"
      },
      "t_mapping(t_uint256,t_struct(Product)3536_storage)": {
        "encoding": "mapping",
        "key": "t_uint256",
        "label": "mapping(uint256 => struct MSOPolka.Product)",
        "numberOfBytes": "32",
        "value": "t_struct(Product)3536_storage"
      },
      "t_string_storage": {
        "encoding": "bytes",
        "label": "string",
        "numberOfBytes": "32"
      },
      "t_struct(Counter)1476_storage": {
        "encoding": "inplace",
        "label": "struct Counters.Counter",
        "members": [
          {
            "astId": 1475,
            "contract": "contracts/offchain/MSOPolka.sol:MSOPolka",
            "label": "_value",
            "offset": 0,
            "slot": "0",
            "type": "t_uint256"
          }
        ],
        "numberOfBytes": "32"
      },
      "t_struct(Product)3536_storage": {
        "encoding": "inplace",
        "label": "struct MSOPolka.Product",
        "members": [
          {
            "astId": 3527,
            "contract": "contracts/offchain/MSOPolka.sol:MSOPolka",
            "label": "productName",
            "offset": 0,
            "slot": "0",
            "type": "t_string_storage"
          },
          {
            "astId": 3529,
            "contract": "contracts/offchain/MSOPolka.sol:MSOPolka",
            "label": "priceInUSD",
            "offset": 0,
            "slot": "1",
            "type": "t_uint256"
          },
          {
            "astId": 3531,
            "contract": "contracts/offchain/MSOPolka.sol:MSOPolka",
            "label": "period",
            "offset": 0,
            "slot": "2",
            "type": "t_uint256"
          },
          {
            "astId": 3533,
            "contract": "contracts/offchain/MSOPolka.sol:MSOPolka",
            "label": "startTime",
            "offset": 0,
            "slot": "3",
            "type": "t_uint256"
          },
          {
            "astId": 3535,
            "contract": "contracts/offchain/MSOPolka.sol:MSOPolka",
            "label": "conciergePrice",
            "offset": 0,
            "slot": "4",
            "type": "t_uint256"
          }
        ],
        "numberOfBytes": "160"
      },
      "t_uint256": {
        "encoding": "inplace",
        "label": "uint256",
        "numberOfBytes": "32"
      },
      "t_uint64": {
        "encoding": "inplace",
        "label": "uint64",
        "numberOfBytes": "8"
      }
    }
  }
}