{
  "address": "0xE5A2121C91C0a95BEdcFc622094bEeBf79349165",
  "abi": [
    {
      "inputs": [
        {
          "internalType": "address",
          "name": "_WETH",
          "type": "address"
        },
        {
          "internalType": "address",
          "name": "_exchangeAgent",
          "type": "address"
        },
        {
          "internalType": "address",
          "name": "_devWallet",
          "type": "address"
        },
        {
          "internalType": "address",
          "name": "_multiSigWallet",
          "type": "address"
        }
      ],
      "stateMutability": "nonpayable",
      "type": "constructor"
    },
    {
      "anonymous": false,
      "inputs": [
        {
          "indexed": true,
          "internalType": "uint256",
          "name": "_productId",
          "type": "uint256"
        },
        {
          "indexed": false,
          "internalType": "address",
          "name": "_buyer",
          "type": "address"
        },
        {
          "indexed": false,
          "internalType": "address",
          "name": "_currency",
          "type": "address"
        },
        {
          "indexed": false,
          "internalType": "uint256",
          "name": "_amount",
          "type": "uint256"
        },
        {
          "indexed": false,
          "internalType": "uint256",
          "name": "_priceInUSD",
          "type": "uint256"
        },
        {
          "indexed": false,
          "internalType": "uint256",
          "name": "_conciergePrice",
          "type": "uint256"
        }
      ],
      "name": "BuyMSO",
      "type": "event"
    },
    {
      "anonymous": false,
      "inputs": [
        {
          "indexed": true,
          "internalType": "uint256",
          "name": "_productId",
          "type": "uint256"
        },
        {
          "indexed": false,
          "internalType": "address",
          "name": "_buyer",
          "type": "address"
        }
      ],
      "name": "BuyProduct",
      "type": "event"
    },
    {
      "anonymous": false,
      "inputs": [
        {
          "indexed": true,
          "internalType": "address",
          "name": "previousOwner",
          "type": "address"
        },
        {
          "indexed": true,
          "internalType": "address",
          "name": "newOwner",
          "type": "address"
        }
      ],
      "name": "OwnershipTransferred",
      "type": "event"
    },
    {
      "anonymous": false,
      "inputs": [
        {
          "indexed": false,
          "internalType": "address",
          "name": "_setter",
          "type": "address"
        },
        {
          "indexed": false,
          "internalType": "address",
          "name": "_exchangeAgent",
          "type": "address"
        }
      ],
      "name": "SetExchangeAgent",
      "type": "event"
    },
    {
      "inputs": [],
      "name": "WETH",
      "outputs": [
        {
          "internalType": "address",
          "name": "",
          "type": "address"
        }
      ],
      "stateMutability": "view",
      "type": "function"
    },
    {
      "inputs": [
        {
          "internalType": "address",
          "name": "_currency",
          "type": "address"
        }
      ],
      "name": "addCurrency",
      "outputs": [],
      "stateMutability": "nonpayable",
      "type": "function"
    },
    {
      "inputs": [
        {
          "internalType": "address",
          "name": "",
          "type": "address"
        }
      ],
      "name": "availableCurrencies",
      "outputs": [
        {
          "internalType": "bool",
          "name": "",
          "type": "bool"
        }
      ],
      "stateMutability": "view",
      "type": "function"
    },
    {
      "inputs": [
        {
          "internalType": "address",
          "name": "_account",
          "type": "address"
        }
      ],
      "name": "balanceOf",
      "outputs": [
        {
          "internalType": "uint64",
          "name": "",
          "type": "uint64"
        }
      ],
      "stateMutability": "view",
      "type": "function"
    },
    {
      "inputs": [
        {
          "internalType": "string",
          "name": "productName",
          "type": "string"
        },
        {
          "internalType": "uint256",
          "name": "priceInUSD",
          "type": "uint256"
        },
        {
          "internalType": "uint256",
          "name": "period",
          "type": "uint256"
        },
        {
          "internalType": "uint256",
          "name": "conciergePrice",
          "type": "uint256"
        },
        {
          "internalType": "bytes",
          "name": "sig",
          "type": "bytes"
        }
      ],
      "name": "buyProductByETH",
      "outputs": [],
      "stateMutability": "payable",
      "type": "function"
    },
    {
      "inputs": [
        {
          "internalType": "string",
          "name": "productName",
          "type": "string"
        },
        {
          "internalType": "uint256",
          "name": "priceInUSD",
          "type": "uint256"
        },
        {
          "internalType": "uint256",
          "name": "period",
          "type": "uint256"
        },
        {
          "internalType": "address",
          "name": "_token",
          "type": "address"
        },
        {
          "internalType": "address",
          "name": "_sender",
          "type": "address"
        },
        {
          "internalType": "uint256",
          "name": "conciergePrice",
          "type": "uint256"
        },
        {
          "internalType": "bytes",
          "name": "sig",
          "type": "bytes"
        }
      ],
      "name": "buyProductByToken",
      "outputs": [],
      "stateMutability": "nonpayable",
      "type": "function"
    },
    {
      "inputs": [],
      "name": "devWallet",
      "outputs": [
        {
          "internalType": "address",
          "name": "",
          "type": "address"
        }
      ],
      "stateMutability": "view",
      "type": "function"
    },
    {
      "inputs": [],
      "name": "exchangeAgent",
      "outputs": [
        {
          "internalType": "address",
          "name": "",
          "type": "address"
        }
      ],
      "stateMutability": "view",
      "type": "function"
    },
    {
      "inputs": [],
      "name": "owner",
      "outputs": [
        {
          "internalType": "address",
          "name": "",
          "type": "address"
        }
      ],
      "stateMutability": "view",
      "type": "function"
    },
    {
      "inputs": [
        {
          "internalType": "uint256",
          "name": "_prodId",
          "type": "uint256"
        }
      ],
      "name": "ownerOf",
      "outputs": [
        {
          "internalType": "address",
          "name": "",
          "type": "address"
        }
      ],
      "stateMutability": "view",
      "type": "function"
    },
    {
      "inputs": [],
      "name": "productIds",
      "outputs": [
        {
          "internalType": "uint256",
          "name": "_value",
          "type": "uint256"
        }
      ],
      "stateMutability": "view",
      "type": "function"
    },
    {
      "inputs": [
        {
          "internalType": "address",
          "name": "_owner",
          "type": "address"
        },
        {
          "internalType": "uint64",
          "name": "_idx",
          "type": "uint64"
        }
      ],
      "name": "productOf",
      "outputs": [
        {
          "internalType": "uint64",
          "name": "",
          "type": "uint64"
        }
      ],
      "stateMutability": "view",
      "type": "function"
    },
    {
      "inputs": [
        {
          "internalType": "uint256",
          "name": "",
          "type": "uint256"
        }
      ],
      "name": "products",
      "outputs": [
        {
          "internalType": "string",
          "name": "productName",
          "type": "string"
        },
        {
          "internalType": "uint256",
          "name": "priceInUSD",
          "type": "uint256"
        },
        {
          "internalType": "uint256",
          "name": "period",
          "type": "uint256"
        },
        {
          "internalType": "uint256",
          "name": "startTime",
          "type": "uint256"
        },
        {
          "internalType": "uint256",
          "name": "conciergePrice",
          "type": "uint256"
        }
      ],
      "stateMutability": "view",
      "type": "function"
    },
    {
      "inputs": [
        {
          "internalType": "address",
          "name": "_currency",
          "type": "address"
        }
      ],
      "name": "removeCurrency",
      "outputs": [],
      "stateMutability": "nonpayable",
      "type": "function"
    },
    {
      "inputs": [],
      "name": "renounceOwnership",
      "outputs": [],
      "stateMutability": "nonpayable",
      "type": "function"
    },
    {
      "inputs": [
        {
          "internalType": "address",
          "name": "_exchangeAgent",
          "type": "address"
        }
      ],
      "name": "setExchangeAgent",
      "outputs": [],
      "stateMutability": "nonpayable",
      "type": "function"
    },
    {
      "inputs": [
        {
          "internalType": "bytes",
          "name": "sig",
          "type": "bytes"
        }
      ],
      "name": "splitSignature",
      "outputs": [
        {
          "internalType": "bytes32",
          "name": "r",
          "type": "bytes32"
        },
        {
          "internalType": "bytes32",
          "name": "s",
          "type": "bytes32"
        },
        {
          "internalType": "uint8",
          "name": "v",
          "type": "uint8"
        }
      ],
      "stateMutability": "pure",
      "type": "function"
    },
    {
      "inputs": [
        {
          "internalType": "address",
          "name": "newOwner",
          "type": "address"
        }
      ],
      "name": "transferOwnership",
      "outputs": [],
      "stateMutability": "nonpayable",
      "type": "function"
    },
    {
      "stateMutability": "payable",
      "type": "receive"
    }
  ],
  "transactionHash": "0xf37054826691a283ab83534d7bfc6d16d312a9be8a9953a7b80090f1b6d36385",
  "args": [
    "0xc778417e063141139fce010982780140aa0cd5ab",
    "0x5A198C9f43FB5E74b167aCE6aDeD3c7BD4d1eaA8",
    "0x6C641CE6A7216F12d28692f9d8b2BDcdE812eD2b",
    "0xC31F8d97B0B9fcD8A30F9AA906335dCCdba99bD5"
  ],
  "solcInputHash": "88c7b67386f01c74a6f509f473699efd",
  "bytecode": "0x60a06040523480156200001157600080fd5b5060405162001c6f38038062001c6f8339810160408190526200003491620001b1565b838383836200004c62000046620000ab565b620000af565b600180556001600160601b0319606085901b16608052600780546001600160a01b038581166001600160a01b03199283161790925560088054928516929091169190911790556200009d81620000ff565b505050505050505062000288565b3390565b600080546001600160a01b038381166001600160a01b0319831681178455604051919092169283917f8be0079c531659141344cd1fd0a4f28419497f9722a3daafe3b4186f6b6457e09190a35050565b62000109620000ab565b6001600160a01b03166200011c62000185565b6001600160a01b0316146200014e5760405162461bcd60e51b8152600401620001459062000253565b60405180910390fd5b6001600160a01b038116620001775760405162461bcd60e51b815260040162000145906200020d565b6200018281620000af565b50565b6000546001600160a01b031690565b80516001600160a01b0381168114620001ac57600080fd5b919050565b60008060008060808587031215620001c7578384fd5b620001d28562000194565b9350620001e26020860162000194565b9250620001f26040860162000194565b9150620002026060860162000194565b905092959194509250565b60208082526026908201527f4f776e61626c653a206e6577206f776e657220697320746865207a65726f206160408201526564647265737360d01b606082015260800190565b6020808252818101527f4f776e61626c653a2063616c6c6572206973206e6f7420746865206f776e6572604082015260600190565b60805160601c6119c1620002ae600039600081816106c4015261084101526119c16000f3fe60806040526004361061010d5760003560e01c8063a7bb580311610095578063c58284ab11610064578063c58284ab146102d4578063c5d3a107146102f4578063d9203b9114610314578063f2fde38b14610329578063f47962871461034957610114565b8063a7bb58031461025b578063aa57511d1461028a578063ad5c4648146102ac578063c0bddef2146102c157610114565b8063715018a6116100dc578063715018a6146101cb5780637acc0b20146101e05780638ab234b6146102115780638da5cb5b146102315780638ea5220f1461024657610114565b806318a00d8e146101195780631af42c0f1461013b5780636352211e1461017157806370a082311461019e57610114565b3661011457005b600080fd5b34801561012557600080fd5b506101396101343660046111b8565b610369565b005b34801561014757600080fd5b5061015b6101563660046111b8565b61042f565b60405161016891906114db565b60405180910390f35b34801561017d57600080fd5b5061019161018c366004611393565b610444565b604051610168919061143f565b3480156101aa57600080fd5b506101be6101b93660046111b8565b610498565b6040516101689190611888565b3480156101d757600080fd5b506101396104bd565b3480156101ec57600080fd5b506102006101fb366004611393565b610508565b60405161016895949392919061151d565b34801561021d57600080fd5b5061013961022c3660046111b8565b6105be565b34801561023d57600080fd5b5061019161065a565b34801561025257600080fd5b50610191610669565b34801561026757600080fd5b5061027b61027636600461123b565b610678565b604051610168939291906114e6565b34801561029657600080fd5b5061029f6106bc565b604051610168919061187f565b3480156102b857600080fd5b506101916106c2565b6101396102cf366004611315565b6106e6565b3480156102e057600080fd5b506101396102ef366004611276565b61088b565b34801561030057600080fd5b5061013961030f3660046111b8565b610a1b565b34801561032057600080fd5b50610191610ab3565b34801561033557600080fd5b506101396103443660046111b8565b610ac2565b34801561035557600080fd5b506101be6103643660046111d9565b610b33565b610371610ba7565b6001600160a01b031661038261065a565b6001600160a01b0316146103b15760405162461bcd60e51b81526004016103a890611711565b60405180910390fd5b6001600160a01b0381166103d75760405162461bcd60e51b81526004016103a8906117eb565b600780546001600160a01b0319166001600160a01b0383161790556040517f0143625ceac80b2452760213c6b6f5a22eb63bc46e17d129c30fffefb4679eb6906104249033908490611453565b60405180910390a150565b60066020526000908152604090205460ff1681565b60006104506002610bab565b61045b90600161189d565b82106104795760405162461bcd60e51b81526004016103a8906117b4565b506000818152600360205260409020546001600160a01b03165b919050565b6001600160a01b031660009081526004602052604090205467ffffffffffffffff1690565b6104c5610ba7565b6001600160a01b03166104d661065a565b6001600160a01b0316146104fc5760405162461bcd60e51b81526004016103a890611711565b6105066000610baf565b565b600960205260009081526040902080548190610523906118fc565b80601f016020809104026020016040519081016040528092919081815260200182805461054f906118fc565b801561059c5780601f106105715761010080835404028352916020019161059c565b820191906000526020600020905b81548152906001019060200180831161057f57829003601f168201915b5050505050908060010154908060020154908060030154908060040154905085565b6105c6610ba7565b6001600160a01b03166105d761065a565b6001600160a01b0316146105fd5760405162461bcd60e51b81526004016103a890611711565b6001600160a01b03811660009081526006602052604090205460ff16156106365760405162461bcd60e51b81526004016103a8906116da565b6001600160a01b03166000908152600660205260409020805460ff19166001179055565b6000546001600160a01b031690565b6008546001600160a01b031681565b6000806000835160411461069e5760405162461bcd60e51b81526004016103a890611811565b50505060208101516040820151606090920151909260009190911a90565b60025481565b7f000000000000000000000000000000000000000000000000000000000000000081565b600260015414156107095760405162461bcd60e51b81526004016103a890611848565b6002600155600061071a838661189d565b9050600061072a87878787610bff565b9050610737338285610c63565b60075460405163531a221160e01b81526000916001600160a01b03169063531a22119061076890869060040161187f565b60206040518083038186803b15801561078057600080fd5b505afa158015610794573d6000803e3d6000fd5b505050506040513d601f19601f820116820180604052508101906107b891906113ab565b9050803410156107da5760405162461bcd60e51b81526004016103a89061177d565b803411156107f5576107f5336107f083346118b5565b610d19565b60085461080b906001600160a01b031682610d19565b600061081a8989898933610dab565b9050807f948b502f5a059386f0abaddbadd52ec597d1e73fc4f8e25131924f2ad871b027337f0000000000000000000000000000000000000000000000000000000000000000858c8b604051610874959493929190611491565b60405180910390a250506001805550505050505050565b600260015414156108ae5760405162461bcd60e51b81526004016103a890611848565b60026001556001600160a01b038416600090815260066020526040902054849060ff166108ed5760405162461bcd60e51b81526004016103a8906115e9565b60006108f9848961189d565b905060006109098a8a8a88610bff565b9050610916868286610c63565b60075460405163a9a12d4360e01b81526000916001600160a01b03169063a9a12d4390610949908b9087906004016114c2565b602060405180830381600087803b15801561096357600080fd5b505af1158015610977573d6000803e3d6000fd5b505050506040513d601f19601f8201168201806040525081019061099b91906113ab565b6008549091506109b890899089906001600160a01b031684610e60565b60006109c78c8c8c8a8c610dab565b9050807f948b502f5a059386f0abaddbadd52ec597d1e73fc4f8e25131924f2ad871b027898b858f8c604051610a01959493929190611491565b60405180910390a250506001805550505050505050505050565b610a23610ba7565b6001600160a01b0316610a3461065a565b6001600160a01b031614610a5a5760405162461bcd60e51b81526004016103a890611711565b6001600160a01b03811660009081526006602052604090205460ff16610a925760405162461bcd60e51b81526004016103a890611746565b6001600160a01b03166000908152600660205260409020805460ff19169055565b6007546001600160a01b031681565b610aca610ba7565b6001600160a01b0316610adb61065a565b6001600160a01b031614610b015760405162461bcd60e51b81526004016103a890611711565b6001600160a01b038116610b275760405162461bcd60e51b81526004016103a8906115a3565b610b3081610baf565b50565b6001600160a01b0382166000908152600560205260408120805467ffffffffffffffff8416908110610b7557634e487b7160e01b600052603260045260246000fd5b90600052602060002090600491828204019190066008029054906101000a900467ffffffffffffffff16905092915050565b3390565b5490565b600080546001600160a01b038381166001600160a01b0319831681178455604051919092169283917f8be0079c531659141344cd1fd0a4f28419497f9722a3daafe3b4186f6b6457e09190a35050565b60008085858585604051602001610c1994939291906113df565b60405160208183030381529060405280519060200120905080604051602001610c42919061140e565b60405160208183030381529060405280519060200120915050949350505050565b6000806000610c7184610678565b925092509250600060018683868660405160008152602001604052604051610c9c94939291906114ff565b6020604051602081039080840390855afa158015610cbe573d6000803e3d6000fd5b5050604051601f1901519150506001600160a01b03811615801590610cf45750866001600160a01b0316816001600160a01b0316145b610d105760405162461bcd60e51b81526004016103a89061156c565b50505050505050565b604080516000808252602082019092526001600160a01b038416908390604051610d4391906113c3565b60006040518083038185875af1925050503d8060008114610d80576040519150601f19603f3d011682016040523d82523d6000602084013e610d85565b606091505b5050905080610da65760405162461bcd60e51b81526004016103a89061167d565b505050565b6000610db76002610bab565b6040805160a081018252888152602080820189905281830188905242606083015260808201879052600084815260098252929092208151805194955091939092610e05928492910190611087565b50602082015160018201556040820151600282015560608201516003820155608090910151600490910155610e3a8183610f65565b610e4382610f93565b610e4d8282610feb565b610e57600261107e565b95945050505050565b600080856001600160a01b03166323b872dd868686604051602401610e879392919061146d565b6040516020818303038152906040529060e01b6020820180517bffffffffffffffffffffffffffffffffffffffffffffffffffffffff8381831617835250505050604051610ed591906113c3565b6000604051808303816000865af19150503d8060008114610f12576040519150601f19603f3d011682016040523d82523d6000602084013e610f17565b606091505b5091509150818015610f41575080511580610f41575080806020019051810190610f41919061121b565b610f5d5760405162461bcd60e51b81526004016103a890611620565b505050505050565b60009182526003602052604090912080546001600160a01b0319166001600160a01b03909216919091179055565b6001600160a01b0381166000908152600460205260408120805467ffffffffffffffff1691610fc183611937565b91906101000a81548167ffffffffffffffff021916908367ffffffffffffffff1602179055505050565b6001600160a01b03821660009081526005602090815260408083208054600181018255908452919092206004820401805460039092166008026101000a67ffffffffffffffff81810219909316928516029190911790555181907fbe51e9a2a9ea8219cc8ab3194ee452fbdf2fa052f0d88d96a854c8ff2686151e9061107290859061143f565b60405180910390a25050565b80546001019055565b828054611093906118fc565b90600052602060002090601f0160209004810192826110b557600085556110fb565b82601f106110ce57805160ff19168380011785556110fb565b828001600101855582156110fb579182015b828111156110fb5782518255916020019190600101906110e0565b5061110792915061110b565b5090565b5b80821115611107576000815560010161110c565b80356001600160a01b038116811461049357600080fd5b600082601f830112611147578081fd5b813567ffffffffffffffff8082111561116257611162611975565b604051601f8301601f19168101602001828111828210171561118657611186611975565b60405282815284830160200186101561119d578384fd5b82602086016020830137918201602001929092529392505050565b6000602082840312156111c9578081fd5b6111d282611120565b9392505050565b600080604083850312156111eb578081fd5b6111f483611120565b9150602083013567ffffffffffffffff81168114611210578182fd5b809150509250929050565b60006020828403121561122c578081fd5b815180151581146111d2578182fd5b60006020828403121561124c578081fd5b813567ffffffffffffffff811115611262578182fd5b61126e84828501611137565b949350505050565b600080600080600080600060e0888a031215611290578283fd5b873567ffffffffffffffff808211156112a7578485fd5b6112b38b838c01611137565b985060208a0135975060408a013596506112cf60608b01611120565b95506112dd60808b01611120565b945060a08a0135935060c08a01359150808211156112f9578283fd5b506113068a828b01611137565b91505092959891949750929550565b600080600080600060a0868803121561132c578081fd5b853567ffffffffffffffff80821115611343578283fd5b61134f89838a01611137565b96506020880135955060408801359450606088013593506080880135915080821115611379578283fd5b5061138688828901611137565b9150509295509295909350565b6000602082840312156113a4578081fd5b5035919050565b6000602082840312156113bc578081fd5b5051919050565b600082516113d58184602087016118cc565b9190910192915050565b600085516113f1818460208a016118cc565b919091019384525060208301919091526040820152606001919050565b7f19457468657265756d205369676e6564204d6573736167653a0a3332000000008152601c810191909152603c0190565b6001600160a01b0391909116815260200190565b6001600160a01b0392831681529116602082015260400190565b6001600160a01b039384168152919092166020820152604081019190915260600190565b6001600160a01b03958616815293909416602084015260408301919091526060820152608081019190915260a00190565b6001600160a01b03929092168252602082015260400190565b901515815260200190565b928352602083019190915260ff16604082015260600190565b93845260ff9290921660208401526040830152606082015260800190565b600060a0825286518060a084015261153c8160c0850160208b016118cc565b60208301969096525060408101939093526060830191909152608082015260c0601f909201601f19160101919050565b6020808252601f908201527f506f6c6b61436f6d706172653a20494e56414c49445f5349474e415455524500604082015260600190565b60208082526026908201527f4f776e61626c653a206e6577206f776e657220697320746865207a65726f206160408201526564647265737360d01b606082015260800190565b60208082526011908201527f4e6f7420616c6c6f77656420746f6b656e000000000000000000000000000000604082015260600190565b60208082526031908201527f5472616e7366657248656c7065723a3a7472616e7366657246726f6d3a20747260408201527f616e7366657246726f6d206661696c6564000000000000000000000000000000606082015260800190565b60208082526034908201527f5472616e7366657248656c7065723a3a736166655472616e736665724554483a60408201527f20455448207472616e73666572206661696c6564000000000000000000000000606082015260800190565b60208082526011908201527f416c726561647920617661696c61626c65000000000000000000000000000000604082015260600190565b6020808252818101527f4f776e61626c653a2063616c6c6572206973206e6f7420746865206f776e6572604082015260600190565b60208082526011908201527f4e6f7420617661696c61626c6520796574000000000000000000000000000000604082015260600190565b60208082526013908201527f496e73756666696369656e7420616d6f756e7400000000000000000000000000604082015260600190565b60208082526012908201527f496e76616c69642070726f647563742049440000000000000000000000000000604082015260600190565b6020808252600c908201526b5a45524f204164647265737360a01b604082015260600190565b60208082526018908201527f696e76616c6964207369676e6174757265206c656e6774680000000000000000604082015260600190565b6020808252601f908201527f5265656e7472616e637947756172643a207265656e7472616e742063616c6c00604082015260600190565b90815260200190565b67ffffffffffffffff91909116815260200190565b600082198211156118b0576118b061195f565b500190565b6000828210156118c7576118c761195f565b500390565b60005b838110156118e75781810151838201526020016118cf565b838111156118f6576000848401525b50505050565b60028104600182168061191057607f821691505b6020821081141561193157634e487b7160e01b600052602260045260246000fd5b50919050565b600067ffffffffffffffff808316818114156119555761195561195f565b6001019392505050565b634e487b7160e01b600052601160045260246000fd5b634e487b7160e01b600052604160045260246000fdfea26469706673582212204092470fc736208938d71d3fbb8459f86a7afedc75dce785088465c0fec58da064736f6c63430008000033",
  "devdoc": {
    "kind": "dev",
    "methods": {
      "buyProductByETH(string,uint256,uint256,uint256,bytes)": {
        "details": "buyProductByETH function:"
      },
      "buyProductByToken(string,uint256,uint256,address,address,uint256,bytes)": {
        "details": "buyProductByToken function: TODO check if this should be onlyOwner or not. If it is not onlyOwner, users can call this function directly."
      },
      "owner()": {
        "details": "Returns the address of the current owner."
      },
      "renounceOwnership()": {
        "details": "Leaves the contract without owner. It will not be possible to call `onlyOwner` functions anymore. Can only be called by the current owner. NOTE: Renouncing ownership will leave the contract without an owner, thereby removing any functionality that is only available to the owner."
      },
      "transferOwnership(address)": {
        "details": "Transfers ownership of the contract to a new account (`newOwner`). Can only be called by the current owner."
      }
    },
    "version": 1
  },
  "userdoc": {
    "kind": "user",
    "methods": {},
    "version": 1
  },
  "storageLayout": {
    "storage": [
      {
        "astId": 535,
        "contract": "contracts/offchain/MSOPolka.sol:MSOPolka",
        "label": "_owner",
        "offset": 0,
        "slot": "0",
        "type": "t_address"
      },
      {
        "astId": 643,
        "contract": "contracts/offchain/MSOPolka.sol:MSOPolka",
        "label": "_status",
        "offset": 0,
        "slot": "1",
        "type": "t_uint256"
      },
      {
        "astId": 3199,
        "contract": "contracts/offchain/MSOPolka.sol:MSOPolka",
        "label": "productIds",
        "offset": 0,
        "slot": "2",
        "type": "t_struct(Counter)1510_storage"
      },
      {
        "astId": 3203,
        "contract": "contracts/offchain/MSOPolka.sol:MSOPolka",
        "label": "_ownerOf",
        "offset": 0,
        "slot": "3",
        "type": "t_mapping(t_uint256,t_address)"
      },
      {
        "astId": 3207,
        "contract": "contracts/offchain/MSOPolka.sol:MSOPolka",
        "label": "_balanceOf",
        "offset": 0,
        "slot": "4",
        "type": "t_mapping(t_address,t_uint64)"
      },
      {
        "astId": 3212,
        "contract": "contracts/offchain/MSOPolka.sol:MSOPolka",
        "label": "_productsOf",
        "offset": 0,
        "slot": "5",
        "type": "t_mapping(t_address,t_array(t_uint64)dyn_storage)"
      },
      {
        "astId": 3216,
        "contract": "contracts/offchain/MSOPolka.sol:MSOPolka",
        "label": "availableCurrencies",
        "offset": 0,
        "slot": "6",
        "type": "t_mapping(t_address,t_bool)"
      },
      {
        "astId": 3220,
        "contract": "contracts/offchain/MSOPolka.sol:MSOPolka",
        "label": "exchangeAgent",
        "offset": 0,
        "slot": "7",
        "type": "t_address"
      },
      {
        "astId": 3222,
        "contract": "contracts/offchain/MSOPolka.sol:MSOPolka",
        "label": "devWallet",
        "offset": 0,
        "slot": "8",
        "type": "t_address"
      },
      {
        "astId": 3550,
        "contract": "contracts/offchain/MSOPolka.sol:MSOPolka",
        "label": "products",
        "offset": 0,
        "slot": "9",
        "type": "t_mapping(t_uint256,t_struct(Product)3545_storage)"
      }
    ],
    "types": {
      "t_address": {
        "encoding": "inplace",
        "label": "address",
        "numberOfBytes": "20"
      },
      "t_array(t_uint64)dyn_storage": {
        "base": "t_uint64",
        "encoding": "dynamic_array",
        "label": "uint64[]",
        "numberOfBytes": "32"
      },
      "t_bool": {
        "encoding": "inplace",
        "label": "bool",
        "numberOfBytes": "1"
      },
      "t_mapping(t_address,t_array(t_uint64)dyn_storage)": {
        "encoding": "mapping",
        "key": "t_address",
        "label": "mapping(address => uint64[])",
        "numberOfBytes": "32",
        "value": "t_array(t_uint64)dyn_storage"
      },
      "t_mapping(t_address,t_bool)": {
        "encoding": "mapping",
        "key": "t_address",
        "label": "mapping(address => bool)",
        "numberOfBytes": "32",
        "value": "t_bool"
      },
      "t_mapping(t_address,t_uint64)": {
        "encoding": "mapping",
        "key": "t_address",
        "label": "mapping(address => uint64)",
        "numberOfBytes": "32",
        "value": "t_uint64"
      },
      "t_mapping(t_uint256,t_address)": {
        "encoding": "mapping",
        "key": "t_uint256",
        "label": "mapping(uint256 => address)",
        "numberOfBytes": "32",
        "value": "t_address"
      },
      "t_mapping(t_uint256,t_struct(Product)3545_storage)": {
        "encoding": "mapping",
        "key": "t_uint256",
        "label": "mapping(uint256 => struct MSOPolka.Product)",
        "numberOfBytes": "32",
        "value": "t_struct(Product)3545_storage"
      },
      "t_string_storage": {
        "encoding": "bytes",
        "label": "string",
        "numberOfBytes": "32"
      },
      "t_struct(Counter)1510_storage": {
        "encoding": "inplace",
        "label": "struct Counters.Counter",
        "members": [
          {
            "astId": 1509,
            "contract": "contracts/offchain/MSOPolka.sol:MSOPolka",
            "label": "_value",
            "offset": 0,
            "slot": "0",
            "type": "t_uint256"
          }
        ],
        "numberOfBytes": "32"
      },
      "t_struct(Product)3545_storage": {
        "encoding": "inplace",
        "label": "struct MSOPolka.Product",
        "members": [
          {
            "astId": 3536,
            "contract": "contracts/offchain/MSOPolka.sol:MSOPolka",
            "label": "productName",
            "offset": 0,
            "slot": "0",
            "type": "t_string_storage"
          },
          {
            "astId": 3538,
            "contract": "contracts/offchain/MSOPolka.sol:MSOPolka",
            "label": "priceInUSD",
            "offset": 0,
            "slot": "1",
            "type": "t_uint256"
          },
          {
            "astId": 3540,
            "contract": "contracts/offchain/MSOPolka.sol:MSOPolka",
            "label": "period",
            "offset": 0,
            "slot": "2",
            "type": "t_uint256"
          },
          {
            "astId": 3542,
            "contract": "contracts/offchain/MSOPolka.sol:MSOPolka",
            "label": "startTime",
            "offset": 0,
            "slot": "3",
            "type": "t_uint256"
          },
          {
            "astId": 3544,
            "contract": "contracts/offchain/MSOPolka.sol:MSOPolka",
            "label": "conciergePrice",
            "offset": 0,
            "slot": "4",
            "type": "t_uint256"
          }
        ],
        "numberOfBytes": "160"
      },
      "t_uint256": {
        "encoding": "inplace",
        "label": "uint256",
        "numberOfBytes": "32"
      },
      "t_uint64": {
        "encoding": "inplace",
        "label": "uint64",
        "numberOfBytes": "8"
      }
    }
  }
}