{
  "address": "0xe445Eaa1f94cc007fE6c4b2cc5c365e6Fb48E1b8",
  "abi": [
    {
      "inputs": [
        {
          "internalType": "address",
          "name": "_WETH",
          "type": "address"
        },
        {
          "internalType": "address",
          "name": "_exchangeAgent",
          "type": "address"
        },
        {
          "internalType": "address",
          "name": "_devWallet",
          "type": "address"
        },
        {
          "internalType": "address",
          "name": "_signer",
          "type": "address"
        }
      ],
      "stateMutability": "nonpayable",
      "type": "constructor"
    },
    {
      "anonymous": false,
      "inputs": [
        {
          "indexed": true,
          "internalType": "uint256",
          "name": "_productId",
          "type": "uint256"
        },
        {
          "indexed": false,
          "internalType": "address",
          "name": "_buyer",
          "type": "address"
        },
        {
          "indexed": false,
          "internalType": "address",
          "name": "_currency",
          "type": "address"
        },
        {
          "indexed": false,
          "internalType": "uint256",
          "name": "_amount",
          "type": "uint256"
        },
        {
          "indexed": false,
          "internalType": "uint256",
          "name": "_priceInUSD",
          "type": "uint256"
        }
      ],
      "name": "BuyP4L",
      "type": "event"
    },
    {
      "anonymous": false,
      "inputs": [
        {
          "indexed": true,
          "internalType": "uint256",
          "name": "_productId",
          "type": "uint256"
        },
        {
          "indexed": false,
          "internalType": "address",
          "name": "_buyer",
          "type": "address"
        }
      ],
      "name": "BuyProduct",
      "type": "event"
    },
    {
      "anonymous": false,
      "inputs": [
        {
          "indexed": false,
          "internalType": "address",
          "name": "userAddress",
          "type": "address"
        },
        {
          "indexed": false,
          "internalType": "address payable",
          "name": "relayerAddress",
          "type": "address"
        },
        {
          "indexed": false,
          "internalType": "bytes",
          "name": "functionSignature",
          "type": "bytes"
        }
      ],
      "name": "MetaTransactionExecuted",
      "type": "event"
    },
    {
      "anonymous": false,
      "inputs": [
        {
          "indexed": true,
          "internalType": "address",
          "name": "previousOwner",
          "type": "address"
        },
        {
          "indexed": true,
          "internalType": "address",
          "name": "newOwner",
          "type": "address"
        }
      ],
      "name": "OwnershipTransferred",
      "type": "event"
    },
    {
      "anonymous": false,
      "inputs": [
        {
          "indexed": false,
          "internalType": "address",
          "name": "_setter",
          "type": "address"
        },
        {
          "indexed": false,
          "internalType": "address",
          "name": "_exchangeAgent",
          "type": "address"
        }
      ],
      "name": "SetExchangeAgent",
      "type": "event"
    },
    {
      "anonymous": false,
      "inputs": [
        {
          "indexed": false,
          "internalType": "address",
          "name": "_setter",
          "type": "address"
        },
        {
          "indexed": false,
          "internalType": "address",
          "name": "_signer",
          "type": "address"
        }
      ],
      "name": "SetSigner",
      "type": "event"
    },
    {
      "inputs": [],
      "name": "WETH",
      "outputs": [
        {
          "internalType": "address",
          "name": "",
          "type": "address"
        }
      ],
      "stateMutability": "view",
      "type": "function"
    },
    {
      "inputs": [
        {
          "internalType": "address",
          "name": "_currency",
          "type": "address"
        }
      ],
      "name": "addCurrency",
      "outputs": [],
      "stateMutability": "nonpayable",
      "type": "function"
    },
    {
      "inputs": [
        {
          "internalType": "address",
          "name": "",
          "type": "address"
        }
      ],
      "name": "availableCurrencies",
      "outputs": [
        {
          "internalType": "bool",
          "name": "",
          "type": "bool"
        }
      ],
      "stateMutability": "view",
      "type": "function"
    },
    {
      "inputs": [
        {
          "internalType": "address",
          "name": "_account",
          "type": "address"
        }
      ],
      "name": "balanceOf",
      "outputs": [
        {
          "internalType": "uint64",
          "name": "",
          "type": "uint64"
        }
      ],
      "stateMutability": "view",
      "type": "function"
    },
    {
      "inputs": [
        {
          "internalType": "string",
          "name": "_policyId",
          "type": "string"
        },
        {
          "internalType": "uint256",
          "name": "_value",
          "type": "uint256"
        },
        {
          "internalType": "uint256",
          "name": "_durPlan",
          "type": "uint256"
        },
        {
          "internalType": "bytes",
          "name": "sig",
          "type": "bytes"
        }
      ],
      "name": "buyProductByETH",
      "outputs": [],
      "stateMutability": "payable",
      "type": "function"
    },
    {
      "inputs": [
        {
          "internalType": "string",
          "name": "_policyId",
          "type": "string"
        },
        {
          "internalType": "uint256",
          "name": "_value",
          "type": "uint256"
        },
        {
          "internalType": "uint256",
          "name": "_durPlan",
          "type": "uint256"
        },
        {
          "internalType": "address",
          "name": "_token",
          "type": "address"
        },
        {
          "internalType": "bytes",
          "name": "sig",
          "type": "bytes"
        }
      ],
      "name": "buyProductByToken",
      "outputs": [],
      "stateMutability": "nonpayable",
      "type": "function"
    },
    {
      "inputs": [],
      "name": "devWallet",
      "outputs": [
        {
          "internalType": "address",
          "name": "",
          "type": "address"
        }
      ],
      "stateMutability": "view",
      "type": "function"
    },
    {
      "inputs": [],
      "name": "exchangeAgent",
      "outputs": [
        {
          "internalType": "address",
          "name": "",
          "type": "address"
        }
      ],
      "stateMutability": "view",
      "type": "function"
    },
    {
      "inputs": [
        {
          "internalType": "address",
          "name": "userAddress",
          "type": "address"
        },
        {
          "internalType": "bytes",
          "name": "functionSignature",
          "type": "bytes"
        },
        {
          "internalType": "bytes32",
          "name": "sigR",
          "type": "bytes32"
        },
        {
          "internalType": "bytes32",
          "name": "sigS",
          "type": "bytes32"
        },
        {
          "internalType": "uint8",
          "name": "sigV",
          "type": "uint8"
        }
      ],
      "name": "executeMetaTransaction",
      "outputs": [
        {
          "internalType": "bytes",
          "name": "",
          "type": "bytes"
        }
      ],
      "stateMutability": "payable",
      "type": "function"
    },
    {
      "inputs": [
        {
          "internalType": "address",
          "name": "user",
          "type": "address"
        }
      ],
      "name": "getNonce",
      "outputs": [
        {
          "internalType": "uint256",
          "name": "nonce",
          "type": "uint256"
        }
      ],
      "stateMutability": "view",
      "type": "function"
    },
    {
      "inputs": [],
      "name": "owner",
      "outputs": [
        {
          "internalType": "address",
          "name": "",
          "type": "address"
        }
      ],
      "stateMutability": "view",
      "type": "function"
    },
    {
      "inputs": [
        {
          "internalType": "uint256",
          "name": "_prodId",
          "type": "uint256"
        }
      ],
      "name": "ownerOf",
      "outputs": [
        {
          "internalType": "address",
          "name": "",
          "type": "address"
        }
      ],
      "stateMutability": "view",
      "type": "function"
    },
    {
      "inputs": [],
      "name": "productIds",
      "outputs": [
        {
          "internalType": "uint256",
          "name": "_value",
          "type": "uint256"
        }
      ],
      "stateMutability": "view",
      "type": "function"
    },
    {
      "inputs": [
        {
          "internalType": "address",
          "name": "_owner",
          "type": "address"
        },
        {
          "internalType": "uint64",
          "name": "_idx",
          "type": "uint64"
        }
      ],
      "name": "productOf",
      "outputs": [
        {
          "internalType": "uint64",
          "name": "",
          "type": "uint64"
        }
      ],
      "stateMutability": "view",
      "type": "function"
    },
    {
      "inputs": [
        {
          "internalType": "uint256",
          "name": "",
          "type": "uint256"
        }
      ],
      "name": "products",
      "outputs": [
        {
          "internalType": "uint256",
          "name": "startTime",
          "type": "uint256"
        },
        {
          "internalType": "uint128",
          "name": "priceInUSD",
          "type": "uint128"
        },
        {
          "internalType": "uint128",
          "name": "durPlan",
          "type": "uint128"
        },
        {
          "internalType": "string",
          "name": "policyId",
          "type": "string"
        }
      ],
      "stateMutability": "view",
      "type": "function"
    },
    {
      "inputs": [
        {
          "internalType": "address",
          "name": "_currency",
          "type": "address"
        }
      ],
      "name": "removeCurrency",
      "outputs": [],
      "stateMutability": "nonpayable",
      "type": "function"
    },
    {
      "inputs": [],
      "name": "renounceOwnership",
      "outputs": [],
      "stateMutability": "nonpayable",
      "type": "function"
    },
    {
      "inputs": [
        {
          "internalType": "address",
          "name": "_exchangeAgent",
          "type": "address"
        }
      ],
      "name": "setExchangeAgent",
      "outputs": [],
      "stateMutability": "nonpayable",
      "type": "function"
    },
    {
      "inputs": [
        {
          "internalType": "address",
          "name": "_signer",
          "type": "address"
        }
      ],
      "name": "setSigner",
      "outputs": [],
      "stateMutability": "nonpayable",
      "type": "function"
    },
    {
      "inputs": [],
      "name": "signer",
      "outputs": [
        {
          "internalType": "address",
          "name": "",
          "type": "address"
        }
      ],
      "stateMutability": "view",
      "type": "function"
    },
    {
      "inputs": [
        {
          "internalType": "bytes",
          "name": "sig",
          "type": "bytes"
        }
      ],
      "name": "splitSignature",
      "outputs": [
        {
          "internalType": "bytes32",
          "name": "r",
          "type": "bytes32"
        },
        {
          "internalType": "bytes32",
          "name": "s",
          "type": "bytes32"
        },
        {
          "internalType": "uint8",
          "name": "v",
          "type": "uint8"
        }
      ],
      "stateMutability": "pure",
      "type": "function"
    },
    {
      "inputs": [
        {
          "internalType": "address",
          "name": "newOwner",
          "type": "address"
        }
      ],
      "name": "transferOwnership",
      "outputs": [],
      "stateMutability": "nonpayable",
      "type": "function"
    },
    {
      "inputs": [
        {
          "internalType": "address",
          "name": "owner",
          "type": "address"
        },
        {
          "internalType": "uint256",
          "name": "nonce",
          "type": "uint256"
        },
        {
          "internalType": "uint256",
          "name": "chainID",
          "type": "uint256"
        },
        {
          "internalType": "bytes",
          "name": "functionSignature",
          "type": "bytes"
        },
        {
          "internalType": "bytes32",
          "name": "sigR",
          "type": "bytes32"
        },
        {
          "internalType": "bytes32",
          "name": "sigS",
          "type": "bytes32"
        },
        {
          "internalType": "uint8",
          "name": "sigV",
          "type": "uint8"
        }
      ],
      "name": "verify",
      "outputs": [
        {
          "internalType": "bool",
          "name": "",
          "type": "bool"
        }
      ],
      "stateMutability": "view",
      "type": "function"
    },
    {
      "stateMutability": "payable",
      "type": "receive"
    }
  ],
  "transactionHash": "0x4888931a84ba5c5aa5efc7f9ad80b133483f37d818382f984f102e17cde00da5",
  "args": [
    "0xc778417e063141139fce010982780140aa0cd5ab",
    "0x5640B69a5e1375a95e610052c5eedfea17675996",
    "0x6C641CE6A7216F12d28692f9d8b2BDcdE812eD2b",
    "0x356C9B814a5D3508ab76834D0eF67e6A171d3740"
  ],
  "solcInputHash": "72e708df0775b21f517637d69b302982",
  "bytecode": "0x60a06040523480156200001157600080fd5b50604051620022ba380380620022ba83398101604081905262000034916200010e565b83838383600062000044620000ed565b600080546001600160a01b0319166001600160a01b0383169081178255604051929350917f8be0079c531659141344cd1fd0a4f28419497f9722a3daafe3b4186f6b6457e0908290a3506001805560609390931b6001600160601b031916608052600880546001600160a01b03199081166001600160a01b039485161790915560098054821692841692909217909155600a805490911691909216179055506200016a92505050565b3390565b80516001600160a01b03811681146200010957600080fd5b919050565b6000806000806080858703121562000124578384fd5b6200012f85620000f1565b93506200013f60208601620000f1565b92506200014f60408601620000f1565b91506200015f60608601620000f1565b905092959194509250565b60805160601c61212a6200019060003960008181610ca90152610eda015261212a6000f3fe6080604052600436106101745760003560e01c80638ab234b6116100d6578063ad5c46481161007f578063dbab5f8811610059578063dbab5f8814610411578063f2fde38b14610424578063f4796287146104445761017b565b8063ad5c4648146103c7578063c5d3a107146103dc578063d9203b91146103fc5761017b565b8063a0f16fad116100b0578063a0f16fad14610363578063a7bb580314610383578063aa57511d146103b25761017b565b80638ab234b6146103195780638da5cb5b146103395780638ea5220f1461034e5761017b565b80636281133d1161013857806370a082311161011257806370a08231146102a7578063715018a6146102d45780637acc0b20146102e95761017b565b80636281133d146102475780636352211e146102675780636c19e783146102875761017b565b80630c53c51c1461018057806318a00d8e146101a95780631af42c0f146101cb578063238ac933146101f85780632d0335ab1461021a5761017b565b3661017b57005b600080fd5b61019361018e3660046116f7565b610464565b6040516101a09190611bd0565b60405180910390f35b3480156101b557600080fd5b506101c96101c43660046116d6565b6105c1565b005b3480156101d757600080fd5b506101eb6101e63660046116d6565b610684565b6040516101a09190611b8e565b34801561020457600080fd5b5061020d610699565b6040516101a09190611ac5565b34801561022657600080fd5b5061023a6102353660046116d6565b6106a8565b6040516101a09190611fa3565b34801561025357600080fd5b506101eb610262366004611767565b6106c3565b34801561027357600080fd5b5061020d610282366004611978565b610793565b34801561029357600080fd5b506101c96102a23660046116d6565b6107e7565b3480156102b357600080fd5b506102c76102c23660046116d6565b610890565b6040516101a09190611ff1565b3480156102e057600080fd5b506101c96108b5565b3480156102f557600080fd5b50610309610304366004611978565b61093e565b6040516101a09493929190611fac565b34801561032557600080fd5b506101c96103343660046116d6565b610a09565b34801561034557600080fd5b5061020d610aa5565b34801561035a57600080fd5b5061020d610ab5565b34801561036f57600080fd5b506101c961037e36600461187f565b610ac4565b34801561038f57600080fd5b506103a361039e36600461184c565b610c5d565b6040516101a093929190611b99565b3480156103be57600080fd5b5061023a610ca1565b3480156103d357600080fd5b5061020d610ca7565b3480156103e857600080fd5b506101c96103f73660046116d6565b610ccb565b34801561040857600080fd5b5061020d610d63565b6101c961041f366004611904565b610d72565b34801561043057600080fd5b506101c961043f3660046116d6565b610f20565b34801561045057600080fd5b506102c761045f3660046117ea565b610fe0565b6001600160a01b03851660009081526002602052604090205460609061049090879046888888886106c3565b6104b55760405162461bcd60e51b81526004016104ac90611e60565b60405180910390fd5b6001600160a01b03861660009081526002602052604081208054600192906104de908490612006565b9091555050604051600090819030906104fd9089908b906020016119f0565b60408051601f1981840301815290829052610517916119d4565b6000604051808303816000865af19150503d8060008114610554576040519150601f19603f3d011682016040523d82523d6000602084013e610559565b606091505b50915091508161057b5760405162461bcd60e51b81526004016104ac90611c5e565b7f5845892132946850460bff5a0083f71031bc5bf9aadcd40f1de79423eac9b10b8833896040516105ae93929190611af3565b60405180910390a1979650505050505050565b6105c9611054565b6001600160a01b03166105da610aa5565b6001600160a01b0316146106005760405162461bcd60e51b81526004016104ac90611df4565b6001600160a01b0381166106265760405162461bcd60e51b81526004016104ac90611f0f565b600880546001600160a01b0319166001600160a01b0383161790557f0143625ceac80b2452760213c6b6f5a22eb63bc46e17d129c30fffefb4679eb661066a611058565b82604051610679929190611ad9565b60405180910390a150565b60076020526000908152604090205460ff1681565b600a546001600160a01b031681565b6001600160a01b031660009081526002602052604090205490565b6000806106fb883089896040516020016106e09493929190611a7f565b604051602081830303815290604052805190602001206110b6565b90506000600182858888604051600081526020016040526040516107229493929190611bb2565b6020604051602081039080840390855afa158015610744573d6000803e3d6000fd5b5050604051601f1901519150506001600160a01b0381166107775760405162461bcd60e51b81526004016104ac90611d86565b6001600160a01b038a8116911614915050979650505050505050565b600061079f60036110e6565b6107aa906001612006565b82106107c85760405162461bcd60e51b81526004016104ac90611ed8565b506000818152600460205260409020546001600160a01b03165b919050565b6107ef611054565b6001600160a01b0316610800610aa5565b6001600160a01b0316146108265760405162461bcd60e51b81526004016104ac90611df4565b6001600160a01b03811661084c5760405162461bcd60e51b81526004016104ac90611f0f565b600a80546001600160a01b0319166001600160a01b0383161790557f3271c8694494a7cc76cd185c743e9ee6b515a043ea98c0db7f5ca112f694add461066a611058565b6001600160a01b031660009081526005602052604090205467ffffffffffffffff1690565b6108bd611054565b6001600160a01b03166108ce610aa5565b6001600160a01b0316146108f45760405162461bcd60e51b81526004016104ac90611df4565b600080546040516001600160a01b03909116907f8be0079c531659141344cd1fd0a4f28419497f9722a3daafe3b4186f6b6457e0908390a3600080546001600160a01b0319169055565b600b6020526000908152604090208054600182015460028301805492936fffffffffffffffffffffffffffffffff80841694600160801b909404169290919061098690612065565b80601f01602080910402602001604051908101604052809291908181526020018280546109b290612065565b80156109ff5780601f106109d4576101008083540402835291602001916109ff565b820191906000526020600020905b8154815290600101906020018083116109e257829003601f168201915b5050505050905084565b610a11611054565b6001600160a01b0316610a22610aa5565b6001600160a01b031614610a485760405162461bcd60e51b81526004016104ac90611df4565b6001600160a01b03811660009081526007602052604090205460ff1615610a815760405162461bcd60e51b81526004016104ac90611dbd565b6001600160a01b03166000908152600760205260409020805460ff19166001179055565b6000546001600160a01b03165b90565b6009546001600160a01b031681565b60026001541415610ae75760405162461bcd60e51b81526004016104ac90611f6c565b60026001556001600160a01b038216600090815260076020526040902054829060ff16610b265760405162461bcd60e51b81526004016104ac90611c95565b6000610b338787876110ea565b600a54909150610b4d906001600160a01b0316828561114b565b60085460405163a9a12d4360e01b81526000916001600160a01b03169063a9a12d4390610b809088908b90600401611b75565b602060405180830381600087803b158015610b9a57600080fd5b505af1158015610bae573d6000803e3d6000fd5b505050506040513d601f19601f82011682018060405250810190610bd29190611990565b9050610bf285610be0611058565b6009546001600160a01b031684611201565b6000610c0788888b610c02611058565b611306565b9050807f39d12e8951d830ef8836319a4450cf10c520dfcbea8db9ed98011efdfa1389a7610c33611058565b88858c604051610c469493929190611b4c565b60405180910390a250506001805550505050505050565b60008060008351604114610c835760405162461bcd60e51b81526004016104ac90611f35565b50505060208101516040820151606090920151909260009190911a90565b60035481565b7f000000000000000000000000000000000000000000000000000000000000000081565b610cd3611054565b6001600160a01b0316610ce4610aa5565b6001600160a01b031614610d0a5760405162461bcd60e51b81526004016104ac90611df4565b6001600160a01b03811660009081526007602052604090205460ff16610d425760405162461bcd60e51b81526004016104ac90611e29565b6001600160a01b03166000908152600760205260409020805460ff19169055565b6008546001600160a01b031681565b60026001541415610d955760405162461bcd60e51b81526004016104ac90611f6c565b60026001556000610da78585856110ea565b600a54909150610dc1906001600160a01b0316828461114b565b60085460405163531a221160e01b81526000916001600160a01b03169063531a221190610df2908890600401611fa3565b60206040518083038186803b158015610e0a57600080fd5b505afa158015610e1e573d6000803e3d6000fd5b505050506040513d601f19601f82011682018060405250810190610e429190611990565b905080341015610e645760405162461bcd60e51b81526004016104ac90611ea1565b80341115610e8657610e86610e77611058565b610e81833461201e565b6113e0565b600954610e9c906001600160a01b0316826113e0565b6000610eac868689610c02611058565b9050807f39d12e8951d830ef8836319a4450cf10c520dfcbea8db9ed98011efdfa1389a7610ed8611058565b7f0000000000000000000000000000000000000000000000000000000000000000858a604051610f0b9493929190611b4c565b60405180910390a25050600180555050505050565b610f28611054565b6001600160a01b0316610f39610aa5565b6001600160a01b031614610f5f5760405162461bcd60e51b81526004016104ac90611df4565b6001600160a01b038116610f855760405162461bcd60e51b81526004016104ac90611c18565b600080546040516001600160a01b03808516939216917f8be0079c531659141344cd1fd0a4f28419497f9722a3daafe3b4186f6b6457e091a3600080546001600160a01b0319166001600160a01b0392909216919091179055565b6001600160a01b0382166000908152600660205260408120805467ffffffffffffffff841690811061102257634e487b7160e01b600052603260045260246000fd5b90600052602060002090600491828204019190066008029054906101000a900467ffffffffffffffff16905092915050565b3390565b6000333014156110af57600080368080601f0160208091040260200160405190810160405280939291908181526020018383808284376000920191909152505050503601516001600160a01b03169150610ab29050565b5033610ab2565b6000816040516020016110c99190611a4e565b604051602081830303815290604052805190602001209050919050565b5490565b60008084848460405160200161110293929190611a27565b6040516020818303038152906040528051906020012090508060405160200161112b9190611a4e565b604051602081830303815290604052805190602001209150509392505050565b600080600061115984610c5d565b9250925092506000600186838686604051600081526020016040526040516111849493929190611bb2565b6020604051602081039080840390855afa1580156111a6573d6000803e3d6000fd5b5050604051601f1901519150506001600160a01b038116158015906111dc5750866001600160a01b0316816001600160a01b0316145b6111f85760405162461bcd60e51b81526004016104ac90611be3565b50505050505050565b600080856001600160a01b03166323b872dd86868660405160240161122893929190611b28565b6040516020818303038152906040529060e01b6020820180517bffffffffffffffffffffffffffffffffffffffffffffffffffffffff838183161783525050505060405161127691906119d4565b6000604051808303816000865af19150503d80600081146112b3576040519150601f19603f3d011682016040523d82523d6000602084013e6112b8565b606091505b50915091508180156112e25750805115806112e25750808060200190518101906112e2919061182c565b6112fe5760405162461bcd60e51b81526004016104ac90611ccc565b505050505050565b600061131260036110e6565b604080516080810182524281526fffffffffffffffffffffffffffffffff8089166020808401918252898316848601908152606085018a81526000888152600b84529690962085518155925160018401805492518616600160801b029186166fffffffffffffffffffffffffffffffff1990931692909217909416939093179092559251805194955091936113ad9260028501920190611594565b509050506113bb8183611472565b6113c4826114a0565b6113ce82826114f8565b6113d8600361158b565b949350505050565b604080516000808252602082019092526001600160a01b03841690839060405161140a91906119d4565b60006040518083038185875af1925050503d8060008114611447576040519150601f19603f3d011682016040523d82523d6000602084013e61144c565b606091505b505090508061146d5760405162461bcd60e51b81526004016104ac90611d29565b505050565b60009182526004602052604090912080546001600160a01b0319166001600160a01b03909216919091179055565b6001600160a01b0381166000908152600560205260408120805467ffffffffffffffff16916114ce836120a0565b91906101000a81548167ffffffffffffffff021916908367ffffffffffffffff1602179055505050565b6001600160a01b03821660009081526006602090815260408083208054600181018255908452919092206004820401805460039092166008026101000a67ffffffffffffffff81810219909316928516029190911790555181907fbe51e9a2a9ea8219cc8ab3194ee452fbdf2fa052f0d88d96a854c8ff2686151e9061157f908590611ac5565b60405180910390a25050565b80546001019055565b8280546115a090612065565b90600052602060002090601f0160209004810192826115c25760008555611608565b82601f106115db57805160ff1916838001178555611608565b82800160010185558215611608579182015b828111156116085782518255916020019190600101906115ed565b50611614929150611618565b5090565b5b808211156116145760008155600101611619565b80356001600160a01b03811681146107e257600080fd5b600082601f830112611654578081fd5b813567ffffffffffffffff8082111561166f5761166f6120de565b604051601f8301601f191681016020018281118282101715611693576116936120de565b6040528281528483016020018610156116aa578384fd5b82602086016020830137918201602001929092529392505050565b803560ff811681146107e257600080fd5b6000602082840312156116e7578081fd5b6116f08261162d565b9392505050565b600080600080600060a0868803121561170e578081fd5b6117178661162d565b9450602086013567ffffffffffffffff811115611732578182fd5b61173e88828901611644565b945050604086013592506060860135915061175b608087016116c5565b90509295509295909350565b600080600080600080600060e0888a031215611781578182fd5b61178a8861162d565b96506020880135955060408801359450606088013567ffffffffffffffff8111156117b3578283fd5b6117bf8a828b01611644565b9450506080880135925060a088013591506117dc60c089016116c5565b905092959891949750929550565b600080604083850312156117fc578182fd5b6118058361162d565b9150602083013567ffffffffffffffff81168114611821578182fd5b809150509250929050565b60006020828403121561183d578081fd5b815180151581146116f0578182fd5b60006020828403121561185d578081fd5b813567ffffffffffffffff811115611873578182fd5b6113d884828501611644565b600080600080600060a08688031215611896578081fd5b853567ffffffffffffffff808211156118ad578283fd5b6118b989838a01611644565b965060208801359550604088013594506118d56060890161162d565b935060808801359150808211156118ea578283fd5b506118f788828901611644565b9150509295509295909350565b60008060008060808587031215611919578384fd5b843567ffffffffffffffff80821115611930578586fd5b61193c88838901611644565b95506020870135945060408701359350606087013591508082111561195f578283fd5b5061196c87828801611644565b91505092959194509250565b600060208284031215611989578081fd5b5035919050565b6000602082840312156119a1578081fd5b5051919050565b600081518084526119c0816020860160208601612035565b601f01601f19169290920160200192915050565b600082516119e6818460208701612035565b9190910192915050565b60008351611a02818460208801612035565b60609390931b6bffffffffffffffffffffffff19169190920190815260140192915050565b60008451611a39818460208901612035565b91909101928352506020820152604001919050565b7f19457468657265756d205369676e6564204d6573736167653a0a3332000000008152601c810191909152603c0190565b60008582526bffffffffffffffffffffffff198560601b1660208301528360348301528251611ab5816054850160208701612035565b9190910160540195945050505050565b6001600160a01b0391909116815260200190565b6001600160a01b0392831681529116602082015260400190565b60006001600160a01b03808616835280851660208401525060606040830152611b1f60608301846119a8565b95945050505050565b6001600160a01b039384168152919092166020820152604081019190915260600190565b6001600160a01b0394851681529290931660208301526040820152606081019190915260800190565b6001600160a01b03929092168252602082015260400190565b901515815260200190565b928352602083019190915260ff16604082015260600190565b93845260ff9290921660208401526040830152606082015260800190565b6000602082526116f060208301846119a8565b6020808252818101527f436f766572436f6d70617265643a20494e56414c49445f5349474e4154555245604082015260600190565b60208082526026908201527f4f776e61626c653a206e6577206f776e657220697320746865207a65726f206160408201526564647265737360d01b606082015260800190565b6020808252601c908201527f46756e6374696f6e2063616c6c206e6f74207375636365737366756c00000000604082015260600190565b60208082526011908201527f4e6f7420616c6c6f77656420746f6b656e000000000000000000000000000000604082015260600190565b60208082526031908201527f5472616e7366657248656c7065723a3a7472616e7366657246726f6d3a20747260408201527f616e7366657246726f6d206661696c6564000000000000000000000000000000606082015260800190565b60208082526034908201527f5472616e7366657248656c7065723a3a736166655472616e736665724554483a60408201527f20455448207472616e73666572206661696c6564000000000000000000000000606082015260800190565b60208082526011908201527f496e76616c6964207369676e6174757265000000000000000000000000000000604082015260600190565b60208082526011908201527f416c726561647920617661696c61626c65000000000000000000000000000000604082015260600190565b6020808252818101527f4f776e61626c653a2063616c6c6572206973206e6f7420746865206f776e6572604082015260600190565b60208082526011908201527f4e6f7420617661696c61626c6520796574000000000000000000000000000000604082015260600190565b60208082526021908201527f5369676e657220616e64207369676e617475726520646f206e6f74206d6174636040820152600d60fb1b606082015260800190565b60208082526013908201527f496e73756666696369656e7420616d6f756e7400000000000000000000000000604082015260600190565b60208082526012908201527f496e76616c69642070726f647563742049440000000000000000000000000000604082015260600190565b6020808252600c908201526b5a45524f204164647265737360a01b604082015260600190565b60208082526018908201527f696e76616c6964207369676e6174757265206c656e6774680000000000000000604082015260600190565b6020808252601f908201527f5265656e7472616e637947756172643a207265656e7472616e742063616c6c00604082015260600190565b90815260200190565b60008582526fffffffffffffffffffffffffffffffff808616602084015280851660408401525060806060830152611fe760808301846119a8565b9695505050505050565b67ffffffffffffffff91909116815260200190565b60008219821115612019576120196120c8565b500190565b600082821015612030576120306120c8565b500390565b60005b83811015612050578181015183820152602001612038565b8381111561205f576000848401525b50505050565b60028104600182168061207957607f821691505b6020821081141561209a57634e487b7160e01b600052602260045260246000fd5b50919050565b600067ffffffffffffffff808316818114156120be576120be6120c8565b6001019392505050565b634e487b7160e01b600052601160045260246000fd5b634e487b7160e01b600052604160045260246000fdfea2646970667358221220e903a88ae1fce1eb5a909438922428f96933770e64c84ecddb5d146048deae0964736f6c63430008000033",
  "devdoc": {
    "kind": "dev",
    "methods": {
      "buyProductByETH(string,uint256,uint256,bytes)": {
        "details": "buyProductETH function: this function should be called from user directly"
      },
      "buyProductByToken(string,uint256,uint256,address,bytes)": {
        "details": "buyProductByToken: Users can buy products using ERC20 tokens such as CVR and without gas fee"
      },
      "executeMetaTransaction(address,bytes,bytes32,bytes32,uint8)": {
        "params": {
          "functionSignature": "Signature of the actual function to be called via meta transaction",
          "sigR": "R part of the signature",
          "sigS": "S part of the signature",
          "sigV": "V part of the signature",
          "userAddress": "Address of user trying to do meta transaction"
        }
      },
      "owner()": {
        "details": "Returns the address of the current owner."
      },
      "renounceOwnership()": {
        "details": "Leaves the contract without owner. It will not be possible to call `onlyOwner` functions anymore. Can only be called by the current owner. NOTE: Renouncing ownership will leave the contract without an owner, thereby removing any functionality that is only available to the owner."
      },
      "transferOwnership(address)": {
        "details": "Transfers ownership of the contract to a new account (`newOwner`). Can only be called by the current owner."
      }
    },
    "version": 1
  },
  "userdoc": {
    "kind": "user",
    "methods": {
      "executeMetaTransaction(address,bytes,bytes32,bytes32,uint8)": {
        "notice": "Main function to be called when user wants to execute meta transaction. The actual function to be called should be passed as param with name functionSignature Here the basic signature recovery is being used. Signature is expected to be generated using personal_sign method."
      }
    },
    "version": 1
  },
  "storageLayout": {
    "storage": [
      {
        "astId": 534,
        "contract": "contracts/offchain/P4LCover.sol:P4LCover",
        "label": "_owner",
        "offset": 0,
        "slot": "0",
        "type": "t_address"
      },
      {
        "astId": 647,
        "contract": "contracts/offchain/P4LCover.sol:P4LCover",
        "label": "_status",
        "offset": 0,
        "slot": "1",
        "type": "t_uint256"
      },
      {
        "astId": 2543,
        "contract": "contracts/offchain/P4LCover.sol:P4LCover",
        "label": "nonces",
        "offset": 0,
        "slot": "2",
        "type": "t_mapping(t_address,t_uint256)"
      },
      {
        "astId": 3504,
        "contract": "contracts/offchain/P4LCover.sol:P4LCover",
        "label": "productIds",
        "offset": 0,
        "slot": "3",
        "type": "t_struct(Counter)1476_storage"
      },
      {
        "astId": 3508,
        "contract": "contracts/offchain/P4LCover.sol:P4LCover",
        "label": "_ownerOf",
        "offset": 0,
        "slot": "4",
        "type": "t_mapping(t_uint256,t_address)"
      },
      {
        "astId": 3512,
        "contract": "contracts/offchain/P4LCover.sol:P4LCover",
        "label": "_balanceOf",
        "offset": 0,
        "slot": "5",
        "type": "t_mapping(t_address,t_uint64)"
      },
      {
        "astId": 3517,
        "contract": "contracts/offchain/P4LCover.sol:P4LCover",
        "label": "_productsOf",
        "offset": 0,
        "slot": "6",
        "type": "t_mapping(t_address,t_array(t_uint64)dyn_storage)"
      },
      {
        "astId": 3521,
        "contract": "contracts/offchain/P4LCover.sol:P4LCover",
        "label": "availableCurrencies",
        "offset": 0,
        "slot": "7",
        "type": "t_mapping(t_address,t_bool)"
      },
      {
        "astId": 3525,
        "contract": "contracts/offchain/P4LCover.sol:P4LCover",
        "label": "exchangeAgent",
        "offset": 0,
        "slot": "8",
        "type": "t_address"
      },
      {
        "astId": 3527,
        "contract": "contracts/offchain/P4LCover.sol:P4LCover",
        "label": "devWallet",
        "offset": 0,
        "slot": "9",
        "type": "t_address"
      },
      {
        "astId": 3529,
        "contract": "contracts/offchain/P4LCover.sol:P4LCover",
        "label": "signer",
        "offset": 0,
        "slot": "10",
        "type": "t_address"
      },
      {
        "astId": 4221,
        "contract": "contracts/offchain/P4LCover.sol:P4LCover",
        "label": "products",
        "offset": 0,
        "slot": "11",
        "type": "t_mapping(t_uint256,t_struct(Product)4216_storage)"
      }
    ],
    "types": {
      "t_address": {
        "encoding": "inplace",
        "label": "address",
        "numberOfBytes": "20"
      },
      "t_array(t_uint64)dyn_storage": {
        "base": "t_uint64",
        "encoding": "dynamic_array",
        "label": "uint64[]",
        "numberOfBytes": "32"
      },
      "t_bool": {
        "encoding": "inplace",
        "label": "bool",
        "numberOfBytes": "1"
      },
      "t_mapping(t_address,t_array(t_uint64)dyn_storage)": {
        "encoding": "mapping",
        "key": "t_address",
        "label": "mapping(address => uint64[])",
        "numberOfBytes": "32",
        "value": "t_array(t_uint64)dyn_storage"
      },
      "t_mapping(t_address,t_bool)": {
        "encoding": "mapping",
        "key": "t_address",
        "label": "mapping(address => bool)",
        "numberOfBytes": "32",
        "value": "t_bool"
      },
      "t_mapping(t_address,t_uint256)": {
        "encoding": "mapping",
        "key": "t_address",
        "label": "mapping(address => uint256)",
        "numberOfBytes": "32",
        "value": "t_uint256"
      },
      "t_mapping(t_address,t_uint64)": {
        "encoding": "mapping",
        "key": "t_address",
        "label": "mapping(address => uint64)",
        "numberOfBytes": "32",
        "value": "t_uint64"
      },
      "t_mapping(t_uint256,t_address)": {
        "encoding": "mapping",
        "key": "t_uint256",
        "label": "mapping(uint256 => address)",
        "numberOfBytes": "32",
        "value": "t_address"
      },
      "t_mapping(t_uint256,t_struct(Product)4216_storage)": {
        "encoding": "mapping",
        "key": "t_uint256",
        "label": "mapping(uint256 => struct P4LCover.Product)",
        "numberOfBytes": "32",
        "value": "t_struct(Product)4216_storage"
      },
      "t_string_storage": {
        "encoding": "bytes",
        "label": "string",
        "numberOfBytes": "32"
      },
      "t_struct(Counter)1476_storage": {
        "encoding": "inplace",
        "label": "struct Counters.Counter",
        "members": [
          {
            "astId": 1475,
            "contract": "contracts/offchain/P4LCover.sol:P4LCover",
            "label": "_value",
            "offset": 0,
            "slot": "0",
            "type": "t_uint256"
          }
        ],
        "numberOfBytes": "32"
      },
      "t_struct(Product)4216_storage": {
        "encoding": "inplace",
        "label": "struct P4LCover.Product",
        "members": [
          {
            "astId": 4209,
            "contract": "contracts/offchain/P4LCover.sol:P4LCover",
            "label": "startTime",
            "offset": 0,
            "slot": "0",
            "type": "t_uint256"
          },
          {
            "astId": 4211,
            "contract": "contracts/offchain/P4LCover.sol:P4LCover",
            "label": "priceInUSD",
            "offset": 0,
            "slot": "1",
            "type": "t_uint128"
          },
          {
            "astId": 4213,
            "contract": "contracts/offchain/P4LCover.sol:P4LCover",
            "label": "durPlan",
            "offset": 16,
            "slot": "1",
            "type": "t_uint128"
          },
          {
            "astId": 4215,
            "contract": "contracts/offchain/P4LCover.sol:P4LCover",
            "label": "policyId",
            "offset": 0,
            "slot": "2",
            "type": "t_string_storage"
          }
        ],
        "numberOfBytes": "96"
      },
      "t_uint128": {
        "encoding": "inplace",
        "label": "uint128",
        "numberOfBytes": "16"
      },
      "t_uint256": {
        "encoding": "inplace",
        "label": "uint256",
        "numberOfBytes": "32"
      },
      "t_uint64": {
        "encoding": "inplace",
        "label": "uint64",
        "numberOfBytes": "8"
      }
    }
  }
}