{
  "address": "0x0840c02d0D1e4Af90913daAF22AC27Caf7bA2080",
  "abi": [
    {
      "inputs": [
        {
          "internalType": "address",
          "name": "_WETH",
          "type": "address"
        },
        {
          "internalType": "address",
          "name": "_exchangeAgent",
          "type": "address"
        },
        {
          "internalType": "address",
          "name": "_devWallet",
          "type": "address"
        }
      ],
      "stateMutability": "nonpayable",
      "type": "constructor"
    },
    {
      "anonymous": false,
      "inputs": [
        {
          "indexed": true,
          "internalType": "uint256",
          "name": "_productId",
          "type": "uint256"
        },
        {
          "indexed": false,
          "internalType": "address",
          "name": "_buyer",
          "type": "address"
        },
        {
          "indexed": false,
          "internalType": "address",
          "name": "_currency",
          "type": "address"
        },
        {
          "indexed": false,
          "internalType": "uint256",
          "name": "_amount",
          "type": "uint256"
        },
        {
          "indexed": false,
          "internalType": "uint256",
          "name": "_priceInUSD",
          "type": "uint256"
        }
      ],
      "name": "BuyP4L",
      "type": "event"
    },
    {
      "anonymous": false,
      "inputs": [
        {
          "indexed": true,
          "internalType": "uint256",
          "name": "_productId",
          "type": "uint256"
        },
        {
          "indexed": false,
          "internalType": "address",
          "name": "_buyer",
          "type": "address"
        }
      ],
      "name": "BuyProduct",
      "type": "event"
    },
    {
      "anonymous": false,
      "inputs": [
        {
          "indexed": true,
          "internalType": "address",
          "name": "previousOwner",
          "type": "address"
        },
        {
          "indexed": true,
          "internalType": "address",
          "name": "newOwner",
          "type": "address"
        }
      ],
      "name": "OwnershipTransferred",
      "type": "event"
    },
    {
      "anonymous": false,
      "inputs": [
        {
          "indexed": false,
          "internalType": "address",
          "name": "_setter",
          "type": "address"
        },
        {
          "indexed": false,
          "internalType": "address",
          "name": "_exchangeAgent",
          "type": "address"
        }
      ],
      "name": "SetExchangeAgent",
      "type": "event"
    },
    {
      "inputs": [],
      "name": "WETH",
      "outputs": [
        {
          "internalType": "address",
          "name": "",
          "type": "address"
        }
      ],
      "stateMutability": "view",
      "type": "function"
    },
    {
      "inputs": [
        {
          "internalType": "address",
          "name": "_currency",
          "type": "address"
        }
      ],
      "name": "addCurrency",
      "outputs": [],
      "stateMutability": "nonpayable",
      "type": "function"
    },
    {
      "inputs": [
        {
          "internalType": "address",
          "name": "",
          "type": "address"
        }
      ],
      "name": "availableCurrencies",
      "outputs": [
        {
          "internalType": "bool",
          "name": "",
          "type": "bool"
        }
      ],
      "stateMutability": "view",
      "type": "function"
    },
    {
      "inputs": [
        {
          "internalType": "address",
          "name": "_account",
          "type": "address"
        }
      ],
      "name": "balanceOf",
      "outputs": [
        {
          "internalType": "uint64",
          "name": "",
          "type": "uint64"
        }
      ],
      "stateMutability": "view",
      "type": "function"
    },
    {
      "inputs": [
        {
          "internalType": "string",
          "name": "_policyId",
          "type": "string"
        },
        {
          "internalType": "uint256",
          "name": "_value",
          "type": "uint256"
        },
        {
          "internalType": "uint256",
          "name": "_durPlan",
          "type": "uint256"
        },
        {
          "internalType": "bytes",
          "name": "sig",
          "type": "bytes"
        }
      ],
      "name": "buyProductByETH",
      "outputs": [],
      "stateMutability": "payable",
      "type": "function"
    },
    {
      "inputs": [
        {
          "internalType": "string",
          "name": "_policyId",
          "type": "string"
        },
        {
          "internalType": "uint256",
          "name": "_value",
          "type": "uint256"
        },
        {
          "internalType": "uint256",
          "name": "_durPlan",
          "type": "uint256"
        },
        {
          "internalType": "address",
          "name": "_token",
          "type": "address"
        },
        {
          "internalType": "bytes",
          "name": "sig",
          "type": "bytes"
        }
      ],
      "name": "buyProductByToken",
      "outputs": [],
      "stateMutability": "nonpayable",
      "type": "function"
    },
    {
      "inputs": [],
      "name": "devWallet",
      "outputs": [
        {
          "internalType": "address",
          "name": "",
          "type": "address"
        }
      ],
      "stateMutability": "view",
      "type": "function"
    },
    {
      "inputs": [],
      "name": "exchangeAgent",
      "outputs": [
        {
          "internalType": "address",
          "name": "",
          "type": "address"
        }
      ],
      "stateMutability": "view",
      "type": "function"
    },
    {
      "inputs": [],
      "name": "owner",
      "outputs": [
        {
          "internalType": "address",
          "name": "",
          "type": "address"
        }
      ],
      "stateMutability": "view",
      "type": "function"
    },
    {
      "inputs": [
        {
          "internalType": "uint256",
          "name": "_prodId",
          "type": "uint256"
        }
      ],
      "name": "ownerOf",
      "outputs": [
        {
          "internalType": "address",
          "name": "",
          "type": "address"
        }
      ],
      "stateMutability": "view",
      "type": "function"
    },
    {
      "inputs": [],
      "name": "productIds",
      "outputs": [
        {
          "internalType": "uint256",
          "name": "_value",
          "type": "uint256"
        }
      ],
      "stateMutability": "view",
      "type": "function"
    },
    {
      "inputs": [
        {
          "internalType": "address",
          "name": "_owner",
          "type": "address"
        },
        {
          "internalType": "uint64",
          "name": "_idx",
          "type": "uint64"
        }
      ],
      "name": "productOf",
      "outputs": [
        {
          "internalType": "uint64",
          "name": "",
          "type": "uint64"
        }
      ],
      "stateMutability": "view",
      "type": "function"
    },
    {
      "inputs": [
        {
          "internalType": "uint256",
          "name": "",
          "type": "uint256"
        }
      ],
      "name": "products",
      "outputs": [
        {
          "internalType": "uint256",
          "name": "startTime",
          "type": "uint256"
        },
        {
          "internalType": "uint128",
          "name": "priceInUSD",
          "type": "uint128"
        },
        {
          "internalType": "uint128",
          "name": "durPlan",
          "type": "uint128"
        },
        {
          "internalType": "string",
          "name": "policyId",
          "type": "string"
        }
      ],
      "stateMutability": "view",
      "type": "function"
    },
    {
      "inputs": [
        {
          "internalType": "address",
          "name": "_currency",
          "type": "address"
        }
      ],
      "name": "removeCurrency",
      "outputs": [],
      "stateMutability": "nonpayable",
      "type": "function"
    },
    {
      "inputs": [],
      "name": "renounceOwnership",
      "outputs": [],
      "stateMutability": "nonpayable",
      "type": "function"
    },
    {
      "inputs": [
        {
          "internalType": "address",
          "name": "_exchangeAgent",
          "type": "address"
        }
      ],
      "name": "setExchangeAgent",
      "outputs": [],
      "stateMutability": "nonpayable",
      "type": "function"
    },
    {
      "inputs": [
        {
          "internalType": "bytes",
          "name": "sig",
          "type": "bytes"
        }
      ],
      "name": "splitSignature",
      "outputs": [
        {
          "internalType": "bytes32",
          "name": "r",
          "type": "bytes32"
        },
        {
          "internalType": "bytes32",
          "name": "s",
          "type": "bytes32"
        },
        {
          "internalType": "uint8",
          "name": "v",
          "type": "uint8"
        }
      ],
      "stateMutability": "pure",
      "type": "function"
    },
    {
      "inputs": [
        {
          "internalType": "address",
          "name": "newOwner",
          "type": "address"
        }
      ],
      "name": "transferOwnership",
      "outputs": [],
      "stateMutability": "nonpayable",
      "type": "function"
    },
    {
      "stateMutability": "payable",
      "type": "receive"
    }
  ],
  "transactionHash": "0x2b3ebceb8afd3247a6a38d3970d0e9f51b8ee8252014db8b58d6498815dca823",
  "args": [
    "0xc778417e063141139fce010982780140aa0cd5ab",
    "0x5640B69a5e1375a95e610052c5eedfea17675996",
    "0x6C641CE6A7216F12d28692f9d8b2BDcdE812eD2b"
  ],
  "solcInputHash": "dabe86c12d6adcaa1b3be01b1090c0a6",
  "bytecode": "0x60a06040523480156200001157600080fd5b5060405162001b4738038062001b478339810160408190526200003491620000fc565b828282600062000043620000db565b600080546001600160a01b0319166001600160a01b0383169081178255604051929350917f8be0079c531659141344cd1fd0a4f28419497f9722a3daafe3b4186f6b6457e0908290a3506001805560609290921b6001600160601b031916608052600780546001600160a01b03199081166001600160a01b039384161790915560088054909116919092161790555062000145915050565b3390565b80516001600160a01b0381168114620000f757600080fd5b919050565b60008060006060848603121562000111578283fd5b6200011c84620000df565b92506200012c60208501620000df565b91506200013c60408501620000df565b90509250925092565b60805160601c6119dc6200016b600039600081816108910152610aa501526119dc6000f3fe60806040526004361061010d5760003560e01c8063a0f16fad11610095578063c5d3a10711610064578063c5d3a107146102e0578063d9203b9114610300578063dbab5f8814610315578063f2fde38b14610328578063f47962871461034857610114565b8063a0f16fad1461025a578063a7bb58031461027a578063aa57511d146102a9578063ad5c4648146102cb57610114565b8063715018a6116100dc578063715018a6146101cb5780637acc0b20146101e05780638ab234b6146102105780638da5cb5b146102305780638ea5220f1461024557610114565b806318a00d8e146101195780631af42c0f1461013b5780636352211e1461017157806370a082311461019e57610114565b3661011457005b600080fd5b34801561012557600080fd5b50610139610134366004611202565b610368565b005b34801561014757600080fd5b5061015b610156366004611202565b61042e565b60405161016891906114e9565b60405180910390f35b34801561017d57600080fd5b5061019161018c3660046113b1565b610443565b6040516101689190611455565b3480156101aa57600080fd5b506101be6101b9366004611202565b610497565b60405161016891906118a3565b3480156101d757600080fd5b506101396104bc565b3480156101ec57600080fd5b506102006101fb3660046113b1565b610545565b6040516101689493929190611845565b34801561021c57600080fd5b5061013961022b366004611202565b610610565b34801561023c57600080fd5b506101916106ac565b34801561025157600080fd5b506101916106bb565b34801561026657600080fd5b506101396102753660046112b8565b6106ca565b34801561028657600080fd5b5061029a610295366004611285565b610845565b604051610168939291906114f4565b3480156102b557600080fd5b506102be610889565b604051610168919061183c565b3480156102d757600080fd5b5061019161088f565b3480156102ec57600080fd5b506101396102fb366004611202565b6108b3565b34801561030c57600080fd5b5061019161094b565b61013961032336600461133d565b61095a565b34801561033457600080fd5b50610139610343366004611202565b610aeb565b34801561035457600080fd5b506101be610363366004611223565b610bab565b610370610c1f565b6001600160a01b03166103816106ac565b6001600160a01b0316146103b05760405162461bcd60e51b81526004016103a7906116ce565b60405180910390fd5b6001600160a01b0381166103d65760405162461bcd60e51b81526004016103a7906117a8565b600780546001600160a01b0319166001600160a01b0383161790556040517f0143625ceac80b2452760213c6b6f5a22eb63bc46e17d129c30fffefb4679eb6906104239033908490611469565b60405180910390a150565b60066020526000908152604090205460ff1681565b600061044f6002610c23565b61045a9060016118b8565b82106104785760405162461bcd60e51b81526004016103a790611771565b506000818152600360205260409020546001600160a01b03165b919050565b6001600160a01b031660009081526004602052604090205467ffffffffffffffff1690565b6104c4610c1f565b6001600160a01b03166104d56106ac565b6001600160a01b0316146104fb5760405162461bcd60e51b81526004016103a7906116ce565b600080546040516001600160a01b03909116907f8be0079c531659141344cd1fd0a4f28419497f9722a3daafe3b4186f6b6457e0908390a3600080546001600160a01b0319169055565b60096020526000908152604090208054600182015460028301805492936fffffffffffffffffffffffffffffffff80841694600160801b909404169290919061058d90611917565b80601f01602080910402602001604051908101604052809291908181526020018280546105b990611917565b80156106065780601f106105db57610100808354040283529160200191610606565b820191906000526020600020905b8154815290600101906020018083116105e957829003601f168201915b5050505050905084565b610618610c1f565b6001600160a01b03166106296106ac565b6001600160a01b03161461064f5760405162461bcd60e51b81526004016103a7906116ce565b6001600160a01b03811660009081526006602052604090205460ff16156106885760405162461bcd60e51b81526004016103a790611697565b6001600160a01b03166000908152600660205260409020805460ff19166001179055565b6000546001600160a01b031690565b6008546001600160a01b031681565b600260015414156106ed5760405162461bcd60e51b81526004016103a790611805565b60026001556001600160a01b038216600090815260066020526040902054829060ff1661072c5760405162461bcd60e51b81526004016103a7906115a6565b6000610739878787610c27565b9050610746338285610c88565b60075460405163a9a12d4360e01b81526000916001600160a01b03169063a9a12d43906107799088908b906004016114d0565b602060405180830381600087803b15801561079357600080fd5b505af11580156107a7573d6000803e3d6000fd5b505050506040513d601f19601f820116820180604052508101906107cb91906113c9565b6008549091506107e890869033906001600160a01b031684610d3e565b60006107f688888b33610e43565b9050807f39d12e8951d830ef8836319a4450cf10c520dfcbea8db9ed98011efdfa1389a73388858c60405161082e94939291906114a7565b60405180910390a250506001805550505050505050565b6000806000835160411461086b5760405162461bcd60e51b81526004016103a7906117ce565b50505060208101516040820151606090920151909260009190911a90565b60025481565b7f000000000000000000000000000000000000000000000000000000000000000081565b6108bb610c1f565b6001600160a01b03166108cc6106ac565b6001600160a01b0316146108f25760405162461bcd60e51b81526004016103a7906116ce565b6001600160a01b03811660009081526006602052604090205460ff1661092a5760405162461bcd60e51b81526004016103a790611703565b6001600160a01b03166000908152600660205260409020805460ff19169055565b6007546001600160a01b031681565b6002600154141561097d5760405162461bcd60e51b81526004016103a790611805565b6002600155600061098f858585610c27565b905061099c338284610c88565b60075460405163531a221160e01b81526000916001600160a01b03169063531a2211906109cd90889060040161183c565b60206040518083038186803b1580156109e557600080fd5b505afa1580156109f9573d6000803e3d6000fd5b505050506040513d601f19601f82011682018060405250810190610a1d91906113c9565b905080341015610a3f5760405162461bcd60e51b81526004016103a79061173a565b80341115610a5a57610a5a33610a5583346118d0565b610f1d565b600854610a70906001600160a01b031682610f1d565b6000610a7e86868933610e43565b9050807f39d12e8951d830ef8836319a4450cf10c520dfcbea8db9ed98011efdfa1389a7337f0000000000000000000000000000000000000000000000000000000000000000858a604051610ad694939291906114a7565b60405180910390a25050600180555050505050565b610af3610c1f565b6001600160a01b0316610b046106ac565b6001600160a01b031614610b2a5760405162461bcd60e51b81526004016103a7906116ce565b6001600160a01b038116610b505760405162461bcd60e51b81526004016103a790611560565b600080546040516001600160a01b03808516939216917f8be0079c531659141344cd1fd0a4f28419497f9722a3daafe3b4186f6b6457e091a3600080546001600160a01b0319166001600160a01b0392909216919091179055565b6001600160a01b0382166000908152600560205260408120805467ffffffffffffffff8416908110610bed57634e487b7160e01b600052603260045260246000fd5b90600052602060002090600491828204019190066008029054906101000a900467ffffffffffffffff16905092915050565b3390565b5490565b600080848484604051602001610c3f939291906113fd565b60405160208183030381529060405280519060200120905080604051602001610c689190611424565b604051602081830303815290604052805190602001209150509392505050565b6000806000610c9684610845565b925092509250600060018683868660405160008152602001604052604051610cc1949392919061150d565b6020604051602081039080840390855afa158015610ce3573d6000803e3d6000fd5b5050604051601f1901519150506001600160a01b03811615801590610d195750866001600160a01b0316816001600160a01b0316145b610d355760405162461bcd60e51b81526004016103a79061152b565b50505050505050565b600080856001600160a01b03166323b872dd868686604051602401610d6593929190611483565b6040516020818303038152906040529060e01b6020820180517bffffffffffffffffffffffffffffffffffffffffffffffffffffffff8381831617835250505050604051610db391906113e1565b6000604051808303816000865af19150503d8060008114610df0576040519150601f19603f3d011682016040523d82523d6000602084013e610df5565b606091505b5091509150818015610e1f575080511580610e1f575080806020019051810190610e1f9190611265565b610e3b5760405162461bcd60e51b81526004016103a7906115dd565b505050505050565b6000610e4f6002610c23565b604080516080810182524281526fffffffffffffffffffffffffffffffff8089166020808401918252898316848601908152606085018a81526000888152600984529690962085518155925160018401805492518616600160801b029186166fffffffffffffffffffffffffffffffff199093169290921790941693909317909255925180519495509193610eea92600285019201906110d1565b50905050610ef88183610faf565b610f0182610fdd565b610f0b8282611035565b610f1560026110c8565b949350505050565b604080516000808252602082019092526001600160a01b038416908390604051610f4791906113e1565b60006040518083038185875af1925050503d8060008114610f84576040519150601f19603f3d011682016040523d82523d6000602084013e610f89565b606091505b5050905080610faa5760405162461bcd60e51b81526004016103a79061163a565b505050565b60009182526003602052604090912080546001600160a01b0319166001600160a01b03909216919091179055565b6001600160a01b0381166000908152600460205260408120805467ffffffffffffffff169161100b83611952565b91906101000a81548167ffffffffffffffff021916908367ffffffffffffffff1602179055505050565b6001600160a01b03821660009081526005602090815260408083208054600181018255908452919092206004820401805460039092166008026101000a67ffffffffffffffff81810219909316928516029190911790555181907fbe51e9a2a9ea8219cc8ab3194ee452fbdf2fa052f0d88d96a854c8ff2686151e906110bc908590611455565b60405180910390a25050565b80546001019055565b8280546110dd90611917565b90600052602060002090601f0160209004810192826110ff5760008555611145565b82601f1061111857805160ff1916838001178555611145565b82800160010185558215611145579182015b8281111561114557825182559160200191906001019061112a565b50611151929150611155565b5090565b5b808211156111515760008155600101611156565b80356001600160a01b038116811461049257600080fd5b600082601f830112611191578081fd5b813567ffffffffffffffff808211156111ac576111ac611990565b604051601f8301601f1916810160200182811182821017156111d0576111d0611990565b6040528281528483016020018610156111e7578384fd5b82602086016020830137918201602001929092529392505050565b600060208284031215611213578081fd5b61121c8261116a565b9392505050565b60008060408385031215611235578081fd5b61123e8361116a565b9150602083013567ffffffffffffffff8116811461125a578182fd5b809150509250929050565b600060208284031215611276578081fd5b8151801515811461121c578182fd5b600060208284031215611296578081fd5b813567ffffffffffffffff8111156112ac578182fd5b610f1584828501611181565b600080600080600060a086880312156112cf578081fd5b853567ffffffffffffffff808211156112e6578283fd5b6112f289838a01611181565b9650602088013595506040880135945061130e6060890161116a565b93506080880135915080821115611323578283fd5b5061133088828901611181565b9150509295509295909350565b60008060008060808587031215611352578384fd5b843567ffffffffffffffff80821115611369578586fd5b61137588838901611181565b955060208701359450604087013593506060870135915080821115611398578283fd5b506113a587828801611181565b91505092959194509250565b6000602082840312156113c2578081fd5b5035919050565b6000602082840312156113da578081fd5b5051919050565b600082516113f38184602087016118e7565b9190910192915050565b6000845161140f8184602089016118e7565b91909101928352506020820152604001919050565b7f19457468657265756d205369676e6564204d6573736167653a0a3332000000008152601c810191909152603c0190565b6001600160a01b0391909116815260200190565b6001600160a01b0392831681529116602082015260400190565b6001600160a01b039384168152919092166020820152604081019190915260600190565b6001600160a01b0394851681529290931660208301526040820152606081019190915260800190565b6001600160a01b03929092168252602082015260400190565b901515815260200190565b928352602083019190915260ff16604082015260600190565b93845260ff9290921660208401526040830152606082015260800190565b6020808252818101527f436f766572436f6d70617265643a20494e56414c49445f5349474e4154555245604082015260600190565b60208082526026908201527f4f776e61626c653a206e6577206f776e657220697320746865207a65726f206160408201526564647265737360d01b606082015260800190565b60208082526011908201527f4e6f7420616c6c6f77656420746f6b656e000000000000000000000000000000604082015260600190565b60208082526031908201527f5472616e7366657248656c7065723a3a7472616e7366657246726f6d3a20747260408201527f616e7366657246726f6d206661696c6564000000000000000000000000000000606082015260800190565b60208082526034908201527f5472616e7366657248656c7065723a3a736166655472616e736665724554483a60408201527f20455448207472616e73666572206661696c6564000000000000000000000000606082015260800190565b60208082526011908201527f416c726561647920617661696c61626c65000000000000000000000000000000604082015260600190565b6020808252818101527f4f776e61626c653a2063616c6c6572206973206e6f7420746865206f776e6572604082015260600190565b60208082526011908201527f4e6f7420617661696c61626c6520796574000000000000000000000000000000604082015260600190565b60208082526013908201527f496e73756666696369656e7420616d6f756e7400000000000000000000000000604082015260600190565b60208082526012908201527f496e76616c69642070726f647563742049440000000000000000000000000000604082015260600190565b6020808252600c908201526b5a45524f204164647265737360a01b604082015260600190565b60208082526018908201527f696e76616c6964207369676e6174757265206c656e6774680000000000000000604082015260600190565b6020808252601f908201527f5265656e7472616e637947756172643a207265656e7472616e742063616c6c00604082015260600190565b90815260200190565b60008582526fffffffffffffffffffffffffffffffff808616602084015280851660408401525060806060830152825180608084015261188c8160a08501602087016118e7565b601f01601f19169190910160a00195945050505050565b67ffffffffffffffff91909116815260200190565b600082198211156118cb576118cb61197a565b500190565b6000828210156118e2576118e261197a565b500390565b60005b838110156119025781810151838201526020016118ea565b83811115611911576000848401525b50505050565b60028104600182168061192b57607f821691505b6020821081141561194c57634e487b7160e01b600052602260045260246000fd5b50919050565b600067ffffffffffffffff808316818114156119705761197061197a565b6001019392505050565b634e487b7160e01b600052601160045260246000fd5b634e487b7160e01b600052604160045260246000fdfea26469706673582212204d04ec6e3b046c73212034dce7968e6b6b0ed84266184c8b029cefc3d2248b3e64736f6c63430008000033",
  "devdoc": {
    "kind": "dev",
    "methods": {
      "buyProductByETH(string,uint256,uint256,bytes)": {
        "details": "buyProductETH function: this function should be called from user directly"
      },
      "buyProductByToken(string,uint256,uint256,address,bytes)": {
        "details": "buyProductByToken: Users can buy products using ERC20 tokens such as CVR and without gas fee"
      },
      "owner()": {
        "details": "Returns the address of the current owner."
      },
      "renounceOwnership()": {
        "details": "Leaves the contract without owner. It will not be possible to call `onlyOwner` functions anymore. Can only be called by the current owner. NOTE: Renouncing ownership will leave the contract without an owner, thereby removing any functionality that is only available to the owner."
      },
      "transferOwnership(address)": {
        "details": "Transfers ownership of the contract to a new account (`newOwner`). Can only be called by the current owner."
      }
    },
    "version": 1
  },
  "userdoc": {
    "kind": "user",
    "methods": {},
    "version": 1
  },
  "storageLayout": {
    "storage": [
      {
        "astId": 534,
        "contract": "contracts/offchain/P4LCover.sol:P4LCover",
        "label": "_owner",
        "offset": 0,
        "slot": "0",
        "type": "t_address"
      },
      {
        "astId": 647,
        "contract": "contracts/offchain/P4LCover.sol:P4LCover",
        "label": "_status",
        "offset": 0,
        "slot": "1",
        "type": "t_uint256"
      },
      {
        "astId": 2748,
        "contract": "contracts/offchain/P4LCover.sol:P4LCover",
        "label": "productIds",
        "offset": 0,
        "slot": "2",
        "type": "t_struct(Counter)1476_storage"
      },
      {
        "astId": 2752,
        "contract": "contracts/offchain/P4LCover.sol:P4LCover",
        "label": "_ownerOf",
        "offset": 0,
        "slot": "3",
        "type": "t_mapping(t_uint256,t_address)"
      },
      {
        "astId": 2756,
        "contract": "contracts/offchain/P4LCover.sol:P4LCover",
        "label": "_balanceOf",
        "offset": 0,
        "slot": "4",
        "type": "t_mapping(t_address,t_uint64)"
      },
      {
        "astId": 2761,
        "contract": "contracts/offchain/P4LCover.sol:P4LCover",
        "label": "_productsOf",
        "offset": 0,
        "slot": "5",
        "type": "t_mapping(t_address,t_array(t_uint64)dyn_storage)"
      },
      {
        "astId": 2765,
        "contract": "contracts/offchain/P4LCover.sol:P4LCover",
        "label": "availableCurrencies",
        "offset": 0,
        "slot": "6",
        "type": "t_mapping(t_address,t_bool)"
      },
      {
        "astId": 2769,
        "contract": "contracts/offchain/P4LCover.sol:P4LCover",
        "label": "exchangeAgent",
        "offset": 0,
        "slot": "7",
        "type": "t_address"
      },
      {
        "astId": 2771,
        "contract": "contracts/offchain/P4LCover.sol:P4LCover",
        "label": "devWallet",
        "offset": 0,
        "slot": "8",
        "type": "t_address"
      },
      {
        "astId": 3428,
        "contract": "contracts/offchain/P4LCover.sol:P4LCover",
        "label": "products",
        "offset": 0,
        "slot": "9",
        "type": "t_mapping(t_uint256,t_struct(Product)3423_storage)"
      }
    ],
    "types": {
      "t_address": {
        "encoding": "inplace",
        "label": "address",
        "numberOfBytes": "20"
      },
      "t_array(t_uint64)dyn_storage": {
        "base": "t_uint64",
        "encoding": "dynamic_array",
        "label": "uint64[]",
        "numberOfBytes": "32"
      },
      "t_bool": {
        "encoding": "inplace",
        "label": "bool",
        "numberOfBytes": "1"
      },
      "t_mapping(t_address,t_array(t_uint64)dyn_storage)": {
        "encoding": "mapping",
        "key": "t_address",
        "label": "mapping(address => uint64[])",
        "numberOfBytes": "32",
        "value": "t_array(t_uint64)dyn_storage"
      },
      "t_mapping(t_address,t_bool)": {
        "encoding": "mapping",
        "key": "t_address",
        "label": "mapping(address => bool)",
        "numberOfBytes": "32",
        "value": "t_bool"
      },
      "t_mapping(t_address,t_uint64)": {
        "encoding": "mapping",
        "key": "t_address",
        "label": "mapping(address => uint64)",
        "numberOfBytes": "32",
        "value": "t_uint64"
      },
      "t_mapping(t_uint256,t_address)": {
        "encoding": "mapping",
        "key": "t_uint256",
        "label": "mapping(uint256 => address)",
        "numberOfBytes": "32",
        "value": "t_address"
      },
      "t_mapping(t_uint256,t_struct(Product)3423_storage)": {
        "encoding": "mapping",
        "key": "t_uint256",
        "label": "mapping(uint256 => struct P4LCover.Product)",
        "numberOfBytes": "32",
        "value": "t_struct(Product)3423_storage"
      },
      "t_string_storage": {
        "encoding": "bytes",
        "label": "string",
        "numberOfBytes": "32"
      },
      "t_struct(Counter)1476_storage": {
        "encoding": "inplace",
        "label": "struct Counters.Counter",
        "members": [
          {
            "astId": 1475,
            "contract": "contracts/offchain/P4LCover.sol:P4LCover",
            "label": "_value",
            "offset": 0,
            "slot": "0",
            "type": "t_uint256"
          }
        ],
        "numberOfBytes": "32"
      },
      "t_struct(Product)3423_storage": {
        "encoding": "inplace",
        "label": "struct P4LCover.Product",
        "members": [
          {
            "astId": 3416,
            "contract": "contracts/offchain/P4LCover.sol:P4LCover",
            "label": "startTime",
            "offset": 0,
            "slot": "0",
            "type": "t_uint256"
          },
          {
            "astId": 3418,
            "contract": "contracts/offchain/P4LCover.sol:P4LCover",
            "label": "priceInUSD",
            "offset": 0,
            "slot": "1",
            "type": "t_uint128"
          },
          {
            "astId": 3420,
            "contract": "contracts/offchain/P4LCover.sol:P4LCover",
            "label": "durPlan",
            "offset": 16,
            "slot": "1",
            "type": "t_uint128"
          },
          {
            "astId": 3422,
            "contract": "contracts/offchain/P4LCover.sol:P4LCover",
            "label": "policyId",
            "offset": 0,
            "slot": "2",
            "type": "t_string_storage"
          }
        ],
        "numberOfBytes": "96"
      },
      "t_uint128": {
        "encoding": "inplace",
        "label": "uint128",
        "numberOfBytes": "16"
      },
      "t_uint256": {
        "encoding": "inplace",
        "label": "uint256",
        "numberOfBytes": "32"
      },
      "t_uint64": {
        "encoding": "inplace",
        "label": "uint64",
        "numberOfBytes": "8"
      }
    }
  }
}