{
  "address": "0x51956B95f63894Ef378BFEb6e9AaEe837393e266",
  "abi": [
    {
      "inputs": [
        {
          "internalType": "address",
          "name": "_WETH",
          "type": "address"
        },
        {
          "internalType": "address",
          "name": "_exchangeAgent",
          "type": "address"
        },
        {
          "internalType": "address",
          "name": "_devWallet",
          "type": "address"
        },
        {
          "internalType": "address",
          "name": "_signer",
          "type": "address"
        }
      ],
      "stateMutability": "nonpayable",
      "type": "constructor"
    },
    {
      "anonymous": false,
      "inputs": [
        {
          "indexed": true,
          "internalType": "uint256",
          "name": "_productId",
          "type": "uint256"
        },
        {
          "indexed": false,
          "internalType": "address",
          "name": "_buyer",
          "type": "address"
        },
        {
          "indexed": false,
          "internalType": "address",
          "name": "_currency",
          "type": "address"
        },
        {
          "indexed": false,
          "internalType": "uint256",
          "name": "_amount",
          "type": "uint256"
        },
        {
          "indexed": false,
          "internalType": "uint256",
          "name": "_priceInUSD",
          "type": "uint256"
        }
      ],
      "name": "BuyP4L",
      "type": "event"
    },
    {
      "anonymous": false,
      "inputs": [
        {
          "indexed": true,
          "internalType": "uint256",
          "name": "_productId",
          "type": "uint256"
        },
        {
          "indexed": false,
          "internalType": "address",
          "name": "_buyer",
          "type": "address"
        }
      ],
      "name": "BuyProduct",
      "type": "event"
    },
    {
      "anonymous": false,
      "inputs": [
        {
          "indexed": false,
          "internalType": "address",
          "name": "userAddress",
          "type": "address"
        },
        {
          "indexed": false,
          "internalType": "address payable",
          "name": "relayerAddress",
          "type": "address"
        },
        {
          "indexed": false,
          "internalType": "bytes",
          "name": "functionSignature",
          "type": "bytes"
        }
      ],
      "name": "MetaTransactionExecuted",
      "type": "event"
    },
    {
      "anonymous": false,
      "inputs": [
        {
          "indexed": true,
          "internalType": "address",
          "name": "previousOwner",
          "type": "address"
        },
        {
          "indexed": true,
          "internalType": "address",
          "name": "newOwner",
          "type": "address"
        }
      ],
      "name": "OwnershipTransferred",
      "type": "event"
    },
    {
      "anonymous": false,
      "inputs": [
        {
          "indexed": false,
          "internalType": "address",
          "name": "account",
          "type": "address"
        }
      ],
      "name": "Paused",
      "type": "event"
    },
    {
      "anonymous": false,
      "inputs": [
        {
          "indexed": false,
          "internalType": "address",
          "name": "_setter",
          "type": "address"
        },
        {
          "indexed": false,
          "internalType": "address",
          "name": "_exchangeAgent",
          "type": "address"
        }
      ],
      "name": "SetExchangeAgent",
      "type": "event"
    },
    {
      "anonymous": false,
      "inputs": [
        {
          "indexed": false,
          "internalType": "address",
          "name": "_setter",
          "type": "address"
        },
        {
          "indexed": false,
          "internalType": "address",
          "name": "_signer",
          "type": "address"
        }
      ],
      "name": "SetSigner",
      "type": "event"
    },
    {
      "anonymous": false,
      "inputs": [
        {
          "indexed": false,
          "internalType": "address",
          "name": "account",
          "type": "address"
        }
      ],
      "name": "Unpaused",
      "type": "event"
    },
    {
      "inputs": [],
      "name": "WETH",
      "outputs": [
        {
          "internalType": "address",
          "name": "",
          "type": "address"
        }
      ],
      "stateMutability": "view",
      "type": "function"
    },
    {
      "inputs": [
        {
          "internalType": "address",
          "name": "_currency",
          "type": "address"
        }
      ],
      "name": "addCurrency",
      "outputs": [],
      "stateMutability": "nonpayable",
      "type": "function"
    },
    {
      "inputs": [
        {
          "internalType": "address",
          "name": "",
          "type": "address"
        }
      ],
      "name": "availableCurrencies",
      "outputs": [
        {
          "internalType": "bool",
          "name": "",
          "type": "bool"
        }
      ],
      "stateMutability": "view",
      "type": "function"
    },
    {
      "inputs": [
        {
          "internalType": "address",
          "name": "_account",
          "type": "address"
        }
      ],
      "name": "balanceOf",
      "outputs": [
        {
          "internalType": "uint64",
          "name": "",
          "type": "uint64"
        }
      ],
      "stateMutability": "view",
      "type": "function"
    },
    {
      "inputs": [
        {
          "internalType": "string",
          "name": "_policyId",
          "type": "string"
        },
        {
          "internalType": "uint256",
          "name": "_value",
          "type": "uint256"
        },
        {
          "internalType": "uint256",
          "name": "_durPlan",
          "type": "uint256"
        },
        {
          "internalType": "bytes",
          "name": "sig",
          "type": "bytes"
        }
      ],
      "name": "buyProductByETH",
      "outputs": [],
      "stateMutability": "payable",
      "type": "function"
    },
    {
      "inputs": [
        {
          "internalType": "string",
          "name": "_policyId",
          "type": "string"
        },
        {
          "internalType": "uint256",
          "name": "_value",
          "type": "uint256"
        },
        {
          "internalType": "uint256",
          "name": "_durPlan",
          "type": "uint256"
        },
        {
          "internalType": "address",
          "name": "_token",
          "type": "address"
        },
        {
          "internalType": "bytes",
          "name": "sig",
          "type": "bytes"
        }
      ],
      "name": "buyProductByToken",
      "outputs": [],
      "stateMutability": "nonpayable",
      "type": "function"
    },
    {
      "inputs": [],
      "name": "devWallet",
      "outputs": [
        {
          "internalType": "address",
          "name": "",
          "type": "address"
        }
      ],
      "stateMutability": "view",
      "type": "function"
    },
    {
      "inputs": [],
      "name": "exchangeAgent",
      "outputs": [
        {
          "internalType": "address",
          "name": "",
          "type": "address"
        }
      ],
      "stateMutability": "view",
      "type": "function"
    },
    {
      "inputs": [
        {
          "internalType": "address",
          "name": "userAddress",
          "type": "address"
        },
        {
          "internalType": "bytes",
          "name": "functionSignature",
          "type": "bytes"
        },
        {
          "internalType": "bytes32",
          "name": "sigR",
          "type": "bytes32"
        },
        {
          "internalType": "bytes32",
          "name": "sigS",
          "type": "bytes32"
        },
        {
          "internalType": "uint8",
          "name": "sigV",
          "type": "uint8"
        }
      ],
      "name": "executeMetaTransaction",
      "outputs": [
        {
          "internalType": "bytes",
          "name": "",
          "type": "bytes"
        }
      ],
      "stateMutability": "payable",
      "type": "function"
    },
    {
      "inputs": [
        {
          "internalType": "address",
          "name": "user",
          "type": "address"
        }
      ],
      "name": "getNonce",
      "outputs": [
        {
          "internalType": "uint256",
          "name": "nonce",
          "type": "uint256"
        }
      ],
      "stateMutability": "view",
      "type": "function"
    },
    {
      "inputs": [],
      "name": "owner",
      "outputs": [
        {
          "internalType": "address",
          "name": "",
          "type": "address"
        }
      ],
      "stateMutability": "view",
      "type": "function"
    },
    {
      "inputs": [
        {
          "internalType": "uint256",
          "name": "_prodId",
          "type": "uint256"
        }
      ],
      "name": "ownerOf",
      "outputs": [
        {
          "internalType": "address",
          "name": "",
          "type": "address"
        }
      ],
      "stateMutability": "view",
      "type": "function"
    },
    {
      "inputs": [],
      "name": "pause",
      "outputs": [],
      "stateMutability": "nonpayable",
      "type": "function"
    },
    {
      "inputs": [],
      "name": "paused",
      "outputs": [
        {
          "internalType": "bool",
          "name": "",
          "type": "bool"
        }
      ],
      "stateMutability": "view",
      "type": "function"
    },
    {
      "inputs": [],
      "name": "productIds",
      "outputs": [
        {
          "internalType": "uint256",
          "name": "_value",
          "type": "uint256"
        }
      ],
      "stateMutability": "view",
      "type": "function"
    },
    {
      "inputs": [
        {
          "internalType": "address",
          "name": "_owner",
          "type": "address"
        },
        {
          "internalType": "uint64",
          "name": "_idx",
          "type": "uint64"
        }
      ],
      "name": "productOf",
      "outputs": [
        {
          "internalType": "uint64",
          "name": "",
          "type": "uint64"
        }
      ],
      "stateMutability": "view",
      "type": "function"
    },
    {
      "inputs": [
        {
          "internalType": "uint256",
          "name": "",
          "type": "uint256"
        }
      ],
      "name": "products",
      "outputs": [
        {
          "internalType": "uint256",
          "name": "startTime",
          "type": "uint256"
        },
        {
          "internalType": "uint128",
          "name": "priceInUSD",
          "type": "uint128"
        },
        {
          "internalType": "uint128",
          "name": "durPlan",
          "type": "uint128"
        },
        {
          "internalType": "string",
          "name": "policyId",
          "type": "string"
        }
      ],
      "stateMutability": "view",
      "type": "function"
    },
    {
      "inputs": [
        {
          "internalType": "address",
          "name": "_currency",
          "type": "address"
        }
      ],
      "name": "removeCurrency",
      "outputs": [],
      "stateMutability": "nonpayable",
      "type": "function"
    },
    {
      "inputs": [],
      "name": "renounceOwnership",
      "outputs": [],
      "stateMutability": "nonpayable",
      "type": "function"
    },
    {
      "inputs": [
        {
          "internalType": "address",
          "name": "_exchangeAgent",
          "type": "address"
        }
      ],
      "name": "setExchangeAgent",
      "outputs": [],
      "stateMutability": "nonpayable",
      "type": "function"
    },
    {
      "inputs": [
        {
          "internalType": "address",
          "name": "_signer",
          "type": "address"
        }
      ],
      "name": "setSigner",
      "outputs": [],
      "stateMutability": "nonpayable",
      "type": "function"
    },
    {
      "inputs": [],
      "name": "signer",
      "outputs": [
        {
          "internalType": "address",
          "name": "",
          "type": "address"
        }
      ],
      "stateMutability": "view",
      "type": "function"
    },
    {
      "inputs": [
        {
          "internalType": "address",
          "name": "newOwner",
          "type": "address"
        }
      ],
      "name": "transferOwnership",
      "outputs": [],
      "stateMutability": "nonpayable",
      "type": "function"
    },
    {
      "inputs": [],
      "name": "unpause",
      "outputs": [],
      "stateMutability": "nonpayable",
      "type": "function"
    },
    {
      "inputs": [
        {
          "internalType": "address",
          "name": "owner",
          "type": "address"
        },
        {
          "internalType": "uint256",
          "name": "nonce",
          "type": "uint256"
        },
        {
          "internalType": "uint256",
          "name": "chainID",
          "type": "uint256"
        },
        {
          "internalType": "bytes",
          "name": "functionSignature",
          "type": "bytes"
        },
        {
          "internalType": "bytes32",
          "name": "sigR",
          "type": "bytes32"
        },
        {
          "internalType": "bytes32",
          "name": "sigS",
          "type": "bytes32"
        },
        {
          "internalType": "uint8",
          "name": "sigV",
          "type": "uint8"
        }
      ],
      "name": "verify",
      "outputs": [
        {
          "internalType": "bool",
          "name": "",
          "type": "bool"
        }
      ],
      "stateMutability": "view",
      "type": "function"
    }
  ],
  "transactionHash": "0xc5d01dcfa600b1be6b8d2915017d9450e498df09afc63bcf07fc88b77f9955a0",
  "args": [
    "0xc778417e063141139fce010982780140aa0cd5ab",
    "0x3320C193109265faC179cC3eF0a466Cca01651DF",
    "0x6C641CE6A7216F12d28692f9d8b2BDcdE812eD2b",
    "0x356C9B814a5D3508ab76834D0eF67e6A171d3740"
  ],
  "solcInputHash": "dc4dea4f22376d00ebd11d6c722b0add",
  "bytecode": "0x60a06040523480156200001157600080fd5b50604051620024bd380380620024bd833981016040819052620000349162000118565b83838383600062000044620000f7565b600080546001600160a01b0319166001600160a01b0383169081178255604051929350917f8be0079c531659141344cd1fd0a4f28419497f9722a3daafe3b4186f6b6457e0908290a350600180556002805460ff1916905560609390931b6001600160601b031916608052600980546001600160a01b03199081166001600160a01b0394851617909155600a8054821692841692909217909155600b805490911691909216179055506200017492505050565b3390565b80516001600160a01b03811681146200011357600080fd5b919050565b600080600080608085870312156200012e578384fd5b6200013985620000fb565b93506200014960208601620000fb565b92506200015960408601620000fb565b91506200016960608601620000fb565b905092959194509250565b60805160601c6123236200019a60003960008181610d4e0152610fa401526123236000f3fe6080604052600436106101965760003560e01c80637acc0b20116100e1578063aa57511d1161008a578063d9203b9111610064578063d9203b9114610427578063dbab5f881461043c578063f2fde38b1461044f578063f47962871461046f57610196565b8063aa57511d146103dd578063ad5c4648146103f2578063c5d3a1071461040757610196565b80638da5cb5b116100bb5780638da5cb5b146103935780638ea5220f146103a8578063a0f16fad146103bd57610196565b80637acc0b201461032e5780638456cb591461035e5780638ab234b61461037357610196565b80635c975abb116101435780636c19e7831161011d5780636c19e783146102cc57806370a08231146102ec578063715018a61461031957610196565b80635c975abb146102775780636281133d1461028c5780636352211e146102ac57610196565b8063238ac93311610174578063238ac933146102135780632d0335ab146102355780633f4ba83a1461026257610196565b80630c53c51c1461019b57806318a00d8e146101c45780631af42c0f146101e6575b600080fd5b6101ae6101a93660046118ce565b61048f565b6040516101bb9190611d5b565b60405180910390f35b3480156101d057600080fd5b506101e46101df3660046118ad565b6105ec565b005b3480156101f257600080fd5b506102066102013660046118ad565b6106af565b6040516101bb9190611d32565b34801561021f57600080fd5b506102286106c4565b6040516101bb9190611c69565b34801561024157600080fd5b506102556102503660046118ad565b6106d3565b6040516101bb919061219c565b34801561026e57600080fd5b506101e46106ee565b34801561028357600080fd5b50610206610737565b34801561029857600080fd5b506102066102a736600461193e565b610741565b3480156102b857600080fd5b506102286102c7366004611b1c565b610811565b3480156102d857600080fd5b506101e46102e73660046118ad565b610865565b3480156102f857600080fd5b5061030c6103073660046118ad565b61090e565b6040516101bb91906121ea565b34801561032557600080fd5b506101e4610933565b34801561033a57600080fd5b5061034e610349366004611b1c565b6109bc565b6040516101bb94939291906121a5565b34801561036a57600080fd5b506101e4610a87565b34801561037f57600080fd5b506101e461038e3660046118ad565b610ace565b34801561039f57600080fd5b50610228610b6a565b3480156103b457600080fd5b50610228610b79565b3480156103c957600080fd5b506101e46103d8366004611a23565b610b88565b3480156103e957600080fd5b50610255610d46565b3480156103fe57600080fd5b50610228610d4c565b34801561041357600080fd5b506101e46104223660046118ad565b610d70565b34801561043357600080fd5b50610228610e08565b6101e461044a366004611aa8565b610e17565b34801561045b57600080fd5b506101e461046a3660046118ad565b610fea565b34801561047b57600080fd5b5061030c61048a3660046119c1565b6110aa565b6001600160a01b0385166000908152600360205260409020546060906104bb9087904688888888610741565b6104e05760405162461bcd60e51b81526004016104d790612059565b60405180910390fd5b6001600160a01b03861660009081526003602052604081208054600192906105099084906121ff565b9091555050604051600090819030906105289089908b90602001611b94565b60408051601f198184030181529082905261054291611b78565b6000604051808303816000865af19150503d806000811461057f576040519150601f19603f3d011682016040523d82523d6000602084013e610584565b606091505b5091509150816105a65760405162461bcd60e51b81526004016104d790611e20565b7f5845892132946850460bff5a0083f71031bc5bf9aadcd40f1de79423eac9b10b8833896040516105d993929190611c97565b60405180910390a1979650505050505050565b6105f461111e565b6001600160a01b0316610605610b6a565b6001600160a01b03161461062b5760405162461bcd60e51b81526004016104d790611fed565b6001600160a01b0381166106515760405162461bcd60e51b81526004016104d790612108565b600980546001600160a01b0319166001600160a01b0383161790557f0143625ceac80b2452760213c6b6f5a22eb63bc46e17d129c30fffefb4679eb6610695611122565b826040516106a4929190611c7d565b60405180910390a150565b60086020526000908152604090205460ff1681565b600b546001600160a01b031681565b6001600160a01b031660009081526003602052604090205490565b6106f661111e565b6001600160a01b0316610707610b6a565b6001600160a01b03161461072d5760405162461bcd60e51b81526004016104d790611fed565b610735611180565b565b60025460ff165b90565b6000806107798830898960405160200161075e9493929190611c23565b604051602081830303815290604052805190602001206111ee565b90506000600182858888604051600081526020016040526040516107a09493929190611d3d565b6020604051602081039080840390855afa1580156107c2573d6000803e3d6000fd5b5050604051601f1901519150506001600160a01b0381166107f55760405162461bcd60e51b81526004016104d790611f48565b6001600160a01b038a8116911614915050979650505050505050565b600061081d600461121e565b6108289060016121ff565b82106108465760405162461bcd60e51b81526004016104d7906120d1565b506000818152600560205260409020546001600160a01b03165b919050565b61086d61111e565b6001600160a01b031661087e610b6a565b6001600160a01b0316146108a45760405162461bcd60e51b81526004016104d790611fed565b6001600160a01b0381166108ca5760405162461bcd60e51b81526004016104d790612108565b600b80546001600160a01b0319166001600160a01b0383161790557f3271c8694494a7cc76cd185c743e9ee6b515a043ea98c0db7f5ca112f694add4610695611122565b6001600160a01b031660009081526006602052604090205467ffffffffffffffff1690565b61093b61111e565b6001600160a01b031661094c610b6a565b6001600160a01b0316146109725760405162461bcd60e51b81526004016104d790611fed565b600080546040516001600160a01b03909116907f8be0079c531659141344cd1fd0a4f28419497f9722a3daafe3b4186f6b6457e0908390a3600080546001600160a01b0319169055565b600c6020526000908152604090208054600182015460028301805492936fffffffffffffffffffffffffffffffff80841694600160801b9094041692909190610a049061225e565b80601f0160208091040260200160405190810160405280929190818152602001828054610a309061225e565b8015610a7d5780601f10610a5257610100808354040283529160200191610a7d565b820191906000526020600020905b815481529060010190602001808311610a6057829003601f168201915b5050505050905084565b610a8f61111e565b6001600160a01b0316610aa0610b6a565b6001600160a01b031614610ac65760405162461bcd60e51b81526004016104d790611fed565b610735611222565b610ad661111e565b6001600160a01b0316610ae7610b6a565b6001600160a01b031614610b0d5760405162461bcd60e51b81526004016104d790611fed565b6001600160a01b03811660009081526008602052604090205460ff1615610b465760405162461bcd60e51b81526004016104d790611f7f565b6001600160a01b03166000908152600860205260409020805460ff19166001179055565b6000546001600160a01b031690565b600a546001600160a01b031681565b60026001541415610bab5760405162461bcd60e51b81526004016104d790612165565b6002600155610bb8610737565b15610bd55760405162461bcd60e51b81526004016104d790611fb6565b6001600160a01b038216600090815260086020526040902054829060ff16610c0f5760405162461bcd60e51b81526004016104d790611e57565b6000610c1c87878761127d565b600b54909150610c36906001600160a01b031682856112de565b60095460405163a9a12d4360e01b81526000916001600160a01b03169063a9a12d4390610c699088908b90600401611d19565b602060405180830381600087803b158015610c8357600080fd5b505af1158015610c97573d6000803e3d6000fd5b505050506040513d601f19601f82011682018060405250810190610cbb9190611b34565b9050610cdb85610cc9611122565b600a546001600160a01b031684611394565b6000610cf088888b610ceb611122565b611499565b9050807f39d12e8951d830ef8836319a4450cf10c520dfcbea8db9ed98011efdfa1389a7610d1c611122565b88858c604051610d2f9493929190611cf0565b60405180910390a250506001805550505050505050565b60045481565b7f000000000000000000000000000000000000000000000000000000000000000081565b610d7861111e565b6001600160a01b0316610d89610b6a565b6001600160a01b031614610daf5760405162461bcd60e51b81526004016104d790611fed565b6001600160a01b03811660009081526008602052604090205460ff16610de75760405162461bcd60e51b81526004016104d790612022565b6001600160a01b03166000908152600860205260409020805460ff19169055565b6009546001600160a01b031681565b60026001541415610e3a5760405162461bcd60e51b81526004016104d790612165565b6002600155610e47610737565b15610e645760405162461bcd60e51b81526004016104d790611fb6565b6000610e7185858561127d565b600b54909150610e8b906001600160a01b031682846112de565b60095460405163531a221160e01b81526000916001600160a01b03169063531a221190610ebc90889060040161219c565b60206040518083038186803b158015610ed457600080fd5b505afa158015610ee8573d6000803e3d6000fd5b505050506040513d601f19601f82011682018060405250810190610f0c9190611b34565b905080341015610f2e5760405162461bcd60e51b81526004016104d79061209a565b80341115610f5057610f50610f41611122565b610f4b8334612217565b611573565b600a54610f66906001600160a01b031682611573565b6000610f76868689610ceb611122565b9050807f39d12e8951d830ef8836319a4450cf10c520dfcbea8db9ed98011efdfa1389a7610fa2611122565b7f0000000000000000000000000000000000000000000000000000000000000000858a604051610fd59493929190611cf0565b60405180910390a25050600180555050505050565b610ff261111e565b6001600160a01b0316611003610b6a565b6001600160a01b0316146110295760405162461bcd60e51b81526004016104d790611fed565b6001600160a01b03811661104f5760405162461bcd60e51b81526004016104d790611dda565b600080546040516001600160a01b03808516939216917f8be0079c531659141344cd1fd0a4f28419497f9722a3daafe3b4186f6b6457e091a3600080546001600160a01b0319166001600160a01b0392909216919091179055565b6001600160a01b0382166000908152600760205260408120805467ffffffffffffffff84169081106110ec57634e487b7160e01b600052603260045260246000fd5b90600052602060002090600491828204019190066008029054906101000a900467ffffffffffffffff16905092915050565b3390565b60003330141561117957600080368080601f0160208091040260200160405190810160405280939291908181526020018383808284376000920191909152505050503601516001600160a01b0316915061073e9050565b503361073e565b611188610737565b6111a45760405162461bcd60e51b81526004016104d790611d6e565b6002805460ff191690557f5db9ee0a495bf2e6ff9c91a7834c1ba4fdd244a5e8aa4e537bd38aeae4b073aa6111d761111e565b6040516111e49190611c69565b60405180910390a1565b6000816040516020016112019190611bf2565b604051602081830303815290604052805190602001209050919050565b5490565b61122a610737565b156112475760405162461bcd60e51b81526004016104d790611fb6565b6002805460ff191660011790557f62e78cea01bee320cd4e420270b5ea74000d11b0c9f74754ebdbfc544b05a2586111d761111e565b60008084848460405160200161129593929190611bcb565b604051602081830303815290604052805190602001209050806040516020016112be9190611bf2565b604051602081830303815290604052805190602001209150509392505050565b60008060006112ec84611605565b9250925092506000600186838686604051600081526020016040526040516113179493929190611d3d565b6020604051602081039080840390855afa158015611339573d6000803e3d6000fd5b5050604051601f1901519150506001600160a01b0381161580159061136f5750866001600160a01b0316816001600160a01b0316145b61138b5760405162461bcd60e51b81526004016104d790611da5565b50505050505050565b600080856001600160a01b03166323b872dd8686866040516024016113bb93929190611ccc565b6040516020818303038152906040529060e01b6020820180517bffffffffffffffffffffffffffffffffffffffffffffffffffffffff83818316178352505050506040516114099190611b78565b6000604051808303816000865af19150503d8060008114611446576040519150601f19603f3d011682016040523d82523d6000602084013e61144b565b606091505b50915091508180156114755750805115806114755750808060200190518101906114759190611a03565b6114915760405162461bcd60e51b81526004016104d790611e8e565b505050505050565b60006114a5600461121e565b604080516080810182524281526fffffffffffffffffffffffffffffffff8089166020808401918252898316848601908152606085018a81526000888152600c84529690962085518155925160018401805492518616600160801b029186166fffffffffffffffffffffffffffffffff199093169290921790941693909317909255925180519495509193611540926002850192019061176b565b5090505061154e8183611649565b61155782611677565b61156182826116cf565b61156b6004611762565b949350505050565b604080516000808252602082019092526001600160a01b03841690839060405161159d9190611b78565b60006040518083038185875af1925050503d80600081146115da576040519150601f19603f3d011682016040523d82523d6000602084013e6115df565b606091505b50509050806116005760405162461bcd60e51b81526004016104d790611eeb565b505050565b6000806000835160411461162b5760405162461bcd60e51b81526004016104d79061212e565b50505060208101516040820151606090920151909260009190911a90565b60009182526005602052604090912080546001600160a01b0319166001600160a01b03909216919091179055565b6001600160a01b0381166000908152600660205260408120805467ffffffffffffffff16916116a583612299565b91906101000a81548167ffffffffffffffff021916908367ffffffffffffffff1602179055505050565b6001600160a01b03821660009081526007602090815260408083208054600181018255908452919092206004820401805460039092166008026101000a67ffffffffffffffff81810219909316928516029190911790555181907fbe51e9a2a9ea8219cc8ab3194ee452fbdf2fa052f0d88d96a854c8ff2686151e90611756908590611c69565b60405180910390a25050565b80546001019055565b8280546117779061225e565b90600052602060002090601f01602090048101928261179957600085556117df565b82601f106117b257805160ff19168380011785556117df565b828001600101855582156117df579182015b828111156117df5782518255916020019190600101906117c4565b506117eb9291506117ef565b5090565b5b808211156117eb57600081556001016117f0565b80356001600160a01b038116811461086057600080fd5b600082601f83011261182b578081fd5b813567ffffffffffffffff80821115611846576118466122d7565b604051601f8301601f19168101602001828111828210171561186a5761186a6122d7565b604052828152848301602001861015611881578384fd5b82602086016020830137918201602001929092529392505050565b803560ff8116811461086057600080fd5b6000602082840312156118be578081fd5b6118c782611804565b9392505050565b600080600080600060a086880312156118e5578081fd5b6118ee86611804565b9450602086013567ffffffffffffffff811115611909578182fd5b6119158882890161181b565b94505060408601359250606086013591506119326080870161189c565b90509295509295909350565b600080600080600080600060e0888a031215611958578182fd5b61196188611804565b96506020880135955060408801359450606088013567ffffffffffffffff81111561198a578283fd5b6119968a828b0161181b565b9450506080880135925060a088013591506119b360c0890161189c565b905092959891949750929550565b600080604083850312156119d3578182fd5b6119dc83611804565b9150602083013567ffffffffffffffff811681146119f8578182fd5b809150509250929050565b600060208284031215611a14578081fd5b815180151581146118c7578182fd5b600080600080600060a08688031215611a3a578081fd5b853567ffffffffffffffff80821115611a51578283fd5b611a5d89838a0161181b565b96506020880135955060408801359450611a7960608901611804565b93506080880135915080821115611a8e578283fd5b50611a9b8882890161181b565b9150509295509295909350565b60008060008060808587031215611abd578384fd5b843567ffffffffffffffff80821115611ad4578586fd5b611ae08883890161181b565b955060208701359450604087013593506060870135915080821115611b03578283fd5b50611b108782880161181b565b91505092959194509250565b600060208284031215611b2d578081fd5b5035919050565b600060208284031215611b45578081fd5b5051919050565b60008151808452611b6481602086016020860161222e565b601f01601f19169290920160200192915050565b60008251611b8a81846020870161222e565b9190910192915050565b60008351611ba681846020880161222e565b60609390931b6bffffffffffffffffffffffff19169190920190815260140192915050565b60008451611bdd81846020890161222e565b91909101928352506020820152604001919050565b7f19457468657265756d205369676e6564204d6573736167653a0a3332000000008152601c810191909152603c0190565b60008582526bffffffffffffffffffffffff198560601b1660208301528360348301528251611c5981605485016020870161222e565b9190910160540195945050505050565b6001600160a01b0391909116815260200190565b6001600160a01b0392831681529116602082015260400190565b60006001600160a01b03808616835280851660208401525060606040830152611cc36060830184611b4c565b95945050505050565b6001600160a01b039384168152919092166020820152604081019190915260600190565b6001600160a01b0394851681529290931660208301526040820152606081019190915260800190565b6001600160a01b03929092168252602082015260400190565b901515815260200190565b93845260ff9290921660208401526040830152606082015260800190565b6000602082526118c76020830184611b4c565b60208082526014908201527f5061757361626c653a206e6f7420706175736564000000000000000000000000604082015260600190565b6020808252818101527f436f766572436f6d70617265643a20494e56414c49445f5349474e4154555245604082015260600190565b60208082526026908201527f4f776e61626c653a206e6577206f776e657220697320746865207a65726f206160408201526564647265737360d01b606082015260800190565b6020808252601c908201527f46756e6374696f6e2063616c6c206e6f74207375636365737366756c00000000604082015260600190565b60208082526011908201527f4e6f7420616c6c6f77656420746f6b656e000000000000000000000000000000604082015260600190565b60208082526031908201527f5472616e7366657248656c7065723a3a7472616e7366657246726f6d3a20747260408201527f616e7366657246726f6d206661696c6564000000000000000000000000000000606082015260800190565b60208082526034908201527f5472616e7366657248656c7065723a3a736166655472616e736665724554483a60408201527f20455448207472616e73666572206661696c6564000000000000000000000000606082015260800190565b60208082526011908201527f496e76616c6964207369676e6174757265000000000000000000000000000000604082015260600190565b60208082526011908201527f416c726561647920617661696c61626c65000000000000000000000000000000604082015260600190565b60208082526010908201527f5061757361626c653a2070617573656400000000000000000000000000000000604082015260600190565b6020808252818101527f4f776e61626c653a2063616c6c6572206973206e6f7420746865206f776e6572604082015260600190565b60208082526011908201527f4e6f7420617661696c61626c6520796574000000000000000000000000000000604082015260600190565b60208082526021908201527f5369676e657220616e64207369676e617475726520646f206e6f74206d6174636040820152600d60fb1b606082015260800190565b60208082526013908201527f496e73756666696369656e7420616d6f756e7400000000000000000000000000604082015260600190565b60208082526012908201527f496e76616c69642070726f647563742049440000000000000000000000000000604082015260600190565b6020808252600c908201526b5a45524f204164647265737360a01b604082015260600190565b60208082526018908201527f696e76616c6964207369676e6174757265206c656e6774680000000000000000604082015260600190565b6020808252601f908201527f5265656e7472616e637947756172643a207265656e7472616e742063616c6c00604082015260600190565b90815260200190565b60008582526fffffffffffffffffffffffffffffffff8086166020840152808516604084015250608060608301526121e06080830184611b4c565b9695505050505050565b67ffffffffffffffff91909116815260200190565b60008219821115612212576122126122c1565b500190565b600082821015612229576122296122c1565b500390565b60005b83811015612249578181015183820152602001612231565b83811115612258576000848401525b50505050565b60028104600182168061227257607f821691505b6020821081141561229357634e487b7160e01b600052602260045260246000fd5b50919050565b600067ffffffffffffffff808316818114156122b7576122b76122c1565b6001019392505050565b634e487b7160e01b600052601160045260246000fd5b634e487b7160e01b600052604160045260246000fdfea2646970667358221220ba99951d505ec85b645e23b58d077b45354e8a100367f3cfc0d9fa205c02011f64736f6c63430008000033",
  "devdoc": {
    "kind": "dev",
    "methods": {
      "buyProductByETH(string,uint256,uint256,bytes)": {
        "details": "buyProductETH function: this function should be called from user directly"
      },
      "buyProductByToken(string,uint256,uint256,address,bytes)": {
        "details": "buyProductByToken: Users can buy products using ERC20 tokens such as CVR and without gas fee"
      },
      "executeMetaTransaction(address,bytes,bytes32,bytes32,uint8)": {
        "params": {
          "functionSignature": "Signature of the actual function to be called via meta transaction",
          "sigR": "R part of the signature",
          "sigS": "S part of the signature",
          "sigV": "V part of the signature",
          "userAddress": "Address of user trying to do meta transaction"
        }
      },
      "owner()": {
        "details": "Returns the address of the current owner."
      },
      "paused()": {
        "details": "Returns true if the contract is paused, and false otherwise."
      },
      "renounceOwnership()": {
        "details": "Leaves the contract without owner. It will not be possible to call `onlyOwner` functions anymore. Can only be called by the current owner. NOTE: Renouncing ownership will leave the contract without an owner, thereby removing any functionality that is only available to the owner."
      },
      "transferOwnership(address)": {
        "details": "Transfers ownership of the contract to a new account (`newOwner`). Can only be called by the current owner."
      }
    },
    "version": 1
  },
  "userdoc": {
    "kind": "user",
    "methods": {
      "executeMetaTransaction(address,bytes,bytes32,bytes32,uint8)": {
        "notice": "Main function to be called when user wants to execute meta transaction. The actual function to be called should be passed as param with name functionSignature Here the basic signature recovery is being used. Signature is expected to be generated using personal_sign method."
      }
    },
    "version": 1
  },
  "storageLayout": {
    "storage": [
      {
        "astId": 7,
        "contract": "contracts/offchain/P4LCover.sol:P4LCover",
        "label": "_owner",
        "offset": 0,
        "slot": "0",
        "type": "t_address"
      },
      {
        "astId": 212,
        "contract": "contracts/offchain/P4LCover.sol:P4LCover",
        "label": "_status",
        "offset": 0,
        "slot": "1",
        "type": "t_uint256"
      },
      {
        "astId": 127,
        "contract": "contracts/offchain/P4LCover.sol:P4LCover",
        "label": "_paused",
        "offset": 0,
        "slot": "2",
        "type": "t_bool"
      },
      {
        "astId": 2107,
        "contract": "contracts/offchain/P4LCover.sol:P4LCover",
        "label": "nonces",
        "offset": 0,
        "slot": "3",
        "type": "t_mapping(t_address,t_uint256)"
      },
      {
        "astId": 3071,
        "contract": "contracts/offchain/P4LCover.sol:P4LCover",
        "label": "productIds",
        "offset": 0,
        "slot": "4",
        "type": "t_struct(Counter)1041_storage"
      },
      {
        "astId": 3075,
        "contract": "contracts/offchain/P4LCover.sol:P4LCover",
        "label": "_ownerOf",
        "offset": 0,
        "slot": "5",
        "type": "t_mapping(t_uint256,t_address)"
      },
      {
        "astId": 3079,
        "contract": "contracts/offchain/P4LCover.sol:P4LCover",
        "label": "_balanceOf",
        "offset": 0,
        "slot": "6",
        "type": "t_mapping(t_address,t_uint64)"
      },
      {
        "astId": 3084,
        "contract": "contracts/offchain/P4LCover.sol:P4LCover",
        "label": "_productsOf",
        "offset": 0,
        "slot": "7",
        "type": "t_mapping(t_address,t_array(t_uint64)dyn_storage)"
      },
      {
        "astId": 3088,
        "contract": "contracts/offchain/P4LCover.sol:P4LCover",
        "label": "availableCurrencies",
        "offset": 0,
        "slot": "8",
        "type": "t_mapping(t_address,t_bool)"
      },
      {
        "astId": 3092,
        "contract": "contracts/offchain/P4LCover.sol:P4LCover",
        "label": "exchangeAgent",
        "offset": 0,
        "slot": "9",
        "type": "t_address"
      },
      {
        "astId": 3094,
        "contract": "contracts/offchain/P4LCover.sol:P4LCover",
        "label": "devWallet",
        "offset": 0,
        "slot": "10",
        "type": "t_address"
      },
      {
        "astId": 3096,
        "contract": "contracts/offchain/P4LCover.sol:P4LCover",
        "label": "signer",
        "offset": 0,
        "slot": "11",
        "type": "t_address"
      },
      {
        "astId": 3806,
        "contract": "contracts/offchain/P4LCover.sol:P4LCover",
        "label": "products",
        "offset": 0,
        "slot": "12",
        "type": "t_mapping(t_uint256,t_struct(Product)3801_storage)"
      }
    ],
    "types": {
      "t_address": {
        "encoding": "inplace",
        "label": "address",
        "numberOfBytes": "20"
      },
      "t_array(t_uint64)dyn_storage": {
        "base": "t_uint64",
        "encoding": "dynamic_array",
        "label": "uint64[]",
        "numberOfBytes": "32"
      },
      "t_bool": {
        "encoding": "inplace",
        "label": "bool",
        "numberOfBytes": "1"
      },
      "t_mapping(t_address,t_array(t_uint64)dyn_storage)": {
        "encoding": "mapping",
        "key": "t_address",
        "label": "mapping(address => uint64[])",
        "numberOfBytes": "32",
        "value": "t_array(t_uint64)dyn_storage"
      },
      "t_mapping(t_address,t_bool)": {
        "encoding": "mapping",
        "key": "t_address",
        "label": "mapping(address => bool)",
        "numberOfBytes": "32",
        "value": "t_bool"
      },
      "t_mapping(t_address,t_uint256)": {
        "encoding": "mapping",
        "key": "t_address",
        "label": "mapping(address => uint256)",
        "numberOfBytes": "32",
        "value": "t_uint256"
      },
      "t_mapping(t_address,t_uint64)": {
        "encoding": "mapping",
        "key": "t_address",
        "label": "mapping(address => uint64)",
        "numberOfBytes": "32",
        "value": "t_uint64"
      },
      "t_mapping(t_uint256,t_address)": {
        "encoding": "mapping",
        "key": "t_uint256",
        "label": "mapping(uint256 => address)",
        "numberOfBytes": "32",
        "value": "t_address"
      },
      "t_mapping(t_uint256,t_struct(Product)3801_storage)": {
        "encoding": "mapping",
        "key": "t_uint256",
        "label": "mapping(uint256 => struct P4LCover.Product)",
        "numberOfBytes": "32",
        "value": "t_struct(Product)3801_storage"
      },
      "t_string_storage": {
        "encoding": "bytes",
        "label": "string",
        "numberOfBytes": "32"
      },
      "t_struct(Counter)1041_storage": {
        "encoding": "inplace",
        "label": "struct Counters.Counter",
        "members": [
          {
            "astId": 1040,
            "contract": "contracts/offchain/P4LCover.sol:P4LCover",
            "label": "_value",
            "offset": 0,
            "slot": "0",
            "type": "t_uint256"
          }
        ],
        "numberOfBytes": "32"
      },
      "t_struct(Product)3801_storage": {
        "encoding": "inplace",
        "label": "struct P4LCover.Product",
        "members": [
          {
            "astId": 3794,
            "contract": "contracts/offchain/P4LCover.sol:P4LCover",
            "label": "startTime",
            "offset": 0,
            "slot": "0",
            "type": "t_uint256"
          },
          {
            "astId": 3796,
            "contract": "contracts/offchain/P4LCover.sol:P4LCover",
            "label": "priceInUSD",
            "offset": 0,
            "slot": "1",
            "type": "t_uint128"
          },
          {
            "astId": 3798,
            "contract": "contracts/offchain/P4LCover.sol:P4LCover",
            "label": "durPlan",
            "offset": 16,
            "slot": "1",
            "type": "t_uint128"
          },
          {
            "astId": 3800,
            "contract": "contracts/offchain/P4LCover.sol:P4LCover",
            "label": "policyId",
            "offset": 0,
            "slot": "2",
            "type": "t_string_storage"
          }
        ],
        "numberOfBytes": "96"
      },
      "t_uint128": {
        "encoding": "inplace",
        "label": "uint128",
        "numberOfBytes": "16"
      },
      "t_uint256": {
        "encoding": "inplace",
        "label": "uint256",
        "numberOfBytes": "32"
      },
      "t_uint64": {
        "encoding": "inplace",
        "label": "uint64",
        "numberOfBytes": "8"
      }
    }
  }
}