{
  "address": "0x238E67Ef545cdAffa380623E4cE2F1614dAFD38D",
  "abi": [
    {
      "inputs": [
        {
          "internalType": "address",
          "name": "_WETH",
          "type": "address"
        },
        {
          "internalType": "address",
          "name": "_exchangeAgent",
          "type": "address"
        },
        {
          "internalType": "address",
          "name": "_devWallet",
          "type": "address"
        },
        {
          "internalType": "address",
          "name": "_signer",
          "type": "address"
        }
      ],
      "stateMutability": "nonpayable",
      "type": "constructor"
    },
    {
      "anonymous": false,
      "inputs": [
        {
          "indexed": true,
          "internalType": "uint256",
          "name": "_productId",
          "type": "uint256"
        },
        {
          "indexed": false,
          "internalType": "address",
          "name": "_buyer",
          "type": "address"
        },
        {
          "indexed": false,
          "internalType": "address",
          "name": "_currency",
          "type": "address"
        },
        {
          "indexed": false,
          "internalType": "uint256",
          "name": "_amount",
          "type": "uint256"
        },
        {
          "indexed": false,
          "internalType": "uint256",
          "name": "_priceInUSD",
          "type": "uint256"
        }
      ],
      "name": "BuyP4L",
      "type": "event"
    },
    {
      "anonymous": false,
      "inputs": [
        {
          "indexed": true,
          "internalType": "uint256",
          "name": "_productId",
          "type": "uint256"
        },
        {
          "indexed": false,
          "internalType": "address",
          "name": "_buyer",
          "type": "address"
        }
      ],
      "name": "BuyProduct",
      "type": "event"
    },
    {
      "anonymous": false,
      "inputs": [
        {
          "indexed": false,
          "internalType": "address",
          "name": "userAddress",
          "type": "address"
        },
        {
          "indexed": false,
          "internalType": "address payable",
          "name": "relayerAddress",
          "type": "address"
        },
        {
          "indexed": false,
          "internalType": "bytes",
          "name": "functionSignature",
          "type": "bytes"
        }
      ],
      "name": "MetaTransactionExecuted",
      "type": "event"
    },
    {
      "anonymous": false,
      "inputs": [
        {
          "indexed": true,
          "internalType": "address",
          "name": "previousOwner",
          "type": "address"
        },
        {
          "indexed": true,
          "internalType": "address",
          "name": "newOwner",
          "type": "address"
        }
      ],
      "name": "OwnershipTransferred",
      "type": "event"
    },
    {
      "anonymous": false,
      "inputs": [
        {
          "indexed": false,
          "internalType": "address",
          "name": "account",
          "type": "address"
        }
      ],
      "name": "Paused",
      "type": "event"
    },
    {
      "anonymous": false,
      "inputs": [
        {
          "indexed": false,
          "internalType": "address",
          "name": "_setter",
          "type": "address"
        },
        {
          "indexed": false,
          "internalType": "address",
          "name": "_exchangeAgent",
          "type": "address"
        }
      ],
      "name": "SetExchangeAgent",
      "type": "event"
    },
    {
      "anonymous": false,
      "inputs": [
        {
          "indexed": false,
          "internalType": "address",
          "name": "_setter",
          "type": "address"
        },
        {
          "indexed": false,
          "internalType": "address",
          "name": "_signer",
          "type": "address"
        }
      ],
      "name": "SetSigner",
      "type": "event"
    },
    {
      "anonymous": false,
      "inputs": [
        {
          "indexed": false,
          "internalType": "address",
          "name": "account",
          "type": "address"
        }
      ],
      "name": "Unpaused",
      "type": "event"
    },
    {
      "inputs": [],
      "name": "WETH",
      "outputs": [
        {
          "internalType": "address",
          "name": "",
          "type": "address"
        }
      ],
      "stateMutability": "view",
      "type": "function"
    },
    {
      "inputs": [
        {
          "internalType": "address",
          "name": "_currency",
          "type": "address"
        }
      ],
      "name": "addCurrency",
      "outputs": [],
      "stateMutability": "nonpayable",
      "type": "function"
    },
    {
      "inputs": [
        {
          "internalType": "address",
          "name": "",
          "type": "address"
        }
      ],
      "name": "availableCurrencies",
      "outputs": [
        {
          "internalType": "bool",
          "name": "",
          "type": "bool"
        }
      ],
      "stateMutability": "view",
      "type": "function"
    },
    {
      "inputs": [
        {
          "internalType": "address",
          "name": "_account",
          "type": "address"
        }
      ],
      "name": "balanceOf",
      "outputs": [
        {
          "internalType": "uint64",
          "name": "",
          "type": "uint64"
        }
      ],
      "stateMutability": "view",
      "type": "function"
    },
    {
      "inputs": [
        {
          "internalType": "string",
          "name": "_policyId",
          "type": "string"
        },
        {
          "internalType": "uint256",
          "name": "_value",
          "type": "uint256"
        },
        {
          "internalType": "uint256",
          "name": "_durPlan",
          "type": "uint256"
        },
        {
          "internalType": "bytes",
          "name": "sig",
          "type": "bytes"
        }
      ],
      "name": "buyProductByETH",
      "outputs": [],
      "stateMutability": "payable",
      "type": "function"
    },
    {
      "inputs": [
        {
          "internalType": "string",
          "name": "_policyId",
          "type": "string"
        },
        {
          "internalType": "uint256",
          "name": "_value",
          "type": "uint256"
        },
        {
          "internalType": "uint256",
          "name": "_durPlan",
          "type": "uint256"
        },
        {
          "internalType": "address",
          "name": "_token",
          "type": "address"
        },
        {
          "internalType": "bytes",
          "name": "sig",
          "type": "bytes"
        }
      ],
      "name": "buyProductByToken",
      "outputs": [],
      "stateMutability": "nonpayable",
      "type": "function"
    },
    {
      "inputs": [],
      "name": "devWallet",
      "outputs": [
        {
          "internalType": "address",
          "name": "",
          "type": "address"
        }
      ],
      "stateMutability": "view",
      "type": "function"
    },
    {
      "inputs": [],
      "name": "exchangeAgent",
      "outputs": [
        {
          "internalType": "address",
          "name": "",
          "type": "address"
        }
      ],
      "stateMutability": "view",
      "type": "function"
    },
    {
      "inputs": [
        {
          "internalType": "address",
          "name": "userAddress",
          "type": "address"
        },
        {
          "internalType": "bytes",
          "name": "functionSignature",
          "type": "bytes"
        },
        {
          "internalType": "bytes32",
          "name": "sigR",
          "type": "bytes32"
        },
        {
          "internalType": "bytes32",
          "name": "sigS",
          "type": "bytes32"
        },
        {
          "internalType": "uint8",
          "name": "sigV",
          "type": "uint8"
        }
      ],
      "name": "executeMetaTransaction",
      "outputs": [
        {
          "internalType": "bytes",
          "name": "",
          "type": "bytes"
        }
      ],
      "stateMutability": "payable",
      "type": "function"
    },
    {
      "inputs": [
        {
          "internalType": "address",
          "name": "user",
          "type": "address"
        }
      ],
      "name": "getNonce",
      "outputs": [
        {
          "internalType": "uint256",
          "name": "nonce",
          "type": "uint256"
        }
      ],
      "stateMutability": "view",
      "type": "function"
    },
    {
      "inputs": [],
      "name": "owner",
      "outputs": [
        {
          "internalType": "address",
          "name": "",
          "type": "address"
        }
      ],
      "stateMutability": "view",
      "type": "function"
    },
    {
      "inputs": [
        {
          "internalType": "uint256",
          "name": "_prodId",
          "type": "uint256"
        }
      ],
      "name": "ownerOf",
      "outputs": [
        {
          "internalType": "address",
          "name": "",
          "type": "address"
        }
      ],
      "stateMutability": "view",
      "type": "function"
    },
    {
      "inputs": [],
      "name": "pause",
      "outputs": [],
      "stateMutability": "nonpayable",
      "type": "function"
    },
    {
      "inputs": [],
      "name": "paused",
      "outputs": [
        {
          "internalType": "bool",
          "name": "",
          "type": "bool"
        }
      ],
      "stateMutability": "view",
      "type": "function"
    },
    {
      "inputs": [],
      "name": "productIds",
      "outputs": [
        {
          "internalType": "uint256",
          "name": "_value",
          "type": "uint256"
        }
      ],
      "stateMutability": "view",
      "type": "function"
    },
    {
      "inputs": [
        {
          "internalType": "address",
          "name": "_owner",
          "type": "address"
        },
        {
          "internalType": "uint64",
          "name": "_idx",
          "type": "uint64"
        }
      ],
      "name": "productOf",
      "outputs": [
        {
          "internalType": "uint64",
          "name": "",
          "type": "uint64"
        }
      ],
      "stateMutability": "view",
      "type": "function"
    },
    {
      "inputs": [
        {
          "internalType": "uint256",
          "name": "",
          "type": "uint256"
        }
      ],
      "name": "products",
      "outputs": [
        {
          "internalType": "uint256",
          "name": "startTime",
          "type": "uint256"
        },
        {
          "internalType": "uint128",
          "name": "priceInUSD",
          "type": "uint128"
        },
        {
          "internalType": "uint128",
          "name": "durPlan",
          "type": "uint128"
        },
        {
          "internalType": "string",
          "name": "policyId",
          "type": "string"
        }
      ],
      "stateMutability": "view",
      "type": "function"
    },
    {
      "inputs": [
        {
          "internalType": "address",
          "name": "_currency",
          "type": "address"
        }
      ],
      "name": "removeCurrency",
      "outputs": [],
      "stateMutability": "nonpayable",
      "type": "function"
    },
    {
      "inputs": [],
      "name": "renounceOwnership",
      "outputs": [],
      "stateMutability": "nonpayable",
      "type": "function"
    },
    {
      "inputs": [
        {
          "internalType": "address",
          "name": "_exchangeAgent",
          "type": "address"
        }
      ],
      "name": "setExchangeAgent",
      "outputs": [],
      "stateMutability": "nonpayable",
      "type": "function"
    },
    {
      "inputs": [
        {
          "internalType": "address",
          "name": "_signer",
          "type": "address"
        }
      ],
      "name": "setSigner",
      "outputs": [],
      "stateMutability": "nonpayable",
      "type": "function"
    },
    {
      "inputs": [],
      "name": "signer",
      "outputs": [
        {
          "internalType": "address",
          "name": "",
          "type": "address"
        }
      ],
      "stateMutability": "view",
      "type": "function"
    },
    {
      "inputs": [
        {
          "internalType": "address",
          "name": "newOwner",
          "type": "address"
        }
      ],
      "name": "transferOwnership",
      "outputs": [],
      "stateMutability": "nonpayable",
      "type": "function"
    },
    {
      "inputs": [],
      "name": "unpause",
      "outputs": [],
      "stateMutability": "nonpayable",
      "type": "function"
    },
    {
      "inputs": [
        {
          "internalType": "address",
          "name": "owner",
          "type": "address"
        },
        {
          "internalType": "uint256",
          "name": "nonce",
          "type": "uint256"
        },
        {
          "internalType": "uint256",
          "name": "chainID",
          "type": "uint256"
        },
        {
          "internalType": "bytes",
          "name": "functionSignature",
          "type": "bytes"
        },
        {
          "internalType": "bytes32",
          "name": "sigR",
          "type": "bytes32"
        },
        {
          "internalType": "bytes32",
          "name": "sigS",
          "type": "bytes32"
        },
        {
          "internalType": "uint8",
          "name": "sigV",
          "type": "uint8"
        }
      ],
      "name": "verify",
      "outputs": [
        {
          "internalType": "bool",
          "name": "",
          "type": "bool"
        }
      ],
      "stateMutability": "view",
      "type": "function"
    },
    {
      "stateMutability": "payable",
      "type": "receive"
    }
  ],
  "transactionHash": "0xb68e88291b24f064925c0deb6475977c846778ab3e2378ad7ee0683c1f506bf2",
  "args": [
    "0xc778417e063141139fce010982780140aa0cd5ab",
    "0x9717cA3f6b5E560d244D41791D5760316d2b7bFE",
    "0x6C641CE6A7216F12d28692f9d8b2BDcdE812eD2b",
    "0x356C9B814a5D3508ab76834D0eF67e6A171d3740"
  ],
  "solcInputHash": "402f1543afb350be708cd1fbe1e6e8a3",
  "bytecode": "0x60a06040523480156200001157600080fd5b50604051620024c8380380620024c8833981016040819052620000349162000118565b83838383600062000044620000f7565b600080546001600160a01b0319166001600160a01b0383169081178255604051929350917f8be0079c531659141344cd1fd0a4f28419497f9722a3daafe3b4186f6b6457e0908290a350600180556002805460ff1916905560609390931b6001600160601b031916608052600980546001600160a01b03199081166001600160a01b0394851617909155600a8054821692841692909217909155600b805490911691909216179055506200017492505050565b3390565b80516001600160a01b03811681146200011357600080fd5b919050565b600080600080608085870312156200012e578384fd5b6200013985620000fb565b93506200014960208601620000fb565b92506200015960408601620000fb565b91506200016960608601620000fb565b905092959194509250565b60805160601c61232e6200019a60003960008181610d590152610faf015261232e6000f3fe60806040526004361061019a5760003560e01c80637acc0b20116100e1578063aa57511d1161008a578063d9203b9111610064578063d9203b9114610432578063dbab5f8814610447578063f2fde38b1461045a578063f47962871461047a576101a1565b8063aa57511d146103e8578063ad5c4648146103fd578063c5d3a10714610412576101a1565b80638da5cb5b116100bb5780638da5cb5b1461039e5780638ea5220f146103b3578063a0f16fad146103c8576101a1565b80637acc0b20146103395780638456cb59146103695780638ab234b61461037e576101a1565b80635c975abb116101435780636c19e7831161011d5780636c19e783146102d757806370a08231146102f7578063715018a614610324576101a1565b80635c975abb146102825780636281133d146102975780636352211e146102b7576101a1565b8063238ac93311610174578063238ac9331461021e5780632d0335ab146102405780633f4ba83a1461026d576101a1565b80630c53c51c146101a657806318a00d8e146101cf5780631af42c0f146101f1576101a1565b366101a157005b600080fd5b6101b96101b43660046118d9565b61049a565b6040516101c69190611d66565b60405180910390f35b3480156101db57600080fd5b506101ef6101ea3660046118b8565b6105f7565b005b3480156101fd57600080fd5b5061021161020c3660046118b8565b6106ba565b6040516101c69190611d3d565b34801561022a57600080fd5b506102336106cf565b6040516101c69190611c74565b34801561024c57600080fd5b5061026061025b3660046118b8565b6106de565b6040516101c691906121a7565b34801561027957600080fd5b506101ef6106f9565b34801561028e57600080fd5b50610211610742565b3480156102a357600080fd5b506102116102b2366004611949565b61074c565b3480156102c357600080fd5b506102336102d2366004611b27565b61081c565b3480156102e357600080fd5b506101ef6102f23660046118b8565b610870565b34801561030357600080fd5b506103176103123660046118b8565b610919565b6040516101c691906121f5565b34801561033057600080fd5b506101ef61093e565b34801561034557600080fd5b50610359610354366004611b27565b6109c7565b6040516101c694939291906121b0565b34801561037557600080fd5b506101ef610a92565b34801561038a57600080fd5b506101ef6103993660046118b8565b610ad9565b3480156103aa57600080fd5b50610233610b75565b3480156103bf57600080fd5b50610233610b84565b3480156103d457600080fd5b506101ef6103e3366004611a2e565b610b93565b3480156103f457600080fd5b50610260610d51565b34801561040957600080fd5b50610233610d57565b34801561041e57600080fd5b506101ef61042d3660046118b8565b610d7b565b34801561043e57600080fd5b50610233610e13565b6101ef610455366004611ab3565b610e22565b34801561046657600080fd5b506101ef6104753660046118b8565b610ff5565b34801561048657600080fd5b506103176104953660046119cc565b6110b5565b6001600160a01b0385166000908152600360205260409020546060906104c6908790468888888861074c565b6104eb5760405162461bcd60e51b81526004016104e290612064565b60405180910390fd5b6001600160a01b038616600090815260036020526040812080546001929061051490849061220a565b9091555050604051600090819030906105339089908b90602001611b9f565b60408051601f198184030181529082905261054d91611b83565b6000604051808303816000865af19150503d806000811461058a576040519150601f19603f3d011682016040523d82523d6000602084013e61058f565b606091505b5091509150816105b15760405162461bcd60e51b81526004016104e290611e2b565b7f5845892132946850460bff5a0083f71031bc5bf9aadcd40f1de79423eac9b10b8833896040516105e493929190611ca2565b60405180910390a1979650505050505050565b6105ff611129565b6001600160a01b0316610610610b75565b6001600160a01b0316146106365760405162461bcd60e51b81526004016104e290611ff8565b6001600160a01b03811661065c5760405162461bcd60e51b81526004016104e290612113565b600980546001600160a01b0319166001600160a01b0383161790557f0143625ceac80b2452760213c6b6f5a22eb63bc46e17d129c30fffefb4679eb66106a061112d565b826040516106af929190611c88565b60405180910390a150565b60086020526000908152604090205460ff1681565b600b546001600160a01b031681565b6001600160a01b031660009081526003602052604090205490565b610701611129565b6001600160a01b0316610712610b75565b6001600160a01b0316146107385760405162461bcd60e51b81526004016104e290611ff8565b61074061118b565b565b60025460ff165b90565b600080610784883089896040516020016107699493929190611c2e565b604051602081830303815290604052805190602001206111f9565b90506000600182858888604051600081526020016040526040516107ab9493929190611d48565b6020604051602081039080840390855afa1580156107cd573d6000803e3d6000fd5b5050604051601f1901519150506001600160a01b0381166108005760405162461bcd60e51b81526004016104e290611f53565b6001600160a01b038a8116911614915050979650505050505050565b60006108286004611229565b61083390600161220a565b82106108515760405162461bcd60e51b81526004016104e2906120dc565b506000818152600560205260409020546001600160a01b03165b919050565b610878611129565b6001600160a01b0316610889610b75565b6001600160a01b0316146108af5760405162461bcd60e51b81526004016104e290611ff8565b6001600160a01b0381166108d55760405162461bcd60e51b81526004016104e290612113565b600b80546001600160a01b0319166001600160a01b0383161790557f3271c8694494a7cc76cd185c743e9ee6b515a043ea98c0db7f5ca112f694add46106a061112d565b6001600160a01b031660009081526006602052604090205467ffffffffffffffff1690565b610946611129565b6001600160a01b0316610957610b75565b6001600160a01b03161461097d5760405162461bcd60e51b81526004016104e290611ff8565b600080546040516001600160a01b03909116907f8be0079c531659141344cd1fd0a4f28419497f9722a3daafe3b4186f6b6457e0908390a3600080546001600160a01b0319169055565b600c6020526000908152604090208054600182015460028301805492936fffffffffffffffffffffffffffffffff80841694600160801b9094041692909190610a0f90612269565b80601f0160208091040260200160405190810160405280929190818152602001828054610a3b90612269565b8015610a885780601f10610a5d57610100808354040283529160200191610a88565b820191906000526020600020905b815481529060010190602001808311610a6b57829003601f168201915b5050505050905084565b610a9a611129565b6001600160a01b0316610aab610b75565b6001600160a01b031614610ad15760405162461bcd60e51b81526004016104e290611ff8565b61074061122d565b610ae1611129565b6001600160a01b0316610af2610b75565b6001600160a01b031614610b185760405162461bcd60e51b81526004016104e290611ff8565b6001600160a01b03811660009081526008602052604090205460ff1615610b515760405162461bcd60e51b81526004016104e290611f8a565b6001600160a01b03166000908152600860205260409020805460ff19166001179055565b6000546001600160a01b031690565b600a546001600160a01b031681565b60026001541415610bb65760405162461bcd60e51b81526004016104e290612170565b6002600155610bc3610742565b15610be05760405162461bcd60e51b81526004016104e290611fc1565b6001600160a01b038216600090815260086020526040902054829060ff16610c1a5760405162461bcd60e51b81526004016104e290611e62565b6000610c27878787611288565b600b54909150610c41906001600160a01b031682856112e9565b60095460405163a9a12d4360e01b81526000916001600160a01b03169063a9a12d4390610c749088908b90600401611d24565b602060405180830381600087803b158015610c8e57600080fd5b505af1158015610ca2573d6000803e3d6000fd5b505050506040513d601f19601f82011682018060405250810190610cc69190611b3f565b9050610ce685610cd461112d565b600a546001600160a01b03168461139f565b6000610cfb88888b610cf661112d565b6114a4565b9050807f39d12e8951d830ef8836319a4450cf10c520dfcbea8db9ed98011efdfa1389a7610d2761112d565b88858c604051610d3a9493929190611cfb565b60405180910390a250506001805550505050505050565b60045481565b7f000000000000000000000000000000000000000000000000000000000000000081565b610d83611129565b6001600160a01b0316610d94610b75565b6001600160a01b031614610dba5760405162461bcd60e51b81526004016104e290611ff8565b6001600160a01b03811660009081526008602052604090205460ff16610df25760405162461bcd60e51b81526004016104e29061202d565b6001600160a01b03166000908152600860205260409020805460ff19169055565b6009546001600160a01b031681565b60026001541415610e455760405162461bcd60e51b81526004016104e290612170565b6002600155610e52610742565b15610e6f5760405162461bcd60e51b81526004016104e290611fc1565b6000610e7c858585611288565b600b54909150610e96906001600160a01b031682846112e9565b60095460405163531a221160e01b81526000916001600160a01b03169063531a221190610ec79088906004016121a7565b60206040518083038186803b158015610edf57600080fd5b505afa158015610ef3573d6000803e3d6000fd5b505050506040513d601f19601f82011682018060405250810190610f179190611b3f565b905080341015610f395760405162461bcd60e51b81526004016104e2906120a5565b80341115610f5b57610f5b610f4c61112d565b610f568334612222565b61157e565b600a54610f71906001600160a01b03168261157e565b6000610f81868689610cf661112d565b9050807f39d12e8951d830ef8836319a4450cf10c520dfcbea8db9ed98011efdfa1389a7610fad61112d565b7f0000000000000000000000000000000000000000000000000000000000000000858a604051610fe09493929190611cfb565b60405180910390a25050600180555050505050565b610ffd611129565b6001600160a01b031661100e610b75565b6001600160a01b0316146110345760405162461bcd60e51b81526004016104e290611ff8565b6001600160a01b03811661105a5760405162461bcd60e51b81526004016104e290611de5565b600080546040516001600160a01b03808516939216917f8be0079c531659141344cd1fd0a4f28419497f9722a3daafe3b4186f6b6457e091a3600080546001600160a01b0319166001600160a01b0392909216919091179055565b6001600160a01b0382166000908152600760205260408120805467ffffffffffffffff84169081106110f757634e487b7160e01b600052603260045260246000fd5b90600052602060002090600491828204019190066008029054906101000a900467ffffffffffffffff16905092915050565b3390565b60003330141561118457600080368080601f0160208091040260200160405190810160405280939291908181526020018383808284376000920191909152505050503601516001600160a01b031691506107499050565b5033610749565b611193610742565b6111af5760405162461bcd60e51b81526004016104e290611d79565b6002805460ff191690557f5db9ee0a495bf2e6ff9c91a7834c1ba4fdd244a5e8aa4e537bd38aeae4b073aa6111e2611129565b6040516111ef9190611c74565b60405180910390a1565b60008160405160200161120c9190611bfd565b604051602081830303815290604052805190602001209050919050565b5490565b611235610742565b156112525760405162461bcd60e51b81526004016104e290611fc1565b6002805460ff191660011790557f62e78cea01bee320cd4e420270b5ea74000d11b0c9f74754ebdbfc544b05a2586111e2611129565b6000808484846040516020016112a093929190611bd6565b604051602081830303815290604052805190602001209050806040516020016112c99190611bfd565b604051602081830303815290604052805190602001209150509392505050565b60008060006112f784611610565b9250925092506000600186838686604051600081526020016040526040516113229493929190611d48565b6020604051602081039080840390855afa158015611344573d6000803e3d6000fd5b5050604051601f1901519150506001600160a01b0381161580159061137a5750866001600160a01b0316816001600160a01b0316145b6113965760405162461bcd60e51b81526004016104e290611db0565b50505050505050565b600080856001600160a01b03166323b872dd8686866040516024016113c693929190611cd7565b6040516020818303038152906040529060e01b6020820180517bffffffffffffffffffffffffffffffffffffffffffffffffffffffff83818316178352505050506040516114149190611b83565b6000604051808303816000865af19150503d8060008114611451576040519150601f19603f3d011682016040523d82523d6000602084013e611456565b606091505b50915091508180156114805750805115806114805750808060200190518101906114809190611a0e565b61149c5760405162461bcd60e51b81526004016104e290611e99565b505050505050565b60006114b06004611229565b604080516080810182524281526fffffffffffffffffffffffffffffffff8089166020808401918252898316848601908152606085018a81526000888152600c84529690962085518155925160018401805492518616600160801b029186166fffffffffffffffffffffffffffffffff19909316929092179094169390931790925592518051949550919361154b9260028501920190611776565b509050506115598183611654565b61156282611682565b61156c82826116da565b611576600461176d565b949350505050565b604080516000808252602082019092526001600160a01b0384169083906040516115a89190611b83565b60006040518083038185875af1925050503d80600081146115e5576040519150601f19603f3d011682016040523d82523d6000602084013e6115ea565b606091505b505090508061160b5760405162461bcd60e51b81526004016104e290611ef6565b505050565b600080600083516041146116365760405162461bcd60e51b81526004016104e290612139565b50505060208101516040820151606090920151909260009190911a90565b60009182526005602052604090912080546001600160a01b0319166001600160a01b03909216919091179055565b6001600160a01b0381166000908152600660205260408120805467ffffffffffffffff16916116b0836122a4565b91906101000a81548167ffffffffffffffff021916908367ffffffffffffffff1602179055505050565b6001600160a01b03821660009081526007602090815260408083208054600181018255908452919092206004820401805460039092166008026101000a67ffffffffffffffff81810219909316928516029190911790555181907fbe51e9a2a9ea8219cc8ab3194ee452fbdf2fa052f0d88d96a854c8ff2686151e90611761908590611c74565b60405180910390a25050565b80546001019055565b82805461178290612269565b90600052602060002090601f0160209004810192826117a457600085556117ea565b82601f106117bd57805160ff19168380011785556117ea565b828001600101855582156117ea579182015b828111156117ea5782518255916020019190600101906117cf565b506117f69291506117fa565b5090565b5b808211156117f657600081556001016117fb565b80356001600160a01b038116811461086b57600080fd5b600082601f830112611836578081fd5b813567ffffffffffffffff80821115611851576118516122e2565b604051601f8301601f191681016020018281118282101715611875576118756122e2565b60405282815284830160200186101561188c578384fd5b82602086016020830137918201602001929092529392505050565b803560ff8116811461086b57600080fd5b6000602082840312156118c9578081fd5b6118d28261180f565b9392505050565b600080600080600060a086880312156118f0578081fd5b6118f98661180f565b9450602086013567ffffffffffffffff811115611914578182fd5b61192088828901611826565b945050604086013592506060860135915061193d608087016118a7565b90509295509295909350565b600080600080600080600060e0888a031215611963578182fd5b61196c8861180f565b96506020880135955060408801359450606088013567ffffffffffffffff811115611995578283fd5b6119a18a828b01611826565b9450506080880135925060a088013591506119be60c089016118a7565b905092959891949750929550565b600080604083850312156119de578182fd5b6119e78361180f565b9150602083013567ffffffffffffffff81168114611a03578182fd5b809150509250929050565b600060208284031215611a1f578081fd5b815180151581146118d2578182fd5b600080600080600060a08688031215611a45578081fd5b853567ffffffffffffffff80821115611a5c578283fd5b611a6889838a01611826565b96506020880135955060408801359450611a846060890161180f565b93506080880135915080821115611a99578283fd5b50611aa688828901611826565b9150509295509295909350565b60008060008060808587031215611ac8578384fd5b843567ffffffffffffffff80821115611adf578586fd5b611aeb88838901611826565b955060208701359450604087013593506060870135915080821115611b0e578283fd5b50611b1b87828801611826565b91505092959194509250565b600060208284031215611b38578081fd5b5035919050565b600060208284031215611b50578081fd5b5051919050565b60008151808452611b6f816020860160208601612239565b601f01601f19169290920160200192915050565b60008251611b95818460208701612239565b9190910192915050565b60008351611bb1818460208801612239565b60609390931b6bffffffffffffffffffffffff19169190920190815260140192915050565b60008451611be8818460208901612239565b91909101928352506020820152604001919050565b7f19457468657265756d205369676e6564204d6573736167653a0a3332000000008152601c810191909152603c0190565b60008582526bffffffffffffffffffffffff198560601b1660208301528360348301528251611c64816054850160208701612239565b9190910160540195945050505050565b6001600160a01b0391909116815260200190565b6001600160a01b0392831681529116602082015260400190565b60006001600160a01b03808616835280851660208401525060606040830152611cce6060830184611b57565b95945050505050565b6001600160a01b039384168152919092166020820152604081019190915260600190565b6001600160a01b0394851681529290931660208301526040820152606081019190915260800190565b6001600160a01b03929092168252602082015260400190565b901515815260200190565b93845260ff9290921660208401526040830152606082015260800190565b6000602082526118d26020830184611b57565b60208082526014908201527f5061757361626c653a206e6f7420706175736564000000000000000000000000604082015260600190565b6020808252818101527f436f766572436f6d70617265643a20494e56414c49445f5349474e4154555245604082015260600190565b60208082526026908201527f4f776e61626c653a206e6577206f776e657220697320746865207a65726f206160408201526564647265737360d01b606082015260800190565b6020808252601c908201527f46756e6374696f6e2063616c6c206e6f74207375636365737366756c00000000604082015260600190565b60208082526011908201527f4e6f7420616c6c6f77656420746f6b656e000000000000000000000000000000604082015260600190565b60208082526031908201527f5472616e7366657248656c7065723a3a7472616e7366657246726f6d3a20747260408201527f616e7366657246726f6d206661696c6564000000000000000000000000000000606082015260800190565b60208082526034908201527f5472616e7366657248656c7065723a3a736166655472616e736665724554483a60408201527f20455448207472616e73666572206661696c6564000000000000000000000000606082015260800190565b60208082526011908201527f496e76616c6964207369676e6174757265000000000000000000000000000000604082015260600190565b60208082526011908201527f416c726561647920617661696c61626c65000000000000000000000000000000604082015260600190565b60208082526010908201527f5061757361626c653a2070617573656400000000000000000000000000000000604082015260600190565b6020808252818101527f4f776e61626c653a2063616c6c6572206973206e6f7420746865206f776e6572604082015260600190565b60208082526011908201527f4e6f7420617661696c61626c6520796574000000000000000000000000000000604082015260600190565b60208082526021908201527f5369676e657220616e64207369676e617475726520646f206e6f74206d6174636040820152600d60fb1b606082015260800190565b60208082526013908201527f496e73756666696369656e7420616d6f756e7400000000000000000000000000604082015260600190565b60208082526012908201527f496e76616c69642070726f647563742049440000000000000000000000000000604082015260600190565b6020808252600c908201526b5a45524f204164647265737360a01b604082015260600190565b60208082526018908201527f696e76616c6964207369676e6174757265206c656e6774680000000000000000604082015260600190565b6020808252601f908201527f5265656e7472616e637947756172643a207265656e7472616e742063616c6c00604082015260600190565b90815260200190565b60008582526fffffffffffffffffffffffffffffffff8086166020840152808516604084015250608060608301526121eb6080830184611b57565b9695505050505050565b67ffffffffffffffff91909116815260200190565b6000821982111561221d5761221d6122cc565b500190565b600082821015612234576122346122cc565b500390565b60005b8381101561225457818101518382015260200161223c565b83811115612263576000848401525b50505050565b60028104600182168061227d57607f821691505b6020821081141561229e57634e487b7160e01b600052602260045260246000fd5b50919050565b600067ffffffffffffffff808316818114156122c2576122c26122cc565b6001019392505050565b634e487b7160e01b600052601160045260246000fd5b634e487b7160e01b600052604160045260246000fdfea264697066735822122021bd9f468105d8f8b4b5e498e5ac6d3e188bb75f84538cd6f6a0f38026bc4ba364736f6c63430008000033",
  "devdoc": {
    "kind": "dev",
    "methods": {
      "buyProductByETH(string,uint256,uint256,bytes)": {
        "details": "buyProductETH function: this function should be called from user directly"
      },
      "buyProductByToken(string,uint256,uint256,address,bytes)": {
        "details": "buyProductByToken: Users can buy products using ERC20 tokens such as CVR and without gas fee"
      },
      "executeMetaTransaction(address,bytes,bytes32,bytes32,uint8)": {
        "params": {
          "functionSignature": "Signature of the actual function to be called via meta transaction",
          "sigR": "R part of the signature",
          "sigS": "S part of the signature",
          "sigV": "V part of the signature",
          "userAddress": "Address of user trying to do meta transaction"
        }
      },
      "owner()": {
        "details": "Returns the address of the current owner."
      },
      "paused()": {
        "details": "Returns true if the contract is paused, and false otherwise."
      },
      "renounceOwnership()": {
        "details": "Leaves the contract without owner. It will not be possible to call `onlyOwner` functions anymore. Can only be called by the current owner. NOTE: Renouncing ownership will leave the contract without an owner, thereby removing any functionality that is only available to the owner."
      },
      "transferOwnership(address)": {
        "details": "Transfers ownership of the contract to a new account (`newOwner`). Can only be called by the current owner."
      }
    },
    "version": 1
  },
  "userdoc": {
    "kind": "user",
    "methods": {
      "executeMetaTransaction(address,bytes,bytes32,bytes32,uint8)": {
        "notice": "Main function to be called when user wants to execute meta transaction. The actual function to be called should be passed as param with name functionSignature Here the basic signature recovery is being used. Signature is expected to be generated using personal_sign method."
      }
    },
    "version": 1
  },
  "storageLayout": {
    "storage": [
      {
        "astId": 7,
        "contract": "contracts/offchain/P4LCover.sol:P4LCover",
        "label": "_owner",
        "offset": 0,
        "slot": "0",
        "type": "t_address"
      },
      {
        "astId": 212,
        "contract": "contracts/offchain/P4LCover.sol:P4LCover",
        "label": "_status",
        "offset": 0,
        "slot": "1",
        "type": "t_uint256"
      },
      {
        "astId": 127,
        "contract": "contracts/offchain/P4LCover.sol:P4LCover",
        "label": "_paused",
        "offset": 0,
        "slot": "2",
        "type": "t_bool"
      },
      {
        "astId": 2117,
        "contract": "contracts/offchain/P4LCover.sol:P4LCover",
        "label": "nonces",
        "offset": 0,
        "slot": "3",
        "type": "t_mapping(t_address,t_uint256)"
      },
      {
        "astId": 3081,
        "contract": "contracts/offchain/P4LCover.sol:P4LCover",
        "label": "productIds",
        "offset": 0,
        "slot": "4",
        "type": "t_struct(Counter)1041_storage"
      },
      {
        "astId": 3085,
        "contract": "contracts/offchain/P4LCover.sol:P4LCover",
        "label": "_ownerOf",
        "offset": 0,
        "slot": "5",
        "type": "t_mapping(t_uint256,t_address)"
      },
      {
        "astId": 3089,
        "contract": "contracts/offchain/P4LCover.sol:P4LCover",
        "label": "_balanceOf",
        "offset": 0,
        "slot": "6",
        "type": "t_mapping(t_address,t_uint64)"
      },
      {
        "astId": 3094,
        "contract": "contracts/offchain/P4LCover.sol:P4LCover",
        "label": "_productsOf",
        "offset": 0,
        "slot": "7",
        "type": "t_mapping(t_address,t_array(t_uint64)dyn_storage)"
      },
      {
        "astId": 3098,
        "contract": "contracts/offchain/P4LCover.sol:P4LCover",
        "label": "availableCurrencies",
        "offset": 0,
        "slot": "8",
        "type": "t_mapping(t_address,t_bool)"
      },
      {
        "astId": 3102,
        "contract": "contracts/offchain/P4LCover.sol:P4LCover",
        "label": "exchangeAgent",
        "offset": 0,
        "slot": "9",
        "type": "t_address"
      },
      {
        "astId": 3104,
        "contract": "contracts/offchain/P4LCover.sol:P4LCover",
        "label": "devWallet",
        "offset": 0,
        "slot": "10",
        "type": "t_address"
      },
      {
        "astId": 3106,
        "contract": "contracts/offchain/P4LCover.sol:P4LCover",
        "label": "signer",
        "offset": 0,
        "slot": "11",
        "type": "t_address"
      },
      {
        "astId": 3820,
        "contract": "contracts/offchain/P4LCover.sol:P4LCover",
        "label": "products",
        "offset": 0,
        "slot": "12",
        "type": "t_mapping(t_uint256,t_struct(Product)3815_storage)"
      }
    ],
    "types": {
      "t_address": {
        "encoding": "inplace",
        "label": "address",
        "numberOfBytes": "20"
      },
      "t_array(t_uint64)dyn_storage": {
        "base": "t_uint64",
        "encoding": "dynamic_array",
        "label": "uint64[]",
        "numberOfBytes": "32"
      },
      "t_bool": {
        "encoding": "inplace",
        "label": "bool",
        "numberOfBytes": "1"
      },
      "t_mapping(t_address,t_array(t_uint64)dyn_storage)": {
        "encoding": "mapping",
        "key": "t_address",
        "label": "mapping(address => uint64[])",
        "numberOfBytes": "32",
        "value": "t_array(t_uint64)dyn_storage"
      },
      "t_mapping(t_address,t_bool)": {
        "encoding": "mapping",
        "key": "t_address",
        "label": "mapping(address => bool)",
        "numberOfBytes": "32",
        "value": "t_bool"
      },
      "t_mapping(t_address,t_uint256)": {
        "encoding": "mapping",
        "key": "t_address",
        "label": "mapping(address => uint256)",
        "numberOfBytes": "32",
        "value": "t_uint256"
      },
      "t_mapping(t_address,t_uint64)": {
        "encoding": "mapping",
        "key": "t_address",
        "label": "mapping(address => uint64)",
        "numberOfBytes": "32",
        "value": "t_uint64"
      },
      "t_mapping(t_uint256,t_address)": {
        "encoding": "mapping",
        "key": "t_uint256",
        "label": "mapping(uint256 => address)",
        "numberOfBytes": "32",
        "value": "t_address"
      },
      "t_mapping(t_uint256,t_struct(Product)3815_storage)": {
        "encoding": "mapping",
        "key": "t_uint256",
        "label": "mapping(uint256 => struct P4LCover.Product)",
        "numberOfBytes": "32",
        "value": "t_struct(Product)3815_storage"
      },
      "t_string_storage": {
        "encoding": "bytes",
        "label": "string",
        "numberOfBytes": "32"
      },
      "t_struct(Counter)1041_storage": {
        "encoding": "inplace",
        "label": "struct Counters.Counter",
        "members": [
          {
            "astId": 1040,
            "contract": "contracts/offchain/P4LCover.sol:P4LCover",
            "label": "_value",
            "offset": 0,
            "slot": "0",
            "type": "t_uint256"
          }
        ],
        "numberOfBytes": "32"
      },
      "t_struct(Product)3815_storage": {
        "encoding": "inplace",
        "label": "struct P4LCover.Product",
        "members": [
          {
            "astId": 3808,
            "contract": "contracts/offchain/P4LCover.sol:P4LCover",
            "label": "startTime",
            "offset": 0,
            "slot": "0",
            "type": "t_uint256"
          },
          {
            "astId": 3810,
            "contract": "contracts/offchain/P4LCover.sol:P4LCover",
            "label": "priceInUSD",
            "offset": 0,
            "slot": "1",
            "type": "t_uint128"
          },
          {
            "astId": 3812,
            "contract": "contracts/offchain/P4LCover.sol:P4LCover",
            "label": "durPlan",
            "offset": 16,
            "slot": "1",
            "type": "t_uint128"
          },
          {
            "astId": 3814,
            "contract": "contracts/offchain/P4LCover.sol:P4LCover",
            "label": "policyId",
            "offset": 0,
            "slot": "2",
            "type": "t_string_storage"
          }
        ],
        "numberOfBytes": "96"
      },
      "t_uint128": {
        "encoding": "inplace",
        "label": "uint128",
        "numberOfBytes": "16"
      },
      "t_uint256": {
        "encoding": "inplace",
        "label": "uint256",
        "numberOfBytes": "32"
      },
      "t_uint64": {
        "encoding": "inplace",
        "label": "uint64",
        "numberOfBytes": "8"
      }
    }
  }
}