{
  "address": "0xc2C10e72a6f70D6B8c3F32436e202B5babF3824B",
  "abi": [
    {
      "inputs": [
        {
          "internalType": "address",
          "name": "_WETH",
          "type": "address"
        },
        {
          "internalType": "address",
          "name": "_exchangeAgent",
          "type": "address"
        },
        {
          "internalType": "address",
          "name": "_devWallet",
          "type": "address"
        },
        {
          "internalType": "address",
          "name": "_multiSigWallet",
          "type": "address"
        }
      ],
      "stateMutability": "nonpayable",
      "type": "constructor"
    },
    {
      "anonymous": false,
      "inputs": [
        {
          "indexed": true,
          "internalType": "uint256",
          "name": "_productId",
          "type": "uint256"
        },
        {
          "indexed": false,
          "internalType": "address",
          "name": "_buyer",
          "type": "address"
        },
        {
          "indexed": false,
          "internalType": "address",
          "name": "_currency",
          "type": "address"
        },
        {
          "indexed": false,
          "internalType": "uint256",
          "name": "_amount",
          "type": "uint256"
        },
        {
          "indexed": false,
          "internalType": "uint256",
          "name": "_priceInUSD",
          "type": "uint256"
        }
      ],
      "name": "BuyP4L",
      "type": "event"
    },
    {
      "anonymous": false,
      "inputs": [
        {
          "indexed": true,
          "internalType": "uint256",
          "name": "_productId",
          "type": "uint256"
        },
        {
          "indexed": false,
          "internalType": "address",
          "name": "_buyer",
          "type": "address"
        }
      ],
      "name": "BuyProduct",
      "type": "event"
    },
    {
      "anonymous": false,
      "inputs": [
        {
          "indexed": true,
          "internalType": "address",
          "name": "previousOwner",
          "type": "address"
        },
        {
          "indexed": true,
          "internalType": "address",
          "name": "newOwner",
          "type": "address"
        }
      ],
      "name": "OwnershipTransferred",
      "type": "event"
    },
    {
      "anonymous": false,
      "inputs": [
        {
          "indexed": false,
          "internalType": "address",
          "name": "_setter",
          "type": "address"
        },
        {
          "indexed": false,
          "internalType": "address",
          "name": "_exchangeAgent",
          "type": "address"
        }
      ],
      "name": "SetExchangeAgent",
      "type": "event"
    },
    {
      "inputs": [],
      "name": "WETH",
      "outputs": [
        {
          "internalType": "address",
          "name": "",
          "type": "address"
        }
      ],
      "stateMutability": "view",
      "type": "function"
    },
    {
      "inputs": [
        {
          "internalType": "address",
          "name": "_currency",
          "type": "address"
        }
      ],
      "name": "addCurrency",
      "outputs": [],
      "stateMutability": "nonpayable",
      "type": "function"
    },
    {
      "inputs": [
        {
          "internalType": "address",
          "name": "",
          "type": "address"
        }
      ],
      "name": "availableCurrencies",
      "outputs": [
        {
          "internalType": "bool",
          "name": "",
          "type": "bool"
        }
      ],
      "stateMutability": "view",
      "type": "function"
    },
    {
      "inputs": [
        {
          "internalType": "address",
          "name": "_account",
          "type": "address"
        }
      ],
      "name": "balanceOf",
      "outputs": [
        {
          "internalType": "uint64",
          "name": "",
          "type": "uint64"
        }
      ],
      "stateMutability": "view",
      "type": "function"
    },
    {
      "inputs": [
        {
          "internalType": "string",
          "name": "_device",
          "type": "string"
        },
        {
          "internalType": "string",
          "name": "_brand",
          "type": "string"
        },
        {
          "internalType": "uint256",
          "name": "_value",
          "type": "uint256"
        },
        {
          "internalType": "uint256",
          "name": "_purchMonth",
          "type": "uint256"
        },
        {
          "internalType": "uint256",
          "name": "_durPlan",
          "type": "uint256"
        },
        {
          "internalType": "bytes",
          "name": "sig",
          "type": "bytes"
        }
      ],
      "name": "buyProductByETH",
      "outputs": [],
      "stateMutability": "payable",
      "type": "function"
    },
    {
      "inputs": [
        {
          "internalType": "string",
          "name": "_device",
          "type": "string"
        },
        {
          "internalType": "string",
          "name": "_brand",
          "type": "string"
        },
        {
          "internalType": "uint256",
          "name": "_value",
          "type": "uint256"
        },
        {
          "internalType": "uint256",
          "name": "_purchMonth",
          "type": "uint256"
        },
        {
          "internalType": "uint256",
          "name": "_durPlan",
          "type": "uint256"
        },
        {
          "internalType": "address",
          "name": "_token",
          "type": "address"
        },
        {
          "internalType": "address",
          "name": "_sender",
          "type": "address"
        },
        {
          "internalType": "bytes",
          "name": "sig",
          "type": "bytes"
        }
      ],
      "name": "buyProductByToken",
      "outputs": [],
      "stateMutability": "nonpayable",
      "type": "function"
    },
    {
      "inputs": [],
      "name": "devWallet",
      "outputs": [
        {
          "internalType": "address",
          "name": "",
          "type": "address"
        }
      ],
      "stateMutability": "view",
      "type": "function"
    },
    {
      "inputs": [],
      "name": "exchangeAgent",
      "outputs": [
        {
          "internalType": "address",
          "name": "",
          "type": "address"
        }
      ],
      "stateMutability": "view",
      "type": "function"
    },
    {
      "inputs": [],
      "name": "owner",
      "outputs": [
        {
          "internalType": "address",
          "name": "",
          "type": "address"
        }
      ],
      "stateMutability": "view",
      "type": "function"
    },
    {
      "inputs": [
        {
          "internalType": "uint256",
          "name": "_prodId",
          "type": "uint256"
        }
      ],
      "name": "ownerOf",
      "outputs": [
        {
          "internalType": "address",
          "name": "",
          "type": "address"
        }
      ],
      "stateMutability": "view",
      "type": "function"
    },
    {
      "inputs": [],
      "name": "productIds",
      "outputs": [
        {
          "internalType": "uint256",
          "name": "_value",
          "type": "uint256"
        }
      ],
      "stateMutability": "view",
      "type": "function"
    },
    {
      "inputs": [
        {
          "internalType": "address",
          "name": "_owner",
          "type": "address"
        },
        {
          "internalType": "uint64",
          "name": "_idx",
          "type": "uint64"
        }
      ],
      "name": "productOf",
      "outputs": [
        {
          "internalType": "uint64",
          "name": "",
          "type": "uint64"
        }
      ],
      "stateMutability": "view",
      "type": "function"
    },
    {
      "inputs": [
        {
          "internalType": "uint256",
          "name": "",
          "type": "uint256"
        }
      ],
      "name": "products",
      "outputs": [
        {
          "internalType": "uint256",
          "name": "startTime",
          "type": "uint256"
        },
        {
          "internalType": "uint128",
          "name": "priceInUSD",
          "type": "uint128"
        },
        {
          "internalType": "uint128",
          "name": "durPlan",
          "type": "uint128"
        },
        {
          "internalType": "uint64",
          "name": "purchMonth",
          "type": "uint64"
        },
        {
          "internalType": "string",
          "name": "device",
          "type": "string"
        },
        {
          "internalType": "string",
          "name": "brand",
          "type": "string"
        }
      ],
      "stateMutability": "view",
      "type": "function"
    },
    {
      "inputs": [
        {
          "internalType": "address",
          "name": "_currency",
          "type": "address"
        }
      ],
      "name": "removeCurrency",
      "outputs": [],
      "stateMutability": "nonpayable",
      "type": "function"
    },
    {
      "inputs": [],
      "name": "renounceOwnership",
      "outputs": [],
      "stateMutability": "nonpayable",
      "type": "function"
    },
    {
      "inputs": [
        {
          "internalType": "address",
          "name": "_exchangeAgent",
          "type": "address"
        }
      ],
      "name": "setExchangeAgent",
      "outputs": [],
      "stateMutability": "nonpayable",
      "type": "function"
    },
    {
      "inputs": [
        {
          "internalType": "bytes",
          "name": "sig",
          "type": "bytes"
        }
      ],
      "name": "splitSignature",
      "outputs": [
        {
          "internalType": "bytes32",
          "name": "r",
          "type": "bytes32"
        },
        {
          "internalType": "bytes32",
          "name": "s",
          "type": "bytes32"
        },
        {
          "internalType": "uint8",
          "name": "v",
          "type": "uint8"
        }
      ],
      "stateMutability": "pure",
      "type": "function"
    },
    {
      "inputs": [
        {
          "internalType": "address",
          "name": "newOwner",
          "type": "address"
        }
      ],
      "name": "transferOwnership",
      "outputs": [],
      "stateMutability": "nonpayable",
      "type": "function"
    },
    {
      "stateMutability": "payable",
      "type": "receive"
    }
  ],
  "transactionHash": "0x7cc4f6f621c6b872fda4ca65baabde1be578fe0763706e1421387133e9d2446e",
  "args": [
    "0xc778417e063141139fce010982780140aa0cd5ab",
    "0xed698505e496B0c39Eb42B9696f141C5526DdF24",
    "0x6C641CE6A7216F12d28692f9d8b2BDcdE812eD2b",
    "0xC31F8d97B0B9fcD8A30F9AA906335dCCdba99bD5"
  ],
  "solcInputHash": "e121b956ef2c863635cbc7b7bf41db2d",
  "bytecode": "0x60a06040523480156200001157600080fd5b5060405162001e1e38038062001e1e8339810160408190526200003491620001b1565b838383836200004c62000046620000ab565b620000af565b600180556001600160601b0319606085901b16608052600780546001600160a01b038581166001600160a01b03199283161790925560088054928516929091169190911790556200009d81620000ff565b505050505050505062000288565b3390565b600080546001600160a01b038381166001600160a01b0319831681178455604051919092169283917f8be0079c531659141344cd1fd0a4f28419497f9722a3daafe3b4186f6b6457e09190a35050565b62000109620000ab565b6001600160a01b03166200011c62000185565b6001600160a01b0316146200014e5760405162461bcd60e51b8152600401620001459062000253565b60405180910390fd5b6001600160a01b038116620001775760405162461bcd60e51b815260040162000145906200020d565b6200018281620000af565b50565b6000546001600160a01b031690565b80516001600160a01b0381168114620001ac57600080fd5b919050565b60008060008060808587031215620001c7578384fd5b620001d28562000194565b9350620001e26020860162000194565b9250620001f26040860162000194565b9150620002026060860162000194565b905092959194509250565b60208082526026908201527f4f776e61626c653a206e6577206f776e657220697320746865207a65726f206160408201526564647265737360d01b606082015260800190565b6020808252818101527f4f776e61626c653a2063616c6c6572206973206e6f7420746865206f776e6572604082015260600190565b60805160601c611b70620002ae60003960008181610a490152610a930152611b706000f3fe60806040526004361061010d5760003560e01c80638ea5220f11610095578063ad5c464811610064578063ad5c4648146102e0578063c5d3a107146102f5578063d9203b9114610315578063f2fde38b1461032a578063f47962871461034a57610114565b80638ea5220f14610267578063a7bb58031461027c578063aa57511d146102ab578063ab07f2c7146102cd57610114565b8063715018a6116100dc578063715018a6146101cb57806374cae655146101e05780637acc0b20146102005780638ab234b6146102325780638da5cb5b1461025257610114565b806318a00d8e146101195780631af42c0f1461013b5780636352211e1461017157806370a082311461019e57610114565b3661011457005b600080fd5b34801561012557600080fd5b506101396101343660046112cf565b61036a565b005b34801561014757600080fd5b5061015b6101563660046112cf565b610430565b604051610168919061166f565b60405180910390f35b34801561017d57600080fd5b5061019161018c3660046114f0565b610445565b60405161016891906115db565b3480156101aa57600080fd5b506101be6101b93660046112cf565b610499565b6040516101689190611a37565b3480156101d757600080fd5b506101396104be565b3480156101ec57600080fd5b506101396101fb36600461138d565b610509565b34801561020c57600080fd5b5061022061021b3660046114f0565b61068b565b604051610168969594939291906119cd565b34801561023e57600080fd5b5061013961024d3660046112cf565b6107f6565b34801561025e57600080fd5b50610191610892565b34801561027357600080fd5b506101916108a1565b34801561028857600080fd5b5061029c610297366004611352565b6108b0565b6040516101689392919061167a565b3480156102b757600080fd5b506102c06108f4565b60405161016891906119c4565b6101396102db366004611450565b6108fa565b3480156102ec57600080fd5b50610191610a91565b34801561030157600080fd5b506101396103103660046112cf565b610ab5565b34801561032157600080fd5b50610191610b4d565b34801561033657600080fd5b506101396103453660046112cf565b610b5c565b34801561035657600080fd5b506101be6103653660046112f0565b610bcd565b610372610c41565b6001600160a01b0316610383610892565b6001600160a01b0316146103b25760405162461bcd60e51b81526004016103a990611856565b60405180910390fd5b6001600160a01b0381166103d85760405162461bcd60e51b81526004016103a990611930565b600780546001600160a01b0319166001600160a01b0383161790556040517f0143625ceac80b2452760213c6b6f5a22eb63bc46e17d129c30fffefb4679eb69061042590339084906115ef565b60405180910390a150565b60066020526000908152604090205460ff1681565b60006104516002610c45565b61045c906001611a4c565b821061047a5760405162461bcd60e51b81526004016103a9906118f9565b506000818152600360205260409020546001600160a01b03165b919050565b6001600160a01b031660009081526004602052604090205467ffffffffffffffff1690565b6104c6610c41565b6001600160a01b03166104d7610892565b6001600160a01b0316146104fd5760405162461bcd60e51b81526004016103a990611856565b6105076000610c49565b565b6002600154141561052c5760405162461bcd60e51b81526004016103a99061198d565b60026001556001600160a01b038316600090815260066020526040902054839060ff1661056b5760405162461bcd60e51b81526004016103a99061172e565b600061057a8a8a8a8a8a610c99565b9050610587848285610d00565b60075460405163a9a12d4360e01b81526000916001600160a01b03169063a9a12d43906105ba9089908d90600401611656565b602060405180830381600087803b1580156105d457600080fd5b505af11580156105e8573d6000803e3d6000fd5b505050506040513d601f19601f8201168201806040525081019061060c9190611508565b60085490915061062990879087906001600160a01b031684610db6565b60006106398a898b8f8f8b610ebb565b9050807f39d12e8951d830ef8836319a4450cf10c520dfcbea8db9ed98011efdfa1389a78789858e604051610671949392919061162d565b60405180910390a250506001805550505050505050505050565b600960205260009081526040902080546001820154600283015460038401805493946fffffffffffffffffffffffffffffffff80851695600160801b909504169367ffffffffffffffff909316929091906106e590611aab565b80601f016020809104026020016040519081016040528092919081815260200182805461071190611aab565b801561075e5780601f106107335761010080835404028352916020019161075e565b820191906000526020600020905b81548152906001019060200180831161074157829003601f168201915b50505050509080600401805461077390611aab565b80601f016020809104026020016040519081016040528092919081815260200182805461079f90611aab565b80156107ec5780601f106107c1576101008083540402835291602001916107ec565b820191906000526020600020905b8154815290600101906020018083116107cf57829003601f168201915b5050505050905086565b6107fe610c41565b6001600160a01b031661080f610892565b6001600160a01b0316146108355760405162461bcd60e51b81526004016103a990611856565b6001600160a01b03811660009081526006602052604090205460ff161561086e5760405162461bcd60e51b81526004016103a99061181f565b6001600160a01b03166000908152600660205260409020805460ff19166001179055565b6000546001600160a01b031690565b6008546001600160a01b031681565b600080600083516041146108d65760405162461bcd60e51b81526004016103a990611956565b50505060208101516040820151606090920151909260009190911a90565b60025481565b6002600154141561091d5760405162461bcd60e51b81526004016103a99061198d565b600260015560006109318787878787610c99565b905061093e338284610d00565b60075460405163531a221160e01b81526000916001600160a01b03169063531a22119061096f9089906004016119c4565b60206040518083038186803b15801561098757600080fd5b505afa15801561099b573d6000803e3d6000fd5b505050506040513d601f19601f820116820180604052508101906109bf9190611508565b9050803410156109e15760405162461bcd60e51b81526004016103a9906118c2565b803411156109fc576109fc336109f78334611a64565b610fea565b600854610a12906001600160a01b031682610fea565b6000610a228786888c8c33610ebb565b9050807f39d12e8951d830ef8836319a4450cf10c520dfcbea8db9ed98011efdfa1389a7337f0000000000000000000000000000000000000000000000000000000000000000858b604051610a7a949392919061162d565b60405180910390a250506001805550505050505050565b7f000000000000000000000000000000000000000000000000000000000000000081565b610abd610c41565b6001600160a01b0316610ace610892565b6001600160a01b031614610af45760405162461bcd60e51b81526004016103a990611856565b6001600160a01b03811660009081526006602052604090205460ff16610b2c5760405162461bcd60e51b81526004016103a99061188b565b6001600160a01b03166000908152600660205260409020805460ff19169055565b6007546001600160a01b031681565b610b64610c41565b6001600160a01b0316610b75610892565b6001600160a01b031614610b9b5760405162461bcd60e51b81526004016103a990611856565b6001600160a01b038116610bc15760405162461bcd60e51b81526004016103a9906116e8565b610bca81610c49565b50565b6001600160a01b0382166000908152600560205260408120805467ffffffffffffffff8416908110610c0f57634e487b7160e01b600052603260045260246000fd5b90600052602060002090600491828204019190066008029054906101000a900467ffffffffffffffff16905092915050565b3390565b5490565b600080546001600160a01b038381166001600160a01b0319831681178455604051919092169283917f8be0079c531659141344cd1fd0a4f28419497f9722a3daafe3b4186f6b6457e09190a35050565b6000808686868686604051602001610cb5959493929190611568565b60405160208183030381529060405280519060200120905080604051602001610cde91906115aa565b6040516020818303038152906040528051906020012091505095945050505050565b6000806000610d0e846108b0565b925092509250600060018683868660405160008152602001604052604051610d399493929190611693565b6020604051602081039080840390855afa158015610d5b573d6000803e3d6000fd5b5050604051601f1901519150506001600160a01b03811615801590610d915750866001600160a01b0316816001600160a01b0316145b610dad5760405162461bcd60e51b81526004016103a9906116b1565b50505050505050565b600080856001600160a01b03166323b872dd868686604051602401610ddd93929190611609565b6040516020818303038152906040529060e01b6020820180517bffffffffffffffffffffffffffffffffffffffffffffffffffffffff8381831617835250505050604051610e2b919061154c565b6000604051808303816000865af19150503d8060008114610e68576040519150601f19603f3d011682016040523d82523d6000602084013e610e6d565b606091505b5091509150818015610e97575080511580610e97575080806020019051810190610e979190611332565b610eb35760405162461bcd60e51b81526004016103a990611765565b505050505050565b6000610ec76002610c45565b6040805160c0810182524281526fffffffffffffffffffffffffffffffff808b1660208084019182528b831684860190815267ffffffffffffffff808d1660608701908152608087018d815260a088018d905260008a8152600986529890982087518155945160018601805494518816600160801b029188166fffffffffffffffffffffffffffffffff19909516949094179096169590951790915592516002830180549190941667ffffffffffffffff1990911617909255925180519495509193610f99926003850192019061119e565b5060a08201518051610fb591600484019160209091019061119e565b50905050610fc3818361107c565b610fcc826110aa565b610fd68282611102565b610fe06002611195565b9695505050505050565b604080516000808252602082019092526001600160a01b038416908390604051611014919061154c565b60006040518083038185875af1925050503d8060008114611051576040519150601f19603f3d011682016040523d82523d6000602084013e611056565b606091505b50509050806110775760405162461bcd60e51b81526004016103a9906117c2565b505050565b60009182526003602052604090912080546001600160a01b0319166001600160a01b03909216919091179055565b6001600160a01b0381166000908152600460205260408120805467ffffffffffffffff16916110d883611ae6565b91906101000a81548167ffffffffffffffff021916908367ffffffffffffffff1602179055505050565b6001600160a01b03821660009081526005602090815260408083208054600181018255908452919092206004820401805460039092166008026101000a67ffffffffffffffff81810219909316928516029190911790555181907fbe51e9a2a9ea8219cc8ab3194ee452fbdf2fa052f0d88d96a854c8ff2686151e906111899085906115db565b60405180910390a25050565b80546001019055565b8280546111aa90611aab565b90600052602060002090601f0160209004810192826111cc5760008555611212565b82601f106111e557805160ff1916838001178555611212565b82800160010185558215611212579182015b828111156112125782518255916020019190600101906111f7565b5061121e929150611222565b5090565b5b8082111561121e5760008155600101611223565b80356001600160a01b038116811461049457600080fd5b600082601f83011261125e578081fd5b813567ffffffffffffffff8082111561127957611279611b24565b604051601f8301601f19168101602001828111828210171561129d5761129d611b24565b6040528281528483016020018610156112b4578384fd5b82602086016020830137918201602001929092529392505050565b6000602082840312156112e0578081fd5b6112e982611237565b9392505050565b60008060408385031215611302578081fd5b61130b83611237565b9150602083013567ffffffffffffffff81168114611327578182fd5b809150509250929050565b600060208284031215611343578081fd5b815180151581146112e9578182fd5b600060208284031215611363578081fd5b813567ffffffffffffffff811115611379578182fd5b6113858482850161124e565b949350505050565b600080600080600080600080610100898b0312156113a9578384fd5b883567ffffffffffffffff808211156113c0578586fd5b6113cc8c838d0161124e565b995060208b01359150808211156113e1578586fd5b6113ed8c838d0161124e565b985060408b0135975060608b0135965060808b0135955061141060a08c01611237565b945061141e60c08c01611237565b935060e08b0135915080821115611433578283fd5b506114408b828c0161124e565b9150509295985092959890939650565b60008060008060008060c08789031215611468578182fd5b863567ffffffffffffffff8082111561147f578384fd5b61148b8a838b0161124e565b975060208901359150808211156114a0578384fd5b6114ac8a838b0161124e565b965060408901359550606089013594506080890135935060a08901359150808211156114d6578283fd5b506114e389828a0161124e565b9150509295509295509295565b600060208284031215611501578081fd5b5035919050565b600060208284031215611519578081fd5b5051919050565b60008151808452611538816020860160208601611a7b565b601f01601f19169290920160200192915050565b6000825161155e818460208701611a7b565b9190910192915050565b6000865161157a818460208b01611a7b565b86519083019061158e818360208b01611a7b565b0194855250506020830191909152604082015260600192915050565b7f19457468657265756d205369676e6564204d6573736167653a0a3332000000008152601c810191909152603c0190565b6001600160a01b0391909116815260200190565b6001600160a01b0392831681529116602082015260400190565b6001600160a01b039384168152919092166020820152604081019190915260600190565b6001600160a01b0394851681529290931660208301526040820152606081019190915260800190565b6001600160a01b03929092168252602082015260400190565b901515815260200190565b928352602083019190915260ff16604082015260600190565b93845260ff9290921660208401526040830152606082015260800190565b6020808252601f908201527f506f6c6b61436f6d706172653a20494e56414c49445f5349474e415455524500604082015260600190565b60208082526026908201527f4f776e61626c653a206e6577206f776e657220697320746865207a65726f206160408201526564647265737360d01b606082015260800190565b60208082526011908201527f4e6f7420616c6c6f77656420746f6b656e000000000000000000000000000000604082015260600190565b60208082526031908201527f5472616e7366657248656c7065723a3a7472616e7366657246726f6d3a20747260408201527f616e7366657246726f6d206661696c6564000000000000000000000000000000606082015260800190565b60208082526034908201527f5472616e7366657248656c7065723a3a736166655472616e736665724554483a60408201527f20455448207472616e73666572206661696c6564000000000000000000000000606082015260800190565b60208082526011908201527f416c726561647920617661696c61626c65000000000000000000000000000000604082015260600190565b6020808252818101527f4f776e61626c653a2063616c6c6572206973206e6f7420746865206f776e6572604082015260600190565b60208082526011908201527f4e6f7420617661696c61626c6520796574000000000000000000000000000000604082015260600190565b60208082526013908201527f496e73756666696369656e7420616d6f756e7400000000000000000000000000604082015260600190565b60208082526012908201527f496e76616c69642070726f647563742049440000000000000000000000000000604082015260600190565b6020808252600c908201526b5a45524f204164647265737360a01b604082015260600190565b60208082526018908201527f696e76616c6964207369676e6174757265206c656e6774680000000000000000604082015260600190565b6020808252601f908201527f5265656e7472616e637947756172643a207265656e7472616e742063616c6c00604082015260600190565b90815260200190565b60008782526fffffffffffffffffffffffffffffffff808816602084015280871660408401525067ffffffffffffffff8516606083015260c06080830152611a1860c0830185611520565b82810360a0840152611a2a8185611520565b9998505050505050505050565b67ffffffffffffffff91909116815260200190565b60008219821115611a5f57611a5f611b0e565b500190565b600082821015611a7657611a76611b0e565b500390565b60005b83811015611a96578181015183820152602001611a7e565b83811115611aa5576000848401525b50505050565b600281046001821680611abf57607f821691505b60208210811415611ae057634e487b7160e01b600052602260045260246000fd5b50919050565b600067ffffffffffffffff80831681811415611b0457611b04611b0e565b6001019392505050565b634e487b7160e01b600052601160045260246000fd5b634e487b7160e01b600052604160045260246000fdfea26469706673582212203ddc4115ddd9eefd23ccaed4e76283fda5cc5e2a5c002318c55247619e396b7e64736f6c63430008000033",
  "devdoc": {
    "kind": "dev",
    "methods": {
      "buyProductByETH(string,string,uint256,uint256,uint256,bytes)": {
        "details": "buyProductETH function: this function should be called from user directly"
      },
      "buyProductByToken(string,string,uint256,uint256,uint256,address,address,bytes)": {
        "details": "buyProductByToken: Users can buy products using ERC20 tokens such as CVR and without gas fee"
      },
      "owner()": {
        "details": "Returns the address of the current owner."
      },
      "renounceOwnership()": {
        "details": "Leaves the contract without owner. It will not be possible to call `onlyOwner` functions anymore. Can only be called by the current owner. NOTE: Renouncing ownership will leave the contract without an owner, thereby removing any functionality that is only available to the owner."
      },
      "transferOwnership(address)": {
        "details": "Transfers ownership of the contract to a new account (`newOwner`). Can only be called by the current owner."
      }
    },
    "version": 1
  },
  "userdoc": {
    "kind": "user",
    "methods": {},
    "version": 1
  },
  "storageLayout": {
    "storage": [
      {
        "astId": 535,
        "contract": "contracts/offchain/P4LPolka.sol:P4LPolka",
        "label": "_owner",
        "offset": 0,
        "slot": "0",
        "type": "t_address"
      },
      {
        "astId": 643,
        "contract": "contracts/offchain/P4LPolka.sol:P4LPolka",
        "label": "_status",
        "offset": 0,
        "slot": "1",
        "type": "t_uint256"
      },
      {
        "astId": 3273,
        "contract": "contracts/offchain/P4LPolka.sol:P4LPolka",
        "label": "productIds",
        "offset": 0,
        "slot": "2",
        "type": "t_struct(Counter)1510_storage"
      },
      {
        "astId": 3277,
        "contract": "contracts/offchain/P4LPolka.sol:P4LPolka",
        "label": "_ownerOf",
        "offset": 0,
        "slot": "3",
        "type": "t_mapping(t_uint256,t_address)"
      },
      {
        "astId": 3281,
        "contract": "contracts/offchain/P4LPolka.sol:P4LPolka",
        "label": "_balanceOf",
        "offset": 0,
        "slot": "4",
        "type": "t_mapping(t_address,t_uint64)"
      },
      {
        "astId": 3286,
        "contract": "contracts/offchain/P4LPolka.sol:P4LPolka",
        "label": "_productsOf",
        "offset": 0,
        "slot": "5",
        "type": "t_mapping(t_address,t_array(t_uint64)dyn_storage)"
      },
      {
        "astId": 3290,
        "contract": "contracts/offchain/P4LPolka.sol:P4LPolka",
        "label": "availableCurrencies",
        "offset": 0,
        "slot": "6",
        "type": "t_mapping(t_address,t_bool)"
      },
      {
        "astId": 3294,
        "contract": "contracts/offchain/P4LPolka.sol:P4LPolka",
        "label": "exchangeAgent",
        "offset": 0,
        "slot": "7",
        "type": "t_address"
      },
      {
        "astId": 3296,
        "contract": "contracts/offchain/P4LPolka.sol:P4LPolka",
        "label": "devWallet",
        "offset": 0,
        "slot": "8",
        "type": "t_address"
      },
      {
        "astId": 3964,
        "contract": "contracts/offchain/P4LPolka.sol:P4LPolka",
        "label": "products",
        "offset": 0,
        "slot": "9",
        "type": "t_mapping(t_uint256,t_struct(Product)3959_storage)"
      }
    ],
    "types": {
      "t_address": {
        "encoding": "inplace",
        "label": "address",
        "numberOfBytes": "20"
      },
      "t_array(t_uint64)dyn_storage": {
        "base": "t_uint64",
        "encoding": "dynamic_array",
        "label": "uint64[]",
        "numberOfBytes": "32"
      },
      "t_bool": {
        "encoding": "inplace",
        "label": "bool",
        "numberOfBytes": "1"
      },
      "t_mapping(t_address,t_array(t_uint64)dyn_storage)": {
        "encoding": "mapping",
        "key": "t_address",
        "label": "mapping(address => uint64[])",
        "numberOfBytes": "32",
        "value": "t_array(t_uint64)dyn_storage"
      },
      "t_mapping(t_address,t_bool)": {
        "encoding": "mapping",
        "key": "t_address",
        "label": "mapping(address => bool)",
        "numberOfBytes": "32",
        "value": "t_bool"
      },
      "t_mapping(t_address,t_uint64)": {
        "encoding": "mapping",
        "key": "t_address",
        "label": "mapping(address => uint64)",
        "numberOfBytes": "32",
        "value": "t_uint64"
      },
      "t_mapping(t_uint256,t_address)": {
        "encoding": "mapping",
        "key": "t_uint256",
        "label": "mapping(uint256 => address)",
        "numberOfBytes": "32",
        "value": "t_address"
      },
      "t_mapping(t_uint256,t_struct(Product)3959_storage)": {
        "encoding": "mapping",
        "key": "t_uint256",
        "label": "mapping(uint256 => struct P4LPolka.Product)",
        "numberOfBytes": "32",
        "value": "t_struct(Product)3959_storage"
      },
      "t_string_storage": {
        "encoding": "bytes",
        "label": "string",
        "numberOfBytes": "32"
      },
      "t_struct(Counter)1510_storage": {
        "encoding": "inplace",
        "label": "struct Counters.Counter",
        "members": [
          {
            "astId": 1509,
            "contract": "contracts/offchain/P4LPolka.sol:P4LPolka",
            "label": "_value",
            "offset": 0,
            "slot": "0",
            "type": "t_uint256"
          }
        ],
        "numberOfBytes": "32"
      },
      "t_struct(Product)3959_storage": {
        "encoding": "inplace",
        "label": "struct P4LPolka.Product",
        "members": [
          {
            "astId": 3948,
            "contract": "contracts/offchain/P4LPolka.sol:P4LPolka",
            "label": "startTime",
            "offset": 0,
            "slot": "0",
            "type": "t_uint256"
          },
          {
            "astId": 3950,
            "contract": "contracts/offchain/P4LPolka.sol:P4LPolka",
            "label": "priceInUSD",
            "offset": 0,
            "slot": "1",
            "type": "t_uint128"
          },
          {
            "astId": 3952,
            "contract": "contracts/offchain/P4LPolka.sol:P4LPolka",
            "label": "durPlan",
            "offset": 16,
            "slot": "1",
            "type": "t_uint128"
          },
          {
            "astId": 3954,
            "contract": "contracts/offchain/P4LPolka.sol:P4LPolka",
            "label": "purchMonth",
            "offset": 0,
            "slot": "2",
            "type": "t_uint64"
          },
          {
            "astId": 3956,
            "contract": "contracts/offchain/P4LPolka.sol:P4LPolka",
            "label": "device",
            "offset": 0,
            "slot": "3",
            "type": "t_string_storage"
          },
          {
            "astId": 3958,
            "contract": "contracts/offchain/P4LPolka.sol:P4LPolka",
            "label": "brand",
            "offset": 0,
            "slot": "4",
            "type": "t_string_storage"
          }
        ],
        "numberOfBytes": "160"
      },
      "t_uint128": {
        "encoding": "inplace",
        "label": "uint128",
        "numberOfBytes": "16"
      },
      "t_uint256": {
        "encoding": "inplace",
        "label": "uint256",
        "numberOfBytes": "32"
      },
      "t_uint64": {
        "encoding": "inplace",
        "label": "uint64",
        "numberOfBytes": "8"
      }
    }
  }
}