{
  "address": "0x95635bB88C887ff2464801B989d5483ac8BFe6F8",
  "abi": [
    {
      "inputs": [
        {
          "internalType": "address",
          "name": "_USDC_ADDRESS",
          "type": "address"
        },
        {
          "internalType": "address",
          "name": "_WETH",
          "type": "address"
        },
        {
          "internalType": "address",
          "name": "_UNISWAP_FACTORY",
          "type": "address"
        }
      ],
      "stateMutability": "nonpayable",
      "type": "constructor"
    },
    {
      "anonymous": false,
      "inputs": [
        {
          "indexed": false,
          "internalType": "address",
          "name": "_sender",
          "type": "address"
        },
        {
          "indexed": false,
          "internalType": "address",
          "name": "_currency",
          "type": "address"
        }
      ],
      "name": "AddAvailableCurrency",
      "type": "event"
    },
    {
      "anonymous": false,
      "inputs": [
        {
          "indexed": false,
          "internalType": "address",
          "name": "_sender",
          "type": "address"
        },
        {
          "indexed": false,
          "internalType": "address",
          "name": "_gateway",
          "type": "address"
        }
      ],
      "name": "AddGateway",
      "type": "event"
    },
    {
      "anonymous": false,
      "inputs": [
        {
          "indexed": true,
          "internalType": "address",
          "name": "previousOwner",
          "type": "address"
        },
        {
          "indexed": true,
          "internalType": "address",
          "name": "newOwner",
          "type": "address"
        }
      ],
      "name": "OwnershipTransferred",
      "type": "event"
    },
    {
      "anonymous": false,
      "inputs": [
        {
          "indexed": false,
          "internalType": "address",
          "name": "_sender",
          "type": "address"
        },
        {
          "indexed": false,
          "internalType": "address",
          "name": "_currency",
          "type": "address"
        }
      ],
      "name": "RemoveAvailableCurrency",
      "type": "event"
    },
    {
      "anonymous": false,
      "inputs": [
        {
          "indexed": false,
          "internalType": "address",
          "name": "_sender",
          "type": "address"
        },
        {
          "indexed": false,
          "internalType": "address",
          "name": "_gateway",
          "type": "address"
        }
      ],
      "name": "RemoveGateway",
      "type": "event"
    },
    {
      "anonymous": false,
      "inputs": [
        {
          "indexed": false,
          "internalType": "address",
          "name": "_user",
          "type": "address"
        },
        {
          "indexed": false,
          "internalType": "address",
          "name": "_to",
          "type": "address"
        },
        {
          "indexed": false,
          "internalType": "address",
          "name": "_token",
          "type": "address"
        },
        {
          "indexed": false,
          "internalType": "uint256",
          "name": "_amount",
          "type": "uint256"
        }
      ],
      "name": "WithdrawAsset",
      "type": "event"
    },
    {
      "inputs": [],
      "name": "UNISWAP_FACTORY",
      "outputs": [
        {
          "internalType": "address",
          "name": "",
          "type": "address"
        }
      ],
      "stateMutability": "view",
      "type": "function"
    },
    {
      "inputs": [],
      "name": "USDC_ADDRESS",
      "outputs": [
        {
          "internalType": "address",
          "name": "",
          "type": "address"
        }
      ],
      "stateMutability": "view",
      "type": "function"
    },
    {
      "inputs": [],
      "name": "WETH",
      "outputs": [
        {
          "internalType": "address",
          "name": "",
          "type": "address"
        }
      ],
      "stateMutability": "view",
      "type": "function"
    },
    {
      "inputs": [
        {
          "internalType": "address",
          "name": "_currency",
          "type": "address"
        }
      ],
      "name": "addCurrency",
      "outputs": [],
      "stateMutability": "nonpayable",
      "type": "function"
    },
    {
      "inputs": [
        {
          "internalType": "address",
          "name": "_gateway",
          "type": "address"
        }
      ],
      "name": "addWhiteList",
      "outputs": [],
      "stateMutability": "nonpayable",
      "type": "function"
    },
    {
      "inputs": [
        {
          "internalType": "address",
          "name": "",
          "type": "address"
        }
      ],
      "name": "availableCurrencies",
      "outputs": [
        {
          "internalType": "bool",
          "name": "",
          "type": "bool"
        }
      ],
      "stateMutability": "view",
      "type": "function"
    },
    {
      "inputs": [
        {
          "internalType": "uint256",
          "name": "_desiredAmount",
          "type": "uint256"
        }
      ],
      "name": "getETHAmountForUSDC",
      "outputs": [
        {
          "internalType": "uint256",
          "name": "",
          "type": "uint256"
        }
      ],
      "stateMutability": "view",
      "type": "function"
    },
    {
      "inputs": [
        {
          "internalType": "address",
          "name": "_token0",
          "type": "address"
        },
        {
          "internalType": "address",
          "name": "_token1",
          "type": "address"
        },
        {
          "internalType": "uint256",
          "name": "_desiredAmount",
          "type": "uint256"
        }
      ],
      "name": "getNeededTokenAmount",
      "outputs": [
        {
          "internalType": "uint256",
          "name": "",
          "type": "uint256"
        }
      ],
      "stateMutability": "view",
      "type": "function"
    },
    {
      "inputs": [
        {
          "internalType": "address",
          "name": "_token",
          "type": "address"
        },
        {
          "internalType": "uint256",
          "name": "_desiredAmount",
          "type": "uint256"
        }
      ],
      "name": "getTokenAmountForETH",
      "outputs": [
        {
          "internalType": "uint256",
          "name": "",
          "type": "uint256"
        }
      ],
      "stateMutability": "view",
      "type": "function"
    },
    {
      "inputs": [
        {
          "internalType": "address",
          "name": "_token",
          "type": "address"
        },
        {
          "internalType": "uint256",
          "name": "_desiredAmount",
          "type": "uint256"
        }
      ],
      "name": "getTokenAmountForUSDC",
      "outputs": [
        {
          "internalType": "uint256",
          "name": "",
          "type": "uint256"
        }
      ],
      "stateMutability": "view",
      "type": "function"
    },
    {
      "inputs": [],
      "name": "owner",
      "outputs": [
        {
          "internalType": "address",
          "name": "",
          "type": "address"
        }
      ],
      "stateMutability": "view",
      "type": "function"
    },
    {
      "inputs": [
        {
          "internalType": "address",
          "name": "_currency",
          "type": "address"
        }
      ],
      "name": "removeCurrency",
      "outputs": [],
      "stateMutability": "nonpayable",
      "type": "function"
    },
    {
      "inputs": [
        {
          "internalType": "address",
          "name": "_gateway",
          "type": "address"
        }
      ],
      "name": "removeWhiteList",
      "outputs": [],
      "stateMutability": "nonpayable",
      "type": "function"
    },
    {
      "inputs": [],
      "name": "renounceOwnership",
      "outputs": [],
      "stateMutability": "nonpayable",
      "type": "function"
    },
    {
      "inputs": [
        {
          "internalType": "address",
          "name": "_token",
          "type": "address"
        },
        {
          "internalType": "uint256",
          "name": "_amount",
          "type": "uint256"
        }
      ],
      "name": "swapTokenWithETH",
      "outputs": [],
      "stateMutability": "nonpayable",
      "type": "function"
    },
    {
      "inputs": [
        {
          "internalType": "address",
          "name": "_token0",
          "type": "address"
        },
        {
          "internalType": "address",
          "name": "_token1",
          "type": "address"
        },
        {
          "internalType": "uint256",
          "name": "_amount",
          "type": "uint256"
        }
      ],
      "name": "swapTokenWithToken",
      "outputs": [],
      "stateMutability": "nonpayable",
      "type": "function"
    },
    {
      "inputs": [
        {
          "internalType": "address",
          "name": "newOwner",
          "type": "address"
        }
      ],
      "name": "transferOwnership",
      "outputs": [],
      "stateMutability": "nonpayable",
      "type": "function"
    },
    {
      "inputs": [
        {
          "internalType": "address",
          "name": "",
          "type": "address"
        }
      ],
      "name": "whiteList",
      "outputs": [
        {
          "internalType": "bool",
          "name": "",
          "type": "bool"
        }
      ],
      "stateMutability": "view",
      "type": "function"
    },
    {
      "inputs": [
        {
          "internalType": "address",
          "name": "_to",
          "type": "address"
        },
        {
          "internalType": "address",
          "name": "_token",
          "type": "address"
        },
        {
          "internalType": "uint256",
          "name": "_amount",
          "type": "uint256"
        }
      ],
      "name": "withdrawAsset",
      "outputs": [],
      "stateMutability": "nonpayable",
      "type": "function"
    },
    {
      "stateMutability": "payable",
      "type": "receive"
    }
  ],
  "transactionHash": "0x40068f085d179ee067b82536d49da38545314a5e22d76583a22d534b18e920a8",
  "args": [
    "0x5FED7f0b36374B8Ee25177b3cbE21B6c8E079F4E",
    "0xd0A1E359811322d97991E03f863a0C30C2cF029C",
    "0x5C69bEe701ef814a2B6a3EDD4B1652CB9cc5aA6f"
  ],
  "solcInputHash": "b9f5be885696f0e623502845256d15e8",
  "bytecode": "0x60e06040523480156200001157600080fd5b5060405162001ac238038062001ac28339810160408190526200003491620000d7565b600062000040620000b6565b600080546001600160a01b0319166001600160a01b0383169081178255604051929350917f8be0079c531659141344cd1fd0a4f28419497f9722a3daafe3b4186f6b6457e0908290a350600180556001600160601b0319606093841b811660805291831b821660a05290911b1660c05262000120565b3390565b80516001600160a01b0381168114620000d257600080fd5b919050565b600080600060608486031215620000ec578283fd5b620000f784620000ba565b92506200010760208501620000ba565b91506200011760408501620000ba565b90509250925092565b60805160601c60a05160601c60c05160601c61193162000191600039600081816109ed01528181610d310152610f680152600081816105520152818161076f015281816108af015281816108d9015261119401526000818161057301528181610881015261090001526119316000f3fe6080604052600436106101185760003560e01c80638ab234b6116100a0578063bb09d9b711610064578063bb09d9b7146102f5578063c5d3a1071461030a578063c74c0fac1461032a578063e7cd4a041461033f578063f2fde38b1461035f5761011f565b80638ab234b61461025e5780638da5cb5b1461027e578063a9a12d43146102a0578063ad5c4648146102c0578063ba560ed9146102d55761011f565b8063372c12b1116100e7578063372c12b1146101c9578063531a2211146101e95780636e85a5ab14610209578063715018a61461022957806378cb71711461023e5761011f565b8063092ae4dc146101245780631af42c0f146101465780632042e5c21461017c57806334899be61461019c5761011f565b3661011f57005b600080fd5b34801561013057600080fd5b5061014461013f366004611331565b61037f565b005b34801561015257600080fd5b506101666101613660046112f9565b610438565b60405161017391906114f0565b60405180910390f35b34801561018857600080fd5b506101446101973660046112f9565b61044d565b3480156101a857600080fd5b506101bc6101b7366004611331565b610521565b604051610173919061188f565b3480156101d557600080fd5b506101666101e43660046112f9565b610536565b3480156101f557600080fd5b506101bc61020436600461140a565b61054b565b34801561021557600080fd5b50610144610224366004611331565b6105a0565b34801561023557600080fd5b50610144610644565b34801561024a57600080fd5b50610144610259366004611371565b6106da565b34801561026a57600080fd5b506101446102793660046112f9565b61079d565b34801561028a57600080fd5b5061029361086a565b604051610173919061145b565b3480156102ac57600080fd5b506101bc6102bb366004611371565b610879565b3480156102cc57600080fd5b506102936108ad565b3480156102e157600080fd5b506101bc6102f0366004611371565b6108d1565b34801561030157600080fd5b506102936108fe565b34801561031657600080fd5b506101446103253660046112f9565b610922565b34801561033657600080fd5b506102936109eb565b34801561034b57600080fd5b5061014461035a3660046112f9565b610a0f565b34801561036b57600080fd5b5061014461037a3660046112f9565b610adc565b610387610ba9565b6001600160a01b031661039861086a565b6001600160a01b0316146103c75760405162461bcd60e51b81526004016103be906116d7565b60405180910390fd5b6001600160a01b0382166103e4576103df8382610bad565b6103ef565b6103ef828483610c3f565b7f37e6496681d2c16ab49733a2a6cf0916ebaa3e90250d01f84cec59f546d8cf2461041861086a565b84848460405161042b9493929190611489565b60405180910390a1505050565b60036020526000908152604090205460ff1681565b610455610ba9565b6001600160a01b031661046661086a565b6001600160a01b03161461048c5760405162461bcd60e51b81526004016103be906116d7565b6001600160a01b03811660009081526002602052604090205460ff166104c45760405162461bcd60e51b81526004016103be90611743565b6001600160a01b03811660009081526002602052604090819020805460ff19169055517f7e6f9151585e8b3778ba2f0d9d91dc061e2fd37fcb944b8ee141c84985a13dbe90610516903390849061146f565b60405180910390a150565b600061052e848484610d2c565b949350505050565b60026020526000908152604090205460ff1681565b60006105987f00000000000000000000000000000000000000000000000000000000000000007f000000000000000000000000000000000000000000000000000000000000000084610d2c565b90505b919050565b3360008181526002602052604090205460ff166105cf5760405162461bcd60e51b81526004016103be90611845565b600260015414156105f25760405162461bcd60e51b81526004016103be9061180e565b60026001556001600160a01b03841660009081526003602052604090205460ff1661062f5760405162461bcd60e51b81526004016103be906117c7565b61063a848484610f4e565b5050600180555050565b61064c610ba9565b6001600160a01b031661065d61086a565b6001600160a01b0316146106835760405162461bcd60e51b81526004016103be906116d7565b600080546040516001600160a01b03909116907f8be0079c531659141344cd1fd0a4f28419497f9722a3daafe3b4186f6b6457e0908390a36000805473ffffffffffffffffffffffffffffffffffffffff19169055565b3360008181526002602052604090205460ff166107095760405162461bcd60e51b81526004016103be90611845565b6002600154141561072c5760405162461bcd60e51b81526004016103be9061180e565b60026001556001600160a01b03831660009081526003602052604090205460ff166107695760405162461bcd60e51b81526004016103be906117c7565b610794837f000000000000000000000000000000000000000000000000000000000000000084610f4e565b50506001805550565b6107a5610ba9565b6001600160a01b03166107b661086a565b6001600160a01b0316146107dc5760405162461bcd60e51b81526004016103be906116d7565b6001600160a01b03811660009081526003602052604090205460ff16156108155760405162461bcd60e51b81526004016103be906115fb565b6001600160a01b03811660009081526003602052604090819020805460ff19166001179055517fa132450832b0928b2d3be444848d1f495f5805231e4b7f79754f16d6283b8d9890610516903390849061146f565b6000546001600160a01b031690565b60006108a6837f000000000000000000000000000000000000000000000000000000000000000084610d2c565b9392505050565b7f000000000000000000000000000000000000000000000000000000000000000081565b60006108a6837f000000000000000000000000000000000000000000000000000000000000000084610d2c565b7f000000000000000000000000000000000000000000000000000000000000000081565b61092a610ba9565b6001600160a01b031661093b61086a565b6001600160a01b0316146109615760405162461bcd60e51b81526004016103be906116d7565b6001600160a01b03811660009081526003602052604090205460ff166109995760405162461bcd60e51b81526004016103be9061170c565b6001600160a01b03811660009081526003602052604090819020805460ff19169055517fedf2bbb4f22f648b36e323e9c29c8cf011823f4ab40e5c29e09bd50e0073e81b90610516903390849061146f565b7f000000000000000000000000000000000000000000000000000000000000000081565b610a17610ba9565b6001600160a01b0316610a2861086a565b6001600160a01b031614610a4e5760405162461bcd60e51b81526004016103be906116d7565b6001600160a01b03811660009081526002602052604090205460ff1615610a875760405162461bcd60e51b81526004016103be90611669565b6001600160a01b03811660009081526002602052604090819020805460ff19166001179055517f952f8c896a9d6bb519a6046a342215dda6844c05ea9bbfb0e118b17c349ff67e90610516903390849061146f565b610ae4610ba9565b6001600160a01b0316610af561086a565b6001600160a01b031614610b1b5760405162461bcd60e51b81526004016103be906116d7565b6001600160a01b038116610b415760405162461bcd60e51b81526004016103be906114fb565b600080546040516001600160a01b03808516939216917f8be0079c531659141344cd1fd0a4f28419497f9722a3daafe3b4186f6b6457e091a36000805473ffffffffffffffffffffffffffffffffffffffff19166001600160a01b0392909216919091179055565b3390565b604080516000808252602082019092526001600160a01b038416908390604051610bd79190611422565b60006040518083038185875af1925050503d8060008114610c14576040519150601f19603f3d011682016040523d82523d6000602084013e610c19565b606091505b5050905080610c3a5760405162461bcd60e51b81526004016103be9061159e565b505050565b600080846001600160a01b031663a9059cbb8585604051602401610c649291906114d7565b6040516020818303038152906040529060e01b6020820180516001600160e01b038381831617835250505050604051610c9d9190611422565b6000604051808303816000865af19150503d8060008114610cda576040519150601f19603f3d011682016040523d82523d6000602084013e610cdf565b606091505b5091509150818015610d09575080511580610d09575080806020019051810190610d09919061139c565b610d255760405162461bcd60e51b81526004016103be9061177a565b5050505050565b6000807f00000000000000000000000000000000000000000000000000000000000000006001600160a01b031663e6a4390586866040518363ffffffff1660e01b8152600401610d7d92919061146f565b60206040518083038186803b158015610d9557600080fd5b505afa158015610da9573d6000803e3d6000fd5b505050506040513d601f19601f82011682018060405250810190610dcd9190611315565b90506001600160a01b038116610df55760405162461bcd60e51b81526004016103be90611632565b6000816001600160a01b0316630dfe16816040518163ffffffff1660e01b815260040160206040518083038186803b158015610e3057600080fd5b505afa158015610e44573d6000803e3d6000fd5b505050506040513d601f19601f82011682018060405250810190610e689190611315565b9050600080836001600160a01b0316630902f1ac6040518163ffffffff1660e01b815260040160606040518083038186803b158015610ea657600080fd5b505afa158015610eba573d6000803e3d6000fd5b505050506040513d601f19601f82011682018060405250810190610ede91906113bc565b506001600160701b031691506001600160701b03169150600080846001600160a01b03168a6001600160a01b03161415610f2657829150610f1f88856118b8565b9050610f36565b839150610f3388846118b8565b90505b610f408282611898565b9a9950505050505050505050565b60405163e6a4390560e01b81526000906001600160a01b037f0000000000000000000000000000000000000000000000000000000000000000169063e6a4390590610f9f908790879060040161146f565b60206040518083038186803b158015610fb757600080fd5b505afa158015610fcb573d6000803e3d6000fd5b505050506040513d601f19601f82011682018060405250810190610fef9190611315565b90506001600160a01b0381166110175760405162461bcd60e51b81526004016103be90611632565b6000816001600160a01b0316630dfe16816040518163ffffffff1660e01b815260040160206040518083038186803b15801561105257600080fd5b505afa158015611066573d6000803e3d6000fd5b505050506040513d601f19601f8201168201806040525081019061108a9190611315565b9050600080836001600160a01b0316630902f1ac6040518163ffffffff1660e01b815260040160606040518083038186803b1580156110c857600080fd5b505afa1580156110dc573d6000803e3d6000fd5b505050506040513d601f19601f8201168201806040525081019061110091906113bc565b506001600160701b031691506001600160701b03169150600080846001600160a01b0316896001600160a01b031614156111485783915061114187846118b8565b9050611158565b82915061115587856118b8565b90505b60006111648383611898565b9050478111156111865760405162461bcd60e51b81526004016103be906116a0565b6111928a33308b6111f2565b7f00000000000000000000000000000000000000000000000000000000000000006001600160a01b0316896001600160a01b031614156111db576111d63382610bad565b6111e6565b6111e6893383610c3f565b50505050505050505050565b600080856001600160a01b03166323b872dd868686604051602401611219939291906114b3565b6040516020818303038152906040529060e01b6020820180516001600160e01b0383818316178352505050506040516112529190611422565b6000604051808303816000865af19150503d806000811461128f576040519150601f19603f3d011682016040523d82523d6000602084013e611294565b606091505b50915091508180156112be5750805115806112be5750808060200190518101906112be919061139c565b6112da5760405162461bcd60e51b81526004016103be90611541565b505050505050565b80516001600160701b038116811461059b57600080fd5b60006020828403121561130a578081fd5b81356108a6816118e3565b600060208284031215611326578081fd5b81516108a6816118e3565b600080600060608486031215611345578182fd5b8335611350816118e3565b92506020840135611360816118e3565b929592945050506040919091013590565b60008060408385031215611383578182fd5b823561138e816118e3565b946020939093013593505050565b6000602082840312156113ad578081fd5b815180151581146108a6578182fd5b6000806000606084860312156113d0578283fd5b6113d9846112e2565b92506113e7602085016112e2565b9150604084015163ffffffff811681146113ff578182fd5b809150509250925092565b60006020828403121561141b578081fd5b5035919050565b60008251815b818110156114425760208186018101518583015201611428565b818111156114505782828501525b509190910192915050565b6001600160a01b0391909116815260200190565b6001600160a01b0392831681529116602082015260400190565b6001600160a01b039485168152928416602084015292166040820152606081019190915260800190565b6001600160a01b039384168152919092166020820152604081019190915260600190565b6001600160a01b03929092168252602082015260400190565b901515815260200190565b60208082526026908201527f4f776e61626c653a206e6577206f776e657220697320746865207a65726f206160408201526564647265737360d01b606082015260800190565b60208082526031908201527f5472616e7366657248656c7065723a3a7472616e7366657246726f6d3a20747260408201527f616e7366657246726f6d206661696c6564000000000000000000000000000000606082015260800190565b60208082526034908201527f5472616e7366657248656c7065723a3a736166655472616e736665724554483a60408201527f20455448207472616e73666572206661696c6564000000000000000000000000606082015260800190565b60208082526011908201527f416c726561647920617661696c61626c65000000000000000000000000000000604082015260600190565b6020808252600f908201527f54686572652773206e6f20706169720000000000000000000000000000000000604082015260600190565b60208082526014908201527f416c7265616479207768697465206c6973746564000000000000000000000000604082015260600190565b60208082526018908201527f496e73756666696369656e74204554482062616c616e63650000000000000000604082015260600190565b6020808252818101527f4f776e61626c653a2063616c6c6572206973206e6f7420746865206f776e6572604082015260600190565b60208082526011908201527f4e6f7420617661696c61626c6520796574000000000000000000000000000000604082015260600190565b60208082526010908201527f4e6f74207768697465206c697374656400000000000000000000000000000000604082015260600190565b6020808252602d908201527f5472616e7366657248656c7065723a3a736166655472616e736665723a20747260408201526c185b9cd9995c8819985a5b1959609a1b606082015260800190565b60208082526027908201527f546f6b656e2073686f756c6420626520616464656420696e20617661696c61626040820152661b19481b1a5cdd60ca1b606082015260800190565b6020808252601f908201527f5265656e7472616e637947756172643a207265656e7472616e742063616c6c00604082015260600190565b6020808252602a908201527f4f6e6c79207768697465206c697374656420616464726573736573206172652060408201526961636365707461626c6560b01b606082015260800190565b90815260200190565b6000826118b357634e487b7160e01b81526012600452602481fd5b500490565b60008160001904831182151516156118de57634e487b7160e01b81526011600452602481fd5b500290565b6001600160a01b03811681146118f857600080fd5b5056fea2646970667358221220554834fc601d5aa7c91eb42e996b6f6198161f77ae6c1bda7cca51f48cf30f4a64736f6c63430008000033",
  "devdoc": {
    "details": "This smart contract is for getting CVR_ETH, CVR_USDT price",
    "kind": "dev",
    "methods": {
      "getNeededTokenAmount(address,address,uint256)": {
        "details": "Get needed _token0 amount for _desiredAmount of _token1"
      },
      "owner()": {
        "details": "Returns the address of the current owner."
      },
      "renounceOwnership()": {
        "details": "Leaves the contract without owner. It will not be possible to call `onlyOwner` functions anymore. Can only be called by the current owner. NOTE: Renouncing ownership will leave the contract without an owner, thereby removing any functionality that is only available to the owner."
      },
      "swapTokenWithETH(address,uint256)": {
        "params": {
          "_amount": ": this one is the value with decimals"
        }
      },
      "transferOwnership(address)": {
        "details": "Transfers ownership of the contract to a new account (`newOwner`). Can only be called by the current owner."
      }
    },
    "version": 1
  },
  "userdoc": {
    "kind": "user",
    "methods": {},
    "version": 1
  },
  "storageLayout": {
    "storage": [
      {
        "astId": 534,
        "contract": "contracts/ExchangeAgent.sol:ExchangeAgent",
        "label": "_owner",
        "offset": 0,
        "slot": "0",
        "type": "t_address"
      },
      {
        "astId": 647,
        "contract": "contracts/ExchangeAgent.sol:ExchangeAgent",
        "label": "_status",
        "offset": 0,
        "slot": "1",
        "type": "t_uint256"
      },
      {
        "astId": 1599,
        "contract": "contracts/ExchangeAgent.sol:ExchangeAgent",
        "label": "whiteList",
        "offset": 0,
        "slot": "2",
        "type": "t_mapping(t_address,t_bool)"
      },
      {
        "astId": 1603,
        "contract": "contracts/ExchangeAgent.sol:ExchangeAgent",
        "label": "availableCurrencies",
        "offset": 0,
        "slot": "3",
        "type": "t_mapping(t_address,t_bool)"
      }
    ],
    "types": {
      "t_address": {
        "encoding": "inplace",
        "label": "address",
        "numberOfBytes": "20"
      },
      "t_bool": {
        "encoding": "inplace",
        "label": "bool",
        "numberOfBytes": "1"
      },
      "t_mapping(t_address,t_bool)": {
        "encoding": "mapping",
        "key": "t_address",
        "label": "mapping(address => bool)",
        "numberOfBytes": "32",
        "value": "t_bool"
      },
      "t_uint256": {
        "encoding": "inplace",
        "label": "uint256",
        "numberOfBytes": "32"
      }
    }
  }
}