{
  "address": "0x278d3387C18F6ca33c2f8a46CA1833C4BdC24c74",
  "abi": [
    {
      "inputs": [
        {
          "internalType": "address",
          "name": "_USDC_ADDRESS",
          "type": "address"
        },
        {
          "internalType": "address",
          "name": "_WETH",
          "type": "address"
        },
        {
          "internalType": "address",
          "name": "_UNISWAP_FACTORY",
          "type": "address"
        },
        {
          "internalType": "address",
          "name": "_TWAP_ORACLE_PRICE_FEED_FACTORY",
          "type": "address"
        }
      ],
      "stateMutability": "nonpayable",
      "type": "constructor"
    },
    {
      "anonymous": false,
      "inputs": [
        {
          "indexed": false,
          "internalType": "address",
          "name": "_sender",
          "type": "address"
        },
        {
          "indexed": false,
          "internalType": "address",
          "name": "_currency",
          "type": "address"
        }
      ],
      "name": "AddAvailableCurrency",
      "type": "event"
    },
    {
      "anonymous": false,
      "inputs": [
        {
          "indexed": false,
          "internalType": "address",
          "name": "_sender",
          "type": "address"
        },
        {
          "indexed": false,
          "internalType": "address",
          "name": "_gateway",
          "type": "address"
        }
      ],
      "name": "AddGateway",
      "type": "event"
    },
    {
      "anonymous": false,
      "inputs": [
        {
          "indexed": true,
          "internalType": "address",
          "name": "previousOwner",
          "type": "address"
        },
        {
          "indexed": true,
          "internalType": "address",
          "name": "newOwner",
          "type": "address"
        }
      ],
      "name": "OwnershipTransferred",
      "type": "event"
    },
    {
      "anonymous": false,
      "inputs": [
        {
          "indexed": false,
          "internalType": "address",
          "name": "_sender",
          "type": "address"
        },
        {
          "indexed": false,
          "internalType": "address",
          "name": "_currency",
          "type": "address"
        }
      ],
      "name": "RemoveAvailableCurrency",
      "type": "event"
    },
    {
      "anonymous": false,
      "inputs": [
        {
          "indexed": false,
          "internalType": "address",
          "name": "_sender",
          "type": "address"
        },
        {
          "indexed": false,
          "internalType": "address",
          "name": "_gateway",
          "type": "address"
        }
      ],
      "name": "RemoveGateway",
      "type": "event"
    },
    {
      "anonymous": false,
      "inputs": [
        {
          "indexed": false,
          "internalType": "address",
          "name": "_sender",
          "type": "address"
        },
        {
          "indexed": false,
          "internalType": "uint256",
          "name": "_slippage",
          "type": "uint256"
        }
      ],
      "name": "UpdateSlippage",
      "type": "event"
    },
    {
      "anonymous": false,
      "inputs": [
        {
          "indexed": false,
          "internalType": "address",
          "name": "_user",
          "type": "address"
        },
        {
          "indexed": false,
          "internalType": "uint256",
          "name": "_slippageRate",
          "type": "uint256"
        }
      ],
      "name": "UpdateSlippageRate",
      "type": "event"
    },
    {
      "anonymous": false,
      "inputs": [
        {
          "indexed": false,
          "internalType": "address",
          "name": "_user",
          "type": "address"
        },
        {
          "indexed": false,
          "internalType": "address",
          "name": "_to",
          "type": "address"
        },
        {
          "indexed": false,
          "internalType": "address",
          "name": "_token",
          "type": "address"
        },
        {
          "indexed": false,
          "internalType": "uint256",
          "name": "_amount",
          "type": "uint256"
        }
      ],
      "name": "WithdrawAsset",
      "type": "event"
    },
    {
      "inputs": [],
      "name": "SLIPPPAGE_RAGE",
      "outputs": [
        {
          "internalType": "uint256",
          "name": "",
          "type": "uint256"
        }
      ],
      "stateMutability": "view",
      "type": "function"
    },
    {
      "inputs": [],
      "name": "TWAP_ORACLE_PRICE_FEED_FACTORY",
      "outputs": [
        {
          "internalType": "address",
          "name": "",
          "type": "address"
        }
      ],
      "stateMutability": "view",
      "type": "function"
    },
    {
      "inputs": [],
      "name": "UNISWAP_FACTORY",
      "outputs": [
        {
          "internalType": "address",
          "name": "",
          "type": "address"
        }
      ],
      "stateMutability": "view",
      "type": "function"
    },
    {
      "inputs": [],
      "name": "USDC_ADDRESS",
      "outputs": [
        {
          "internalType": "address",
          "name": "",
          "type": "address"
        }
      ],
      "stateMutability": "view",
      "type": "function"
    },
    {
      "inputs": [],
      "name": "WETH",
      "outputs": [
        {
          "internalType": "address",
          "name": "",
          "type": "address"
        }
      ],
      "stateMutability": "view",
      "type": "function"
    },
    {
      "inputs": [
        {
          "internalType": "address",
          "name": "_currency",
          "type": "address"
        }
      ],
      "name": "addCurrency",
      "outputs": [],
      "stateMutability": "nonpayable",
      "type": "function"
    },
    {
      "inputs": [
        {
          "internalType": "address",
          "name": "_gateway",
          "type": "address"
        }
      ],
      "name": "addWhiteList",
      "outputs": [],
      "stateMutability": "nonpayable",
      "type": "function"
    },
    {
      "inputs": [
        {
          "internalType": "address",
          "name": "",
          "type": "address"
        }
      ],
      "name": "availableCurrencies",
      "outputs": [
        {
          "internalType": "bool",
          "name": "",
          "type": "bool"
        }
      ],
      "stateMutability": "view",
      "type": "function"
    },
    {
      "inputs": [
        {
          "internalType": "uint256",
          "name": "_desiredAmount",
          "type": "uint256"
        }
      ],
      "name": "getETHAmountForUSDC",
      "outputs": [
        {
          "internalType": "uint256",
          "name": "",
          "type": "uint256"
        }
      ],
      "stateMutability": "view",
      "type": "function"
    },
    {
      "inputs": [
        {
          "internalType": "address",
          "name": "_token0",
          "type": "address"
        },
        {
          "internalType": "address",
          "name": "_token1",
          "type": "address"
        },
        {
          "internalType": "uint256",
          "name": "_desiredAmount",
          "type": "uint256"
        }
      ],
      "name": "getNeededTokenAmount",
      "outputs": [
        {
          "internalType": "uint256",
          "name": "",
          "type": "uint256"
        }
      ],
      "stateMutability": "view",
      "type": "function"
    },
    {
      "inputs": [
        {
          "internalType": "address",
          "name": "_token",
          "type": "address"
        },
        {
          "internalType": "uint256",
          "name": "_desiredAmount",
          "type": "uint256"
        }
      ],
      "name": "getTokenAmountForETH",
      "outputs": [
        {
          "internalType": "uint256",
          "name": "",
          "type": "uint256"
        }
      ],
      "stateMutability": "view",
      "type": "function"
    },
    {
      "inputs": [
        {
          "internalType": "address",
          "name": "_token",
          "type": "address"
        },
        {
          "internalType": "uint256",
          "name": "_desiredAmount",
          "type": "uint256"
        }
      ],
      "name": "getTokenAmountForUSDC",
      "outputs": [
        {
          "internalType": "uint256",
          "name": "",
          "type": "uint256"
        }
      ],
      "stateMutability": "view",
      "type": "function"
    },
    {
      "inputs": [],
      "name": "owner",
      "outputs": [
        {
          "internalType": "address",
          "name": "",
          "type": "address"
        }
      ],
      "stateMutability": "view",
      "type": "function"
    },
    {
      "inputs": [
        {
          "internalType": "address",
          "name": "_currency",
          "type": "address"
        }
      ],
      "name": "removeCurrency",
      "outputs": [],
      "stateMutability": "nonpayable",
      "type": "function"
    },
    {
      "inputs": [
        {
          "internalType": "address",
          "name": "_gateway",
          "type": "address"
        }
      ],
      "name": "removeWhiteList",
      "outputs": [],
      "stateMutability": "nonpayable",
      "type": "function"
    },
    {
      "inputs": [],
      "name": "renounceOwnership",
      "outputs": [],
      "stateMutability": "nonpayable",
      "type": "function"
    },
    {
      "inputs": [
        {
          "internalType": "uint256",
          "name": "_slippageRate",
          "type": "uint256"
        }
      ],
      "name": "setSlippageRate",
      "outputs": [],
      "stateMutability": "nonpayable",
      "type": "function"
    },
    {
      "inputs": [
        {
          "internalType": "address",
          "name": "_token",
          "type": "address"
        },
        {
          "internalType": "uint256",
          "name": "_amount",
          "type": "uint256"
        },
        {
          "internalType": "uint256",
          "name": "_desiredAmount",
          "type": "uint256"
        }
      ],
      "name": "swapTokenWithETH",
      "outputs": [],
      "stateMutability": "nonpayable",
      "type": "function"
    },
    {
      "inputs": [
        {
          "internalType": "address",
          "name": "_token0",
          "type": "address"
        },
        {
          "internalType": "address",
          "name": "_token1",
          "type": "address"
        },
        {
          "internalType": "uint256",
          "name": "_amount",
          "type": "uint256"
        },
        {
          "internalType": "uint256",
          "name": "_desiredAmount",
          "type": "uint256"
        }
      ],
      "name": "swapTokenWithToken",
      "outputs": [],
      "stateMutability": "nonpayable",
      "type": "function"
    },
    {
      "inputs": [
        {
          "internalType": "address",
          "name": "newOwner",
          "type": "address"
        }
      ],
      "name": "transferOwnership",
      "outputs": [],
      "stateMutability": "nonpayable",
      "type": "function"
    },
    {
      "inputs": [
        {
          "internalType": "address",
          "name": "",
          "type": "address"
        }
      ],
      "name": "whiteList",
      "outputs": [
        {
          "internalType": "bool",
          "name": "",
          "type": "bool"
        }
      ],
      "stateMutability": "view",
      "type": "function"
    },
    {
      "inputs": [
        {
          "internalType": "address",
          "name": "_to",
          "type": "address"
        },
        {
          "internalType": "address",
          "name": "_token",
          "type": "address"
        },
        {
          "internalType": "uint256",
          "name": "_amount",
          "type": "uint256"
        }
      ],
      "name": "withdrawAsset",
      "outputs": [],
      "stateMutability": "nonpayable",
      "type": "function"
    },
    {
      "stateMutability": "payable",
      "type": "receive"
    }
  ],
  "transactionHash": "0x3b4a01e7ba2153ca47e7804499535990aadc3fbbfbdc29835cc5b4b08519e7f0",
  "args": [
    "0x5FED7f0b36374B8Ee25177b3cbE21B6c8E079F4E",
    "0xd0a1e359811322d97991e03f863a0c30c2cf029c",
    "0x5C69bEe701ef814a2B6a3EDD4B1652CB9cc5aA6f",
    "0x08851c9fAa2b1a96097618aD5C7bd6aF781a5ba7"
  ],
  "solcInputHash": "e121b956ef2c863635cbc7b7bf41db2d",
  "bytecode": "0x6101006040523480156200001257600080fd5b5060405162001bfe38038062001bfe8339810160408190526200003591620000f3565b620000496200004362000082565b62000086565b600180556001600160601b0319606094851b811660805292841b831660a05290831b821660c05290911b1660e05260646004556200014f565b3390565b600080546001600160a01b038381166001600160a01b0319831681178455604051919092169283917f8be0079c531659141344cd1fd0a4f28419497f9722a3daafe3b4186f6b6457e09190a35050565b80516001600160a01b0381168114620000ee57600080fd5b919050565b6000806000806080858703121562000109578384fd5b6200011485620000d6565b93506200012460208601620000d6565b92506200013460408601620000d6565b91506200014460608601620000d6565b905092959194509250565b60805160601c60a05160601c60c05160601c60e05160601c611a2a620001d46000396000818161096e01528181610e0101526110c2015260008181610b040152610fe4015260008181610558015281816106a8015281816109c6015281816109f00152610f840152600081816106c9015281816109980152610a170152611a2a6000f3fe6080604052600436106101595760003560e01c80638ab234b6116100bb578063ba560ed91161007f578063c74c0fac11610059578063c74c0fac146103b5578063e7cd4a04146103ca578063f2fde38b146103ea57610160565b8063ba560ed914610360578063bb09d9b714610380578063c5d3a1071461039557610160565b80638ab234b6146102d45780638da5cb5b146102f457806390600a3114610316578063a9a12d431461032b578063ad5c46481461034b57610160565b806334899be61161011d578063715018a6116100f7578063715018a61461027f578063759362311461029457806380dcc456146102b457610160565b806334899be61461021f578063372c12b11461023f578063531a22111461025f57610160565b8063092ae4dc146101655780630de43334146101875780631af42c0f146101a75780631d514c7e146101dd5780632042e5c2146101ff57610160565b3661016057005b600080fd5b34801561017157600080fd5b5061018561018036600461135b565b61040a565b005b34801561019357600080fd5b506101856101a236600461140b565b6104c3565b3480156101b357600080fd5b506101c76101c2366004611323565b610588565b6040516101d4919061155d565b60405180910390f35b3480156101e957600080fd5b506101f261059d565b6040516101d4919061196a565b34801561020b57600080fd5b5061018561021a366004611323565b6105a3565b34801561022b57600080fd5b506101f261023a36600461135b565b610677565b34801561024b57600080fd5b506101c761025a366004611323565b61068c565b34801561026b57600080fd5b506101f261027a36600461145f565b6106a1565b34801561028b57600080fd5b506101856106f4565b3480156102a057600080fd5b506101856102af36600461145f565b61073f565b3480156102c057600080fd5b506101856102cf36600461139b565b6107ea565b3480156102e057600080fd5b506101856102ef366004611323565b610890565b34801561030057600080fd5b5061030961095d565b6040516101d491906114c8565b34801561032257600080fd5b5061030961096c565b34801561033757600080fd5b506101f26103463660046113e0565b610990565b34801561035757600080fd5b506103096109c4565b34801561036c57600080fd5b506101f261037b3660046113e0565b6109e8565b34801561038c57600080fd5b50610309610a15565b3480156103a157600080fd5b506101856103b0366004611323565b610a39565b3480156103c157600080fd5b50610309610b02565b3480156103d657600080fd5b506101856103e5366004611323565b610b26565b3480156103f657600080fd5b50610185610405366004611323565b610bf3565b610412610c64565b6001600160a01b031661042361095d565b6001600160a01b0316146104525760405162461bcd60e51b81526004016104499061177b565b60405180910390fd5b6001600160a01b03821661046f5761046a8382610c68565b61047a565b61047a828483610cfa565b7f37e6496681d2c16ab49733a2a6cf0916ebaa3e90250d01f84cec59f546d8cf246104a361095d565b8484846040516104b694939291906114f6565b60405180910390a1505050565b3360008181526002602052604090205460ff166104f25760405162461bcd60e51b815260040161044990611920565b600260015414156105155760405162461bcd60e51b8152600401610449906118e9565b60026001556001600160a01b03841660009081526003602052604090205460ff166105525760405162461bcd60e51b8152600401610449906118a2565b61057e847f00000000000000000000000000000000000000000000000000000000000000008585610de7565b5050600180555050565b60036020526000908152604090205460ff1681565b60045481565b6105ab610c64565b6001600160a01b03166105bc61095d565b6001600160a01b0316146105e25760405162461bcd60e51b81526004016104499061177b565b6001600160a01b03811660009081526002602052604090205460ff1661061a5760405162461bcd60e51b8152600401610449906117e7565b6001600160a01b03811660009081526002602052604090819020805460ff19169055517f7e6f9151585e8b3778ba2f0d9d91dc061e2fd37fcb944b8ee141c84985a13dbe9061066c90339084906114dc565b60405180910390a150565b6000610684848484610fdf565b949350505050565b60026020526000908152604090205460ff1681565b60006106ee7f00000000000000000000000000000000000000000000000000000000000000007f000000000000000000000000000000000000000000000000000000000000000084610fdf565b92915050565b6106fc610c64565b6001600160a01b031661070d61095d565b6001600160a01b0316146107335760405162461bcd60e51b81526004016104499061177b565b61073d60006111d6565b565b610747610c64565b6001600160a01b031661075861095d565b6001600160a01b03161461077e5760405162461bcd60e51b81526004016104499061177b565b60008111801561078e5750606481105b6107aa5760405162461bcd60e51b815260040161044990611668565b6107b5816064611993565b6004556040517ffcca991c5968ee2af646885daaeb76b668081650d5e2c0fe21ce84ad2aedbac39061066c9033908490611544565b3360008181526002602052604090205460ff166108195760405162461bcd60e51b815260040161044990611920565b6002600154141561083c5760405162461bcd60e51b8152600401610449906118e9565b60026001556001600160a01b03851660009081526003602052604090205460ff166108795760405162461bcd60e51b8152600401610449906118a2565b61088585858585610de7565b505060018055505050565b610898610c64565b6001600160a01b03166108a961095d565b6001600160a01b0316146108cf5760405162461bcd60e51b81526004016104499061177b565b6001600160a01b03811660009081526003602052604090205460ff16156109085760405162461bcd60e51b81526004016104499061169f565b6001600160a01b03811660009081526003602052604090819020805460ff19166001179055517fa132450832b0928b2d3be444848d1f495f5805231e4b7f79754f16d6283b8d989061066c90339084906114dc565b6000546001600160a01b031690565b7f000000000000000000000000000000000000000000000000000000000000000081565b60006109bd837f000000000000000000000000000000000000000000000000000000000000000084610fdf565b9392505050565b7f000000000000000000000000000000000000000000000000000000000000000081565b60006109bd837f000000000000000000000000000000000000000000000000000000000000000084610fdf565b7f000000000000000000000000000000000000000000000000000000000000000081565b610a41610c64565b6001600160a01b0316610a5261095d565b6001600160a01b031614610a785760405162461bcd60e51b81526004016104499061177b565b6001600160a01b03811660009081526003602052604090205460ff16610ab05760405162461bcd60e51b8152600401610449906117b0565b6001600160a01b03811660009081526003602052604090819020805460ff19169055517fedf2bbb4f22f648b36e323e9c29c8cf011823f4ab40e5c29e09bd50e0073e81b9061066c90339084906114dc565b7f000000000000000000000000000000000000000000000000000000000000000081565b610b2e610c64565b6001600160a01b0316610b3f61095d565b6001600160a01b031614610b655760405162461bcd60e51b81526004016104499061177b565b6001600160a01b03811660009081526002602052604090205460ff1615610b9e5760405162461bcd60e51b81526004016104499061170d565b6001600160a01b03811660009081526002602052604090819020805460ff19166001179055517f952f8c896a9d6bb519a6046a342215dda6844c05ea9bbfb0e118b17c349ff67e9061066c90339084906114dc565b610bfb610c64565b6001600160a01b0316610c0c61095d565b6001600160a01b031614610c325760405162461bcd60e51b81526004016104499061177b565b6001600160a01b038116610c585760405162461bcd60e51b815260040161044990611568565b610c61816111d6565b50565b3390565b604080516000808252602082019092526001600160a01b038416908390604051610c92919061148f565b60006040518083038185875af1925050503d8060008114610ccf576040519150601f19603f3d011682016040523d82523d6000602084013e610cd4565b606091505b5050905080610cf55760405162461bcd60e51b81526004016104499061160b565b505050565b600080846001600160a01b031663a9059cbb8585604051602401610d1f929190611544565b6040516020818303038152906040529060e01b6020820180516001600160e01b038381831617835250505050604051610d58919061148f565b6000604051808303816000865af19150503d8060008114610d95576040519150601f19603f3d011682016040523d82523d6000602084013e610d9a565b606091505b5091509150818015610dc4575080511580610dc4575080806020019051810190610dc4919061143f565b610de05760405162461bcd60e51b815260040161044990611855565b5050505050565b604051632de7797560e11b81526000906001600160a01b037f00000000000000000000000000000000000000000000000000000000000000001690635bcef2ea90610e3890889088906004016114dc565b60206040518083038186803b158015610e5057600080fd5b505afa158015610e64573d6000803e3d6000fd5b505050506040513d601f19601f82011682018060405250810190610e88919061133f565b90506000816001600160a01b0316633ddac95387866040518363ffffffff1660e01b8152600401610eba929190611544565b60206040518083038186803b158015610ed257600080fd5b505afa158015610ee6573d6000803e3d6000fd5b505050506040513d601f19601f82011682018060405250810190610f0a9190611477565b905047811115610f2c5760405162461bcd60e51b815260040161044990611744565b6000612710600454612710610f4191906119b2565b610f4b9086611993565b610f559190611973565b9050808211610f765760405162461bcd60e51b81526004016104499061181e565b610f8287333088611233565b7f00000000000000000000000000000000000000000000000000000000000000006001600160a01b0316866001600160a01b03161415610fcb57610fc63385610c68565b610fd6565b610fd6863386610cfa565b50505050505050565b6000807f00000000000000000000000000000000000000000000000000000000000000006001600160a01b031663e6a4390586866040518363ffffffff1660e01b81526004016110309291906114dc565b60206040518083038186803b15801561104857600080fd5b505afa15801561105c573d6000803e3d6000fd5b505050506040513d601f19601f82011682018060405250810190611080919061133f565b90506001600160a01b0381166110a85760405162461bcd60e51b8152600401610449906116d6565b604051632de7797560e11b81526000906001600160a01b037f00000000000000000000000000000000000000000000000000000000000000001690635bcef2ea906110f990899089906004016114dc565b60206040518083038186803b15801561111157600080fd5b505afa158015611125573d6000803e3d6000fd5b505050506040513d601f19601f82011682018060405250810190611149919061133f565b90506000816001600160a01b0316633ddac95387876040518363ffffffff1660e01b815260040161117b929190611544565b60206040518083038186803b15801561119357600080fd5b505afa1580156111a7573d6000803e3d6000fd5b505050506040513d601f19601f820116820180604052508101906111cb9190611477565b979650505050505050565b600080546001600160a01b0383811673ffffffffffffffffffffffffffffffffffffffff19831681178455604051919092169283917f8be0079c531659141344cd1fd0a4f28419497f9722a3daafe3b4186f6b6457e09190a35050565b600080856001600160a01b03166323b872dd86868660405160240161125a93929190611520565b6040516020818303038152906040529060e01b6020820180516001600160e01b038381831617835250505050604051611293919061148f565b6000604051808303816000865af19150503d80600081146112d0576040519150601f19603f3d011682016040523d82523d6000602084013e6112d5565b606091505b50915091508180156112ff5750805115806112ff5750808060200190518101906112ff919061143f565b61131b5760405162461bcd60e51b8152600401610449906115ae565b505050505050565b600060208284031215611334578081fd5b81356109bd816119df565b600060208284031215611350578081fd5b81516109bd816119df565b60008060006060848603121561136f578182fd5b833561137a816119df565b9250602084013561138a816119df565b929592945050506040919091013590565b600080600080608085870312156113b0578081fd5b84356113bb816119df565b935060208501356113cb816119df565b93969395505050506040820135916060013590565b600080604083850312156113f2578182fd5b82356113fd816119df565b946020939093013593505050565b60008060006060848603121561141f578283fd5b833561142a816119df565b95602085013595506040909401359392505050565b600060208284031215611450578081fd5b815180151581146109bd578182fd5b600060208284031215611470578081fd5b5035919050565b600060208284031215611488578081fd5b5051919050565b60008251815b818110156114af5760208186018101518583015201611495565b818111156114bd5782828501525b509190910192915050565b6001600160a01b0391909116815260200190565b6001600160a01b0392831681529116602082015260400190565b6001600160a01b039485168152928416602084015292166040820152606081019190915260800190565b6001600160a01b039384168152919092166020820152604081019190915260600190565b6001600160a01b03929092168252602082015260400190565b901515815260200190565b60208082526026908201527f4f776e61626c653a206e6577206f776e657220697320746865207a65726f206160408201526564647265737360d01b606082015260800190565b60208082526031908201527f5472616e7366657248656c7065723a3a7472616e7366657246726f6d3a20747260408201527f616e7366657246726f6d206661696c6564000000000000000000000000000000606082015260800190565b60208082526034908201527f5472616e7366657248656c7065723a3a736166655472616e736665724554483a60408201527f20455448207472616e73666572206661696c6564000000000000000000000000606082015260800190565b6020808252600e908201527f4f766572666c6f772072616e6765000000000000000000000000000000000000604082015260600190565b60208082526011908201527f416c726561647920617661696c61626c65000000000000000000000000000000604082015260600190565b6020808252600f908201527f54686572652773206e6f20706169720000000000000000000000000000000000604082015260600190565b60208082526014908201527f416c7265616479207768697465206c6973746564000000000000000000000000604082015260600190565b60208082526018908201527f496e73756666696369656e74204554482062616c616e63650000000000000000604082015260600190565b6020808252818101527f4f776e61626c653a2063616c6c6572206973206e6f7420746865206f776e6572604082015260600190565b60208082526011908201527f4e6f7420617661696c61626c6520796574000000000000000000000000000000604082015260600190565b60208082526010908201527f4e6f74207768697465206c697374656400000000000000000000000000000000604082015260600190565b60208082526013908201527f4f766572666c6f77206d696e20616d6f756e7400000000000000000000000000604082015260600190565b6020808252602d908201527f5472616e7366657248656c7065723a3a736166655472616e736665723a20747260408201526c185b9cd9995c8819985a5b1959609a1b606082015260800190565b60208082526027908201527f546f6b656e2073686f756c6420626520616464656420696e20617661696c61626040820152661b19481b1a5cdd60ca1b606082015260800190565b6020808252601f908201527f5265656e7472616e637947756172643a207265656e7472616e742063616c6c00604082015260600190565b6020808252602a908201527f4f6e6c79207768697465206c697374656420616464726573736573206172652060408201526961636365707461626c6560b01b606082015260800190565b90815260200190565b60008261198e57634e487b7160e01b81526012600452602481fd5b500490565b60008160001904831182151516156119ad576119ad6119c9565b500290565b6000828210156119c4576119c46119c9565b500390565b634e487b7160e01b600052601160045260246000fd5b6001600160a01b0381168114610c6157600080fdfea264697066735822122011500e3ca080a23fe82320bbc545bb30e32cdffdbf7667fbde00b1db6906615064736f6c63430008000033",
  "devdoc": {
    "details": "This smart contract is for getting CVR_ETH, CVR_USDT price",
    "kind": "dev",
    "methods": {
      "getNeededTokenAmount(address,address,uint256)": {
        "details": "Get needed _token0 amount for _desiredAmount of _token1"
      },
      "owner()": {
        "details": "Returns the address of the current owner."
      },
      "renounceOwnership()": {
        "details": "Leaves the contract without owner. It will not be possible to call `onlyOwner` functions anymore. Can only be called by the current owner. NOTE: Renouncing ownership will leave the contract without an owner, thereby removing any functionality that is only available to the owner."
      },
      "swapTokenWithETH(address,uint256,uint256)": {
        "params": {
          "_amount": ": this one is the value with decimals"
        }
      },
      "transferOwnership(address)": {
        "details": "Transfers ownership of the contract to a new account (`newOwner`). Can only be called by the current owner."
      }
    },
    "version": 1
  },
  "userdoc": {
    "kind": "user",
    "methods": {},
    "version": 1
  },
  "storageLayout": {
    "storage": [
      {
        "astId": 535,
        "contract": "contracts/ExchangeAgent.sol:ExchangeAgent",
        "label": "_owner",
        "offset": 0,
        "slot": "0",
        "type": "t_address"
      },
      {
        "astId": 643,
        "contract": "contracts/ExchangeAgent.sol:ExchangeAgent",
        "label": "_status",
        "offset": 0,
        "slot": "1",
        "type": "t_uint256"
      },
      {
        "astId": 1660,
        "contract": "contracts/ExchangeAgent.sol:ExchangeAgent",
        "label": "whiteList",
        "offset": 0,
        "slot": "2",
        "type": "t_mapping(t_address,t_bool)"
      },
      {
        "astId": 1664,
        "contract": "contracts/ExchangeAgent.sol:ExchangeAgent",
        "label": "availableCurrencies",
        "offset": 0,
        "slot": "3",
        "type": "t_mapping(t_address,t_bool)"
      },
      {
        "astId": 1674,
        "contract": "contracts/ExchangeAgent.sol:ExchangeAgent",
        "label": "SLIPPPAGE_RAGE",
        "offset": 0,
        "slot": "4",
        "type": "t_uint256"
      }
    ],
    "types": {
      "t_address": {
        "encoding": "inplace",
        "label": "address",
        "numberOfBytes": "20"
      },
      "t_bool": {
        "encoding": "inplace",
        "label": "bool",
        "numberOfBytes": "1"
      },
      "t_mapping(t_address,t_bool)": {
        "encoding": "mapping",
        "key": "t_address",
        "label": "mapping(address => bool)",
        "numberOfBytes": "32",
        "value": "t_bool"
      },
      "t_uint256": {
        "encoding": "inplace",
        "label": "uint256",
        "numberOfBytes": "32"
      }
    }
  }
}