{
  "address": "0x33C5F22E6db919CCFFe1dDf0999cB5C4C9ae7B79",
  "abi": [
    {
      "inputs": [
        {
          "internalType": "address",
          "name": "_CVR_ADDRESS",
          "type": "address"
        },
        {
          "internalType": "address",
          "name": "_USDC_ADDRESS",
          "type": "address"
        },
        {
          "internalType": "address",
          "name": "_WETH",
          "type": "address"
        },
        {
          "internalType": "address",
          "name": "_UNISWAP_FACTORY",
          "type": "address"
        },
        {
          "internalType": "address",
          "name": "_TWAP_ORACLE_PRICE_FEED_FACTORY",
          "type": "address"
        }
      ],
      "stateMutability": "nonpayable",
      "type": "constructor"
    },
    {
      "anonymous": false,
      "inputs": [
        {
          "indexed": false,
          "internalType": "address",
          "name": "_sender",
          "type": "address"
        },
        {
          "indexed": false,
          "internalType": "address",
          "name": "_currency",
          "type": "address"
        }
      ],
      "name": "AddAvailableCurrency",
      "type": "event"
    },
    {
      "anonymous": false,
      "inputs": [
        {
          "indexed": false,
          "internalType": "address",
          "name": "_sender",
          "type": "address"
        },
        {
          "indexed": false,
          "internalType": "address",
          "name": "_gateway",
          "type": "address"
        }
      ],
      "name": "AddGateway",
      "type": "event"
    },
    {
      "anonymous": false,
      "inputs": [
        {
          "indexed": true,
          "internalType": "address",
          "name": "previousOwner",
          "type": "address"
        },
        {
          "indexed": true,
          "internalType": "address",
          "name": "newOwner",
          "type": "address"
        }
      ],
      "name": "OwnershipTransferred",
      "type": "event"
    },
    {
      "anonymous": false,
      "inputs": [
        {
          "indexed": false,
          "internalType": "address",
          "name": "_sender",
          "type": "address"
        },
        {
          "indexed": false,
          "internalType": "address",
          "name": "_currency",
          "type": "address"
        }
      ],
      "name": "RemoveAvailableCurrency",
      "type": "event"
    },
    {
      "anonymous": false,
      "inputs": [
        {
          "indexed": false,
          "internalType": "address",
          "name": "_sender",
          "type": "address"
        },
        {
          "indexed": false,
          "internalType": "address",
          "name": "_gateway",
          "type": "address"
        }
      ],
      "name": "RemoveGateway",
      "type": "event"
    },
    {
      "anonymous": false,
      "inputs": [
        {
          "indexed": false,
          "internalType": "address",
          "name": "_sender",
          "type": "address"
        },
        {
          "indexed": false,
          "internalType": "uint256",
          "name": "_slippage",
          "type": "uint256"
        }
      ],
      "name": "UpdateSlippage",
      "type": "event"
    },
    {
      "anonymous": false,
      "inputs": [
        {
          "indexed": false,
          "internalType": "address",
          "name": "_user",
          "type": "address"
        },
        {
          "indexed": false,
          "internalType": "uint256",
          "name": "_slippageRate",
          "type": "uint256"
        }
      ],
      "name": "UpdateSlippageRate",
      "type": "event"
    },
    {
      "anonymous": false,
      "inputs": [
        {
          "indexed": false,
          "internalType": "address",
          "name": "_user",
          "type": "address"
        },
        {
          "indexed": false,
          "internalType": "address",
          "name": "_to",
          "type": "address"
        },
        {
          "indexed": false,
          "internalType": "address",
          "name": "_token",
          "type": "address"
        },
        {
          "indexed": false,
          "internalType": "uint256",
          "name": "_amount",
          "type": "uint256"
        }
      ],
      "name": "WithdrawAsset",
      "type": "event"
    },
    {
      "inputs": [],
      "name": "CVR_ADDRESS",
      "outputs": [
        {
          "internalType": "address",
          "name": "",
          "type": "address"
        }
      ],
      "stateMutability": "view",
      "type": "function"
    },
    {
      "inputs": [],
      "name": "SLIPPPAGE_RAGE",
      "outputs": [
        {
          "internalType": "uint256",
          "name": "",
          "type": "uint256"
        }
      ],
      "stateMutability": "view",
      "type": "function"
    },
    {
      "inputs": [],
      "name": "TWAP_ORACLE_PRICE_FEED_FACTORY",
      "outputs": [
        {
          "internalType": "address",
          "name": "",
          "type": "address"
        }
      ],
      "stateMutability": "view",
      "type": "function"
    },
    {
      "inputs": [],
      "name": "UNISWAP_FACTORY",
      "outputs": [
        {
          "internalType": "address",
          "name": "",
          "type": "address"
        }
      ],
      "stateMutability": "view",
      "type": "function"
    },
    {
      "inputs": [],
      "name": "USDC_ADDRESS",
      "outputs": [
        {
          "internalType": "address",
          "name": "",
          "type": "address"
        }
      ],
      "stateMutability": "view",
      "type": "function"
    },
    {
      "inputs": [],
      "name": "WETH",
      "outputs": [
        {
          "internalType": "address",
          "name": "",
          "type": "address"
        }
      ],
      "stateMutability": "view",
      "type": "function"
    },
    {
      "inputs": [
        {
          "internalType": "address",
          "name": "_currency",
          "type": "address"
        }
      ],
      "name": "addCurrency",
      "outputs": [],
      "stateMutability": "nonpayable",
      "type": "function"
    },
    {
      "inputs": [
        {
          "internalType": "address",
          "name": "_gateway",
          "type": "address"
        }
      ],
      "name": "addWhiteList",
      "outputs": [],
      "stateMutability": "nonpayable",
      "type": "function"
    },
    {
      "inputs": [
        {
          "internalType": "address",
          "name": "",
          "type": "address"
        }
      ],
      "name": "availableCurrencies",
      "outputs": [
        {
          "internalType": "bool",
          "name": "",
          "type": "bool"
        }
      ],
      "stateMutability": "view",
      "type": "function"
    },
    {
      "inputs": [],
      "name": "discountPercentage",
      "outputs": [
        {
          "internalType": "uint256",
          "name": "",
          "type": "uint256"
        }
      ],
      "stateMutability": "view",
      "type": "function"
    },
    {
      "inputs": [
        {
          "internalType": "uint256",
          "name": "_desiredAmount",
          "type": "uint256"
        }
      ],
      "name": "getETHAmountForUSDC",
      "outputs": [
        {
          "internalType": "uint256",
          "name": "",
          "type": "uint256"
        }
      ],
      "stateMutability": "view",
      "type": "function"
    },
    {
      "inputs": [
        {
          "internalType": "address",
          "name": "_token0",
          "type": "address"
        },
        {
          "internalType": "address",
          "name": "_token1",
          "type": "address"
        },
        {
          "internalType": "uint256",
          "name": "_desiredAmount",
          "type": "uint256"
        }
      ],
      "name": "getNeededTokenAmount",
      "outputs": [
        {
          "internalType": "uint256",
          "name": "",
          "type": "uint256"
        }
      ],
      "stateMutability": "view",
      "type": "function"
    },
    {
      "inputs": [
        {
          "internalType": "address",
          "name": "_token",
          "type": "address"
        },
        {
          "internalType": "uint256",
          "name": "_desiredAmount",
          "type": "uint256"
        }
      ],
      "name": "getTokenAmountForETH",
      "outputs": [
        {
          "internalType": "uint256",
          "name": "",
          "type": "uint256"
        }
      ],
      "stateMutability": "view",
      "type": "function"
    },
    {
      "inputs": [
        {
          "internalType": "address",
          "name": "_token",
          "type": "address"
        },
        {
          "internalType": "uint256",
          "name": "_desiredAmount",
          "type": "uint256"
        }
      ],
      "name": "getTokenAmountForUSDC",
      "outputs": [
        {
          "internalType": "uint256",
          "name": "",
          "type": "uint256"
        }
      ],
      "stateMutability": "view",
      "type": "function"
    },
    {
      "inputs": [],
      "name": "owner",
      "outputs": [
        {
          "internalType": "address",
          "name": "",
          "type": "address"
        }
      ],
      "stateMutability": "view",
      "type": "function"
    },
    {
      "inputs": [
        {
          "internalType": "address",
          "name": "_currency",
          "type": "address"
        }
      ],
      "name": "removeCurrency",
      "outputs": [],
      "stateMutability": "nonpayable",
      "type": "function"
    },
    {
      "inputs": [
        {
          "internalType": "address",
          "name": "_gateway",
          "type": "address"
        }
      ],
      "name": "removeWhiteList",
      "outputs": [],
      "stateMutability": "nonpayable",
      "type": "function"
    },
    {
      "inputs": [],
      "name": "renounceOwnership",
      "outputs": [],
      "stateMutability": "nonpayable",
      "type": "function"
    },
    {
      "inputs": [
        {
          "internalType": "uint256",
          "name": "_discountPercentage",
          "type": "uint256"
        }
      ],
      "name": "setDiscountPercentage",
      "outputs": [],
      "stateMutability": "nonpayable",
      "type": "function"
    },
    {
      "inputs": [
        {
          "internalType": "uint256",
          "name": "_slippageRate",
          "type": "uint256"
        }
      ],
      "name": "setSlippageRate",
      "outputs": [],
      "stateMutability": "nonpayable",
      "type": "function"
    },
    {
      "inputs": [
        {
          "internalType": "address",
          "name": "_token",
          "type": "address"
        },
        {
          "internalType": "uint256",
          "name": "_amount",
          "type": "uint256"
        },
        {
          "internalType": "uint256",
          "name": "_desiredAmount",
          "type": "uint256"
        }
      ],
      "name": "swapTokenWithETH",
      "outputs": [],
      "stateMutability": "nonpayable",
      "type": "function"
    },
    {
      "inputs": [
        {
          "internalType": "address",
          "name": "_token0",
          "type": "address"
        },
        {
          "internalType": "address",
          "name": "_token1",
          "type": "address"
        },
        {
          "internalType": "uint256",
          "name": "_amount",
          "type": "uint256"
        },
        {
          "internalType": "uint256",
          "name": "_desiredAmount",
          "type": "uint256"
        }
      ],
      "name": "swapTokenWithToken",
      "outputs": [],
      "stateMutability": "nonpayable",
      "type": "function"
    },
    {
      "inputs": [
        {
          "internalType": "address",
          "name": "newOwner",
          "type": "address"
        }
      ],
      "name": "transferOwnership",
      "outputs": [],
      "stateMutability": "nonpayable",
      "type": "function"
    },
    {
      "inputs": [
        {
          "internalType": "address",
          "name": "",
          "type": "address"
        }
      ],
      "name": "whiteList",
      "outputs": [
        {
          "internalType": "bool",
          "name": "",
          "type": "bool"
        }
      ],
      "stateMutability": "view",
      "type": "function"
    },
    {
      "inputs": [
        {
          "internalType": "address",
          "name": "_to",
          "type": "address"
        },
        {
          "internalType": "address",
          "name": "_token",
          "type": "address"
        },
        {
          "internalType": "uint256",
          "name": "_amount",
          "type": "uint256"
        }
      ],
      "name": "withdrawAsset",
      "outputs": [],
      "stateMutability": "nonpayable",
      "type": "function"
    },
    {
      "stateMutability": "payable",
      "type": "receive"
    }
  ],
  "transactionHash": "0xd350b0fee3e6aa34ee0ef5d837ea8bad2729e009955a51339dd7a7e100dc20b9",
  "args": [
    "0xFc9B2B2565B38511B9822887F99D036d694a11e6",
    "0x5FED7f0b36374B8Ee25177b3cbE21B6c8E079F4E",
    "0xd0a1e359811322d97991e03f863a0c30c2cf029c",
    "0x5C69bEe701ef814a2B6a3EDD4B1652CB9cc5aA6f",
    "0x08851c9fAa2b1a96097618aD5C7bd6aF781a5ba7"
  ],
  "solcInputHash": "ef270dec7daaf32e0838cb5bbbe360f4",
  "bytecode": "0x610120604052604b6005553480156200001757600080fd5b5060405162001e2e38038062001e2e8339810160408190526200003a91620000f2565b600062000046620000d1565b600080546001600160a01b0319166001600160a01b0383169081178255604051929350917f8be0079c531659141344cd1fd0a4f28419497f9722a3daafe3b4186f6b6457e0908290a350600180556001600160601b0319606095861b811660805293851b841660a05291841b831660c052831b821660e05290911b1661010052606460045562000161565b3390565b80516001600160a01b0381168114620000ed57600080fd5b919050565b600080600080600060a086880312156200010a578081fd5b6200011586620000d5565b94506200012560208701620000d5565b93506200013560408701620000d5565b92506200014560608701620000d5565b91506200015560808701620000d5565b90509295509295909350565b60805160601c60a05160601c60c05160601c60e05160601c6101005160601c611c33620001fb60003960008181610a4401528181610fa10152611262015260008181610c2401526111840152600081816105e30152818161073301528181610a9c01528181610b10015261112401526000818161075401528181610a6e0152610b37015260008181610c4801526113960152611c336000f3fe60806040526004361061019a5760003560e01c80638da5cb5b116100e1578063ba560ed91161008a578063c74c0fac11610064578063c74c0fac1461042b578063e233bd9a14610440578063e7cd4a0414610455578063f2fde38b14610475576101a1565b8063ba560ed9146103d6578063bb09d9b7146103f6578063c5d3a1071461040b576101a1565b8063ad5c4648116100bb578063ad5c46481461038c578063b3428d15146103a1578063b3fa9f24146103c1576101a1565b80638da5cb5b1461033557806390600a3114610357578063a9a12d431461036c576101a1565b8063372c12b111610143578063759362311161011d57806375936231146102d557806380dcc456146102f55780638ab234b614610315576101a1565b8063372c12b114610280578063531a2211146102a0578063715018a6146102c0576101a1565b80631d514c7e116101745780631d514c7e1461021e5780632042e5c21461024057806334899be614610260576101a1565b8063092ae4dc146101a65780630de43334146101c85780631af42c0f146101e8576101a1565b366101a157005b600080fd5b3480156101b257600080fd5b506101c66101c136600461151d565b610495565b005b3480156101d457600080fd5b506101c66101e33660046115cd565b61054e565b3480156101f457600080fd5b506102086102033660046114e5565b610613565b604051610215919061171f565b60405180910390f35b34801561022a57600080fd5b50610233610628565b6040516102159190611b70565b34801561024c57600080fd5b506101c661025b3660046114e5565b61062e565b34801561026c57600080fd5b5061023361027b36600461151d565b610702565b34801561028c57600080fd5b5061020861029b3660046114e5565b610717565b3480156102ac57600080fd5b506102336102bb366004611621565b61072c565b3480156102cc57600080fd5b506101c661077f565b3480156102e157600080fd5b506101c66102f0366004611621565b610815565b34801561030157600080fd5b506101c661031036600461155d565b6108c0565b34801561032157600080fd5b506101c66103303660046114e5565b610966565b34801561034157600080fd5b5061034a610a33565b604051610215919061168a565b34801561036357600080fd5b5061034a610a42565b34801561037857600080fd5b506102336103873660046115a2565b610a66565b34801561039857600080fd5b5061034a610a9a565b3480156103ad57600080fd5b506101c66103bc366004611621565b610abe565b3480156103cd57600080fd5b50610233610b02565b3480156103e257600080fd5b506102336103f13660046115a2565b610b08565b34801561040257600080fd5b5061034a610b35565b34801561041757600080fd5b506101c66104263660046114e5565b610b59565b34801561043757600080fd5b5061034a610c22565b34801561044c57600080fd5b5061034a610c46565b34801561046157600080fd5b506101c66104703660046114e5565b610c6a565b34801561048157600080fd5b506101c66104903660046114e5565b610d37565b61049d610e04565b6001600160a01b03166104ae610a33565b6001600160a01b0316146104dd5760405162461bcd60e51b81526004016104d490611981565b60405180910390fd5b6001600160a01b0382166104fa576104f58382610e08565b610505565b610505828483610e9a565b7f37e6496681d2c16ab49733a2a6cf0916ebaa3e90250d01f84cec59f546d8cf2461052e610a33565b84848460405161054194939291906116b8565b60405180910390a1505050565b3360008181526002602052604090205460ff1661057d5760405162461bcd60e51b81526004016104d490611b26565b600260015414156105a05760405162461bcd60e51b81526004016104d490611aef565b60026001556001600160a01b03841660009081526003602052604090205460ff166105dd5760405162461bcd60e51b81526004016104d490611aa8565b610609847f00000000000000000000000000000000000000000000000000000000000000008585610f87565b5050600180555050565b60036020526000908152604090205460ff1681565b60045481565b610636610e04565b6001600160a01b0316610647610a33565b6001600160a01b03161461066d5760405162461bcd60e51b81526004016104d490611981565b6001600160a01b03811660009081526002602052604090205460ff166106a55760405162461bcd60e51b81526004016104d4906119ed565b6001600160a01b03811660009081526002602052604090819020805460ff19169055517f7e6f9151585e8b3778ba2f0d9d91dc061e2fd37fcb944b8ee141c84985a13dbe906106f7903390849061169e565b60405180910390a150565b600061070f84848461117f565b949350505050565b60026020526000908152604090205460ff1681565b60006107797f00000000000000000000000000000000000000000000000000000000000000007f00000000000000000000000000000000000000000000000000000000000000008461117f565b92915050565b610787610e04565b6001600160a01b0316610798610a33565b6001600160a01b0316146107be5760405162461bcd60e51b81526004016104d490611981565b600080546040516001600160a01b03909116907f8be0079c531659141344cd1fd0a4f28419497f9722a3daafe3b4186f6b6457e0908390a36000805473ffffffffffffffffffffffffffffffffffffffff19169055565b61081d610e04565b6001600160a01b031661082e610a33565b6001600160a01b0316146108545760405162461bcd60e51b81526004016104d490611981565b6000811180156108645750606481105b6108805760405162461bcd60e51b81526004016104d49061182a565b61088b816064611b99565b6004556040517ffcca991c5968ee2af646885daaeb76b668081650d5e2c0fe21ce84ad2aedbac3906106f79033908490611706565b3360008181526002602052604090205460ff166108ef5760405162461bcd60e51b81526004016104d490611b26565b600260015414156109125760405162461bcd60e51b81526004016104d490611aef565b60026001556001600160a01b03851660009081526003602052604090205460ff1661094f5760405162461bcd60e51b81526004016104d490611aa8565b61095b85858585610f87565b505060018055505050565b61096e610e04565b6001600160a01b031661097f610a33565b6001600160a01b0316146109a55760405162461bcd60e51b81526004016104d490611981565b6001600160a01b03811660009081526003602052604090205460ff16156109de5760405162461bcd60e51b81526004016104d490611861565b6001600160a01b03811660009081526003602052604090819020805460ff19166001179055517fa132450832b0928b2d3be444848d1f495f5805231e4b7f79754f16d6283b8d98906106f7903390849061169e565b6000546001600160a01b031690565b7f000000000000000000000000000000000000000000000000000000000000000081565b6000610a93837f00000000000000000000000000000000000000000000000000000000000000008461117f565b9392505050565b7f000000000000000000000000000000000000000000000000000000000000000081565b610ac6610e04565b6001600160a01b0316610ad7610a33565b6001600160a01b031614610afd5760405162461bcd60e51b81526004016104d490611981565b600555565b60055481565b6000610a93837f00000000000000000000000000000000000000000000000000000000000000008461117f565b7f000000000000000000000000000000000000000000000000000000000000000081565b610b61610e04565b6001600160a01b0316610b72610a33565b6001600160a01b031614610b985760405162461bcd60e51b81526004016104d490611981565b6001600160a01b03811660009081526003602052604090205460ff16610bd05760405162461bcd60e51b81526004016104d4906119b6565b6001600160a01b03811660009081526003602052604090819020805460ff19169055517fedf2bbb4f22f648b36e323e9c29c8cf011823f4ab40e5c29e09bd50e0073e81b906106f7903390849061169e565b7f000000000000000000000000000000000000000000000000000000000000000081565b7f000000000000000000000000000000000000000000000000000000000000000081565b610c72610e04565b6001600160a01b0316610c83610a33565b6001600160a01b031614610ca95760405162461bcd60e51b81526004016104d490611981565b6001600160a01b03811660009081526002602052604090205460ff1615610ce25760405162461bcd60e51b81526004016104d490611913565b6001600160a01b03811660009081526002602052604090819020805460ff19166001179055517f952f8c896a9d6bb519a6046a342215dda6844c05ea9bbfb0e118b17c349ff67e906106f7903390849061169e565b610d3f610e04565b6001600160a01b0316610d50610a33565b6001600160a01b031614610d765760405162461bcd60e51b81526004016104d490611981565b6001600160a01b038116610d9c5760405162461bcd60e51b81526004016104d49061172a565b600080546040516001600160a01b03808516939216917f8be0079c531659141344cd1fd0a4f28419497f9722a3daafe3b4186f6b6457e091a36000805473ffffffffffffffffffffffffffffffffffffffff19166001600160a01b0392909216919091179055565b3390565b604080516000808252602082019092526001600160a01b038416908390604051610e329190611651565b60006040518083038185875af1925050503d8060008114610e6f576040519150601f19603f3d011682016040523d82523d6000602084013e610e74565b606091505b5050905080610e955760405162461bcd60e51b81526004016104d4906117cd565b505050565b600080846001600160a01b031663a9059cbb8585604051602401610ebf929190611706565b6040516020818303038152906040529060e01b6020820180516001600160e01b038381831617835250505050604051610ef89190611651565b6000604051808303816000865af19150503d8060008114610f35576040519150601f19603f3d011682016040523d82523d6000602084013e610f3a565b606091505b5091509150818015610f64575080511580610f64575080806020019051810190610f649190611601565b610f805760405162461bcd60e51b81526004016104d490611a5b565b5050505050565b604051632de7797560e11b81526000906001600160a01b037f00000000000000000000000000000000000000000000000000000000000000001690635bcef2ea90610fd8908890889060040161169e565b60206040518083038186803b158015610ff057600080fd5b505afa158015611004573d6000803e3d6000fd5b505050506040513d601f19601f820116820180604052508101906110289190611501565b90506000816001600160a01b0316633ddac95387866040518363ffffffff1660e01b815260040161105a929190611706565b60206040518083038186803b15801561107257600080fd5b505afa158015611086573d6000803e3d6000fd5b505050506040513d601f19601f820116820180604052508101906110aa9190611639565b9050478111156110cc5760405162461bcd60e51b81526004016104d49061194a565b60006127106004546127106110e19190611bb8565b6110eb9086611b99565b6110f59190611b79565b90508082116111165760405162461bcd60e51b81526004016104d490611a24565b611122873330886113f5565b7f00000000000000000000000000000000000000000000000000000000000000006001600160a01b0316866001600160a01b0316141561116b576111663385610e08565b611176565b611176863386610e9a565b50505050505050565b6000807f00000000000000000000000000000000000000000000000000000000000000006001600160a01b031663e6a4390586866040518363ffffffff1660e01b81526004016111d092919061169e565b60206040518083038186803b1580156111e857600080fd5b505afa1580156111fc573d6000803e3d6000fd5b505050506040513d601f19601f820116820180604052508101906112209190611501565b90506001600160a01b0381166112485760405162461bcd60e51b81526004016104d4906118dc565b604051632de7797560e11b81526000906001600160a01b037f00000000000000000000000000000000000000000000000000000000000000001690635bcef2ea90611299908990899060040161169e565b60206040518083038186803b1580156112b157600080fd5b505afa1580156112c5573d6000803e3d6000fd5b505050506040513d601f19601f820116820180604052508101906112e99190611501565b90506001600160a01b0381166113115760405162461bcd60e51b81526004016104d490611898565b604051633ddac95360e01b81526000906001600160a01b03831690633ddac953906113429089908990600401611706565b60206040518083038186803b15801561135a57600080fd5b505afa15801561136e573d6000803e3d6000fd5b505050506040513d601f19601f820116820180604052508101906113929190611639565b90507f00000000000000000000000000000000000000000000000000000000000000006001600160a01b0316876001600160a01b031614156113eb576064600554826113de9190611b99565b6113e89190611b79565b90505b9695505050505050565b600080856001600160a01b03166323b872dd86868660405160240161141c939291906116e2565b6040516020818303038152906040529060e01b6020820180516001600160e01b0383818316178352505050506040516114559190611651565b6000604051808303816000865af19150503d8060008114611492576040519150601f19603f3d011682016040523d82523d6000602084013e611497565b606091505b50915091508180156114c15750805115806114c15750808060200190518101906114c19190611601565b6114dd5760405162461bcd60e51b81526004016104d490611770565b505050505050565b6000602082840312156114f6578081fd5b8135610a9381611be5565b600060208284031215611512578081fd5b8151610a9381611be5565b600080600060608486031215611531578182fd5b833561153c81611be5565b9250602084013561154c81611be5565b929592945050506040919091013590565b60008060008060808587031215611572578081fd5b843561157d81611be5565b9350602085013561158d81611be5565b93969395505050506040820135916060013590565b600080604083850312156115b4578182fd5b82356115bf81611be5565b946020939093013593505050565b6000806000606084860312156115e1578283fd5b83356115ec81611be5565b95602085013595506040909401359392505050565b600060208284031215611612578081fd5b81518015158114610a93578182fd5b600060208284031215611632578081fd5b5035919050565b60006020828403121561164a578081fd5b5051919050565b60008251815b818110156116715760208186018101518583015201611657565b8181111561167f5782828501525b509190910192915050565b6001600160a01b0391909116815260200190565b6001600160a01b0392831681529116602082015260400190565b6001600160a01b039485168152928416602084015292166040820152606081019190915260800190565b6001600160a01b039384168152919092166020820152604081019190915260600190565b6001600160a01b03929092168252602082015260400190565b901515815260200190565b60208082526026908201527f4f776e61626c653a206e6577206f776e657220697320746865207a65726f206160408201526564647265737360d01b606082015260800190565b60208082526031908201527f5472616e7366657248656c7065723a3a7472616e7366657246726f6d3a20747260408201527f616e7366657246726f6d206661696c6564000000000000000000000000000000606082015260800190565b60208082526034908201527f5472616e7366657248656c7065723a3a736166655472616e736665724554483a60408201527f20455448207472616e73666572206661696c6564000000000000000000000000606082015260800190565b6020808252600e908201527f4f766572666c6f772072616e6765000000000000000000000000000000000000604082015260600190565b60208082526011908201527f416c726561647920617661696c61626c65000000000000000000000000000000604082015260600190565b60208082526024908201527f54686572652773206e6f2074776170206f7261636c6520666f722074686973206040820152633830b4b960e11b606082015260800190565b6020808252600f908201527f54686572652773206e6f20706169720000000000000000000000000000000000604082015260600190565b60208082526014908201527f416c7265616479207768697465206c6973746564000000000000000000000000604082015260600190565b60208082526018908201527f496e73756666696369656e74204554482062616c616e63650000000000000000604082015260600190565b6020808252818101527f4f776e61626c653a2063616c6c6572206973206e6f7420746865206f776e6572604082015260600190565b60208082526011908201527f4e6f7420617661696c61626c6520796574000000000000000000000000000000604082015260600190565b60208082526010908201527f4e6f74207768697465206c697374656400000000000000000000000000000000604082015260600190565b60208082526013908201527f4f766572666c6f77206d696e20616d6f756e7400000000000000000000000000604082015260600190565b6020808252602d908201527f5472616e7366657248656c7065723a3a736166655472616e736665723a20747260408201526c185b9cd9995c8819985a5b1959609a1b606082015260800190565b60208082526027908201527f546f6b656e2073686f756c6420626520616464656420696e20617661696c61626040820152661b19481b1a5cdd60ca1b606082015260800190565b6020808252601f908201527f5265656e7472616e637947756172643a207265656e7472616e742063616c6c00604082015260600190565b6020808252602a908201527f4f6e6c79207768697465206c697374656420616464726573736573206172652060408201526961636365707461626c6560b01b606082015260800190565b90815260200190565b600082611b9457634e487b7160e01b81526012600452602481fd5b500490565b6000816000190483118215151615611bb357611bb3611bcf565b500290565b600082821015611bca57611bca611bcf565b500390565b634e487b7160e01b600052601160045260246000fd5b6001600160a01b0381168114611bfa57600080fd5b5056fea264697066735822122019c08a94d70042076914a7a470910300e60e514ba9b971811f5d4b578e9dbf2564736f6c63430008000033",
  "devdoc": {
    "details": "This smart contract is for getting CVR_ETH, CVR_USDT price",
    "kind": "dev",
    "methods": {
      "getNeededTokenAmount(address,address,uint256)": {
        "details": "Get needed _token0 amount for _desiredAmount of _token1"
      },
      "owner()": {
        "details": "Returns the address of the current owner."
      },
      "renounceOwnership()": {
        "details": "Leaves the contract without owner. It will not be possible to call `onlyOwner` functions anymore. Can only be called by the current owner. NOTE: Renouncing ownership will leave the contract without an owner, thereby removing any functionality that is only available to the owner."
      },
      "swapTokenWithETH(address,uint256,uint256)": {
        "params": {
          "_amount": ": this one is the value with decimals"
        }
      },
      "transferOwnership(address)": {
        "details": "Transfers ownership of the contract to a new account (`newOwner`). Can only be called by the current owner."
      }
    },
    "version": 1
  },
  "userdoc": {
    "kind": "user",
    "methods": {
      "discountPercentage()": {
        "notice": "when users try to use CVR to buy products, we will discount some percentage(25% at first stage)"
      },
      "getTokenAmountForETH(address,uint256)": {
        "notice": "get needed _token amount for _desiredAmount of ETH"
      },
      "getTokenAmountForUSDC(address,uint256)": {
        "notice": "get needed _token amount for _desiredAmount of USDC"
      }
    },
    "version": 1
  },
  "storageLayout": {
    "storage": [
      {
        "astId": 534,
        "contract": "contracts/ExchangeAgent.sol:ExchangeAgent",
        "label": "_owner",
        "offset": 0,
        "slot": "0",
        "type": "t_address"
      },
      {
        "astId": 647,
        "contract": "contracts/ExchangeAgent.sol:ExchangeAgent",
        "label": "_status",
        "offset": 0,
        "slot": "1",
        "type": "t_uint256"
      },
      {
        "astId": 1613,
        "contract": "contracts/ExchangeAgent.sol:ExchangeAgent",
        "label": "whiteList",
        "offset": 0,
        "slot": "2",
        "type": "t_mapping(t_address,t_bool)"
      },
      {
        "astId": 1617,
        "contract": "contracts/ExchangeAgent.sol:ExchangeAgent",
        "label": "availableCurrencies",
        "offset": 0,
        "slot": "3",
        "type": "t_mapping(t_address,t_bool)"
      },
      {
        "astId": 1629,
        "contract": "contracts/ExchangeAgent.sol:ExchangeAgent",
        "label": "SLIPPPAGE_RAGE",
        "offset": 0,
        "slot": "4",
        "type": "t_uint256"
      },
      {
        "astId": 1633,
        "contract": "contracts/ExchangeAgent.sol:ExchangeAgent",
        "label": "discountPercentage",
        "offset": 0,
        "slot": "5",
        "type": "t_uint256"
      }
    ],
    "types": {
      "t_address": {
        "encoding": "inplace",
        "label": "address",
        "numberOfBytes": "20"
      },
      "t_bool": {
        "encoding": "inplace",
        "label": "bool",
        "numberOfBytes": "1"
      },
      "t_mapping(t_address,t_bool)": {
        "encoding": "mapping",
        "key": "t_address",
        "label": "mapping(address => bool)",
        "numberOfBytes": "32",
        "value": "t_bool"
      },
      "t_uint256": {
        "encoding": "inplace",
        "label": "uint256",
        "numberOfBytes": "32"
      }
    }
  }
}