{
  "address": "0xcCBF1868c7182020E518E6847b6C839623754E9a",
  "abi": [
    {
      "inputs": [
        {
          "internalType": "address",
          "name": "_CVR",
          "type": "address"
        },
        {
          "internalType": "address",
          "name": "_exchangeAgent",
          "type": "address"
        },
        {
          "internalType": "address",
          "name": "_distributor",
          "type": "address"
        }
      ],
      "stateMutability": "nonpayable",
      "type": "constructor"
    },
    {
      "anonymous": false,
      "inputs": [
        {
          "indexed": true,
          "internalType": "uint256",
          "name": "pid",
          "type": "uint256"
        },
        {
          "indexed": false,
          "internalType": "address",
          "name": "_buyToken",
          "type": "address"
        },
        {
          "indexed": false,
          "internalType": "uint256",
          "name": "_tokenAmount",
          "type": "uint256"
        }
      ],
      "name": "BuyNexusMutual",
      "type": "event"
    },
    {
      "anonymous": false,
      "inputs": [
        {
          "indexed": true,
          "internalType": "uint256",
          "name": "_productId",
          "type": "uint256"
        },
        {
          "indexed": false,
          "internalType": "address",
          "name": "_buyer",
          "type": "address"
        }
      ],
      "name": "BuyProduct",
      "type": "event"
    },
    {
      "anonymous": false,
      "inputs": [
        {
          "indexed": true,
          "internalType": "address",
          "name": "previousOwner",
          "type": "address"
        },
        {
          "indexed": true,
          "internalType": "address",
          "name": "newOwner",
          "type": "address"
        }
      ],
      "name": "OwnershipTransferred",
      "type": "event"
    },
    {
      "anonymous": false,
      "inputs": [
        {
          "indexed": false,
          "internalType": "address",
          "name": "_setter",
          "type": "address"
        },
        {
          "indexed": false,
          "internalType": "address",
          "name": "_exchangeAgent",
          "type": "address"
        }
      ],
      "name": "SetExchangeAgent",
      "type": "event"
    },
    {
      "anonymous": false,
      "inputs": [
        {
          "indexed": false,
          "internalType": "address",
          "name": "_user",
          "type": "address"
        },
        {
          "indexed": false,
          "internalType": "address",
          "name": "_to",
          "type": "address"
        },
        {
          "indexed": false,
          "internalType": "address",
          "name": "_token",
          "type": "address"
        },
        {
          "indexed": false,
          "internalType": "uint256",
          "name": "_amount",
          "type": "uint256"
        }
      ],
      "name": "WithdrawAsset",
      "type": "event"
    },
    {
      "inputs": [
        {
          "internalType": "address",
          "name": "_currency",
          "type": "address"
        }
      ],
      "name": "addCurrency",
      "outputs": [],
      "stateMutability": "nonpayable",
      "type": "function"
    },
    {
      "inputs": [
        {
          "internalType": "address",
          "name": "",
          "type": "address"
        }
      ],
      "name": "availableCurrencies",
      "outputs": [
        {
          "internalType": "bool",
          "name": "",
          "type": "bool"
        }
      ],
      "stateMutability": "view",
      "type": "function"
    },
    {
      "inputs": [
        {
          "internalType": "address",
          "name": "contractAddress",
          "type": "address"
        },
        {
          "internalType": "address",
          "name": "coverAsset",
          "type": "address"
        },
        {
          "internalType": "uint256",
          "name": "sumAssured",
          "type": "uint256"
        },
        {
          "internalType": "uint16",
          "name": "coverPeriod",
          "type": "uint16"
        },
        {
          "internalType": "uint8",
          "name": "coverType",
          "type": "uint8"
        },
        {
          "internalType": "uint256",
          "name": "maxPriceWithFee",
          "type": "uint256"
        },
        {
          "internalType": "bytes",
          "name": "data",
          "type": "bytes"
        }
      ],
      "name": "buyCoverByETH",
      "outputs": [],
      "stateMutability": "payable",
      "type": "function"
    },
    {
      "inputs": [
        {
          "internalType": "address[]",
          "name": "_assets",
          "type": "address[]"
        },
        {
          "internalType": "uint256",
          "name": "sumAssured",
          "type": "uint256"
        },
        {
          "internalType": "uint16",
          "name": "coverPeriod",
          "type": "uint16"
        },
        {
          "internalType": "uint8",
          "name": "coverType",
          "type": "uint8"
        },
        {
          "internalType": "uint256",
          "name": "maxPriceWithFee",
          "type": "uint256"
        },
        {
          "internalType": "bytes",
          "name": "data",
          "type": "bytes"
        }
      ],
      "name": "buyCoverByToken",
      "outputs": [],
      "stateMutability": "payable",
      "type": "function"
    },
    {
      "inputs": [],
      "name": "distributor",
      "outputs": [
        {
          "internalType": "address",
          "name": "",
          "type": "address"
        }
      ],
      "stateMutability": "view",
      "type": "function"
    },
    {
      "inputs": [],
      "name": "exchangeAgent",
      "outputs": [
        {
          "internalType": "address",
          "name": "",
          "type": "address"
        }
      ],
      "stateMutability": "view",
      "type": "function"
    },
    {
      "inputs": [
        {
          "internalType": "address",
          "name": "contractAddress",
          "type": "address"
        },
        {
          "internalType": "address",
          "name": "coverAsset",
          "type": "address"
        },
        {
          "internalType": "uint256",
          "name": "sumAssured",
          "type": "uint256"
        },
        {
          "internalType": "uint16",
          "name": "coverPeriod",
          "type": "uint16"
        },
        {
          "internalType": "uint8",
          "name": "coverType",
          "type": "uint8"
        },
        {
          "internalType": "bytes",
          "name": "data",
          "type": "bytes"
        }
      ],
      "name": "getProductPrice",
      "outputs": [
        {
          "internalType": "uint256",
          "name": "",
          "type": "uint256"
        }
      ],
      "stateMutability": "view",
      "type": "function"
    },
    {
      "inputs": [
        {
          "internalType": "address",
          "name": "",
          "type": "address"
        },
        {
          "internalType": "address",
          "name": "",
          "type": "address"
        },
        {
          "internalType": "uint256",
          "name": "",
          "type": "uint256"
        },
        {
          "internalType": "bytes",
          "name": "",
          "type": "bytes"
        }
      ],
      "name": "onERC721Received",
      "outputs": [
        {
          "internalType": "bytes4",
          "name": "",
          "type": "bytes4"
        }
      ],
      "stateMutability": "nonpayable",
      "type": "function"
    },
    {
      "inputs": [],
      "name": "owner",
      "outputs": [
        {
          "internalType": "address",
          "name": "",
          "type": "address"
        }
      ],
      "stateMutability": "view",
      "type": "function"
    },
    {
      "inputs": [],
      "name": "productIds",
      "outputs": [
        {
          "internalType": "uint256",
          "name": "_value",
          "type": "uint256"
        }
      ],
      "stateMutability": "view",
      "type": "function"
    },
    {
      "inputs": [
        {
          "internalType": "address",
          "name": "_currency",
          "type": "address"
        }
      ],
      "name": "removeCurrency",
      "outputs": [],
      "stateMutability": "nonpayable",
      "type": "function"
    },
    {
      "inputs": [],
      "name": "renounceOwnership",
      "outputs": [],
      "stateMutability": "nonpayable",
      "type": "function"
    },
    {
      "inputs": [
        {
          "internalType": "address",
          "name": "_exchangeAgent",
          "type": "address"
        }
      ],
      "name": "setExchangeAgent",
      "outputs": [],
      "stateMutability": "nonpayable",
      "type": "function"
    },
    {
      "inputs": [
        {
          "internalType": "address",
          "name": "newOwner",
          "type": "address"
        }
      ],
      "name": "transferOwnership",
      "outputs": [],
      "stateMutability": "nonpayable",
      "type": "function"
    },
    {
      "inputs": [
        {
          "internalType": "address",
          "name": "_token",
          "type": "address"
        },
        {
          "internalType": "address",
          "name": "_to",
          "type": "address"
        },
        {
          "internalType": "uint256",
          "name": "_amount",
          "type": "uint256"
        }
      ],
      "name": "withdrawAsset",
      "outputs": [],
      "stateMutability": "nonpayable",
      "type": "function"
    },
    {
      "stateMutability": "payable",
      "type": "receive"
    }
  ],
  "transactionHash": "0xe93dc9b3e5f3250fa0c6f2fdcbc8ad56ec966ed77d231cf578be11024bfa12e2",
  "args": [
    "0xFc9B2B2565B38511B9822887F99D036d694a11e6",
    "0x33C5F22E6db919CCFFe1dDf0999cB5C4C9ae7B79",
    "0xe77250450fc9f682edeff9f0d252836189c01b53"
  ],
  "solcInputHash": "ef270dec7daaf32e0838cb5bbbe360f4",
  "bytecode": "0x60a06040523480156200001157600080fd5b506040516200230e3803806200230e833981016040819052620000349162000101565b8282600062000042620000e0565b600080546001600160a01b0319166001600160a01b0383169081178255604051929350917f8be0079c531659141344cd1fd0a4f28419497f9722a3daafe3b4186f6b6457e0908290a3506001600160a01b0391821660009081526002602052604090208054600160ff19909116179055600380546001600160a01b0319169190921617905560601b6001600160601b031916608052506200014a9050565b3390565b80516001600160a01b0381168114620000fc57600080fd5b919050565b60008060006060848603121562000116578283fd5b6200012184620000e4565b92506200013160208501620000e4565b91506200014160408501620000e4565b90509250925092565b60805160601c612166620001a860003960008181610441015281816105550152818161086601528181610b4001528181610d8d01528181610db601528181610f430152818161101101528181611151015261147001526121666000f3fe6080604052600436106100ec5760003560e01c80638b407d4f1161008a578063c5d3a10711610059578063c5d3a10714610251578063d9203b9114610271578063f24935cb14610286578063f2fde38b146102a6576100f3565b80638b407d4f146101e55780638da5cb5b146101f8578063aa57511d1461021a578063bfe109281461023c576100f3565b80631af42c0f116100c65780631af42c0f146101705780632788943b1461019d578063715018a6146101b05780638ab234b6146101c5576100f3565b8063092ae4dc146100f8578063150b7a021461011a57806318a00d8e14610150576100f3565b366100f357005b600080fd5b34801561010457600080fd5b5061011861011336600461175b565b6102c6565b005b34801561012657600080fd5b5061013a61013536600461179b565b61035b565b6040516101479190611ce1565b60405180910390f35b34801561015c57600080fd5b5061011861016b36600461171c565b61036b565b34801561017c57600080fd5b5061019061018b36600461171c565b610428565b6040516101479190611cd6565b6101186101ab3660046118e9565b61043d565b3480156101bc57600080fd5b50610118610652565b3480156101d157600080fd5b506101186101e036600461171c565b6106db565b6101186101f3366004611984565b610777565b34801561020457600080fd5b5061020d610f2c565b6040516101479190611b32565b34801561022657600080fd5b5061022f610f3b565b604051610147919061204b565b34801561024857600080fd5b5061020d610f41565b34801561025d57600080fd5b5061011861026c36600461171c565b610f65565b34801561027d57600080fd5b5061020d610ffd565b34801561029257600080fd5b5061022f6102a1366004611857565b61100c565b3480156102b257600080fd5b506101186102c136600461171c565b611216565b6102ce6112d6565b6001600160a01b03166102df610f2c565b6001600160a01b03161461030e5760405162461bcd60e51b815260040161030590611eea565b60405180910390fd5b6103198383836112da565b7f37e6496681d2c16ab49733a2a6cf0916ebaa3e90250d01f84cec59f546d8cf243383858460405161034e9493929190611b60565b60405180910390a1505050565b630a85bd0160e11b949350505050565b6103736112d6565b6001600160a01b0316610384610f2c565b6001600160a01b0316146103aa5760405162461bcd60e51b815260040161030590611eea565b6001600160a01b0381166103d05760405162461bcd60e51b815260040161030590611fd8565b600380546001600160a01b0319166001600160a01b0383161790556040517f0143625ceac80b2452760213c6b6f5a22eb63bc46e17d129c30fffefb4679eb69061041d9033908490611b46565b60405180910390a150565b60026020526000908152604090205460ff1681565b60007f00000000000000000000000000000000000000000000000000000000000000006001600160a01b0316638322fff26040518163ffffffff1660e01b815260040160206040518083038186803b15801561049857600080fd5b505afa1580156104ac573d6000803e3d6000fd5b505050506040513d601f19601f820116820180604052508101906104d0919061173f565b9050806001600160a01b0316886001600160a01b0316146105035760405162461bcd60e51b815260040161030590611d0e565b60006105148a8a8a8a8a898961100c565b9050803410156105365760405162461bcd60e51b815260040161030590611fa1565b80341115610551576105513361054c83346120d5565b6113c7565b60007f00000000000000000000000000000000000000000000000000000000000000006001600160a01b031663d8a856ee838d8d8d8d8d8d8d8d6040518a63ffffffff1660e01b81526004016105ae989796959493929190611c19565b6020604051808303818588803b1580156105c757600080fd5b505af11580156105db573d6000803e3d6000fd5b50505050506040513d601f19601f820116820180604052508101906106009190611ab7565b905061060b81611459565b807ff55ac0abf2bf841b528bc82ae0dea104860c71d7a98d5106fd4a86ab214436d48b8460405161063d929190611c9c565b60405180910390a25050505050505050505050565b61065a6112d6565b6001600160a01b031661066b610f2c565b6001600160a01b0316146106915760405162461bcd60e51b815260040161030590611eea565b600080546040516001600160a01b03909116907f8be0079c531659141344cd1fd0a4f28419497f9722a3daafe3b4186f6b6457e0908390a3600080546001600160a01b0319169055565b6106e36112d6565b6001600160a01b03166106f4610f2c565b6001600160a01b03161461071a5760405162461bcd60e51b815260040161030590611eea565b6001600160a01b03811660009081526002602052604090205460ff16156107535760405162461bcd60e51b815260040161030590611eb3565b6001600160a01b03166000908152600260205260409020805460ff19166001179055565b8660008151811061079857634e487b7160e01b600052603260045260246000fd5b6020908102919091018101516001600160a01b0381166000908152600290925260409091205460ff166107dd5760405162461bcd60e51b815260040161030590611d8b565b87516003146107fe5760405162461bcd60e51b815260040161030590611dc2565b600061085f8960018151811061082457634e487b7160e01b600052603260045260246000fd5b60200260200101518a60028151811061084d57634e487b7160e01b600052603260045260246000fd5b60200260200101518a8a8a898961100c565b90506000807f00000000000000000000000000000000000000000000000000000000000000006001600160a01b0316638322fff26040518163ffffffff1660e01b815260040160206040518083038186803b1580156108bd57600080fd5b505afa1580156108d1573d6000803e3d6000fd5b505050506040513d601f19601f820116820180604052508101906108f5919061173f565b6001600160a01b03168b60028151811061091f57634e487b7160e01b600052603260045260246000fd5b60200260200101516001600160a01b031614156109ee576003548b516001600160a01b039091169063ba560ed9908d9060009061096c57634e487b7160e01b600052603260045260246000fd5b6020026020010151856040518363ffffffff1660e01b8152600401610992929190611c9c565b602060405180830381600087803b1580156109ac57600080fd5b505af11580156109c0573d6000803e3d6000fd5b505050506040513d601f19601f820116820180604052508101906109e49190611ab7565b9150829050610ac9565b6003548b516001600160a01b03909116906334899be6908d90600090610a2457634e487b7160e01b600052603260045260246000fd5b60200260200101518d600281518110610a4d57634e487b7160e01b600052603260045260246000fd5b6020026020010151866040518463ffffffff1660e01b8152600401610a7493929190611b8a565b602060405180830381600087803b158015610a8e57600080fd5b505af1158015610aa2573d6000803e3d6000fd5b505050506040513d601f19601f82011682018060405250810190610ac69190611ab7565b91505b610afd8b600081518110610aed57634e487b7160e01b600052603260045260246000fd5b60200260200101513330856114d7565b610b3e8b600081518110610b2157634e487b7160e01b600052603260045260246000fd5b60209081029190910101516003546001600160a01b0316846115c7565b7f00000000000000000000000000000000000000000000000000000000000000006001600160a01b0316638322fff26040518163ffffffff1660e01b815260040160206040518083038186803b158015610b9757600080fd5b505afa158015610bab573d6000803e3d6000fd5b505050506040513d601f19601f82011682018060405250810190610bcf919061173f565b6001600160a01b03168b600281518110610bf957634e487b7160e01b600052603260045260246000fd5b60200260200101516001600160a01b03161415610ca5576003548b516001600160a01b0390911690630de43334908d90600090610c4657634e487b7160e01b600052603260045260246000fd5b602002602001015184866040518463ffffffff1660e01b8152600401610c6e93929190611cb5565b600060405180830381600087803b158015610c8857600080fd5b505af1158015610c9c573d6000803e3d6000fd5b50505050610db2565b6003548b516001600160a01b03909116906380dcc456908d90600090610cdb57634e487b7160e01b600052603260045260246000fd5b60200260200101518d600281518110610d0457634e487b7160e01b600052603260045260246000fd5b602002602001015185876040518563ffffffff1660e01b8152600401610d2d9493929190611c73565b600060405180830381600087803b158015610d4757600080fd5b505af1158015610d5b573d6000803e3d6000fd5b50505050610db28b600281518110610d8357634e487b7160e01b600052603260045260246000fd5b60200260200101517f0000000000000000000000000000000000000000000000000000000000000000856115c7565b60007f00000000000000000000000000000000000000000000000000000000000000006001600160a01b031663d8a856ee838e600181518110610e0557634e487b7160e01b600052603260045260246000fd5b60200260200101518f600281518110610e2e57634e487b7160e01b600052603260045260246000fd5b60200260200101518f8f8f8f8f8f6040518a63ffffffff1660e01b8152600401610e5f989796959493929190611c19565b6020604051808303818588803b158015610e7857600080fd5b505af1158015610e8c573d6000803e3d6000fd5b50505050506040513d601f19601f82011682018060405250810190610eb19190611ab7565b9050610ebc81611459565b807ff55ac0abf2bf841b528bc82ae0dea104860c71d7a98d5106fd4a86ab214436d48d600081518110610eff57634e487b7160e01b600052603260045260246000fd5b602002602001015185604051610f16929190611c9c565b60405180910390a2505050505050505050505050565b6000546001600160a01b031690565b60015481565b7f000000000000000000000000000000000000000000000000000000000000000081565b610f6d6112d6565b6001600160a01b0316610f7e610f2c565b6001600160a01b031614610fa45760405162461bcd60e51b815260040161030590611eea565b6001600160a01b03811660009081526002602052604090205460ff16610fdc5760405162461bcd60e51b815260040161030590611f1f565b6001600160a01b03166000908152600260205260409020805460ff19169055565b6003546001600160a01b031681565b6000807f00000000000000000000000000000000000000000000000000000000000000006001600160a01b031663116191b66040518163ffffffff1660e01b815260040160206040518083038186803b15801561106857600080fd5b505afa15801561107c573d6000803e3d6000fd5b505050506040513d601f19601f820116820180604052508101906110a0919061173f565b905060006001600160a01b038216635caca7b48b8b8b8b60ff8c1680156110d757634e487b7160e01b600052602160045260246000fd5b8b8b6040518863ffffffff1660e01b81526004016110fb9796959493929190611bae565b60206040518083038186803b15801561111357600080fd5b505afa158015611127573d6000803e3d6000fd5b505050506040513d601f19601f8201168201806040525081019061114b9190611ab7565b905060007f00000000000000000000000000000000000000000000000000000000000000006001600160a01b031663a001ecdd6040518163ffffffff1660e01b815260040160206040518083038186803b1580156111a857600080fd5b505afa1580156111bc573d6000803e3d6000fd5b505050506040513d601f19601f820116820180604052508101906111e09190611ab7565b90506000826127106111f282856120b6565b6111fc9190612096565b611206919061207e565b9c9b505050505050505050505050565b61121e6112d6565b6001600160a01b031661122f610f2c565b6001600160a01b0316146112555760405162461bcd60e51b815260040161030590611eea565b6001600160a01b03811661127b5760405162461bcd60e51b815260040161030590611d45565b600080546040516001600160a01b03808516939216917f8be0079c531659141344cd1fd0a4f28419497f9722a3daafe3b4186f6b6457e091a3600080546001600160a01b0319166001600160a01b0392909216919091179055565b3390565b600080846001600160a01b031663a9059cbb85856040516024016112ff929190611c9c565b6040516020818303038152906040529060e01b6020820180516001600160e01b0383818316178352505050506040516113389190611af9565b6000604051808303816000865af19150503d8060008114611375576040519150601f19603f3d011682016040523d82523d6000602084013e61137a565b606091505b50915091508180156113a45750805115806113a45750808060200190518101906113a49190611a97565b6113c05760405162461bcd60e51b815260040161030590611ffe565b5050505050565b604080516000808252602082019092526001600160a01b0384169083906040516113f19190611af9565b60006040518083038185875af1925050503d806000811461142e576040519150601f19603f3d011682016040523d82523d6000602084013e611433565b606091505b50509050806114545760405162461bcd60e51b815260040161030590611e56565b505050565b6040516323b872dd60e01b81526001600160a01b037f000000000000000000000000000000000000000000000000000000000000000016906323b872dd906114a990309033908690600401611b8a565b600060405180830381600087803b1580156114c357600080fd5b505af11580156113c0573d6000803e3d6000fd5b600080856001600160a01b03166323b872dd8686866040516024016114fe93929190611b8a565b6040516020818303038152906040529060e01b6020820180516001600160e01b0383818316178352505050506040516115379190611af9565b6000604051808303816000865af19150503d8060008114611574576040519150601f19603f3d011682016040523d82523d6000602084013e611579565b606091505b50915091508180156115a35750805115806115a35750808060200190518101906115a39190611a97565b6115bf5760405162461bcd60e51b815260040161030590611df9565b505050505050565b600080846001600160a01b031663095ea7b385856040516024016115ec929190611c9c565b6040516020818303038152906040529060e01b6020820180516001600160e01b0383818316178352505050506040516116259190611af9565b6000604051808303816000865af19150503d8060008114611662576040519150601f19603f3d011682016040523d82523d6000602084013e611667565b606091505b50915091508180156116915750805115806116915750808060200190518101906116919190611a97565b6113c05760405162461bcd60e51b815260040161030590611f56565b60008083601f8401126116be578182fd5b50813567ffffffffffffffff8111156116d5578182fd5b6020830191508360208285010111156116ed57600080fd5b9250929050565b803561ffff8116811461170657600080fd5b919050565b803560ff8116811461170657600080fd5b60006020828403121561172d578081fd5b813561173881612118565b9392505050565b600060208284031215611750578081fd5b815161173881612118565b60008060006060848603121561176f578182fd5b833561177a81612118565b9250602084013561178a81612118565b929592945050506040919091013590565b600080600080608085870312156117b0578081fd5b84356117bb81612118565b93506020858101356117cc81612118565b935060408601359250606086013567ffffffffffffffff808211156117ef578384fd5b818801915088601f830112611802578384fd5b81358181111561181457611814612102565b611826601f8201601f19168501612054565b9150808252898482850101111561183b578485fd5b8084840185840137810190920192909252939692955090935050565b600080600080600080600060c0888a031215611871578283fd5b873561187c81612118565b9650602088013561188c81612118565b9550604088013594506118a1606089016116f4565b93506118af6080890161170b565b925060a088013567ffffffffffffffff8111156118ca578283fd5b6118d68a828b016116ad565b989b979a50959850939692959293505050565b60008060008060008060008060e0898b031215611904578081fd5b883561190f81612118565b9750602089013561191f81612118565b96506040890135955061193460608a016116f4565b945061194260808a0161170b565b935060a0890135925060c089013567ffffffffffffffff811115611964578182fd5b6119708b828c016116ad565b999c989b5096995094979396929594505050565b600080600080600080600060c0888a03121561199e578283fd5b67ffffffffffffffff80893511156119b4578384fd5b883589018a601f8201126119c6578485fd5b8035828111156119d8576119d8612102565b602081026119e860208201612054565b80838252602082019150602085018f6020858801011115611a0757898afd5b8995505b84861015611a3457611a1d8135612118565b803583526001959095019460209283019201611a0b565b509b5050505060208a01359750611a4f905060408a016116f4565b9550611a5d60608a0161170b565b94506080890135935060a089013581811115611a77578384fd5b611a838b828c016116ad565b999c989b5096995094979396939450505050565b600060208284031215611aa8578081fd5b81518015158114611738578182fd5b600060208284031215611ac8578081fd5b5051919050565b60008284528282602086013780602084860101526020601f19601f85011685010190509392505050565b60008251815b81811015611b195760208186018101518583015201611aff565b81811115611b275782828501525b509190910192915050565b6001600160a01b0391909116815260200190565b6001600160a01b0392831681529116602082015260400190565b6001600160a01b039485168152928416602084015292166040820152606081019190915260800190565b6001600160a01b039384168152919092166020820152604081019190915260600190565b6001600160a01b038881168252871660208201526040810186905261ffff85166060820152600060018510611bf157634e487b7160e01b81526021600452602481fd5b84608083015260c060a0830152611c0c60c083018486611acf565b9998505050505050505050565b60006001600160a01b03808b168352808a1660208401525087604083015261ffff8716606083015260ff861660808301528460a083015260e060c0830152611c6560e083018486611acf565b9a9950505050505050505050565b6001600160a01b0394851681529290931660208301526040820152606081019190915260800190565b6001600160a01b03929092168252602082015260400190565b6001600160a01b039390931683526020830191909152604082015260600190565b901515815260200190565b7fffffffff0000000000000000000000000000000000000000000000000000000091909116815260200190565b60208082526011908201527f53686f756c642070617920696e20455448000000000000000000000000000000604082015260600190565b60208082526026908201527f4f776e61626c653a206e6577206f776e657220697320746865207a65726f206160408201526564647265737360d01b606082015260800190565b60208082526011908201527f4e6f7420616c6c6f77656420746f6b656e000000000000000000000000000000604082015260600190565b6020808252601f908201527f41737365747320706172616d206c656e6774682073686f756c64206265203300604082015260600190565b60208082526031908201527f5472616e7366657248656c7065723a3a7472616e7366657246726f6d3a20747260408201527f616e7366657246726f6d206661696c6564000000000000000000000000000000606082015260800190565b60208082526034908201527f5472616e7366657248656c7065723a3a736166655472616e736665724554483a60408201527f20455448207472616e73666572206661696c6564000000000000000000000000606082015260800190565b60208082526011908201527f416c726561647920617661696c61626c65000000000000000000000000000000604082015260600190565b6020808252818101527f4f776e61626c653a2063616c6c6572206973206e6f7420746865206f776e6572604082015260600190565b60208082526011908201527f4e6f7420617661696c61626c6520796574000000000000000000000000000000604082015260600190565b6020808252602b908201527f5472616e7366657248656c7065723a3a73616665417070726f76653a2061707060408201526a1c9bdd994819985a5b195960aa1b606082015260800190565b60208082526013908201527f496e73756666696369656e7420616d6f756e7400000000000000000000000000604082015260600190565b6020808252600c908201526b5a45524f204164647265737360a01b604082015260600190565b6020808252602d908201527f5472616e7366657248656c7065723a3a736166655472616e736665723a20747260408201526c185b9cd9995c8819985a5b1959609a1b606082015260800190565b90815260200190565b60405181810167ffffffffffffffff8111828210171561207657612076612102565b604052919050565b60008219821115612091576120916120ec565b500190565b6000826120b157634e487b7160e01b81526012600452602481fd5b500490565b60008160001904831182151516156120d0576120d06120ec565b500290565b6000828210156120e7576120e76120ec565b500390565b634e487b7160e01b600052601160045260246000fd5b634e487b7160e01b600052604160045260246000fd5b6001600160a01b038116811461212d57600080fd5b5056fea2646970667358221220057a3d23e0b42b57edf85314f1c2327613440095edf6b0d4e9543aeb0e44564564736f6c63430008000033",
  "devdoc": {
    "kind": "dev",
    "methods": {
      "buyCoverByETH(address,address,uint256,uint16,uint8,uint256,bytes)": {
        "details": "User will buy product directly using his ETH"
      },
      "getProductPrice(address,address,uint256,uint16,uint8,bytes)": {
        "details": "return maxPriceWithFee value"
      },
      "onERC721Received(address,address,uint256,bytes)": {
        "details": "See {IERC721Receiver-onERC721Received}. Always returns `IERC721Receiver.onERC721Received.selector`."
      },
      "owner()": {
        "details": "Returns the address of the current owner."
      },
      "renounceOwnership()": {
        "details": "Leaves the contract without owner. It will not be possible to call `onlyOwner` functions anymore. Can only be called by the current owner. NOTE: Renouncing ownership will leave the contract without an owner, thereby removing any functionality that is only available to the owner."
      },
      "transferOwnership(address)": {
        "details": "Transfers ownership of the contract to a new account (`newOwner`). Can only be called by the current owner."
      },
      "withdrawAsset(address,address,uint256)": {
        "details": "For reflect tokens, we should deposit some tokens at contract directly, We will withdraw tokens deposited at contract through this function"
      }
    },
    "version": 1
  },
  "userdoc": {
    "kind": "user",
    "methods": {},
    "version": 1
  },
  "storageLayout": {
    "storage": [
      {
        "astId": 534,
        "contract": "contracts/onchain/NexusMutualCover.sol:NexusMutualCover",
        "label": "_owner",
        "offset": 0,
        "slot": "0",
        "type": "t_address"
      },
      {
        "astId": 3751,
        "contract": "contracts/onchain/NexusMutualCover.sol:NexusMutualCover",
        "label": "productIds",
        "offset": 0,
        "slot": "1",
        "type": "t_struct(Counter)1476_storage"
      },
      {
        "astId": 3755,
        "contract": "contracts/onchain/NexusMutualCover.sol:NexusMutualCover",
        "label": "availableCurrencies",
        "offset": 0,
        "slot": "2",
        "type": "t_mapping(t_address,t_bool)"
      },
      {
        "astId": 3757,
        "contract": "contracts/onchain/NexusMutualCover.sol:NexusMutualCover",
        "label": "exchangeAgent",
        "offset": 0,
        "slot": "3",
        "type": "t_address"
      }
    ],
    "types": {
      "t_address": {
        "encoding": "inplace",
        "label": "address",
        "numberOfBytes": "20"
      },
      "t_bool": {
        "encoding": "inplace",
        "label": "bool",
        "numberOfBytes": "1"
      },
      "t_mapping(t_address,t_bool)": {
        "encoding": "mapping",
        "key": "t_address",
        "label": "mapping(address => bool)",
        "numberOfBytes": "32",
        "value": "t_bool"
      },
      "t_struct(Counter)1476_storage": {
        "encoding": "inplace",
        "label": "struct Counters.Counter",
        "members": [
          {
            "astId": 1475,
            "contract": "contracts/onchain/NexusMutualCover.sol:NexusMutualCover",
            "label": "_value",
            "offset": 0,
            "slot": "0",
            "type": "t_uint256"
          }
        ],
        "numberOfBytes": "32"
      },
      "t_uint256": {
        "encoding": "inplace",
        "label": "uint256",
        "numberOfBytes": "32"
      }
    }
  }
}