{
  "address": "0x3dA7d9D52EE61233B35946411fb487C2aAd6f90E",
  "abi": [
    {
      "inputs": [
        {
          "internalType": "address",
          "name": "_CVR",
          "type": "address"
        },
        {
          "internalType": "address",
          "name": "_exchangeAgent",
          "type": "address"
        },
        {
          "internalType": "address",
          "name": "_distributor",
          "type": "address"
        }
      ],
      "stateMutability": "nonpayable",
      "type": "constructor"
    },
    {
      "anonymous": false,
      "inputs": [
        {
          "indexed": true,
          "internalType": "uint256",
          "name": "pid",
          "type": "uint256"
        },
        {
          "indexed": false,
          "internalType": "address",
          "name": "_buyToken",
          "type": "address"
        },
        {
          "indexed": false,
          "internalType": "uint256",
          "name": "_tokenAmount",
          "type": "uint256"
        }
      ],
      "name": "BuyNexusMutual",
      "type": "event"
    },
    {
      "anonymous": false,
      "inputs": [
        {
          "indexed": true,
          "internalType": "uint256",
          "name": "_productId",
          "type": "uint256"
        },
        {
          "indexed": false,
          "internalType": "address",
          "name": "_buyer",
          "type": "address"
        }
      ],
      "name": "BuyProduct",
      "type": "event"
    },
    {
      "anonymous": false,
      "inputs": [
        {
          "indexed": false,
          "internalType": "address",
          "name": "userAddress",
          "type": "address"
        },
        {
          "indexed": false,
          "internalType": "address payable",
          "name": "relayerAddress",
          "type": "address"
        },
        {
          "indexed": false,
          "internalType": "bytes",
          "name": "functionSignature",
          "type": "bytes"
        }
      ],
      "name": "MetaTransactionExecuted",
      "type": "event"
    },
    {
      "anonymous": false,
      "inputs": [
        {
          "indexed": true,
          "internalType": "address",
          "name": "previousOwner",
          "type": "address"
        },
        {
          "indexed": true,
          "internalType": "address",
          "name": "newOwner",
          "type": "address"
        }
      ],
      "name": "OwnershipTransferred",
      "type": "event"
    },
    {
      "anonymous": false,
      "inputs": [
        {
          "indexed": false,
          "internalType": "address",
          "name": "account",
          "type": "address"
        }
      ],
      "name": "Paused",
      "type": "event"
    },
    {
      "anonymous": false,
      "inputs": [
        {
          "indexed": false,
          "internalType": "address",
          "name": "_setter",
          "type": "address"
        },
        {
          "indexed": false,
          "internalType": "address",
          "name": "_exchangeAgent",
          "type": "address"
        }
      ],
      "name": "SetExchangeAgent",
      "type": "event"
    },
    {
      "anonymous": false,
      "inputs": [
        {
          "indexed": false,
          "internalType": "address",
          "name": "account",
          "type": "address"
        }
      ],
      "name": "Unpaused",
      "type": "event"
    },
    {
      "anonymous": false,
      "inputs": [
        {
          "indexed": false,
          "internalType": "address",
          "name": "_user",
          "type": "address"
        },
        {
          "indexed": false,
          "internalType": "address",
          "name": "_to",
          "type": "address"
        },
        {
          "indexed": false,
          "internalType": "address",
          "name": "_token",
          "type": "address"
        },
        {
          "indexed": false,
          "internalType": "uint256",
          "name": "_amount",
          "type": "uint256"
        }
      ],
      "name": "WithdrawAsset",
      "type": "event"
    },
    {
      "inputs": [
        {
          "internalType": "address",
          "name": "_currency",
          "type": "address"
        }
      ],
      "name": "addCurrency",
      "outputs": [],
      "stateMutability": "nonpayable",
      "type": "function"
    },
    {
      "inputs": [
        {
          "internalType": "address",
          "name": "",
          "type": "address"
        }
      ],
      "name": "availableCurrencies",
      "outputs": [
        {
          "internalType": "bool",
          "name": "",
          "type": "bool"
        }
      ],
      "stateMutability": "view",
      "type": "function"
    },
    {
      "inputs": [
        {
          "internalType": "address",
          "name": "contractAddress",
          "type": "address"
        },
        {
          "internalType": "address",
          "name": "coverAsset",
          "type": "address"
        },
        {
          "internalType": "uint256",
          "name": "sumAssured",
          "type": "uint256"
        },
        {
          "internalType": "uint16",
          "name": "coverPeriod",
          "type": "uint16"
        },
        {
          "internalType": "uint8",
          "name": "coverType",
          "type": "uint8"
        },
        {
          "internalType": "uint256",
          "name": "maxPriceWithFee",
          "type": "uint256"
        },
        {
          "internalType": "bytes",
          "name": "data",
          "type": "bytes"
        }
      ],
      "name": "buyCoverByETH",
      "outputs": [],
      "stateMutability": "payable",
      "type": "function"
    },
    {
      "inputs": [
        {
          "internalType": "address[]",
          "name": "_assets",
          "type": "address[]"
        },
        {
          "internalType": "uint256",
          "name": "sumAssured",
          "type": "uint256"
        },
        {
          "internalType": "uint16",
          "name": "coverPeriod",
          "type": "uint16"
        },
        {
          "internalType": "uint8",
          "name": "coverType",
          "type": "uint8"
        },
        {
          "internalType": "uint256",
          "name": "maxPriceWithFee",
          "type": "uint256"
        },
        {
          "internalType": "bytes",
          "name": "data",
          "type": "bytes"
        }
      ],
      "name": "buyCoverByToken",
      "outputs": [],
      "stateMutability": "payable",
      "type": "function"
    },
    {
      "inputs": [],
      "name": "distributor",
      "outputs": [
        {
          "internalType": "address",
          "name": "",
          "type": "address"
        }
      ],
      "stateMutability": "view",
      "type": "function"
    },
    {
      "inputs": [],
      "name": "exchangeAgent",
      "outputs": [
        {
          "internalType": "address",
          "name": "",
          "type": "address"
        }
      ],
      "stateMutability": "view",
      "type": "function"
    },
    {
      "inputs": [
        {
          "internalType": "address",
          "name": "userAddress",
          "type": "address"
        },
        {
          "internalType": "bytes",
          "name": "functionSignature",
          "type": "bytes"
        },
        {
          "internalType": "bytes32",
          "name": "sigR",
          "type": "bytes32"
        },
        {
          "internalType": "bytes32",
          "name": "sigS",
          "type": "bytes32"
        },
        {
          "internalType": "uint8",
          "name": "sigV",
          "type": "uint8"
        }
      ],
      "name": "executeMetaTransaction",
      "outputs": [
        {
          "internalType": "bytes",
          "name": "",
          "type": "bytes"
        }
      ],
      "stateMutability": "payable",
      "type": "function"
    },
    {
      "inputs": [
        {
          "internalType": "address",
          "name": "user",
          "type": "address"
        }
      ],
      "name": "getNonce",
      "outputs": [
        {
          "internalType": "uint256",
          "name": "nonce",
          "type": "uint256"
        }
      ],
      "stateMutability": "view",
      "type": "function"
    },
    {
      "inputs": [
        {
          "internalType": "address",
          "name": "contractAddress",
          "type": "address"
        },
        {
          "internalType": "address",
          "name": "coverAsset",
          "type": "address"
        },
        {
          "internalType": "uint256",
          "name": "sumAssured",
          "type": "uint256"
        },
        {
          "internalType": "uint16",
          "name": "coverPeriod",
          "type": "uint16"
        },
        {
          "internalType": "uint8",
          "name": "coverType",
          "type": "uint8"
        },
        {
          "internalType": "bytes",
          "name": "data",
          "type": "bytes"
        }
      ],
      "name": "getProductPrice",
      "outputs": [
        {
          "internalType": "uint256",
          "name": "",
          "type": "uint256"
        }
      ],
      "stateMutability": "view",
      "type": "function"
    },
    {
      "inputs": [
        {
          "internalType": "address",
          "name": "",
          "type": "address"
        },
        {
          "internalType": "address",
          "name": "",
          "type": "address"
        },
        {
          "internalType": "uint256",
          "name": "",
          "type": "uint256"
        },
        {
          "internalType": "bytes",
          "name": "",
          "type": "bytes"
        }
      ],
      "name": "onERC721Received",
      "outputs": [
        {
          "internalType": "bytes4",
          "name": "",
          "type": "bytes4"
        }
      ],
      "stateMutability": "nonpayable",
      "type": "function"
    },
    {
      "inputs": [],
      "name": "owner",
      "outputs": [
        {
          "internalType": "address",
          "name": "",
          "type": "address"
        }
      ],
      "stateMutability": "view",
      "type": "function"
    },
    {
      "inputs": [],
      "name": "pause",
      "outputs": [],
      "stateMutability": "nonpayable",
      "type": "function"
    },
    {
      "inputs": [],
      "name": "paused",
      "outputs": [
        {
          "internalType": "bool",
          "name": "",
          "type": "bool"
        }
      ],
      "stateMutability": "view",
      "type": "function"
    },
    {
      "inputs": [],
      "name": "productIds",
      "outputs": [
        {
          "internalType": "uint256",
          "name": "_value",
          "type": "uint256"
        }
      ],
      "stateMutability": "view",
      "type": "function"
    },
    {
      "inputs": [
        {
          "internalType": "address",
          "name": "_currency",
          "type": "address"
        }
      ],
      "name": "removeCurrency",
      "outputs": [],
      "stateMutability": "nonpayable",
      "type": "function"
    },
    {
      "inputs": [],
      "name": "renounceOwnership",
      "outputs": [],
      "stateMutability": "nonpayable",
      "type": "function"
    },
    {
      "inputs": [
        {
          "internalType": "address",
          "name": "_exchangeAgent",
          "type": "address"
        }
      ],
      "name": "setExchangeAgent",
      "outputs": [],
      "stateMutability": "nonpayable",
      "type": "function"
    },
    {
      "inputs": [
        {
          "internalType": "address",
          "name": "newOwner",
          "type": "address"
        }
      ],
      "name": "transferOwnership",
      "outputs": [],
      "stateMutability": "nonpayable",
      "type": "function"
    },
    {
      "inputs": [],
      "name": "unpause",
      "outputs": [],
      "stateMutability": "nonpayable",
      "type": "function"
    },
    {
      "inputs": [
        {
          "internalType": "address",
          "name": "owner",
          "type": "address"
        },
        {
          "internalType": "uint256",
          "name": "nonce",
          "type": "uint256"
        },
        {
          "internalType": "uint256",
          "name": "chainID",
          "type": "uint256"
        },
        {
          "internalType": "bytes",
          "name": "functionSignature",
          "type": "bytes"
        },
        {
          "internalType": "bytes32",
          "name": "sigR",
          "type": "bytes32"
        },
        {
          "internalType": "bytes32",
          "name": "sigS",
          "type": "bytes32"
        },
        {
          "internalType": "uint8",
          "name": "sigV",
          "type": "uint8"
        }
      ],
      "name": "verify",
      "outputs": [
        {
          "internalType": "bool",
          "name": "",
          "type": "bool"
        }
      ],
      "stateMutability": "view",
      "type": "function"
    },
    {
      "inputs": [
        {
          "internalType": "address",
          "name": "_token",
          "type": "address"
        },
        {
          "internalType": "address",
          "name": "_to",
          "type": "address"
        },
        {
          "internalType": "uint256",
          "name": "_amount",
          "type": "uint256"
        }
      ],
      "name": "withdrawAsset",
      "outputs": [],
      "stateMutability": "nonpayable",
      "type": "function"
    },
    {
      "stateMutability": "payable",
      "type": "receive"
    }
  ],
  "transactionHash": "0xf4a62e3b439d85253e6540331aacf3efd7da6ce2410458969053e92e4d8a13a4",
  "args": [
    "0xFc9B2B2565B38511B9822887F99D036d694a11e6",
    "0x31a4a1a4d81f3c7044eb0ca2c727ff78fb7ff91f",
    "0xe77250450fc9f682edeff9f0d252836189c01b53"
  ],
  "solcInputHash": "402f1543afb350be708cd1fbe1e6e8a3",
  "bytecode": "0x60a06040523480156200001157600080fd5b5060405162002cc638038062002cc6833981016040819052620000349162000113565b8282600062000042620000f2565b600080546001600160a01b0319166001600160a01b0383169081178255604051929350917f8be0079c531659141344cd1fd0a4f28419497f9722a3daafe3b4186f6b6457e0908290a3506000805460ff60a01b191681556001600160a01b039283168152600360205260409020805460ff19166001908117909155600480546001600160a01b031916929093169190911790915560055560601b6001600160601b031916608052506200015c9050565b3390565b80516001600160a01b03811681146200010e57600080fd5b919050565b60008060006060848603121562000128578283fd5b6200013384620000f6565b92506200014360208501620000f6565b91506200015360408501620000f6565b90509250925092565b60805160601c612b0c620001ba600039600081816106dc015281816107f701528181610ce601528181610fc7015281816112140152818161123d015281816113cf0152818161149d015281816115dd01526119450152612b0c6000f3fe60806040526004361061013e5760003560e01c8063715018a6116100bb578063aa57511d1161007f578063d9203b9111610059578063d9203b9114610362578063f24935cb14610377578063f2fde38b1461039757610145565b8063aa57511d14610318578063bfe109281461032d578063c5d3a1071461034257610145565b8063715018a6146102995780638456cb59146102ae5780638ab234b6146102c35780638b407d4f146102e35780638da5cb5b146102f657610145565b80632788943b116101025780632788943b1461020f5780632d0335ab146102225780633f4ba83a1461024f5780635c975abb146102645780636281133d1461027957610145565b8063092ae4dc1461014a5780630c53c51c1461016c578063150b7a021461019557806318a00d8e146101c25780631af42c0f146101e257610145565b3661014557005b600080fd5b34801561015657600080fd5b5061016a610165366004611db5565b6103b7565b005b61017f61017a366004611f8c565b610453565b60405161018c919061251d565b60405180910390f35b3480156101a157600080fd5b506101b56101b0366004611df5565b6105a9565b60405161018c91906124f0565b3480156101ce57600080fd5b5061016a6101dd366004611d76565b6105b9565b3480156101ee57600080fd5b506102026101fd366004611d76565b610676565b60405161018c91906124c7565b61016a61021d366004611ef1565b61068b565b34801561022e57600080fd5b5061024261023d366004611d76565b6108f9565b60405161018c91906129c1565b34801561025b57600080fd5b5061016a610914565b34801561027057600080fd5b5061020261095d565b34801561028557600080fd5b50610202610294366004611ffe565b61096e565b3480156102a557600080fd5b5061016a610a3e565b3480156102ba57600080fd5b5061016a610ac7565b3480156102cf57600080fd5b5061016a6102de366004611d76565b610b0e565b61016a6102f1366004612083565b610baa565b34801561030257600080fd5b5061030b6113b8565b60405161018c91906122ee565b34801561032457600080fd5b506102426113c7565b34801561033957600080fd5b5061030b6113cd565b34801561034e57600080fd5b5061016a61035d366004611d76565b6113f1565b34801561036e57600080fd5b5061030b611489565b34801561038357600080fd5b50610242610392366004611e5f565b611498565b3480156103a357600080fd5b5061016a6103b2366004611d76565b6116a2565b6103bf611762565b6001600160a01b03166103d06113b8565b6001600160a01b0316146103ff5760405162461bcd60e51b81526004016103f6906127e8565b60405180910390fd5b61040a838383611766565b7f37e6496681d2c16ab49733a2a6cf0916ebaa3e90250d01f84cec59f546d8cf24610433611853565b8385846040516104469493929190612351565b60405180910390a1505050565b6001600160a01b03851660009081526001602052604090205460609061047f908790468888888861096e565b61049b5760405162461bcd60e51b81526004016103f690612854565b6001600160a01b038616600090815260016020819052604082208054919290916104c69084906129f4565b9091555050604051600090819030906104e59089908b90602001612240565b60408051601f19818403018152908290526104ff91612224565b6000604051808303816000865af19150503d806000811461053c576040519150601f19603f3d011682016040523d82523d6000602084013e610541565b606091505b5091509150816105635760405162461bcd60e51b81526004016103f6906125e4565b7f5845892132946850460bff5a0083f71031bc5bf9aadcd40f1de79423eac9b10b8833896040516105969392919061231c565b60405180910390a1979650505050505050565b630a85bd0160e11b949350505050565b6105c1611762565b6001600160a01b03166105d26113b8565b6001600160a01b0316146105f85760405162461bcd60e51b81526004016103f6906127e8565b6001600160a01b03811661061e5760405162461bcd60e51b81526004016103f690612917565b600480546001600160a01b0319166001600160a01b0383161790556040517f0143625ceac80b2452760213c6b6f5a22eb63bc46e17d129c30fffefb4679eb69061066b9033908490612302565b60405180910390a150565b60036020526000908152604090205460ff1681565b600260055414156106ae5760405162461bcd60e51b81526004016103f69061298a565b60026005556106bb61095d565b156106d85760405162461bcd60e51b81526004016103f6906127b1565b60007f00000000000000000000000000000000000000000000000000000000000000006001600160a01b0316638322fff26040518163ffffffff1660e01b815260040160206040518083038186803b15801561073357600080fd5b505afa158015610747573d6000803e3d6000fd5b505050506040513d601f19601f8201168201806040525081019061076b9190611d99565b9050806001600160a01b0316886001600160a01b03161461079e5760405162461bcd60e51b81526004016103f690612567565b60006107af8a8a8a8a8a8989611498565b9050803410156107d15760405162461bcd60e51b81526004016103f6906128e0565b803411156107f3576107f36107e4611853565b6107ee8334612a4b565b6118b1565b60007f00000000000000000000000000000000000000000000000000000000000000006001600160a01b031663d8a856ee838d8d8d8d8d8d8d8d6040518a63ffffffff1660e01b815260040161085098979695949392919061240a565b6020604051808303818588803b15801561086957600080fd5b505af115801561087d573d6000803e3d6000fd5b50505050506040513d601f19601f820116820180604052508101906108a291906121b6565b90506108ad81611943565b807ff55ac0abf2bf841b528bc82ae0dea104860c71d7a98d5106fd4a86ab214436d48b846040516108df92919061248d565b60405180910390a250506001600555505050505050505050565b6001600160a01b031660009081526001602052604090205490565b61091c611762565b6001600160a01b031661092d6113b8565b6001600160a01b0316146109535760405162461bcd60e51b81526004016103f6906127e8565b61095b6119c8565b565b600054600160a01b900460ff165b90565b6000806109a68830898960405160200161098b94939291906122a8565b60405160208183030381529060405280519060200120611a39565b90506000600182858888604051600081526020016040526040516109cd94939291906124d2565b6020604051602081039080840390855afa1580156109ef573d6000803e3d6000fd5b5050604051601f1901519150506001600160a01b038116610a225760405162461bcd60e51b81526004016103f690612743565b6001600160a01b038a8116911614915050979650505050505050565b610a46611762565b6001600160a01b0316610a576113b8565b6001600160a01b031614610a7d5760405162461bcd60e51b81526004016103f6906127e8565b600080546040516001600160a01b03909116907f8be0079c531659141344cd1fd0a4f28419497f9722a3daafe3b4186f6b6457e0908390a3600080546001600160a01b0319169055565b610acf611762565b6001600160a01b0316610ae06113b8565b6001600160a01b031614610b065760405162461bcd60e51b81526004016103f6906127e8565b61095b611a6a565b610b16611762565b6001600160a01b0316610b276113b8565b6001600160a01b031614610b4d5760405162461bcd60e51b81526004016103f6906127e8565b6001600160a01b03811660009081526003602052604090205460ff1615610b865760405162461bcd60e51b81526004016103f69061277a565b6001600160a01b03166000908152600360205260409020805460ff19166001179055565b86600081518110610bcb57634e487b7160e01b600052603260045260246000fd5b6020908102919091018101516001600160a01b0381166000908152600390925260409091205460ff16610c105760405162461bcd60e51b81526004016103f69061261b565b60026005541415610c335760405162461bcd60e51b81526004016103f69061298a565b6002600555610c4061095d565b15610c5d5760405162461bcd60e51b81526004016103f6906127b1565b8751600314610c7e5760405162461bcd60e51b81526004016103f690612652565b6000610cdf89600181518110610ca457634e487b7160e01b600052603260045260246000fd5b60200260200101518a600281518110610ccd57634e487b7160e01b600052603260045260246000fd5b60200260200101518a8a8a8989611498565b90506000807f00000000000000000000000000000000000000000000000000000000000000006001600160a01b0316638322fff26040518163ffffffff1660e01b815260040160206040518083038186803b158015610d3d57600080fd5b505afa158015610d51573d6000803e3d6000fd5b505050506040513d601f19601f82011682018060405250810190610d759190611d99565b6001600160a01b03168b600281518110610d9f57634e487b7160e01b600052603260045260246000fd5b60200260200101516001600160a01b03161415610e6e576004548b516001600160a01b039091169063ba560ed9908d90600090610dec57634e487b7160e01b600052603260045260246000fd5b6020026020010151856040518363ffffffff1660e01b8152600401610e1292919061248d565b602060405180830381600087803b158015610e2c57600080fd5b505af1158015610e40573d6000803e3d6000fd5b505050506040513d601f19601f82011682018060405250810190610e6491906121b6565b9150829050610f49565b6004548b516001600160a01b03909116906334899be6908d90600090610ea457634e487b7160e01b600052603260045260246000fd5b60200260200101518d600281518110610ecd57634e487b7160e01b600052603260045260246000fd5b6020026020010151866040518463ffffffff1660e01b8152600401610ef49392919061237b565b602060405180830381600087803b158015610f0e57600080fd5b505af1158015610f22573d6000803e3d6000fd5b505050506040513d601f19601f82011682018060405250810190610f4691906121b6565b91505b610f848b600081518110610f6d57634e487b7160e01b600052603260045260246000fd5b6020026020010151610f7d611853565b3085611acb565b610fc58b600081518110610fa857634e487b7160e01b600052603260045260246000fd5b60209081029190910101516004546001600160a01b031684611bbb565b7f00000000000000000000000000000000000000000000000000000000000000006001600160a01b0316638322fff26040518163ffffffff1660e01b815260040160206040518083038186803b15801561101e57600080fd5b505afa158015611032573d6000803e3d6000fd5b505050506040513d601f19601f820116820180604052508101906110569190611d99565b6001600160a01b03168b60028151811061108057634e487b7160e01b600052603260045260246000fd5b60200260200101516001600160a01b0316141561112c576004548b516001600160a01b0390911690630de43334908d906000906110cd57634e487b7160e01b600052603260045260246000fd5b602002602001015184866040518463ffffffff1660e01b81526004016110f5939291906124a6565b600060405180830381600087803b15801561110f57600080fd5b505af1158015611123573d6000803e3d6000fd5b50505050611239565b6004548b516001600160a01b03909116906380dcc456908d9060009061116257634e487b7160e01b600052603260045260246000fd5b60200260200101518d60028151811061118b57634e487b7160e01b600052603260045260246000fd5b602002602001015185876040518563ffffffff1660e01b81526004016111b49493929190612464565b600060405180830381600087803b1580156111ce57600080fd5b505af11580156111e2573d6000803e3d6000fd5b505050506112398b60028151811061120a57634e487b7160e01b600052603260045260246000fd5b60200260200101517f000000000000000000000000000000000000000000000000000000000000000085611bbb565b60007f00000000000000000000000000000000000000000000000000000000000000006001600160a01b031663d8a856ee838e60018151811061128c57634e487b7160e01b600052603260045260246000fd5b60200260200101518f6002815181106112b557634e487b7160e01b600052603260045260246000fd5b60200260200101518f8f8f8f8f8f6040518a63ffffffff1660e01b81526004016112e698979695949392919061240a565b6020604051808303818588803b1580156112ff57600080fd5b505af1158015611313573d6000803e3d6000fd5b50505050506040513d601f19601f8201168201806040525081019061133891906121b6565b905061134381611943565b807ff55ac0abf2bf841b528bc82ae0dea104860c71d7a98d5106fd4a86ab214436d48d60008151811061138657634e487b7160e01b600052603260045260246000fd5b60200260200101518560405161139d92919061248d565b60405180910390a25050600160055550505050505050505050565b6000546001600160a01b031690565b60025481565b7f000000000000000000000000000000000000000000000000000000000000000081565b6113f9611762565b6001600160a01b031661140a6113b8565b6001600160a01b0316146114305760405162461bcd60e51b81526004016103f6906127e8565b6001600160a01b03811660009081526003602052604090205460ff166114685760405162461bcd60e51b81526004016103f69061281d565b6001600160a01b03166000908152600360205260409020805460ff19169055565b6004546001600160a01b031681565b6000807f00000000000000000000000000000000000000000000000000000000000000006001600160a01b031663116191b66040518163ffffffff1660e01b815260040160206040518083038186803b1580156114f457600080fd5b505afa158015611508573d6000803e3d6000fd5b505050506040513d601f19601f8201168201806040525081019061152c9190611d99565b905060006001600160a01b038216635caca7b48b8b8b8b60ff8c16801561156357634e487b7160e01b600052602160045260246000fd5b8b8b6040518863ffffffff1660e01b8152600401611587979695949392919061239f565b60206040518083038186803b15801561159f57600080fd5b505afa1580156115b3573d6000803e3d6000fd5b505050506040513d601f19601f820116820180604052508101906115d791906121b6565b905060007f00000000000000000000000000000000000000000000000000000000000000006001600160a01b031663a001ecdd6040518163ffffffff1660e01b815260040160206040518083038186803b15801561163457600080fd5b505afa158015611648573d6000803e3d6000fd5b505050506040513d601f19601f8201168201806040525081019061166c91906121b6565b905060008261271061167e8285612a2c565b6116889190612a0c565b61169291906129f4565b9c9b505050505050505050505050565b6116aa611762565b6001600160a01b03166116bb6113b8565b6001600160a01b0316146116e15760405162461bcd60e51b81526004016103f6906127e8565b6001600160a01b0381166117075760405162461bcd60e51b81526004016103f69061259e565b600080546040516001600160a01b03808516939216917f8be0079c531659141344cd1fd0a4f28419497f9722a3daafe3b4186f6b6457e091a3600080546001600160a01b0319166001600160a01b0392909216919091179055565b3390565b600080846001600160a01b031663a9059cbb858560405160240161178b92919061248d565b6040516020818303038152906040529060e01b6020820180516001600160e01b0383818316178352505050506040516117c49190612224565b6000604051808303816000865af19150503d8060008114611801576040519150601f19603f3d011682016040523d82523d6000602084013e611806565b606091505b50915091508180156118305750805115806118305750808060200190518101906118309190612196565b61184c5760405162461bcd60e51b81526004016103f69061293d565b5050505050565b6000333014156118aa57600080368080601f0160208091040260200160405190810160405280939291908181526020018383808284376000920191909152505050503601516001600160a01b0316915061096b9050565b503361096b565b604080516000808252602082019092526001600160a01b0384169083906040516118db9190612224565b60006040518083038185875af1925050503d8060008114611918576040519150601f19603f3d011682016040523d82523d6000602084013e61191d565b606091505b505090508061193e5760405162461bcd60e51b81526004016103f6906126e6565b505050565b7f00000000000000000000000000000000000000000000000000000000000000006001600160a01b03166323b872dd3061197b611853565b846040518463ffffffff1660e01b815260040161199a9392919061237b565b600060405180830381600087803b1580156119b457600080fd5b505af115801561184c573d6000803e3d6000fd5b6119d061095d565b6119ec5760405162461bcd60e51b81526004016103f690612530565b6000805460ff60a01b191690557f5db9ee0a495bf2e6ff9c91a7834c1ba4fdd244a5e8aa4e537bd38aeae4b073aa611a22611762565b604051611a2f91906122ee565b60405180910390a1565b600081604051602001611a4c9190612277565b6040516020818303038152906040528051906020012090505b919050565b611a7261095d565b15611a8f5760405162461bcd60e51b81526004016103f6906127b1565b6000805460ff60a01b1916600160a01b1790557f62e78cea01bee320cd4e420270b5ea74000d11b0c9f74754ebdbfc544b05a258611a22611762565b600080856001600160a01b03166323b872dd868686604051602401611af29392919061237b565b6040516020818303038152906040529060e01b6020820180516001600160e01b038381831617835250505050604051611b2b9190612224565b6000604051808303816000865af19150503d8060008114611b68576040519150601f19603f3d011682016040523d82523d6000602084013e611b6d565b606091505b5091509150818015611b97575080511580611b97575080806020019051810190611b979190612196565b611bb35760405162461bcd60e51b81526004016103f690612689565b505050505050565b600080846001600160a01b031663095ea7b38585604051602401611be092919061248d565b6040516020818303038152906040529060e01b6020820180516001600160e01b038381831617835250505050604051611c199190612224565b6000604051808303816000865af19150503d8060008114611c56576040519150601f19603f3d011682016040523d82523d6000602084013e611c5b565b606091505b5091509150818015611c85575080511580611c85575080806020019051810190611c859190612196565b61184c5760405162461bcd60e51b81526004016103f690612895565b60008083601f840112611cb2578182fd5b50813567ffffffffffffffff811115611cc9578182fd5b602083019150836020828501011115611ce157600080fd5b9250929050565b600082601f830112611cf8578081fd5b813567ffffffffffffffff811115611d1257611d12612aa8565b611d25601f8201601f19166020016129ca565b818152846020838601011115611d39578283fd5b816020850160208301379081016020019190915292915050565b803561ffff81168114611a6557600080fd5b803560ff81168114611a6557600080fd5b600060208284031215611d87578081fd5b8135611d9281612abe565b9392505050565b600060208284031215611daa578081fd5b8151611d9281612abe565b600080600060608486031215611dc9578182fd5b8335611dd481612abe565b92506020840135611de481612abe565b929592945050506040919091013590565b60008060008060808587031215611e0a578081fd5b8435611e1581612abe565b93506020850135611e2581612abe565b925060408501359150606085013567ffffffffffffffff811115611e47578182fd5b611e5387828801611ce8565b91505092959194509250565b600080600080600080600060c0888a031215611e79578283fd5b8735611e8481612abe565b96506020880135611e9481612abe565b955060408801359450611ea960608901611d53565b9350611eb760808901611d65565b925060a088013567ffffffffffffffff811115611ed2578283fd5b611ede8a828b01611ca1565b989b979a50959850939692959293505050565b60008060008060008060008060e0898b031215611f0c578081fd5b8835611f1781612abe565b97506020890135611f2781612abe565b965060408901359550611f3c60608a01611d53565b9450611f4a60808a01611d65565b935060a0890135925060c089013567ffffffffffffffff811115611f6c578182fd5b611f788b828c01611ca1565b999c989b5096995094979396929594505050565b600080600080600060a08688031215611fa3578081fd5b8535611fae81612abe565b9450602086013567ffffffffffffffff811115611fc9578182fd5b611fd588828901611ce8565b9450506040860135925060608601359150611ff260808701611d65565b90509295509295909350565b600080600080600080600060e0888a031215612018578081fd5b873561202381612abe565b96506020880135955060408801359450606088013567ffffffffffffffff81111561204c578182fd5b6120588a828b01611ce8565b9450506080880135925060a0880135915061207560c08901611d65565b905092959891949750929550565b600080600080600080600060c0888a03121561209d578081fd5b67ffffffffffffffff80893511156120b3578182fd5b883589018a601f8201126120c5578283fd5b8035828111156120d7576120d7612aa8565b602081026120e7602082016129ca565b80838252602082019150602085018f6020858801011115612106578788fd5b8795505b848610156121335761211c8135612abe565b80358352600195909501946020928301920161210a565b509b5050505060208a0135975061214e905060408a01611d53565b955061215c60608a01611d65565b94506080890135935060a089013581811115612176578283fd5b6121828b828c01611ca1565b999c989b5096995094979396939450505050565b6000602082840312156121a7578081fd5b81518015158114611d92578182fd5b6000602082840312156121c7578081fd5b5051919050565b60008284528282602086013780602084860101526020601f19601f85011685010190509392505050565b60008151808452612210816020860160208601612a62565b601f01601f19169290920160200192915050565b60008251612236818460208701612a62565b9190910192915050565b60008351612252818460208801612a62565b60609390931b6bffffffffffffffffffffffff19169190920190815260140192915050565b7f19457468657265756d205369676e6564204d6573736167653a0a3332000000008152601c810191909152603c0190565b60008582526bffffffffffffffffffffffff198560601b16602083015283603483015282516122de816054850160208701612a62565b9190910160540195945050505050565b6001600160a01b0391909116815260200190565b6001600160a01b0392831681529116602082015260400190565b60006001600160a01b0380861683528085166020840152506060604083015261234860608301846121f8565b95945050505050565b6001600160a01b039485168152928416602084015292166040820152606081019190915260800190565b6001600160a01b039384168152919092166020820152604081019190915260600190565b6001600160a01b038881168252871660208201526040810186905261ffff851660608201526000600185106123e257634e487b7160e01b81526021600452602481fd5b84608083015260c060a08301526123fd60c0830184866121ce565b9998505050505050505050565b60006001600160a01b03808b168352808a1660208401525087604083015261ffff8716606083015260ff861660808301528460a083015260e060c083015261245660e0830184866121ce565b9a9950505050505050505050565b6001600160a01b0394851681529290931660208301526040820152606081019190915260800190565b6001600160a01b03929092168252602082015260400190565b6001600160a01b039390931683526020830191909152604082015260600190565b901515815260200190565b93845260ff9290921660208401526040830152606082015260800190565b7fffffffff0000000000000000000000000000000000000000000000000000000091909116815260200190565b600060208252611d9260208301846121f8565b60208082526014908201527f5061757361626c653a206e6f7420706175736564000000000000000000000000604082015260600190565b60208082526011908201527f53686f756c642070617920696e20455448000000000000000000000000000000604082015260600190565b60208082526026908201527f4f776e61626c653a206e6577206f776e657220697320746865207a65726f206160408201526564647265737360d01b606082015260800190565b6020808252601c908201527f46756e6374696f6e2063616c6c206e6f74207375636365737366756c00000000604082015260600190565b60208082526011908201527f4e6f7420616c6c6f77656420746f6b656e000000000000000000000000000000604082015260600190565b6020808252601f908201527f41737365747320706172616d206c656e6774682073686f756c64206265203300604082015260600190565b60208082526031908201527f5472616e7366657248656c7065723a3a7472616e7366657246726f6d3a20747260408201527f616e7366657246726f6d206661696c6564000000000000000000000000000000606082015260800190565b60208082526034908201527f5472616e7366657248656c7065723a3a736166655472616e736665724554483a60408201527f20455448207472616e73666572206661696c6564000000000000000000000000606082015260800190565b60208082526011908201527f496e76616c6964207369676e6174757265000000000000000000000000000000604082015260600190565b60208082526011908201527f416c726561647920617661696c61626c65000000000000000000000000000000604082015260600190565b60208082526010908201527f5061757361626c653a2070617573656400000000000000000000000000000000604082015260600190565b6020808252818101527f4f776e61626c653a2063616c6c6572206973206e6f7420746865206f776e6572604082015260600190565b60208082526011908201527f4e6f7420617661696c61626c6520796574000000000000000000000000000000604082015260600190565b60208082526021908201527f5369676e657220616e64207369676e617475726520646f206e6f74206d6174636040820152600d60fb1b606082015260800190565b6020808252602b908201527f5472616e7366657248656c7065723a3a73616665417070726f76653a2061707060408201526a1c9bdd994819985a5b195960aa1b606082015260800190565b60208082526013908201527f496e73756666696369656e7420616d6f756e7400000000000000000000000000604082015260600190565b6020808252600c908201526b5a45524f204164647265737360a01b604082015260600190565b6020808252602d908201527f5472616e7366657248656c7065723a3a736166655472616e736665723a20747260408201526c185b9cd9995c8819985a5b1959609a1b606082015260800190565b6020808252601f908201527f5265656e7472616e637947756172643a207265656e7472616e742063616c6c00604082015260600190565b90815260200190565b60405181810167ffffffffffffffff811182821017156129ec576129ec612aa8565b604052919050565b60008219821115612a0757612a07612a92565b500190565b600082612a2757634e487b7160e01b81526012600452602481fd5b500490565b6000816000190483118215151615612a4657612a46612a92565b500290565b600082821015612a5d57612a5d612a92565b500390565b60005b83811015612a7d578181015183820152602001612a65565b83811115612a8c576000848401525b50505050565b634e487b7160e01b600052601160045260246000fd5b634e487b7160e01b600052604160045260246000fd5b6001600160a01b0381168114612ad357600080fd5b5056fea2646970667358221220da482fff657996f020d47d597b13cd0db92fdf2bb5f1acaef79f1e1b3aea342164736f6c63430008000033",
  "devdoc": {
    "kind": "dev",
    "methods": {
      "buyCoverByETH(address,address,uint256,uint16,uint8,uint256,bytes)": {
        "details": "User will buy product directly using his ETH"
      },
      "executeMetaTransaction(address,bytes,bytes32,bytes32,uint8)": {
        "params": {
          "functionSignature": "Signature of the actual function to be called via meta transaction",
          "sigR": "R part of the signature",
          "sigS": "S part of the signature",
          "sigV": "V part of the signature",
          "userAddress": "Address of user trying to do meta transaction"
        }
      },
      "getProductPrice(address,address,uint256,uint16,uint8,bytes)": {
        "details": "return maxPriceWithFee value"
      },
      "onERC721Received(address,address,uint256,bytes)": {
        "details": "See {IERC721Receiver-onERC721Received}. Always returns `IERC721Receiver.onERC721Received.selector`."
      },
      "owner()": {
        "details": "Returns the address of the current owner."
      },
      "paused()": {
        "details": "Returns true if the contract is paused, and false otherwise."
      },
      "renounceOwnership()": {
        "details": "Leaves the contract without owner. It will not be possible to call `onlyOwner` functions anymore. Can only be called by the current owner. NOTE: Renouncing ownership will leave the contract without an owner, thereby removing any functionality that is only available to the owner."
      },
      "transferOwnership(address)": {
        "details": "Transfers ownership of the contract to a new account (`newOwner`). Can only be called by the current owner."
      },
      "withdrawAsset(address,address,uint256)": {
        "details": "For reflect tokens, we should deposit some tokens at contract directly, We will withdraw tokens deposited at contract through this function"
      }
    },
    "version": 1
  },
  "userdoc": {
    "kind": "user",
    "methods": {
      "executeMetaTransaction(address,bytes,bytes32,bytes32,uint8)": {
        "notice": "Main function to be called when user wants to execute meta transaction. The actual function to be called should be passed as param with name functionSignature Here the basic signature recovery is being used. Signature is expected to be generated using personal_sign method."
      }
    },
    "version": 1
  },
  "storageLayout": {
    "storage": [
      {
        "astId": 7,
        "contract": "contracts/onchain/NexusMutualCover.sol:NexusMutualCover",
        "label": "_owner",
        "offset": 0,
        "slot": "0",
        "type": "t_address"
      },
      {
        "astId": 127,
        "contract": "contracts/onchain/NexusMutualCover.sol:NexusMutualCover",
        "label": "_paused",
        "offset": 20,
        "slot": "0",
        "type": "t_bool"
      },
      {
        "astId": 2117,
        "contract": "contracts/onchain/NexusMutualCover.sol:NexusMutualCover",
        "label": "nonces",
        "offset": 0,
        "slot": "1",
        "type": "t_mapping(t_address,t_uint256)"
      },
      {
        "astId": 4141,
        "contract": "contracts/onchain/NexusMutualCover.sol:NexusMutualCover",
        "label": "productIds",
        "offset": 0,
        "slot": "2",
        "type": "t_struct(Counter)1041_storage"
      },
      {
        "astId": 4145,
        "contract": "contracts/onchain/NexusMutualCover.sol:NexusMutualCover",
        "label": "availableCurrencies",
        "offset": 0,
        "slot": "3",
        "type": "t_mapping(t_address,t_bool)"
      },
      {
        "astId": 4147,
        "contract": "contracts/onchain/NexusMutualCover.sol:NexusMutualCover",
        "label": "exchangeAgent",
        "offset": 0,
        "slot": "4",
        "type": "t_address"
      },
      {
        "astId": 212,
        "contract": "contracts/onchain/NexusMutualCover.sol:NexusMutualCover",
        "label": "_status",
        "offset": 0,
        "slot": "5",
        "type": "t_uint256"
      }
    ],
    "types": {
      "t_address": {
        "encoding": "inplace",
        "label": "address",
        "numberOfBytes": "20"
      },
      "t_bool": {
        "encoding": "inplace",
        "label": "bool",
        "numberOfBytes": "1"
      },
      "t_mapping(t_address,t_bool)": {
        "encoding": "mapping",
        "key": "t_address",
        "label": "mapping(address => bool)",
        "numberOfBytes": "32",
        "value": "t_bool"
      },
      "t_mapping(t_address,t_uint256)": {
        "encoding": "mapping",
        "key": "t_address",
        "label": "mapping(address => uint256)",
        "numberOfBytes": "32",
        "value": "t_uint256"
      },
      "t_struct(Counter)1041_storage": {
        "encoding": "inplace",
        "label": "struct Counters.Counter",
        "members": [
          {
            "astId": 1040,
            "contract": "contracts/onchain/NexusMutualCover.sol:NexusMutualCover",
            "label": "_value",
            "offset": 0,
            "slot": "0",
            "type": "t_uint256"
          }
        ],
        "numberOfBytes": "32"
      },
      "t_uint256": {
        "encoding": "inplace",
        "label": "uint256",
        "numberOfBytes": "32"
      }
    }
  }
}