{
  "address": "0x77283A990EDf2eBA2568B5a478fBd735C1E07C10",
  "abi": [
    {
      "inputs": [
        {
          "internalType": "address",
          "name": "_CVR",
          "type": "address"
        },
        {
          "internalType": "address",
          "name": "_exchangeAgent",
          "type": "address"
        },
        {
          "internalType": "address",
          "name": "_distributor",
          "type": "address"
        }
      ],
      "stateMutability": "nonpayable",
      "type": "constructor"
    },
    {
      "anonymous": false,
      "inputs": [
        {
          "indexed": true,
          "internalType": "uint256",
          "name": "pid",
          "type": "uint256"
        },
        {
          "indexed": false,
          "internalType": "address",
          "name": "_buyToken",
          "type": "address"
        },
        {
          "indexed": false,
          "internalType": "uint256",
          "name": "_tokenAmount",
          "type": "uint256"
        },
        {
          "indexed": false,
          "internalType": "uint16",
          "name": "_coverPeriod",
          "type": "uint16"
        }
      ],
      "name": "BuyNexusMutual",
      "type": "event"
    },
    {
      "anonymous": false,
      "inputs": [
        {
          "indexed": true,
          "internalType": "uint256",
          "name": "_productId",
          "type": "uint256"
        },
        {
          "indexed": false,
          "internalType": "address",
          "name": "_buyer",
          "type": "address"
        }
      ],
      "name": "BuyProduct",
      "type": "event"
    },
    {
      "anonymous": false,
      "inputs": [
        {
          "indexed": false,
          "internalType": "address",
          "name": "userAddress",
          "type": "address"
        },
        {
          "indexed": false,
          "internalType": "address payable",
          "name": "relayerAddress",
          "type": "address"
        },
        {
          "indexed": false,
          "internalType": "bytes",
          "name": "functionSignature",
          "type": "bytes"
        }
      ],
      "name": "MetaTransactionExecuted",
      "type": "event"
    },
    {
      "anonymous": false,
      "inputs": [
        {
          "indexed": true,
          "internalType": "address",
          "name": "previousOwner",
          "type": "address"
        },
        {
          "indexed": true,
          "internalType": "address",
          "name": "newOwner",
          "type": "address"
        }
      ],
      "name": "OwnershipTransferred",
      "type": "event"
    },
    {
      "anonymous": false,
      "inputs": [
        {
          "indexed": false,
          "internalType": "address",
          "name": "account",
          "type": "address"
        }
      ],
      "name": "Paused",
      "type": "event"
    },
    {
      "anonymous": false,
      "inputs": [
        {
          "indexed": false,
          "internalType": "address",
          "name": "_setter",
          "type": "address"
        },
        {
          "indexed": false,
          "internalType": "address",
          "name": "_exchangeAgent",
          "type": "address"
        }
      ],
      "name": "SetExchangeAgent",
      "type": "event"
    },
    {
      "anonymous": false,
      "inputs": [
        {
          "indexed": false,
          "internalType": "address",
          "name": "account",
          "type": "address"
        }
      ],
      "name": "Unpaused",
      "type": "event"
    },
    {
      "anonymous": false,
      "inputs": [
        {
          "indexed": false,
          "internalType": "address",
          "name": "_user",
          "type": "address"
        },
        {
          "indexed": false,
          "internalType": "address",
          "name": "_to",
          "type": "address"
        },
        {
          "indexed": false,
          "internalType": "address",
          "name": "_token",
          "type": "address"
        },
        {
          "indexed": false,
          "internalType": "uint256",
          "name": "_amount",
          "type": "uint256"
        }
      ],
      "name": "WithdrawAsset",
      "type": "event"
    },
    {
      "inputs": [
        {
          "internalType": "address",
          "name": "_currency",
          "type": "address"
        }
      ],
      "name": "addCurrency",
      "outputs": [],
      "stateMutability": "nonpayable",
      "type": "function"
    },
    {
      "inputs": [
        {
          "internalType": "address",
          "name": "",
          "type": "address"
        }
      ],
      "name": "availableCurrencies",
      "outputs": [
        {
          "internalType": "bool",
          "name": "",
          "type": "bool"
        }
      ],
      "stateMutability": "view",
      "type": "function"
    },
    {
      "inputs": [
        {
          "internalType": "address",
          "name": "contractAddress",
          "type": "address"
        },
        {
          "internalType": "address",
          "name": "coverAsset",
          "type": "address"
        },
        {
          "internalType": "uint256",
          "name": "sumAssured",
          "type": "uint256"
        },
        {
          "internalType": "uint16",
          "name": "coverPeriod",
          "type": "uint16"
        },
        {
          "internalType": "uint8",
          "name": "coverType",
          "type": "uint8"
        },
        {
          "internalType": "uint256",
          "name": "maxPriceWithFee",
          "type": "uint256"
        },
        {
          "internalType": "bytes",
          "name": "data",
          "type": "bytes"
        }
      ],
      "name": "buyCoverByETH",
      "outputs": [],
      "stateMutability": "payable",
      "type": "function"
    },
    {
      "inputs": [
        {
          "internalType": "address[]",
          "name": "_assets",
          "type": "address[]"
        },
        {
          "internalType": "uint256",
          "name": "sumAssured",
          "type": "uint256"
        },
        {
          "internalType": "uint16",
          "name": "coverPeriod",
          "type": "uint16"
        },
        {
          "internalType": "uint8",
          "name": "coverType",
          "type": "uint8"
        },
        {
          "internalType": "uint256",
          "name": "maxPriceWithFee",
          "type": "uint256"
        },
        {
          "internalType": "bytes",
          "name": "data",
          "type": "bytes"
        }
      ],
      "name": "buyCoverByToken",
      "outputs": [],
      "stateMutability": "payable",
      "type": "function"
    },
    {
      "inputs": [],
      "name": "distributor",
      "outputs": [
        {
          "internalType": "address",
          "name": "",
          "type": "address"
        }
      ],
      "stateMutability": "view",
      "type": "function"
    },
    {
      "inputs": [],
      "name": "exchangeAgent",
      "outputs": [
        {
          "internalType": "address",
          "name": "",
          "type": "address"
        }
      ],
      "stateMutability": "view",
      "type": "function"
    },
    {
      "inputs": [
        {
          "internalType": "address",
          "name": "userAddress",
          "type": "address"
        },
        {
          "internalType": "bytes",
          "name": "functionSignature",
          "type": "bytes"
        },
        {
          "internalType": "bytes32",
          "name": "sigR",
          "type": "bytes32"
        },
        {
          "internalType": "bytes32",
          "name": "sigS",
          "type": "bytes32"
        },
        {
          "internalType": "uint8",
          "name": "sigV",
          "type": "uint8"
        }
      ],
      "name": "executeMetaTransaction",
      "outputs": [
        {
          "internalType": "bytes",
          "name": "",
          "type": "bytes"
        }
      ],
      "stateMutability": "payable",
      "type": "function"
    },
    {
      "inputs": [
        {
          "internalType": "address",
          "name": "user",
          "type": "address"
        }
      ],
      "name": "getNonce",
      "outputs": [
        {
          "internalType": "uint256",
          "name": "nonce",
          "type": "uint256"
        }
      ],
      "stateMutability": "view",
      "type": "function"
    },
    {
      "inputs": [
        {
          "internalType": "address",
          "name": "contractAddress",
          "type": "address"
        },
        {
          "internalType": "address",
          "name": "coverAsset",
          "type": "address"
        },
        {
          "internalType": "uint256",
          "name": "sumAssured",
          "type": "uint256"
        },
        {
          "internalType": "uint16",
          "name": "coverPeriod",
          "type": "uint16"
        },
        {
          "internalType": "uint8",
          "name": "coverType",
          "type": "uint8"
        },
        {
          "internalType": "bytes",
          "name": "data",
          "type": "bytes"
        }
      ],
      "name": "getProductPrice",
      "outputs": [
        {
          "internalType": "uint256",
          "name": "",
          "type": "uint256"
        }
      ],
      "stateMutability": "view",
      "type": "function"
    },
    {
      "inputs": [
        {
          "internalType": "address",
          "name": "",
          "type": "address"
        },
        {
          "internalType": "address",
          "name": "",
          "type": "address"
        },
        {
          "internalType": "uint256",
          "name": "",
          "type": "uint256"
        },
        {
          "internalType": "bytes",
          "name": "",
          "type": "bytes"
        }
      ],
      "name": "onERC721Received",
      "outputs": [
        {
          "internalType": "bytes4",
          "name": "",
          "type": "bytes4"
        }
      ],
      "stateMutability": "nonpayable",
      "type": "function"
    },
    {
      "inputs": [],
      "name": "owner",
      "outputs": [
        {
          "internalType": "address",
          "name": "",
          "type": "address"
        }
      ],
      "stateMutability": "view",
      "type": "function"
    },
    {
      "inputs": [],
      "name": "pause",
      "outputs": [],
      "stateMutability": "nonpayable",
      "type": "function"
    },
    {
      "inputs": [],
      "name": "paused",
      "outputs": [
        {
          "internalType": "bool",
          "name": "",
          "type": "bool"
        }
      ],
      "stateMutability": "view",
      "type": "function"
    },
    {
      "inputs": [],
      "name": "productIds",
      "outputs": [
        {
          "internalType": "uint256",
          "name": "_value",
          "type": "uint256"
        }
      ],
      "stateMutability": "view",
      "type": "function"
    },
    {
      "inputs": [
        {
          "internalType": "address",
          "name": "_currency",
          "type": "address"
        }
      ],
      "name": "removeCurrency",
      "outputs": [],
      "stateMutability": "nonpayable",
      "type": "function"
    },
    {
      "inputs": [],
      "name": "renounceOwnership",
      "outputs": [],
      "stateMutability": "nonpayable",
      "type": "function"
    },
    {
      "inputs": [
        {
          "internalType": "address",
          "name": "_token",
          "type": "address"
        }
      ],
      "name": "revokeAllowExchangeAgent",
      "outputs": [],
      "stateMutability": "nonpayable",
      "type": "function"
    },
    {
      "inputs": [
        {
          "internalType": "address",
          "name": "_token",
          "type": "address"
        }
      ],
      "name": "setAllowanceExchangeAgent",
      "outputs": [],
      "stateMutability": "nonpayable",
      "type": "function"
    },
    {
      "inputs": [
        {
          "internalType": "address",
          "name": "_exchangeAgent",
          "type": "address"
        }
      ],
      "name": "setExchangeAgent",
      "outputs": [],
      "stateMutability": "nonpayable",
      "type": "function"
    },
    {
      "inputs": [
        {
          "internalType": "address",
          "name": "newOwner",
          "type": "address"
        }
      ],
      "name": "transferOwnership",
      "outputs": [],
      "stateMutability": "nonpayable",
      "type": "function"
    },
    {
      "inputs": [],
      "name": "unpause",
      "outputs": [],
      "stateMutability": "nonpayable",
      "type": "function"
    },
    {
      "inputs": [
        {
          "internalType": "address",
          "name": "owner",
          "type": "address"
        },
        {
          "internalType": "uint256",
          "name": "nonce",
          "type": "uint256"
        },
        {
          "internalType": "uint256",
          "name": "chainID",
          "type": "uint256"
        },
        {
          "internalType": "bytes",
          "name": "functionSignature",
          "type": "bytes"
        },
        {
          "internalType": "bytes32",
          "name": "sigR",
          "type": "bytes32"
        },
        {
          "internalType": "bytes32",
          "name": "sigS",
          "type": "bytes32"
        },
        {
          "internalType": "uint8",
          "name": "sigV",
          "type": "uint8"
        }
      ],
      "name": "verify",
      "outputs": [
        {
          "internalType": "bool",
          "name": "",
          "type": "bool"
        }
      ],
      "stateMutability": "view",
      "type": "function"
    },
    {
      "inputs": [
        {
          "internalType": "address",
          "name": "_token",
          "type": "address"
        },
        {
          "internalType": "address",
          "name": "_to",
          "type": "address"
        },
        {
          "internalType": "uint256",
          "name": "_amount",
          "type": "uint256"
        }
      ],
      "name": "withdrawAsset",
      "outputs": [],
      "stateMutability": "nonpayable",
      "type": "function"
    },
    {
      "stateMutability": "payable",
      "type": "receive"
    }
  ],
  "transactionHash": "0x4f31268b9bfb87e9ede1dafe90273f46323d62a6b42a15d2c69394988cb490d6",
  "args": [
    "0xFc9B2B2565B38511B9822887F99D036d694a11e6",
    "0x51FCc54e9c7D8606cD16ea54e91Ed4D09F831e64",
    "0xe77250450fc9f682edeff9f0d252836189c01b53"
  ],
  "solcInputHash": "dc4dea4f22376d00ebd11d6c722b0add",
  "bytecode": "0x60a06040523480156200001157600080fd5b5060405162002dd538038062002dd5833981016040819052620000349162000113565b8282600062000042620000f2565b600080546001600160a01b0319166001600160a01b0383169081178255604051929350917f8be0079c531659141344cd1fd0a4f28419497f9722a3daafe3b4186f6b6457e0908290a3506000805460ff60a01b191681556001600160a01b039283168152600360205260409020805460ff19166001908117909155600480546001600160a01b031916929093169190911790915560055560601b6001600160601b031916608052506200015c9050565b3390565b80516001600160a01b03811681146200010e57600080fd5b919050565b60008060006060848603121562000128578283fd5b6200013384620000f6565b92506200014360208501620000f6565b91506200015360408501620000f6565b90509250925092565b60805160601c612c1b620001ba600039600081816107520152818161086d01528181610d5e01528181610ffe0152818161124b01528181611274015281816114080152818161158a015281816116ca0152611a320152612c1b6000f3fe6080604052600436106101745760003560e01c80638456cb59116100d6578063c5d3a1071161007f578063d9203b9111610059578063d9203b91146103d8578063f24935cb146103ed578063f2fde38b1461040d5761017b565b8063c5d3a10714610378578063c9702e3514610398578063cace1b11146103b85761017b565b80638da5cb5b116100b05780638da5cb5b1461032c578063aa57511d1461034e578063bfe10928146103635761017b565b80638456cb59146102e45780638ab234b6146102f95780638b407d4f146103195761017b565b80632788943b116101385780635c975abb116101125780635c975abb1461029a5780636281133d146102af578063715018a6146102cf5761017b565b80632788943b146102455780632d0335ab146102585780633f4ba83a146102855761017b565b8063092ae4dc146101805780630c53c51c146101a2578063150b7a02146101cb57806318a00d8e146101f85780631af42c0f146102185761017b565b3661017b57005b600080fd5b34801561018c57600080fd5b506101a061019b366004611ea2565b61042d565b005b6101b56101b0366004612079565b6104c9565b6040516101c2919061262f565b60405180910390f35b3480156101d757600080fd5b506101eb6101e6366004611ee2565b61061f565b6040516101c29190612602565b34801561020457600080fd5b506101a0610213366004611e63565b61062f565b34801561022457600080fd5b50610238610233366004611e63565b6106ec565b6040516101c291906125d9565b6101a0610253366004611fde565b610701565b34801561026457600080fd5b50610278610273366004611e63565b610971565b6040516101c29190612ad3565b34801561029157600080fd5b506101a061098c565b3480156102a657600080fd5b506102386109d5565b3480156102bb57600080fd5b506102386102ca3660046120eb565b6109e6565b3480156102db57600080fd5b506101a0610ab6565b3480156102f057600080fd5b506101a0610b3f565b34801561030557600080fd5b506101a0610314366004611e63565b610b86565b6101a0610327366004612170565b610c22565b34801561033857600080fd5b506103416113f1565b6040516101c291906123db565b34801561035a57600080fd5b50610278611400565b34801561036f57600080fd5b50610341611406565b34801561038457600080fd5b506101a0610393366004611e63565b61142a565b3480156103a457600080fd5b506101a06103b3366004611e63565b6114c2565b3480156103c457600080fd5b506101a06103d3366004611e63565b61151d565b3480156103e457600080fd5b50610341611576565b3480156103f957600080fd5b50610278610408366004611f4c565b611585565b34801561041957600080fd5b506101a0610428366004611e63565b61178f565b61043561184f565b6001600160a01b03166104466113f1565b6001600160a01b0316146104755760405162461bcd60e51b815260040161046c906128fa565b60405180910390fd5b610480838383611853565b7f37e6496681d2c16ab49733a2a6cf0916ebaa3e90250d01f84cec59f546d8cf246104a9611940565b8385846040516104bc949392919061243e565b60405180910390a1505050565b6001600160a01b0385166000908152600160205260409020546060906104f590879046888888886109e6565b6105115760405162461bcd60e51b815260040161046c90612966565b6001600160a01b0386166000908152600160208190526040822080549192909161053c908490612b06565b90915550506040516000908190309061055b9089908b9060200161232d565b60408051601f198184030181529082905261057591612311565b6000604051808303816000865af19150503d80600081146105b2576040519150601f19603f3d011682016040523d82523d6000602084013e6105b7565b606091505b5091509150816105d95760405162461bcd60e51b815260040161046c906126f6565b7f5845892132946850460bff5a0083f71031bc5bf9aadcd40f1de79423eac9b10b88338960405161060c93929190612409565b60405180910390a1979650505050505050565b630a85bd0160e11b949350505050565b61063761184f565b6001600160a01b03166106486113f1565b6001600160a01b03161461066e5760405162461bcd60e51b815260040161046c906128fa565b6001600160a01b0381166106945760405162461bcd60e51b815260040161046c90612a29565b600480546001600160a01b0319166001600160a01b0383161790556040517f0143625ceac80b2452760213c6b6f5a22eb63bc46e17d129c30fffefb4679eb6906106e190339084906123ef565b60405180910390a150565b60036020526000908152604090205460ff1681565b600260055414156107245760405162461bcd60e51b815260040161046c90612a9c565b60026005556107316109d5565b1561074e5760405162461bcd60e51b815260040161046c906128c3565b60007f00000000000000000000000000000000000000000000000000000000000000006001600160a01b0316638322fff26040518163ffffffff1660e01b815260040160206040518083038186803b1580156107a957600080fd5b505afa1580156107bd573d6000803e3d6000fd5b505050506040513d601f19601f820116820180604052508101906107e19190611e86565b9050806001600160a01b0316886001600160a01b0316146108145760405162461bcd60e51b815260040161046c90612679565b60006108258a8a8a8a8a8989611585565b9050803410156108475760405162461bcd60e51b815260040161046c906129f2565b803411156108695761086961085a611940565b6108648334612b5d565b61199e565b60007f00000000000000000000000000000000000000000000000000000000000000006001600160a01b031663d8a856ee838d8d8d8d8d8d8d8d6040518a63ffffffff1660e01b81526004016108c69897969594939291906124f7565b6020604051808303818588803b1580156108df57600080fd5b505af11580156108f3573d6000803e3d6000fd5b50505050506040513d601f19601f8201168201806040525081019061091891906122a3565b905061092381611a30565b807f3c94182e42691c00f0275426da18a89dd2e656a79607eea816d84cac5ba53faf8b848b60405161095793929190612593565b60405180910390a250506001600555505050505050505050565b6001600160a01b031660009081526001602052604090205490565b61099461184f565b6001600160a01b03166109a56113f1565b6001600160a01b0316146109cb5760405162461bcd60e51b815260040161046c906128fa565b6109d3611ab5565b565b600054600160a01b900460ff165b90565b600080610a1e88308989604051602001610a039493929190612395565b60405160208183030381529060405280519060200120611b26565b9050600060018285888860405160008152602001604052604051610a4594939291906125e4565b6020604051602081039080840390855afa158015610a67573d6000803e3d6000fd5b5050604051601f1901519150506001600160a01b038116610a9a5760405162461bcd60e51b815260040161046c90612855565b6001600160a01b038a8116911614915050979650505050505050565b610abe61184f565b6001600160a01b0316610acf6113f1565b6001600160a01b031614610af55760405162461bcd60e51b815260040161046c906128fa565b600080546040516001600160a01b03909116907f8be0079c531659141344cd1fd0a4f28419497f9722a3daafe3b4186f6b6457e0908390a3600080546001600160a01b0319169055565b610b4761184f565b6001600160a01b0316610b586113f1565b6001600160a01b031614610b7e5760405162461bcd60e51b815260040161046c906128fa565b6109d3611b57565b610b8e61184f565b6001600160a01b0316610b9f6113f1565b6001600160a01b031614610bc55760405162461bcd60e51b815260040161046c906128fa565b6001600160a01b03811660009081526003602052604090205460ff1615610bfe5760405162461bcd60e51b815260040161046c9061288c565b6001600160a01b03166000908152600360205260409020805460ff19166001179055565b86600081518110610c4357634e487b7160e01b600052603260045260246000fd5b6020908102919091018101516001600160a01b0381166000908152600390925260409091205460ff16610c885760405162461bcd60e51b815260040161046c9061272d565b60026005541415610cab5760405162461bcd60e51b815260040161046c90612a9c565b6002600555610cb86109d5565b15610cd55760405162461bcd60e51b815260040161046c906128c3565b8751600314610cf65760405162461bcd60e51b815260040161046c90612764565b6000610d5789600181518110610d1c57634e487b7160e01b600052603260045260246000fd5b60200260200101518a600281518110610d4557634e487b7160e01b600052603260045260246000fd5b60200260200101518a8a8a8989611585565b90506000807f00000000000000000000000000000000000000000000000000000000000000006001600160a01b0316638322fff26040518163ffffffff1660e01b815260040160206040518083038186803b158015610db557600080fd5b505afa158015610dc9573d6000803e3d6000fd5b505050506040513d601f19601f82011682018060405250810190610ded9190611e86565b6001600160a01b03168b600281518110610e1757634e487b7160e01b600052603260045260246000fd5b60200260200101516001600160a01b03161415610ee6576004548b516001600160a01b039091169063ba560ed9908d90600090610e6457634e487b7160e01b600052603260045260246000fd5b6020026020010151856040518363ffffffff1660e01b8152600401610e8a92919061257a565b602060405180830381600087803b158015610ea457600080fd5b505af1158015610eb8573d6000803e3d6000fd5b505050506040513d601f19601f82011682018060405250810190610edc91906122a3565b9150829050610fc1565b6004548b516001600160a01b03909116906334899be6908d90600090610f1c57634e487b7160e01b600052603260045260246000fd5b60200260200101518d600281518110610f4557634e487b7160e01b600052603260045260246000fd5b6020026020010151866040518463ffffffff1660e01b8152600401610f6c93929190612468565b602060405180830381600087803b158015610f8657600080fd5b505af1158015610f9a573d6000803e3d6000fd5b505050506040513d601f19601f82011682018060405250810190610fbe91906122a3565b91505b610ffc8b600081518110610fe557634e487b7160e01b600052603260045260246000fd5b6020026020010151610ff5611940565b3085611bb8565b7f00000000000000000000000000000000000000000000000000000000000000006001600160a01b0316638322fff26040518163ffffffff1660e01b815260040160206040518083038186803b15801561105557600080fd5b505afa158015611069573d6000803e3d6000fd5b505050506040513d601f19601f8201168201806040525081019061108d9190611e86565b6001600160a01b03168b6002815181106110b757634e487b7160e01b600052603260045260246000fd5b60200260200101516001600160a01b03161415611163576004548b516001600160a01b0390911690630de43334908d9060009061110457634e487b7160e01b600052603260045260246000fd5b602002602001015184866040518463ffffffff1660e01b815260040161112c939291906125b8565b600060405180830381600087803b15801561114657600080fd5b505af115801561115a573d6000803e3d6000fd5b50505050611270565b6004548b516001600160a01b03909116906380dcc456908d9060009061119957634e487b7160e01b600052603260045260246000fd5b60200260200101518d6002815181106111c257634e487b7160e01b600052603260045260246000fd5b602002602001015185876040518563ffffffff1660e01b81526004016111eb9493929190612551565b600060405180830381600087803b15801561120557600080fd5b505af1158015611219573d6000803e3d6000fd5b505050506112708b60028151811061124157634e487b7160e01b600052603260045260246000fd5b60200260200101517f000000000000000000000000000000000000000000000000000000000000000085611ca8565b60007f00000000000000000000000000000000000000000000000000000000000000006001600160a01b031663d8a856ee838e6001815181106112c357634e487b7160e01b600052603260045260246000fd5b60200260200101518f6002815181106112ec57634e487b7160e01b600052603260045260246000fd5b60200260200101518f8f8f8f8f8f6040518a63ffffffff1660e01b815260040161131d9897969594939291906124f7565b6020604051808303818588803b15801561133657600080fd5b505af115801561134a573d6000803e3d6000fd5b50505050506040513d601f19601f8201168201806040525081019061136f91906122a3565b905061137a81611a30565b807f3c94182e42691c00f0275426da18a89dd2e656a79607eea816d84cac5ba53faf8d6000815181106113bd57634e487b7160e01b600052603260045260246000fd5b6020026020010151858d6040516113d693929190612593565b60405180910390a25050600160055550505050505050505050565b6000546001600160a01b031690565b60025481565b7f000000000000000000000000000000000000000000000000000000000000000081565b61143261184f565b6001600160a01b03166114436113f1565b6001600160a01b0316146114695760405162461bcd60e51b815260040161046c906128fa565b6001600160a01b03811660009081526003602052604090205460ff166114a15760405162461bcd60e51b815260040161046c9061292f565b6001600160a01b03166000908152600360205260409020805460ff19169055565b6114ca61184f565b6001600160a01b03166114db6113f1565b6001600160a01b0316146115015760405162461bcd60e51b815260040161046c906128fa565b60045461151a9082906001600160a01b03166000611ca8565b50565b61152561184f565b6001600160a01b03166115366113f1565b6001600160a01b03161461155c5760405162461bcd60e51b815260040161046c906128fa565b60045461151a9082906001600160a01b0316600019611ca8565b6004546001600160a01b031681565b6000807f00000000000000000000000000000000000000000000000000000000000000006001600160a01b031663116191b66040518163ffffffff1660e01b815260040160206040518083038186803b1580156115e157600080fd5b505afa1580156115f5573d6000803e3d6000fd5b505050506040513d601f19601f820116820180604052508101906116199190611e86565b905060006001600160a01b038216635caca7b48b8b8b8b60ff8c16801561165057634e487b7160e01b600052602160045260246000fd5b8b8b6040518863ffffffff1660e01b8152600401611674979695949392919061248c565b60206040518083038186803b15801561168c57600080fd5b505afa1580156116a0573d6000803e3d6000fd5b505050506040513d601f19601f820116820180604052508101906116c491906122a3565b905060007f00000000000000000000000000000000000000000000000000000000000000006001600160a01b031663a001ecdd6040518163ffffffff1660e01b815260040160206040518083038186803b15801561172157600080fd5b505afa158015611735573d6000803e3d6000fd5b505050506040513d601f19601f8201168201806040525081019061175991906122a3565b905060008261271061176b8285612b3e565b6117759190612b1e565b61177f9190612b06565b9c9b505050505050505050505050565b61179761184f565b6001600160a01b03166117a86113f1565b6001600160a01b0316146117ce5760405162461bcd60e51b815260040161046c906128fa565b6001600160a01b0381166117f45760405162461bcd60e51b815260040161046c906126b0565b600080546040516001600160a01b03808516939216917f8be0079c531659141344cd1fd0a4f28419497f9722a3daafe3b4186f6b6457e091a3600080546001600160a01b0319166001600160a01b0392909216919091179055565b3390565b600080846001600160a01b031663a9059cbb858560405160240161187892919061257a565b6040516020818303038152906040529060e01b6020820180516001600160e01b0383818316178352505050506040516118b19190612311565b6000604051808303816000865af19150503d80600081146118ee576040519150601f19603f3d011682016040523d82523d6000602084013e6118f3565b606091505b509150915081801561191d57508051158061191d57508080602001905181019061191d9190612283565b6119395760405162461bcd60e51b815260040161046c90612a4f565b5050505050565b60003330141561199757600080368080601f0160208091040260200160405190810160405280939291908181526020018383808284376000920191909152505050503601516001600160a01b031691506109e39050565b50336109e3565b604080516000808252602082019092526001600160a01b0384169083906040516119c89190612311565b60006040518083038185875af1925050503d8060008114611a05576040519150601f19603f3d011682016040523d82523d6000602084013e611a0a565b606091505b5050905080611a2b5760405162461bcd60e51b815260040161046c906127f8565b505050565b7f00000000000000000000000000000000000000000000000000000000000000006001600160a01b03166323b872dd30611a68611940565b846040518463ffffffff1660e01b8152600401611a8793929190612468565b600060405180830381600087803b158015611aa157600080fd5b505af1158015611939573d6000803e3d6000fd5b611abd6109d5565b611ad95760405162461bcd60e51b815260040161046c90612642565b6000805460ff60a01b191690557f5db9ee0a495bf2e6ff9c91a7834c1ba4fdd244a5e8aa4e537bd38aeae4b073aa611b0f61184f565b604051611b1c91906123db565b60405180910390a1565b600081604051602001611b399190612364565b6040516020818303038152906040528051906020012090505b919050565b611b5f6109d5565b15611b7c5760405162461bcd60e51b815260040161046c906128c3565b6000805460ff60a01b1916600160a01b1790557f62e78cea01bee320cd4e420270b5ea74000d11b0c9f74754ebdbfc544b05a258611b0f61184f565b600080856001600160a01b03166323b872dd868686604051602401611bdf93929190612468565b6040516020818303038152906040529060e01b6020820180516001600160e01b038381831617835250505050604051611c189190612311565b6000604051808303816000865af19150503d8060008114611c55576040519150601f19603f3d011682016040523d82523d6000602084013e611c5a565b606091505b5091509150818015611c84575080511580611c84575080806020019051810190611c849190612283565b611ca05760405162461bcd60e51b815260040161046c9061279b565b505050505050565b600080846001600160a01b031663095ea7b38585604051602401611ccd92919061257a565b6040516020818303038152906040529060e01b6020820180516001600160e01b038381831617835250505050604051611d069190612311565b6000604051808303816000865af19150503d8060008114611d43576040519150601f19603f3d011682016040523d82523d6000602084013e611d48565b606091505b5091509150818015611d72575080511580611d72575080806020019051810190611d729190612283565b6119395760405162461bcd60e51b815260040161046c906129a7565b60008083601f840112611d9f578182fd5b50813567ffffffffffffffff811115611db6578182fd5b602083019150836020828501011115611dce57600080fd5b9250929050565b600082601f830112611de5578081fd5b813567ffffffffffffffff811115611dff57611dff612bba565b611e12601f8201601f1916602001612adc565b818152846020838601011115611e26578283fd5b816020850160208301379081016020019190915292915050565b803561ffff81168114611b5257600080fd5b803560ff81168114611b5257600080fd5b600060208284031215611e74578081fd5b8135611e7f81612bd0565b9392505050565b600060208284031215611e97578081fd5b8151611e7f81612bd0565b600080600060608486031215611eb6578182fd5b8335611ec181612bd0565b92506020840135611ed181612bd0565b929592945050506040919091013590565b60008060008060808587031215611ef7578081fd5b8435611f0281612bd0565b93506020850135611f1281612bd0565b925060408501359150606085013567ffffffffffffffff811115611f34578182fd5b611f4087828801611dd5565b91505092959194509250565b600080600080600080600060c0888a031215611f66578283fd5b8735611f7181612bd0565b96506020880135611f8181612bd0565b955060408801359450611f9660608901611e40565b9350611fa460808901611e52565b925060a088013567ffffffffffffffff811115611fbf578283fd5b611fcb8a828b01611d8e565b989b979a50959850939692959293505050565b60008060008060008060008060e0898b031215611ff9578081fd5b883561200481612bd0565b9750602089013561201481612bd0565b96506040890135955061202960608a01611e40565b945061203760808a01611e52565b935060a0890135925060c089013567ffffffffffffffff811115612059578182fd5b6120658b828c01611d8e565b999c989b5096995094979396929594505050565b600080600080600060a08688031215612090578081fd5b853561209b81612bd0565b9450602086013567ffffffffffffffff8111156120b6578182fd5b6120c288828901611dd5565b94505060408601359250606086013591506120df60808701611e52565b90509295509295909350565b600080600080600080600060e0888a031215612105578081fd5b873561211081612bd0565b96506020880135955060408801359450606088013567ffffffffffffffff811115612139578182fd5b6121458a828b01611dd5565b9450506080880135925060a0880135915061216260c08901611e52565b905092959891949750929550565b600080600080600080600060c0888a03121561218a578081fd5b67ffffffffffffffff80893511156121a0578182fd5b883589018a601f8201126121b2578283fd5b8035828111156121c4576121c4612bba565b602081026121d460208201612adc565b80838252602082019150602085018f60208588010111156121f3578788fd5b8795505b84861015612220576122098135612bd0565b8035835260019590950194602092830192016121f7565b509b5050505060208a0135975061223b905060408a01611e40565b955061224960608a01611e52565b94506080890135935060a089013581811115612263578283fd5b61226f8b828c01611d8e565b999c989b5096995094979396939450505050565b600060208284031215612294578081fd5b81518015158114611e7f578182fd5b6000602082840312156122b4578081fd5b5051919050565b60008284528282602086013780602084860101526020601f19601f85011685010190509392505050565b600081518084526122fd816020860160208601612b74565b601f01601f19169290920160200192915050565b60008251612323818460208701612b74565b9190910192915050565b6000835161233f818460208801612b74565b60609390931b6bffffffffffffffffffffffff19169190920190815260140192915050565b7f19457468657265756d205369676e6564204d6573736167653a0a3332000000008152601c810191909152603c0190565b60008582526bffffffffffffffffffffffff198560601b16602083015283603483015282516123cb816054850160208701612b74565b9190910160540195945050505050565b6001600160a01b0391909116815260200190565b6001600160a01b0392831681529116602082015260400190565b60006001600160a01b0380861683528085166020840152506060604083015261243560608301846122e5565b95945050505050565b6001600160a01b039485168152928416602084015292166040820152606081019190915260800190565b6001600160a01b039384168152919092166020820152604081019190915260600190565b6001600160a01b038881168252871660208201526040810186905261ffff851660608201526000600185106124cf57634e487b7160e01b81526021600452602481fd5b84608083015260c060a08301526124ea60c0830184866122bb565b9998505050505050505050565b60006001600160a01b03808b168352808a1660208401525087604083015261ffff8716606083015260ff861660808301528460a083015260e060c083015261254360e0830184866122bb565b9a9950505050505050505050565b6001600160a01b0394851681529290931660208301526040820152606081019190915260800190565b6001600160a01b03929092168252602082015260400190565b6001600160a01b03939093168352602083019190915261ffff16604082015260600190565b6001600160a01b039390931683526020830191909152604082015260600190565b901515815260200190565b93845260ff9290921660208401526040830152606082015260800190565b7fffffffff0000000000000000000000000000000000000000000000000000000091909116815260200190565b600060208252611e7f60208301846122e5565b60208082526014908201527f5061757361626c653a206e6f7420706175736564000000000000000000000000604082015260600190565b60208082526011908201527f53686f756c642070617920696e20455448000000000000000000000000000000604082015260600190565b60208082526026908201527f4f776e61626c653a206e6577206f776e657220697320746865207a65726f206160408201526564647265737360d01b606082015260800190565b6020808252601c908201527f46756e6374696f6e2063616c6c206e6f74207375636365737366756c00000000604082015260600190565b60208082526011908201527f4e6f7420616c6c6f77656420746f6b656e000000000000000000000000000000604082015260600190565b6020808252601f908201527f41737365747320706172616d206c656e6774682073686f756c64206265203300604082015260600190565b60208082526031908201527f5472616e7366657248656c7065723a3a7472616e7366657246726f6d3a20747260408201527f616e7366657246726f6d206661696c6564000000000000000000000000000000606082015260800190565b60208082526034908201527f5472616e7366657248656c7065723a3a736166655472616e736665724554483a60408201527f20455448207472616e73666572206661696c6564000000000000000000000000606082015260800190565b60208082526011908201527f496e76616c6964207369676e6174757265000000000000000000000000000000604082015260600190565b60208082526011908201527f416c726561647920617661696c61626c65000000000000000000000000000000604082015260600190565b60208082526010908201527f5061757361626c653a2070617573656400000000000000000000000000000000604082015260600190565b6020808252818101527f4f776e61626c653a2063616c6c6572206973206e6f7420746865206f776e6572604082015260600190565b60208082526011908201527f4e6f7420617661696c61626c6520796574000000000000000000000000000000604082015260600190565b60208082526021908201527f5369676e657220616e64207369676e617475726520646f206e6f74206d6174636040820152600d60fb1b606082015260800190565b6020808252602b908201527f5472616e7366657248656c7065723a3a73616665417070726f76653a2061707060408201526a1c9bdd994819985a5b195960aa1b606082015260800190565b60208082526013908201527f496e73756666696369656e7420616d6f756e7400000000000000000000000000604082015260600190565b6020808252600c908201526b5a45524f204164647265737360a01b604082015260600190565b6020808252602d908201527f5472616e7366657248656c7065723a3a736166655472616e736665723a20747260408201526c185b9cd9995c8819985a5b1959609a1b606082015260800190565b6020808252601f908201527f5265656e7472616e637947756172643a207265656e7472616e742063616c6c00604082015260600190565b90815260200190565b60405181810167ffffffffffffffff81118282101715612afe57612afe612bba565b604052919050565b60008219821115612b1957612b19612ba4565b500190565b600082612b3957634e487b7160e01b81526012600452602481fd5b500490565b6000816000190483118215151615612b5857612b58612ba4565b500290565b600082821015612b6f57612b6f612ba4565b500390565b60005b83811015612b8f578181015183820152602001612b77565b83811115612b9e576000848401525b50505050565b634e487b7160e01b600052601160045260246000fd5b634e487b7160e01b600052604160045260246000fd5b6001600160a01b038116811461151a57600080fdfea2646970667358221220654c415feda72c7419001b7fdf7e5696b75cf0b6d037e7b67075e3c625a211a464736f6c63430008000033",
  "devdoc": {
    "kind": "dev",
    "methods": {
      "buyCoverByETH(address,address,uint256,uint16,uint8,uint256,bytes)": {
        "details": "User will buy product directly using his ETH"
      },
      "executeMetaTransaction(address,bytes,bytes32,bytes32,uint8)": {
        "params": {
          "functionSignature": "Signature of the actual function to be called via meta transaction",
          "sigR": "R part of the signature",
          "sigS": "S part of the signature",
          "sigV": "V part of the signature",
          "userAddress": "Address of user trying to do meta transaction"
        }
      },
      "getProductPrice(address,address,uint256,uint16,uint8,bytes)": {
        "details": "return maxPriceWithFee value"
      },
      "onERC721Received(address,address,uint256,bytes)": {
        "details": "See {IERC721Receiver-onERC721Received}. Always returns `IERC721Receiver.onERC721Received.selector`."
      },
      "owner()": {
        "details": "Returns the address of the current owner."
      },
      "paused()": {
        "details": "Returns true if the contract is paused, and false otherwise."
      },
      "renounceOwnership()": {
        "details": "Leaves the contract without owner. It will not be possible to call `onlyOwner` functions anymore. Can only be called by the current owner. NOTE: Renouncing ownership will leave the contract without an owner, thereby removing any functionality that is only available to the owner."
      },
      "transferOwnership(address)": {
        "details": "Transfers ownership of the contract to a new account (`newOwner`). Can only be called by the current owner."
      },
      "withdrawAsset(address,address,uint256)": {
        "details": "For reflect tokens, we should deposit some tokens at contract directly, We will withdraw tokens deposited at contract through this function"
      }
    },
    "version": 1
  },
  "userdoc": {
    "kind": "user",
    "methods": {
      "executeMetaTransaction(address,bytes,bytes32,bytes32,uint8)": {
        "notice": "Main function to be called when user wants to execute meta transaction. The actual function to be called should be passed as param with name functionSignature Here the basic signature recovery is being used. Signature is expected to be generated using personal_sign method."
      },
      "setAllowanceExchangeAgent(address)": {
        "notice": "We would allow ExchangeAgent to consume _token in advance to save gas fee"
      }
    },
    "version": 1
  },
  "storageLayout": {
    "storage": [
      {
        "astId": 7,
        "contract": "contracts/onchain/NexusMutualCover.sol:NexusMutualCover",
        "label": "_owner",
        "offset": 0,
        "slot": "0",
        "type": "t_address"
      },
      {
        "astId": 127,
        "contract": "contracts/onchain/NexusMutualCover.sol:NexusMutualCover",
        "label": "_paused",
        "offset": 20,
        "slot": "0",
        "type": "t_bool"
      },
      {
        "astId": 2107,
        "contract": "contracts/onchain/NexusMutualCover.sol:NexusMutualCover",
        "label": "nonces",
        "offset": 0,
        "slot": "1",
        "type": "t_mapping(t_address,t_uint256)"
      },
      {
        "astId": 4127,
        "contract": "contracts/onchain/NexusMutualCover.sol:NexusMutualCover",
        "label": "productIds",
        "offset": 0,
        "slot": "2",
        "type": "t_struct(Counter)1041_storage"
      },
      {
        "astId": 4131,
        "contract": "contracts/onchain/NexusMutualCover.sol:NexusMutualCover",
        "label": "availableCurrencies",
        "offset": 0,
        "slot": "3",
        "type": "t_mapping(t_address,t_bool)"
      },
      {
        "astId": 4133,
        "contract": "contracts/onchain/NexusMutualCover.sol:NexusMutualCover",
        "label": "exchangeAgent",
        "offset": 0,
        "slot": "4",
        "type": "t_address"
      },
      {
        "astId": 212,
        "contract": "contracts/onchain/NexusMutualCover.sol:NexusMutualCover",
        "label": "_status",
        "offset": 0,
        "slot": "5",
        "type": "t_uint256"
      }
    ],
    "types": {
      "t_address": {
        "encoding": "inplace",
        "label": "address",
        "numberOfBytes": "20"
      },
      "t_bool": {
        "encoding": "inplace",
        "label": "bool",
        "numberOfBytes": "1"
      },
      "t_mapping(t_address,t_bool)": {
        "encoding": "mapping",
        "key": "t_address",
        "label": "mapping(address => bool)",
        "numberOfBytes": "32",
        "value": "t_bool"
      },
      "t_mapping(t_address,t_uint256)": {
        "encoding": "mapping",
        "key": "t_address",
        "label": "mapping(address => uint256)",
        "numberOfBytes": "32",
        "value": "t_uint256"
      },
      "t_struct(Counter)1041_storage": {
        "encoding": "inplace",
        "label": "struct Counters.Counter",
        "members": [
          {
            "astId": 1040,
            "contract": "contracts/onchain/NexusMutualCover.sol:NexusMutualCover",
            "label": "_value",
            "offset": 0,
            "slot": "0",
            "type": "t_uint256"
          }
        ],
        "numberOfBytes": "32"
      },
      "t_uint256": {
        "encoding": "inplace",
        "label": "uint256",
        "numberOfBytes": "32"
      }
    }
  }
}